:020000022000DC
:1060000000000120756302005D63020011080300B7
:106010006163020063630200656302000000000028
:106020000000000000000000000000009DF80200D9
:106030006963020000000000BDF802006D63020009
:10604000419202006F63020001980200419E02002B
:10605000D59A02006F630200899602006F63020006
:106060006F6302006F6302006F6302006F630200E0
:106070006F6302006F6302006F6302006F630200D0
:1060800091A0020011FA02006F6302006F63020028
:106090006F6302006F63020025E102006F6302007C
:1060A0006F6302006F6302006F6302006F630200A0
:1060B0006F6302006F630200000000000000000038
:1060C0006F6302006F6302006F630200E59A0200D3
:1060D0008D9902006F6302006F63020000000000F0
:1060E00000000000000000000000000000000000B0
:1060F00000000000000000000000000000000000A0
:10610000000000000000000000000000000000008F
:10611000000000000000000000000000000000007F
:10612000000000000000000000000000000000006F
:10613000000000000000000000000000000000005F
:10614000000000000000000000000000000000004F
:10615000000000000000000000000000000000003F
:10616000000000000000000000000000000000002F
:10617000000000000000000000000000000000001F
:10618000000000000000000000000000000000000F
:1061900000000000000000000000000000000000FF
:1061A00000000000000000000000000000000000EF
:1061B00000000000000000000000000000000000DF
:1061C00000000000000000000000000000000000CF
:1061D00000000000000000000000000000000000BF
:1061E00000000000000000000000000000000000AF
:1061F000000000000000000000000000000000009F
:10620000354936480A1A02D0072291438D4634494F
:1062100034480A1A06D00722914381F309880222E2
:1062200082F3148830483149314A00F044F831484B
:106230003149324A00F03FF831483249324A00F0E1
:106240003AF832483249334A00F035F83248334997
:10625000334A00F030F833483349344A00F02BF821
:1062600033483449344A00F026F83448344900228F
:1062700000F02CF833483449002200F027F8334866
:106280003349091A082902DB002202604160314AC1
:1062900090471F481F49884205D00268043003B464
:1062A000904703BCF7E700208646EC46002000211B
:1062B000294A9047FEE7884207D0521A05D0037852
:1062C00001300B700131013AF9D17047884202D098
:1062D00002700130FAE7704700000120589E00204C
:1062E000000001200000012048B80300AC2A002073
:1062F000C02B0020D4630200D46302007497030013
:1063000048B80300AC2A0020AC2A00200C990300F6
:106310000C9903000C9903000C9903000C990300DD
:106320000C9903000C9903000C99030047B8030073
:106330005CB90300C02B0020C02B0020C02B002024
:106340000C8600200C86002010860020108600207D
:10635000989900209D6302008D080300FEE7FEE788
:10636000FEE7FEE7FEE7FEE7FEE7FEE7FEE7FEE705
:10637000704700BF1048804710484FF0070188431E
:1063800085460F4880470F48016841F4700101605D
:10639000BFF34F8FBFF36F8FFFF732BF0A480B4930
:1063A0000B4A884207D0521A05D0037801300B708F
:1063B0000131013AF9D170477163020000000120F8
:1063C000BD8D020088ED00E0F8980300982A0020B7
:0463D000AC2A0020D3
:1063D40000487047048600207047000007B5054B4D
:1063E4000093054A4FF4006300F031F803B05DF800
:1063F40004FB00BF01640200C12B00202DE9F84317
:1064040088461446B2B10F4B0F4E0325002743F0C4
:106414000109224608EB0701002004F021F8074493
:10642400241A48B933782BB14FF47A40C847013D58
:1064340002D13570BDE8F88301233370002CE8D114
:10644400F8E700BF10990300C02B00207047F0B597
:1064540095B01D46164608460C4602F0A1FA1A9B52
:106464000D93CDE9086500252B46082205A9204691
:106474000A958DF82C500C9502F0AEFA079B029306
:10648400069B03939DF814308DF8115003F003021A
:10649400012A1DD1BDF81420059DC3F3C203C2F324
:1064A40083168DF81030B20008230EA9204602F09E
:1064B40093FAC5F3952508AB0093324602AB0EA9B7
:1064C400284600F045FB204602F06EFA15B0F0BDF8
:1064D400022AF8D1BDF81650C3F3C203C5F38915D7
:1064E4008DF810300827082D2E4628BF08263B4675
:1064F40032460EA9204602F06FFAAD1B08AB02AA81
:1065040031460EA8374400F087FB002DEBD1DAE7C3
:10651400037813F0040216D003F00303012B03D015
:10652400022B09D0012070470A6800880232C0F3A8
:10653400831002440A60F5E70B684288023303EBD8
:1065440092130B60EEE71046704700002DE9F04F00
:10655400DFF830A187B00F4600230446861C0DF1F6
:10656400070015468DF8073000F052FCDAF80010E9
:106574003960DAE90132134401335B1A0AF21C4729
:106584000AF583690AF21448B3421CD30020002D93
:1065940073D004F00F039B0143F0050363F30F0072
:1065A400DAF80020DAF808301340033332444AF8AA
:1065B40023009DF80700CAF8002000F04DFC0120DC
:1065C40007B0BDE8F08F0121384601F05CFC484675
:1065D40001F074FC404601F071FCDAF80400DAF8CA
:1065E40008B0029000EA0B0003300AEB800002A915
:1065F400FFF78EFF029B50BB0BEA03020AEB8202F9
:1066040003F1020CD2680392013303EA0B0B0AEB89
:106614008B0B02F00302012ADBF80C10CDF808C042
:1066240023D0022A16D08346404601F04AFC10B11A
:10663400029BCAF804305946384601F024FCDAE9D2
:1066440001231344DAF8002001339B1A9CE70BEA78
:106654000300C9E7BDF80E30C3F3891303334FEACF
:10666400114B0CEB93030293DEE7BDF80C30C3F33C
:1066740083134FEA114B6344F5E7A40544F0060085
:106684008EE700BF943400200B4B0C48FF2210B55A
:106694009A600022C3F81824C3E90022C3F8142422
:1066A40083F8202402F035F9044610B9044802F0B6
:1066B400B3F9204610BD00BF94340020FC970300BA
:1066C4004C99030030B50A4C71B10A4A0A49121BAD
:1066D400D20800239A4201D1002030BD31F8235062
:1066E400854202D00133F5E7034654F83300F4E75A
:1066F40010980300E8980300AC2A0020094B0139E4
:1067040003EBC000032909D8DFE801F00A020406FC
:106714000420704700797047407970470020704723
:106724000220704710980300034BD3E90030C31ACA
:1067340058425841704700BF943400202DE9F0437B
:1067440087B0FFF7F1FF0646002840F0FE80804C3A
:10675400C4F81804BFF34F8F6368A56802932B40F5
:10676400033304EB830002A9FFF7D2FE029B18B1A6
:10677400D4F81824002A62D005EA0302991C0133D4
:1067840004EB82022B4004EB8303D268DB6804939E
:1067940002F00303022B0392029163D1BDF80E3081
:1067A4006C48C3F38917502FB84628BF4FF05008E0
:1067B40008F1080168F38F13C1F30901ADF80E3035
:1067C40002F0BFF80646002800F0AA8002F0E8F8BC
:1067D4000023082203A9304602F0F4F8029925EABE
:1067E40001020132B8EB820F4FEA820333D95FFA18
:1067F40088F863B32940DDB2A8EB050803315FFADA
:1068040088F9A846544D04EB8101082342463046DA
:1068140002F0D8F83DB108F10803DBB24A46294634
:10682400304602F0CFF8029B033703EB9707029739
:10683400D4F81834002B4BD1D4F810545BE0226800
:1068440093428CD36260304607B0BDE8F08342497E
:106854001D469946D9E7294003310823424604EBF3
:106864008101DDE7012B5BD1BDF80C303948C3F35E
:106874008311062928BF062161F38913023101F02F
:106884000F018900ADF80C3002F05BF806460028D1
:1068940046D002F085F80023082203A9304602F00E
:1068A40091F80027BDF80C20C2F38312BB00974275
:1068B40003F10803BCD202994A1C29400331029215
:1068C40004EB81010422304602F07CF80137E9E749
:1068D400304602F069F8FFF727FF80F00100C6B2E6
:1068E400B1E7EB685B7923B12B6831461B68284616
:1068F4009847EB681D68002DF3D1304602F054F838
:106904000DF107008DF8075000F082FAD4F818341E
:106914000BB9029B63609DF8070000F09DFADAE76B
:10692400D4F8104454B90D4B0D480E49C01AC00890
:10693400000440F0020000F063F8CCE7236820462E
:106944009B689847E3681C68ECE700267BE700BF78
:1069540094340020FC970300A03400201098030016
:1069640058980300349903002DE9F74F224E04464A
:106974000F46924601A901221846D6F808909B4674
:10698400FFF7E4FD20B3019D4FF00008AA1CD84591
:1069940008EB020126D11948002101F02DFA80F3F9
:1069A4001000000440EA1440E4006B1C04F03804B6
:1069B40003EA090305EA090544F0010406EB83032D
:1069C400033544EA881444EA8724D86046F825400D
:1069D40096F820341BB1FFF7B1FE0028FBD103B0B9
:1069E400BDE8F08F09EA010106EB81015AF828306D
:1069F400CB6008F10108CAE794340020B0380020C5
:106A040000231A46FFF7B0BF07B50123019201AA7C
:106A1400FFF7AAFF03B05DF804FB07B5CDE9002337
:106A240002236A46FFF7A0FF03B05DF804FB1FB51D
:106A3400CDE90123069B039301AA0323FFF794FFE7
:106A440005B05DF804FB7FB5CDE90123089B0393F2
:106A5400099B04930A9B059301AA0523FFF784FF6E
:106A640007B05DF804FB000038B5084B0125D3F8E6
:106A7400104483F8205404B938BDE3685D71236879
:106A840020465B689847E3681C68F4E79434002068
:106A940030B5C38885B004460D4633B1144A00921C
:106AA4001449154A284601F06FFA217A05291DD0A8
:106AB400637A4BB1A088FFF721FE104B104953F8BD
:106AC4002020284601F060FA227A0E4BA08853F861
:106AD400222003920021FFF7F5FD039A0A49034699
:106AE400284605B0BDE8304001F04EBA05B030BDCF
:106AF400789903006099030058990300EC99030006
:106B04007D990300109A03008099030007B503469A
:106B14000846197A052911D05B7A2BB1094A0A492A
:106B2400019001F031FA01980849019001F02CFA22
:106B3400019803B05DF804EB01F01BBA002AF8D009
:106B4400F2E700BF789903007D9903006EB003005B
:106B54002DE9F04385B01F460C9D002395F80C9059
:106B64002B7306460C46904629463846FFF790FF9D
:106B7400B8F1060F09D8DFE808F00412181F28330B
:106B840040003146284601F0FFF9002229463846E4
:106B9400FFF7BCFF85F80C9005B0BDE8F0832268D0
:106BA4003146284601F0F0F9EFE7D4E900233146F5
:106BB400284601F0E9F9E8E7A36800933146D4E9EF
:106BC4000023284601F0E0F9DFE7E3680193A368B6
:106BD40000933146D4E90023284601F0D5F9D4E7DF
:106BE40023690293E3680193A36800933146D4E9CF
:106BF4000023284601F0C8F9C7E7636903932369B2
:106C04000293E3680193A36800933146D4E9002317
:106C1400284601F0B9F9B8E708292DE9F74F80466D
:106C24000E4617461C4639D8002593F80C901D7360
:106C340019461046FFF72CFFDFF880A0DFF880B07C
:106C4400AE422ED918F805205946204601F09CF989
:106C54000135082DF4D11849DFF868A0DFF868B0D1
:106C6400204601F091F90025AE421FD918F80520FD
:106C74000192104611F096F80028019A594608BF6F
:106C84002E22204601F080F90135082DECD1012295
:106C940021463846FFF73AFF84F80C9003B0BDE86C
:106CA400F08F5146204601F06FF9D1E75146204656
:106CB40001F06AF9E8E700BF949903009099030092
:106CC4008A990300929903009699030082B00123E4
:106CD4008DF807309DF80730114B1860596044F265
:106CE400010188429A6012D044F20201884206D11E
:106CF400DA60DA6812889A61DA685268DA6172B620
:106D04009DF80730002BFBD162B602B070471A61C0
:106D14001A6992685A611A6912689A611A69ECE7E9
:106D2400D03C002000B583B002900091019244F25F
:106D3400010071466A4600F003F803B000BD00008C
:106D4400F0B5064687B00F46154672B6FFF78CFEBF
:106D5400FFF7F4FC0028FBD1244B254CE41AE4088B
:106D640044F2010324049E4244F001042BD00BD8C6
:106D7400012E14D041F201039E4222D01D493A460D
:106D84002046FFF741FE0EE044F202039E42F5D195
:106D94002B886A6818492046FFF73FFE03E017492D
:106DA4002046FFF72DFE164BD3F8F030DB0700D555
:106DB40000BE2A463946304607B0BDE8F040FFF72A
:106DC40085BF1049ECE7AA680592104601F062FEFF
:106DD4002968029701916968009103460A49059A56
:106DE4002046FFF730FE0949DAE700BF1098030098
:106DF40058980300B79A0300639A0300249A030087
:106E040000ED00E0419A03007D9A0300A39A030079
:106E140070B5EFF3108672B60C4A946801239CB9DE
:106E240093600B4B0B4DD3F8801029401160C3F8CD
:106E34008050D3F8841051604FF0FF32C3F884209F
:106E4400047006B962B670BD0370FAE7F03C002026
:106E540000E100E0FC06FFBD084B9A6810B55AB18A
:106E640050B9EFF3108172B6054A1C6814605C686F
:106E74005460986001B962B610BD00BFF03C0020B8
:106E840000E100E070B5064D0646002455F8043BC9
:106E94000BB1304698470134042CF7D170BD00BFC4
:106EA400083D00204388033300EB8303994209D350
:106EB40082884FF6FF739A4206D00088B0FA80F0B9
:106EC400400970470220704701207047033080B2A8
:106ED40040F2FD33984230B51FD8124B1A783AB9B4
:106EE4001C895D892C440444A4B2B4F5806F0AD390
:106EF4001A7DA2B99A8BDC8B2244024492B2B2F579
:106F0400806F0CD201220A801446142202FB04333F
:106F14005A8910445881002030BD0920FCE707201D
:106F2400FAE700BF3C3D00200B4A0C49538814206B
:106F340000FB0311CB6833B90420496810700122A7
:106F4400074801F0AFBA07490523137002238B8069
:106F5400012209680023F3E7203D00203C3D002086
:106F6400982A0020043E002007B500230549009319
:106F7400054A09680548082301F0FAF903B05DF8E9
:106F840004FB00BF043E0020DC9A0300982A002082
:106F940007B5002301460093034A0448082301F07F
:106FA400E7F903B05DF804FBD49A0300982A0020A3
:106FB40013B500230C4600930146084A08480423ED
:106FC40001F0D6F938B9074B142101FB0431012330
:106FD4000B7402B010BD0E20FBE700BFD09A030073
:106FE400982A00203C3D002037B50A480A4B4268E5
:106FF4009C88196853880325033305709BB20020CD
:1070040000909B0001EB8401044801F0B1F903B046
:1070140030BD00BF203D0020043E0020982A0020FF
:1070240010B50146044800F01BFE1C220446002152
:1070340010F0FFFF204610BDF03D002068B102684B
:10704400084B9A4209D14068074B984207D0013354
:10705400984214BF0320012070470320704700208A
:10706400704700BFDEC0ADDEFE011EF12DE9F04128
:107074000D460223154F2B80164600F5805100F172
:1070840008044FF001088C420ED2236801330BD060
:107094002046FFF707FF48B10EB186F800800228AA
:1070A40009D14FF480632B80BDE8F081A3683A686E
:1070B400934200D93B602B886288033313442B80AE
:1070C4006388033304EB8304DDE700BF343D002011
:1070D40038B5144B14220D4602FB00302B6844686B
:1070E40004F58051A3B15C88033403EB84048C421F
:1070F40015D22368013312D02046FFF7D3FE0128AE
:1071040008D002280BD00028F1D12C60012038BD12
:107114000834ECE76388033304EB8304E7E70020D7
:10712400F5E700BF3C3D0020426873B504460D46B8
:1071340062B3234BD9688A4228D31B699A4225D863
:1071440012F0030322D11F490089098988421DD105
:1071540020689168884219D11B4841688A4203D942
:1071640001F580518A420DD381698A420CD901F517
:1071740080518A4208D201222A80B3FA83F040095E
:1071840002B070BD1A46F7E70A23F6E700262E8000
:107194000196288801A9FFF79BFF30B92B8801339A
:1071A4009BB2012B2B80F3D9EAE7019B22689968F3
:1071B4009142EED16360034B1B892381E0E700BF5A
:1071C400982A0020203D00203C3D00202DE9F84372
:1071D4001C461C4B1B7806460F4615466BB372B310
:1071E4006CB3DFF868804FF01409A388012B01D930
:1071F4000A2020E009FB03F318F803302BB9A08818
:107204002146FFF765FF20B92060A3880133A380DE
:10721400EBE723681EB1998832889142EFD11FB100
:1072240019883A889142EAD19A68C5E90023064B45
:107234001B892B810020BDE8F8830220FBE7052091
:10724400F9E700BF183D0020203D00203C3D002010
:1072540008B5074B5888191DFFF73AFF18B1BDE868
:107264000840FFF7C1BEBDE80840FFF75DBE00BFA0
:10727400203D00202DE9F0479F4FDFF8A08288B021
:1072840006463B6823B99D48414600F023FD38601B
:107294003D6829784B1E052B07D8DFE813F01F0043
:1072A40077007700070107015B010F2414220021F6
:1072B40003A810F0BEFE41F61D539C4208BF0024F3
:1072C4003B6804941A78023A042A00F2F981DFE850
:1072D40012F0DA01E60108021002170226B1884B07
:1072E40000225A600124E1E72B79032B1CD8DFE844
:1072F40003F014022934834A1378022B19D0137D26
:10730400022B4FF0010316D114214B43D118002056
:10731400D0544868FFF73CFE03E001232B71FFF7CC
:1073240023FE002800F0BD80754B00225A600E2415
:10733400BCE70023E8E7724A13700023536041F668
:107344001D54B3E770497148002302222B718A80CF
:107354000968012201F0A6F8E3E76B4C00262E71C0
:107364002068FFF715FE6A4BDFF898C15B88256833
:10737400142253430CEB03020CF80360516855606C
:10738400A588158102222160A280CAE7B5F814A05D
:10739400AA7DDFF87091AEB1022AEB8806D91421D8
:1073A40001FB0A91DA1C088902440A81142202FBB7
:1073B4000A99C3F57F43B9F80A20FD331344A9F8A9
:1073C4000A308FE7142303FB0A9318895C6804EBE3
:1073D4008004062A68D8DFE802F0274D35431D599A
:1073E400040041F61D54AA7DEB88022A06D9142113
:1073F40001FB0A91DA1C088902440A81142202FB67
:107404000A99C3F57F43B9F80A20FD331344A9F858
:107414000A304BE73F48404900234360AB690360AF
:10742400FFF782FE002859D00223AB750023009396
:107434000423EA182146354800F09AFF002830D08A
:107444000E24D0E72B69002B14BF03230123AB7553
:107454000023009305F10C02042304F10801EAE778
:107464000123AB750022EB8800922A699B0004F18A
:107474000C01E0E703290CBF05230623AB750023A9
:107484000093042305F10802E118D4E70623AB7541
:10749400214B19881F4B5868FFF78AFD04460028C2
:1074A400A1D108B0BDE8F0870F249CE7002E7FF43B
:1074B40019AF2B79012B33D0022B3FF440AF002BB3
:1074C4007FF4F3AE02232B710DF10A01EB680393F1
:1074D40003A8CDE90466FFF727FE08B90A24E5E608
:1074E4000498BDF80A108388EB8003882B81FFF78A
:1074F4005FFD044627E000BF383D0020F03D00203A
:10750400183D00203C3D0020043E0020982A002025
:10751400203D0020FC3C0020103E0020303D002097
:10752400DFF8F89103AA4B463146A81DFFF74EFE3B
:10753400044660B9B9F804100498FFF739FD04460D
:107544000A2C3FF4FCAE002C7FF4B0AEA9E7C9E9E5
:107554000066F5E7002E7FF4C5AE6B4B1A7BBAB11B
:107564001E731A78013A062A3FF69FAE01A151F81C
:1075740022F000BF1F760200457602006376020007
:1075840069760200AF7202006F7602008176020013
:107594001A78072AE5D801A151F822F0C175020032
:1075A4006775020067750200E7750200FB7502004B
:1075B4001B7602001B760200E37502001A89534908
:1075C40001321A8100225A801A730A78B2FA82F2BE
:1075D40052099A720A7DB2FA82F25209DA720122CF
:1075E40007E04B4958688A884088033202448A80FD
:1075F40002221A70B5E75C88444A4549142505FB04
:1076040004220868546850608888108102228A80A5
:107614000C600622EDE70722EBE79A7A32B9DA7AB0
:107624008AB900221A705A805A6088E637490022C3
:107634009A72CA68002AF2D1097C0029EFD05A80D4
:10764400FFF706FE55E70022DA72304A116A002974
:10765400E7D192F82420002AE3D00122EFE7FFF7D4
:10766400C3FC46E7FFF760FC43E75A88274B142125
:1076740001FB02335868FFF78BFC3AE700225A609B
:10768400FFF772FC35E701228DF80C201A89ADF85A
:1076940018209A88DB68ADF81A20059310E00222BE
:1076A4008DF80C201A89ADF818209A88ADF81A20A4
:1076B400DA689B7D05929A1F534253418DF81C3022
:1076C40003A8FFF7DFFB0026414612483E6000F0A6
:1076D4002CFB1148012100F0E2FB00287FF4D1AD1E
:1076E400DFE603228DF80C20DA88ADF818201A8919
:1076F400D0E704228DF80C20DB88ADF81830DFE7E2
:1077040005238DF80C30DBE7203D00203C3D0020B4
:10771400043E0020F03D0020003E0020143E0020E6
:107724004068FFF7A7BD000008B50548012100F037
:107734009EFB18B9BDE80840FFF79CBD08BD00BF1B
:10774400003E00202DE9F3419846354B1B78064650
:107754000D46002B5BD000295BD009884FF6FF73E0
:10776400994258D06B88002B55D06B689B0754D135
:107774004AB92F890DF102013846FFF7A7FB30B152
:1077840002B0BDE8F08113885788ADF8023001A833
:10779400FFF746FC044658B9BDF80220214B1421DA
:1077A40001FB023358890338C01B58810820E7E7DE
:1077B40080F8008000238375BDF8023083826B68F3
:1077C40003610121184800F05EFB2B882381B8F186
:1077D400030F6B88A38004BF0423A3754FF0000537
:1077E40008BF3368E06008BFA3611048E780658183
:1077F40001A900F05FFA36B1E36833600C4B7560A1
:107804001B89B5723381FFF78FFF0020B8E7022090
:10781400B6E70520B4E70420B2E70320B0E700BFD1
:10782400183D00203C3D0020343D0020F03D002068
:10783400203D002008B5034607480268042A08D002
:107844000168064A42F82130012100F01CFB0020A7
:1078540008BD0C20FCE700BF0C3E0020083D0020C2
:107864002DE9F04F89B01422002103A810F0E1FBA8
:10787400724B1B7803F0FF0201923BB103A8FFF7A0
:1078840001FB0026304609B0BDE8F08F6B4B181D94
:1078940000F011FB0028F4D14FF010234FF0805278
:1078A4005B6911695269DFF8ACB1581C08BF02FB6F
:1078B40001F3CBF810306249A3F540530022584637
:1078C400CBF80C3000F022FD06460028DAD11C2348
:1078D4005C495D48DFF880A1DFF880818C2200F0EC
:1078E4008AF90323B146354600933446DBF80C701D
:1078F4004F443846FFF7A2FB012839464AD00328F3
:1079040015D0002835D11421614308EB010208F891
:107914000100576001F110020831424441443846E5
:10792400FFF7A4FB45F002050134A4B221E007F5FA
:1079340080520868013074D104319142F9D1DAF8E7
:1079440000203AB902220123CAF80070AAF80420E0
:1079540001930CE014226243022008EB020108F8B0
:1079640002003A4A4F60548001340881A4B245F0C1
:10797400010509F58059B9F5405FB7D1009B012B8A
:1079840098BF0025EDB2022D02D0062D20D045BBB4
:107994000B2677E7019B63B11422624308EB0201D3
:1079A400022008F802000134DAF800204A60088155
:1079B400A4B200222649CAF800703846FFF756FBE5
:1079C400BAF80420022A0CBF042208221543D0E787
:1079D4001A4A0123137003A800235360FFF752FAD5
:1079E40050E702A8FFF71CFBC8B10123013D037057
:1079F4000A2D09D8DFE805F0060806080708070875
:107A04000F110F000023037102A90F4800F052F96F
:107A1400FFF78AFE36E70323F5E70223F3E7082698
:107A240030E7009B5A1E93B21422624308EB020112
:107A340000934F60032108F8021075E7183D0020F9
:107A4400D09C0300643D0020F03D0020203D002038
:107A5400083E0020982A0020043E00203C3D0020DF
:107A640073B50D460446C8B1C1B10DF10601FFF767
:107A74005BFBA8B1BDF806300A486668142202FB15
:107A8400030001210C3000F0FEF963682E600C3312
:107A94006B600123A372002002B070BD0520FBE7D8
:107AA4000A20F9E73C3D002013B50446A8B10DF1C6
:107AB4000601FFF739FB90B1BDF806200A4B1421EB
:107AC40001FB0233DA6862B1A27A52B1DA680020AB
:107AD400013ADA60A07202B010BD0520FBE70A206B
:107AE400F9E70620F7E700BF3C3D0020022300220F
:107AF400FFF728BE18B103230022FFF723BE052099
:107B040070470000104B1B7813B50446ABB14FF619
:107B1400FF73984213D001A8FFF782FA88B10523B6
:107B2400037001230371C48001A9084800F0C2F85E
:107B3400FFF7FAFD002002B010BD0220FBE704208D
:107B4400F9E70820F7E700BF183D0020F03D0020CA
:107B54000E4B1B7807B5A3B101A8FFF761FA90B1EA
:107B64000623037001A90A4800F0A4F8094B1A7807
:107B74000AB101221A73FFF7D7FD002003B05DF8A4
:107B840004FB0220FAE70820F8E700BF183D0020B4
:107B9400F03D0020203D002007B5ADF80600ADF80B
:107BA40004100DF1060001A9FFF710FB03B05DF806
:107BB40004FB07B51346ADF806000A4600200DF194
:107BC4000601FFF703FB03B05DF804FB07B513469A
:107BD400ADF806000A460DF106000021FFF7F6FA9B
:107BE40003B05DF804FB20B119B103680B600020F9
:107BF40070470520704710B561B1B2FBF3F403FB85
:107C04001424A4B244B9C0E9001484608281C381FD
:107C1400204610BD0E20FCE70920FAE782B050E8A8
:107C2400022FC188B2EB324F4FF0000317BF92B25C
:107C340041EA014142EA014104E04268B2EB324FB9
:107C440008BF012340E80212002AE8D18DF807306A
:107C54009DF80730002B0CBF1120002002B07047A4
:107C640037B550E8013F9DB2C48925448489A542B3
:107C740028BF2D1B0489A54202BFBFF32F8F00220A
:107C840007E0C5EA030540E80154002CE9D14FF0B0
:107C940001028DF803200193019A0A609DF80310F4
:107CA40001F0FF0321B1006810FA82F003B030BD87
:107CB4001846FBE70A884B889A4209D150E8012FFD
:107CC400C2EA024240E80123002BF7D101207047A9
:107CD4000020704737B550E8023F1FFAA3F5C48867
:107CE400A54202BFBFF32F8F00220DE0C4892544B3
:107CF4008489A54228BF2D1BC3EA054540E80254E8
:107D0400002CE8D14FF001028DF803200193019A71
:107D14000A609DF8031001F0FF0321B1006800EB35
:107D2400124003B030BD1846FBE70A884B889A42DC
:107D340009D150E8022FC2EA224240E80223002B74
:107D4400F7D1012070470020704701F01F024B0952
:107D54000121914000EB830000F065B84B0910B598
:107D640001F01F040121A14000EB830000F04FF853
:107D7400E04000F0010010BD01F01F0301229A4011
:107D84004B0900EB8300D14300F065B84B0901F0C7
:107D94001F0150F82300C84000F0010070472DE98E
:107DA400F0474F1E7F0980460E460137002558F8DC
:107DB400254008EB8509E44394FAA4F4B4FA84F466
:107DC4004FEA451A202C06D10135AF42EFD834468C
:107DD4002046BDE8F0875444A642F5D921464046E2
:107DE400FFF7BCFF0028F3D0D9F80040E44394FA2D
:107DF400A4F4B4FA84F4E5E710B5034653E8000F9D
:107E04000A4643E8002494F0000FF7D110BD10B5E2
:107E1400034653E8000F40EA010243E8002494F0CB
:107E2400000FF6D110BD10B5034653E8002F42EA07
:107E3400010043E8000494F0000FF6D110BD10B522
:107E4400034653E8000F00EA010243E8002494F0DB
:107E5400000FF6D110BD10B5034653E8002F02EA17
:107E6400010043E8000494F0000FF6D110BD10B5F2
:107E7400034653E8000F00EB010243E8002494F0AA
:107E8400000FF6D110BD10B5034653E8002F02EBE6
:107E9400010043E8000494F0000FF6D110BD10B5C2
:107EA400034653E8002FA2EB010043E8000494F0DA
:107EB400000FF6D110BD0121FFF7A9BF0121FFF783
:107EC400B2BF0021FFF7BBBF10B590B1D0E90123C9
:107ED40001689B1ADBB20A60013BDBB2FF2B02682C
:107EE40002D10020107110BD11684C1C14600B707D
:107EF400F2E70E20F7E737B5054600240DF1070039
:107F04008DF80740FEF784FF2A686B681168994270
:107F14000ED9481E106011F8013CEC68298A01FB57
:107F24000344AB6811791B1ADBB2994238BF137151
:107F34009DF80700FEF790FF204603B030BD37B52B
:107F4400054600230DF107000C468DF80730FEF7B7
:107F54005FFF2A681368591C1160E968641A298A4A
:107F6400B4FBF1F41C709DF80700FEF775FF03B035
:107F740030BD826810B504462AB1436901680069BE
:107F840098470023A36010BD0EB403B5039921B133
:107F940004AB01AA019300F06FF802B05DF804EBA2
:107FA40003B07047826830B40468551C8560A154DE
:107FB400D0E901329A4202D330BCFFF7DABF30BCB9
:107FC400704700002DE9F84F9846DDE90A4315464D
:107FD40082460F460A464FF00109AA420FD2C14514
:107FE40038BFC14613F0010B01D16CB9002401263E
:107FF400B8F1010F1BD908F1FF386E43F8E709F116
:108004000109B2FBF5F2E8E79B070ED5B8F1000FC2
:108014000CBF30262026A145E9D2013C314650460A
:10802400FFF7C0FF002CF6D1E0E72026F3E7B7FB0B
:10803400F6F39D42E1D9DFF83C80B7FBF6F35046F6
:1080440018F8031006FB1377FFF7ACFF3346AB4277
:10805400B6FBF5F6F1D2BBF1000F02D00CB1A1458D
:1080640001D3BDE8F88F20215046013CFFF79AFF69
:10807400F4E700BFE49A03002DE9F74F05461746DD
:108084008846002900F03E8118F8011B49B92B7B72
:10809400002B00F03781284603B0BDE8F04FFFF70E
:1080A40068BF252940F0B780002698F800302D2BB2
:1080B400424608F1010823D0302B24D02B2B25D0A5
:1080C40000242A2B02F1010123D13B681A1D1B68ED
:1080D4003A601C440A4613782E2B26D101324FF005
:1080E400000A104610F8011BA1F1300CBCF1090F75
:1080F4001DD80A2303FB0A13A3F1300A0246F0E752
:1081040046F00106D1E746F00206CEE746F0040643
:10811400CBE711F8013CA3F130000928DBD80A228F
:1081240002FB0434303C0A46CBE74FF0000A12F855
:10813400011B01F0FB0068289046F8D0782909D883
:108144006F290CD8632962D022D8252963D05829F5
:1081540000F0888098F80030002B95D197E77039AB
:108164000829F7D801A353F821F000BFE3820200E5
:10817400598102005981020079820200598102006A
:10818400578202005981020059810200698202006B
:10819400642901D06929DDD13A68D2F80090111D13
:1081A40089EAE9723960A2EBE9724FF0010B092AFE
:1081B40035DCD34538BFD3462CB1B9F1000F01DB10
:1081C400720700D5013CB30702D5BAF1000F03D002
:1081D400F00701D44CBB0024B9F1000F2DDAC9F12A
:1081E40000092D212846FFF7DDFE06F00302022ACE
:1081F40004D1BAF1000F01D11CBB0024CDE9004623
:1082040053460A2249462846FFF7DCFEA2E73B68AC
:108214001A1D19783A602846FFF7C4FE9AE70A2324
:108224000BF1010BB2FBF3F2C1E7A345D4D2202139
:108234002846013CFFF7B6FECCE77107D5D52B21C4
:10824400D0E7A345DAD230212846013CFFF7AAFE45
:10825400D2E73968CDE900460A1D3A6053460A223E
:108264000968D0E739680A1D3A60CDE900465346EB
:108274001022F5E73B681A1D3A6016F00106D3F8A0
:10828400009024D1B9F1000F03D048460FF026FF27
:108294000646B4421DD809F1FF3919F8011F002917
:1082A4003FF458AF2846FFF77DFEF6E7284601362F
:1082B400FFF778FE19F806100029F7D1A642BFF49B
:1082C40049AF20212846013CFFF76CFEF6E7002663
:1082D400F0E720212846013CFFF764FED9E73B681C
:1082E4001A1D3A60302128461C68FFF75BFE78218E
:1082F4002846FFF757FE00220823CDE90032214625
:10830400102280E703B0BDE8F08F00BF13B50B4621
:10831400114680B9104B1148114AC01A0E23C008E7
:108324000093104B0004104940F00100FEF77FFB5E
:108334000E2002B010BD4BB9074B08480B4AC01AB7
:10834400C0080E2300930004064BECE703601B688F
:1083540002B0BDE81040184710980300709803005D
:10836400F49A0300B09C0300F99A0300289B0300CD
:108374002DE9F743DDF8288088B93E4B3E483F4A53
:10838400C01AC0080E243E4B009400043D4940F03E
:108394000100FEF74CFB204603B0BDE8F0834AB968
:1083A400344B3548384AC01AC0080E24344B009464
:1083B4000004EBE7D0F800E0BEF1000F09D12D4B2B
:1083C4002D48324AC01AC00808242D4B00940004DA
:1083D400DCE74BB9274B28482D4AC01AC0080924AA
:1083E400274B00940004D1E74568D5F80490B3FB0B
:1083F400F9F509FB15354DB11E4B1F48254AC01A26
:10840400C00809241E4B00940004BFE78D0709D05F
:10841400184B1948204AC01AC0081024184B00945D
:108424000004B3E712F0030F09D0124B12481B4AA1
:10843400C01AC0081024124B00940004A6E7C568B3
:10844400A9420DD34D1EEC180569AC4208D8CDF8ED
:108454002880DEF80C40A44603B0BDE8F043604732
:10846400044B05480E4AC01AC0081024044B00945B
:1084740000048BE71098030070980300F49A03003B
:108484009D9C0300F99A0300769B0300229B030042
:10849400359B03007C9B0300A69B0300BE9B03004B
:1084A400E19B0300F7B580B92A4B2B482B4AC01A2D
:1084B400C0080E242A4B009400042A4940F001000D
:1084C400FEF7B5FA204603B0F0BDD0F800C0BCF109
:1084D400000F09D11F4B2048234AC01AC0080824A2
:1084E4001F4B00940004E8E74AB91A4B1A481F4A84
:1084F400C01AC00809241A4B00940004DDE745683B
:10850400D5F800E00EF1FF350D4209D0114B1248A9
:10851400174AC01AC0081024114B00940004CCE779
:10852400C568A9420CD34D1E0EFB02540569AC422A
:1085340006D8DCF81040A44603B0BDE8F04060471C
:10854400044B05480B4AC01AC0081024044B00947D
:108554000004B2E71098030070980300F49A030033
:108564008A9C0300F99A0300229B0300359B0300B5
:10857400089C03002E9C030029DF704728DF704706
:1085840070B503689E6886B004460D466EB1142229
:10859400002168460FF04DFDA368059323790195EA
:1085A4002BB1012B0DD06846B04706B070BD012336
:1085B4008DF8003023690293E3680393636904939D
:1085C400F1E702238DF80030E3681B030293F5E71B
:1085D4000846704700207047024B187A003818BFCD
:1085E40001207047B83E0020034B187A0122B0FAEC
:1085F40080F05A7440097047B83E002008B5104610
:108604001A460FF0EDFC002008BD000008B5142246
:10861400002104480FF00DFD0348FFF7FFFA002086
:1086240008BD00BFB83E0020A83E002010B5094C8C
:10863400094B43602046FFF73EFC40B905F0D6FBEA
:10864400064920741C2306488C22FFF7D4FA002024
:1086540010BD00BFB83E0020C49C03001C3E002097
:10866400A83E002038B5234D234C2B7A3BB923492F
:108674002348FFF72FFB206008B9686038BD022348
:1086840024682B72237973B1012B24D02046032153
:10869400FFF776FF00232B726B6018491848BDE87A
:1086A4003840FFF742BBD4E90523D21AB2F5805F04
:1086B400D4E9031028BF4FF480529208012A38BF2E
:1086C400012219441844FFF757FF50B11128DDD196
:1086D40001232B72D2E7D4E903031844FFF74EFFBA
:1086E400F3E72B7C002BC9D1BDE83840022000F011
:1086F40009B800BFB83E0020D03E0020CC3E002088
:10870400A83E002038B5234C237A002B41D0022BFD
:1087140009D1032830D0204B00221B68E2601A796B
:108724003AB1012A22D0637C7BBBBDE83840FFF715
:1087340099BFD3E905128D1AB5F5805F94BF52191C
:1087440002F580529A619142EDD102284FF0000364
:1087540008BF19462372104B18BF0D211868FFF784
:108764000FFF0E490E48FFF7E0FADCE71A69013201
:108774001A615B699A42E7E7E3680133082B01D881
:10878400E360D0E70023E360DFE7BDE8384005F0AD
:108794001DBB38BDB83E0020D03E0020CC3E00209A
:1087A400A83E0020831E012B01D8FFF7ABBF704702
:1087B40000F0FD03012B08D1044B00225A74421E21
:1087C400504250411874FFF74DBF7047B83E002027
:1087D40010B5064C201DFFF76EFB28B9637C1BB94E
:1087E400BDE81040FFF73EBF10BD00BFB83E0020FB
:1087F4002DE9F34180460D46104801A916461F464F
:10880400FFF72EFA0446B0B11822002104300FF00D
:1088140010FC2D0B0123237101A90848C4F8008022
:10882400A760E5606661FFF745FAFFF7D1FF002016
:1088340002B0BDE8F0810420FAE700BFA83E0020A2
:108844002DE9F34180460F460F4801A916461D46FF
:10885400FFF706FA0446A8B11822002104300FF0ED
:10886400E8FB089BA36001A9C4E903670648C4F8B0
:1088740000806561FFF71EFAFFF7AAFF002002B02F
:10888400BDE8F0810420FAE7A83E00202DE9F84F66
:10889400B0F806A04579D2F800B09DF828900AFBFC
:1088A40005F5043D88460BEB0301A94203F10404DA
:1088B40088BFA5EB030BB4FBFAF607460AFB164484
:1088C400C2F800B04EB9AAEB04055D4528BF5D4669
:1088D400BBF1000F04D1BDE8F88F3F68013EF1E71A
:1088E400043408EB06003C442A46B9F1000F0DD0CD
:1088F4002146ABEB050B0FF073FBDA452E443F68C2
:1089040055464FF0000428BF5D46E1E70146204686
:10891400EFE7FFF7D9BAF8B546790146721E054666
:10892400002393422D6803D30024A64202D8F8BD45
:108934000133F6E70F682846FFF701FB0134394697
:10894400F3E72DE9F843068ACD1C0746FFF7D3FA6F
:10895400043E35440446B5FBF6F5F0B14FF480739C
:10896400EDB28380C680013D076081464FF0000868
:10897400A84512D23846FFF7BEFA064648B16379D5
:108984000133637108F10108C9F8000007608146EA
:10899400EEE72046FFF7BFFF34462046BDE8F883E4
:1089A40001210430FFF76FBA10B5012104460430E9
:1089B400FFF775FAC0B220B92046BDE81040FFF7B2
:1089C400AABF10BD1FB503920022009203AAFFF7AD
:1089D4005DFF05B05DF804FB1FB503920122009210
:1089E40003AAFFF753FF05B05DF804FB064B10B56F
:1089F40000241C70054B1C60BFF35F8F04490548BD
:108A040000F013F8204610BDDC3E0020E03E0020BC
:108A1400FC9C0300D43E0020836800225A60C3E912
:108A240004229A60DA601A6070470B684A684360EF
:108A3400934208BF0023016008BF43607047436846
:108A440043B10268916852680B449342436004BF87
:108A5400002343607047000010B50D49A1F59472DE
:108A6400914201D800200FE08C1AE30F03EBE403DA
:108A74005B1002EBC30452F83330834205D802D2B0
:108A840004F10802ECE7606810BD2146E8E700BF86
:108A940000A2030008B5FFF7DFFF024B002808BF60
:108AA400184608BDC2A0030010B506F0D7FE037B2C
:108AB40023B183680068BDE81040184710BD00204A
:108AC4007047000073B504680E461546D2B1237B87
:108AD400D3B96168C1B9102220460FF0AAFA321E38
:108AE4000A4BA56018BF01220093094823464FF49E
:108AF4007A7106F061FD0028606014BF00200E202A
:108B040002B070BD0720FBE70820F9E7AD8A020038
:108B140092990300F0B5456887B004460E4617469F
:108B2400002D4CD0037B93B92760EFF30583ABB9D9
:108B340002273246009704212846039306F056FD87
:108B44000128039B06462DD0042007B0F0BD28461B
:108B540006F076FE0028E7D00020F6E7002700970D
:108B640005AB324609212846059706F03FFD01284A
:108B7400EAD106F0FFF80097024605AB0621284625
:108B840006F034FD0128DFD1059B43B10D4B4FF0B6
:108B940080525A6040BFBFF34F8FBFF36F8F0123E2
:108BA4002373D9E7039306F0DFF8039B009702468B
:108BB4003146284606F01AFD0128F0D0C4E7082003
:108BC400C3E700BF00ED00E01FB50446406830B3C2
:108BD400EFF30583D3B10022009203AB0821039283
:108BE40006F004FD012801D004200DE0039B43B1ED
:108BF4000C4B4FF080525A6040BFBFF34F8FBFF30E
:108C04006F8F00232373184604B010BD0222009214
:108C140003211A4606F0EAFC0128F2D0E4E7082012
:108C2400F2E700BF00ED00E01FB503788DF80030D7
:108C34008388ADF8043083688DF80630C3688DF8F6
:108C44000730036902934369054A0393054B684659
:108C540053F8213052F82110984705B05DF804FB11
:108C6400E43E0020EC3E0020024B4FF4807043F0C1
:108C74000103184700A203002DE9F047154690F8B8
:108C84000090324A42F82950314A42F829304B7B4D
:108C940007460C466BB30868496882008B0002F1F2
:108CA400A04203F1A04340F20C66C2F800674FF003
:108CB400010AC3F800674FF0A0460AFA00F00AFA66
:108CC40001F1C6F80805C6F8081540F20D61C2F8AE
:108CD4000017C3F80017FFF7C7FF4FF00008D6F8D6
:108CE4001025636822FA03F3DB070DD5B8F1000FF2
:108CF4001DD1002D174A4B4608BF2A462146381D70
:108D0400BDE8F04701F03AB923680AFA03F3C6F85C
:108D14000C35FFF7A9FF23680AFA03F3C6F80835F0
:108D240008F10108FFF7A0FFB8F1090FD7D1636874
:108D340001264FF0A04806FA03F3C8F80C35FFF7F4
:108D440093FF63689E40C8F80865D2E7EC3E0020B4
:108D5400E43E00202D8C02004FF0704393F8E02F86
:108D6400062A10D1D3F8E42F12070CD1D3F8E80F58
:108D740000F0F003302B08D000F0E000A0F1400335
:108D840058425841704700207047012070474FF007
:108D9400704393F8E02F062A0CD1D3F8E42F12077E
:108DA40008D1D3F8E80F00F0F000A0F130035842E6
:108DB400584170470020704708B5FFF7CDFF40B118
:108DC4004FF08053834AD3F82433C3F30423C2F807
:108DD4004035FFF7DCFF10B17F4B804A5A67FFF73D
:108DE400BBFF48B14FF080534FF08042D3F8443278
:108DF400C3F34233C2F83C35FFF7C9FF30B1784AB8
:108E0400D2F8FC3023F08073C2F8FC30FFF7A4FFE3
:108E140040B14FF080430022C3F80C21C3F8102165
:108E2400C3F83825FFF7B3FF20B14FF08043032286
:108E3400C3F8A025FFF7ABFF60B16A4B0522C3F866
:108E440010260122C3F888260022C3F818263F22E0
:108E5400C3F814264FF0704393F8E02F062A50D13C
:108E6400D3F8E42F11074CD1D3F8E83F03F0F00313
:108E7400502B46D14FF080525B4BD2F80414C3F808
:108E84002015D2F80814C3F82415D2F80C14C3F82A
:108E94002815D2F81014C3F82C15D2F81414C3F8FA
:108EA4003015D2F81814C3F83415D2F81C14C3F8CA
:108EB4004015D2F82014C3F84415D2F82414C3F88A
:108EC4004815D2F82814C3F84C15D2F82C14C3F85A
:108ED4005015D2F83014C3F85415D2F83414C3F82A
:108EE4006015D2F83814C3F86415D2F83C14C3F8EA
:108EF4006815D2F84014C3F86C15D2F84424C3F8AA
:108F04007025FFF729FF48B14FF080534FF080429E
:108F1400D3F8583203F04F03C2F8E43EFFF71CFFC6
:108F240048B14FF08043D3F80024D20744BF6FF018
:108F34000102C3F800244FF08053D3F83021062AED
:108F44000AD1D3F83431062B01BF284AD2F83C3772
:108F540043F48063C2F83C37214AD2F8883043F4A2
:108F64007003C2F88830BFF34F8FBFF36F8F4FF099
:108F74001023D3F80C32DB0728D51D4B0122C3F88C
:108F84000425D3F80024002AFBD04FF01022D2F895
:108F94000C3223F00103C2F80C32154BD3F8002431
:108FA400002AFBD00022C3F80425D3F80024002AA9
:108FB400FBD0BFF34F8F0A490E4BCA6802F4E0623C
:108FC4001343CB60BFF34F8F00BFFDE70A4B0B4A3F
:108FD4001A6008BD0030014000C007400DF0ADBA72
:108FE40000ED00E00050004000C0004000100040D0
:108FF40000E001400400FA05B42A00200090D003E8
:1090040038B5074C051E04F1080318BF1C46236835
:109014002BB11A6822605B6828469847F7E738BD89
:10902400FC3E002020B9054B01225A70FFF7E8BF2F
:10903400012802D1014A9070F8E77047F43E0020FD
:1090440020B9034B01225A70FFF7DABF704700BF03
:10905400F43E002038B50B4C237883B90A4863608A
:10906400A3602361E36000F097F8054604F0BEFEB8
:1090740008B900F09DF801232370284638BD8525E2
:10908400FBE700BFF43E00202990020037B5184CDE
:10909400A378054603F0FF029BB110B14368012099
:1090A400984700230DF107008DF80730FDF7B0FE57
:1090B400E3689DF807000133E360FDF7CDFE03B0DC
:1090C40030BD0DF107008DF80720FDF7A1FE25B195
:1090D400226913463BB92A602561E368002BE7D176
:1090E40000F07AF8E4E79D42F7D01B68F2E700BF8E
:1090F400F43E002037B50B4C00230DF107008DF82A
:109104000730FDF785FEE368013BE360E56815B9C8
:1091140000F08AF8A5709DF80700FDF79DFE03B0E6
:1091240030BD00BFF43E0020012813B508D0032849
:109134001CD018B9114B0122C3F8802002B010BD15
:109144000F4C00230DF107008DF80730FDF760FE8A
:1091540023780BB9FFF77EFFE3689DF8070001331E
:10916400E3600123A370FDF777FEE7E700F020F842
:1091740002B0BDE81040FFF7BDBF00BF00E100E052
:10918400F43E002000F18040002382B003600368B5
:109194000193019B02B07047044A137923B901215A
:1091A400106091801846704785207047083F002062
:1091B400084B1A68D20706D4E02283F80023012260
:1091C400C3F880211A604FF080430122C3F81825A8
:1091D400704700BF00E100E038B54FF48270FFF73C
:1091E400D1FF4FF080430222C3F804230C4AD2F883
:1091F400FC0040F08073C2F8FC300A4B1C6844F059
:10920400010119605D685968491BB1F50A5FFAD319
:109214001C604FF08043C2F8FC0001229A6038BD04
:1092240000ED00E0001000E04FF080430122DA601E
:10923400D3F81824D203FBD4704700004FF08041C8
:1092440010B5D1F8003163B14FF48070FFF79AFF85
:109254000D4B58790122C1F8082310B95A711B68C3
:1092640098474FF08042D2F8043163B14FF48270D2
:10927400FFF788FF0223C2F80833034BBDE8104010
:109284001B680120184710BD083F002000F18040F2
:1092940000F5C040002382B0036003680193019B82
:1092A40002B07047800000F1A040D0F8002722F4FB
:1092B4004032C0F80027D0F8003743EA0141C0F833
:1092C40000177047C208012300F0070003FA00F0FA
:1092D4008B5C184388547047054B4FF0FF320728C6
:1092E40043F8202084BFC01880F86020704700BF76
:1092F400103F0020C208054900F007000123834005
:10930400885C20EA03008854704700BF823F002035
:1093140038B5154D95F876401CBB2022FF2105F188
:1093240048000EF086FEE0B20134FFF7D5FF122CA0
:10933400F9D10E4B40210022C5F872204FF4BE70C3
:1093440083F80613C3F880111960FFF79FFF084BD9
:109354004FF00041C3F80413012385F8763010461A
:1093640038BD0820FCE700BF103F002000E100E00A
:1093740000600040034B93F87600003818BF0120CA
:10938400704700BF103F002038B52A4B1A1892F9D5
:10939400484001344CD18C78002C45D01C46002226
:1093A40054F8045B01353AD11C1884F84820002491
:1093B40043F82240920002F1804202F5C0420B7849
:1093C400D2F810554C7825F498151B04240525F47F
:1093D400F85504F4801403F44033C2F810552343C1
:1093E4000402D2F8105504F4F85423432B43C2F872
:1093F40010354A780123012A4FF0A04203FA00F302
:109404000CBFC2F80835C2F80C3500F5E07303212F
:1094140042F823100849FFF755FF002003E001320A
:10942400082ABDD1042038BDFE2382F84830E0E785
:109434000820F8E7103F0020823F0020012303FAB0
:1094440000F04FF0A043C3F808057047012303FA66
:1094540000F04FF0A043C3F80C0570472DE9F0412C
:10946400DFF8E48008EB0003054693F94830002B4D
:109474000F4664DA8B78C3F34003002B0BBF082438
:109484000024122108218C4202D10420BDE8F0817D
:1094940058F8240001303DD108EB050166B248F8C4
:1094A400242081F848601BB908EB040383F860505A
:1094B400BB785A070ED4D9072ED5AB0003F1A043CD
:1094C400D3F8002722F00202C3F800271D492846DA
:1094D400FFF7F8FEBB783A7813F0020325D0A40016
:1094E40004F1804404F5C0442D02D4F8103523F46B
:1094F400473323F44073C4F810351204D4F81035FC
:1095040005F4F85502F4403215431D43C4F81055D0
:109514000020BBE70134B6E77A7805F5E0734FF035
:10952400A041920041F82320D0E7083E48FA86F68D
:1095340096F8685045EA821286F86820E8E7082021
:10954400A4E700BF823F0020103F002038B5204C24
:10955400251895F94820072A18DD083A44FA82F4B8
:1095640094F868309B09032B0BD14FF0A043D3F838
:109574001015C14001F001010231BDE83840FFF788
:1095840091BE012B0CBF02210321F6E7D3B2072BB6
:109594001DD8930003F1804303F5C043D3F81005AD
:1095A40040F00100C3F8100502F1400040B2800011
:1095B40080B2FFF76BFE51B195F9483054F823306F
:1095C4002BB1012303FA02F2024BC3F8042338BD82
:1095D400103F0020006000400E4B034493F94820E4
:1095E400072A02DD0021FFF75DBED3B2072B10D896
:1095F400930003F1804303F5C043D3F8101521F021
:109604000101C3F81015012303FA02F2024BC3F857
:1096140008237047103F00200060004038B5174D04
:109624000446FFF7D9FF2A1992F9483092F84820E6
:10963400072A9FBF124A03F5A273002142F82310A0
:1096440005EBD40304F0070193F8722001238B4047
:109654001A4209D004F5E0734FF0A042022142F807
:1096640023102046FFF746FE2C4494F84800FFF7E9
:1096740033FEFF2384F8483038BD00BF103F00207C
:10968400006000402DE9F04F87B00024584D03944A
:109694004FF48072012102F1804303F5C04390B27C
:1096A4001B68012B06D1D5F804330B4202D0FFF717
:1096B400EDFD0C430432B2F5907F4FEA4101EAD14B
:1096C4004B4BD3F87C31012B0AD14FF4BE70FFF71A
:1096D400DDFD4FF0A04344F00044D3F8103503936C
:1096E400E3B2D3B1434F00250126344210D0AB007E
:1096F40003F1804303F5C043D3F81005D3F81015E4
:1097040057F8253023B1C1F30141C0F30420984731
:109714000135082D4FEA4606E7D1002C61DA002214
:109724004FF0FF33CDE90423DFF8C880DFF8C89099
:1097340000273E464FF0A04B19F9014B631C45D05E
:10974400C4F3C20318336B440122E5B204F03F00B2
:1097540004F0070402FA04F413F8042C224235D06E
:1097640008EB0002AD0992F9482058F822A0BAF19A
:10977400000F09D1032D29D104A901930090FFF70B
:10978400A1FDDDE9000301E0032DF5D000F5E07152
:1097940013F80C3C5BF821102342C1F3014105D0BE
:1097A400022913D1032D0CD1294604E003290DD13C
:1097B400032D06D1022100900136FFF773FD0098B6
:1097C400F6B2BAF1000F01D02946D04701370A2F6B
:1097D400B2D136B14FF0A043039AD3F81035934277
:1097E40002D107B0BDE8F08F0393049B05939DE776
:1097F40000600040103F0020783F0020014B1B68B0
:10980400184700BF883F00200E4B984237B50C46DE
:1098140002D0002003B030BD00230DF107008DF805
:109824000730FDF7F5FA084B1D7915B901221C60C4
:109834001A719DF80700FDF70FFB002DE9D01120E8
:10984400E8E700BF00200040883F00200023435089
:1098540082B043580193019B02B07047F0B5204B8E
:109864004579204F43F8252005EB45036E00FB5C4A
:10987400A3BB90F9043002798C78002BA8BF03F1C4
:10988400604C4FEA5313BCBF02F00F0EDFF858C010
:109894004FEA4414A8BF0CF5614C4FEA8303E4B2C9
:1098A40003F16043B4BF0CF80E408CF8004303F599
:1098B4006143012402F01F0204FA02F2C3F880217A
:1098C4001A6003680A88C3F8082535447B190A79A5
:1098D4005A707C55CA789A700020F0BD0820FCE7C5
:1098E400943F0020903F002014ED00E00368012223
:1098F4001A604379024A03EB43030221D1547047AF
:10990400903F00202DE9F04105464FF48034006873
:109914001C4F8C40C0F84843C0F8084395F805C074
:109924000CEB4C063E4422F07F4296F8018001F590
:10993400A8764FEA4C0E40F82620B8F1000F11D05B
:10994400D0F80485F4446744A8EB0206904538BF78
:1099540006F1FF16BA7838BF06F57F46B24201DD3C
:109964000D200CE03BB15031890089B2FFF76EFF46
:109974002B68C3F804432B680020C3F84443BDE8B4
:10998400F08100BF903F00202DE9F041224E234F8B
:10999400DFF88C8000244FF48035D7F80433A6F523
:1099A40080412B4289B20CD0336853B1C7F8485375
:1099B4003846C7F80853FFF749FFD8F80030E0B23B
:1099C40098470134042C4FEA450506F10406E4D116
:1099D4001248D0F80433DA070AD5D0F800313BB185
:1099E4004FF48071FFF732FF0D4B20461B689847F8
:1099F4000A48D0F804339B070CD5D0F804314BB196
:109A04004FF48271FFF722FF054BBDE8F0411B685C
:109A140005201847BDE8F081404102400040024063
:109A2400943F002037B5D0F818358A69DBB28DF839
:109A340007304B6A93423EBF4A699DF80740D454AD
:109A44004A6A91F82840531C4B6202323CB10C69BB
:109A5400A2428C6938BF0A61944288BF8A610D6949
:109A6400954205D9CB689B5CC0F81C3501200BE0FE
:109A74008C69944202D991F82030F5E7AB42F5D3D2
:109A8400A3422CBF0020012003B030BD13B5002237
:109A9400C0F80821D0F808310193019BFFF7C2FFF9
:109AA400A0B98A7FFF2A1EBF012393404FF0A04232
:109AB400084618BFC2F8083500230B724B7750F8DC
:109AC400083B496802B0BDE81040184702B010BD19
:109AD40002494FF04020FFF7D9BF00BF983F002054
:109AE40001490248FFF7D2BFC43F002000300240C2
:109AF4002DE9F74F90F804806B4D4FF02C0909FBCA
:109B040008F905EB090B9A469BF81C3006460C46EF
:109B14001746002B40F0C380644B006853F82810AC
:109B2400FFF772FE002840F0BC8045F80970CBF8BE
:109B340004A094F800E0217B4FF0A042012303FA33
:109B44000EF3012994BFC2F80C35C2F808350EF59E
:109B5400E0734FF0010C42F823C06378FF2B1FBF62
:109B64000CFA03FCC2F80CC503F5E07C4FF00309C2
:109B740018BF42F82C9094F802C008BF4FF0FF338E
:109B8400BCF1FF0F1FBF0CF5E0724FF0A0494FF07E
:109B9400040B49F822B0327901924FF02C0909FBE9
:109BA400025918BFE24689F81FC094F803C008BFE1
:109BB4004FF0FF3ABCF1FF0F0CD04FF0A04B4FF029
:109BC400010909FA0CF9CBF808950CF5E0790322A0
:109BD4004BF82920019A4FF02C0909FB025989F806
:109BE4001EC03668C6F808E5C6F80C35A368C6F882
:109BF40010A5C6F82435637B003B18BF0123022956
:109C040047D0032948D0012901D143F00203019A26
:109C1400C6F854352C2303FB0252637982F82030B2
:109C240017B10423C6F804330123C6F8003537B34B
:109C340046F30733002B2279B4BF1D4903F1604179
:109C4400C6F307364FEA5313B8BF06F00F044FEAC2
:109C54004212A8BF01F561414FEA8303D2B203F176
:109C64006043B4BF0A5581F8002303F5614306F04D
:109C74001F06012202FA06F6C3F880611E602C2337
:109C840003FB085500236B7701232B7703B0BDE852
:109C9400F08F43F00403BAE743F00603B7E7082064
:109CA400F4E71120F2E700BF983F002030A2030040
:109CB40014ED00E02DE9F74390F804803F4D2C2388
:109CC40003FB08F31746EA180E46517F8446002921
:109CD40072D155F80390B9F1000F01D001235377E5
:109CE40096E80F002C2404FB085404F10C0E8EE8B3
:109CF4000F00A27F0023FF2A84F828301FBF01230E
:109D040093404FF0A042C2F80C352C2347B103FB1B
:109D1400085500236B770627384603B0BDE8F08367
:109D2400DCF800400422C4F8082303FB0853C4F8F9
:109D34000871D4F808215F620092009A726882B1B7
:109D440033681B78C4F81C35012A0DD933685B7855
:109D5400C4F81C35B9F1000F0FD00423C4F8043340
:109D6400DAE793F82030EDE7F368012BF2D92C23DE
:109D740003FB085393F82030EAE72C2108FB015138
:109D8400D4F80831002BFBD0C4F80891D4F808317A
:109D940001932046019BFFF745FE0028F0D12C23B8
:109DA40003FB0855AA7FFF2AB6D0012393404FF046
:109DB400A042C2F80835AFE71127ADE7983F00206D
:109DC4007FB503788DF804304368029383688DF877
:109DD4000C30C36804930369064A8DF81430064BAB
:109DE40001A853F8213052F82110984707B05DF8C4
:109DF40004FB00BFF03F0020FC3F002030B4084DBE
:109E040010F8044B45F82420064D45F82430234629
:109E1400054C002A18BF224630BCFFF769BE00BFBC
:109E2400FC3F0020F03F0020C59D0200002343506A
:109E340082B043580193019B02B07047F0B54B4D7B
:109E44004B4CD5F8243187B0A3B14FF49271284616
:109E5400FFF7ECFFD5F8043163B9A368C5F80833FC
:109E64000223A360A368C5F8043301232B626B614A
:109E740007B0F0BDD5F80431002B48D03D4F3B4826
:109E84004FF48271FFF7D2FF0FCF01AE0FC63B68CC
:109E9400336094F82E307BB1237B012B0CBFD5F8B3
:109EA4003C25D5F84C250292022B304B0CBFD3F83D
:109EB4003C35D3F84C3503932C484FF4B071FFF77D
:109EC400B5FF4FF4AE71FFF7B1FF94F8303013B122
:109ED40094F82E303BB1254B0022C3F80022A26037
:109EE400254AC3F80823214AD2F8C434C2F8C4343A
:109EF4009A0736D501238DF8003094F830300BB929
:109F040084F82F30D4E9003168469847B0E7174801
:109F14004FF4A471FFF78AFF237B83B9154F0FCF4A
:109F240001AE0FC63B68336094F83030002BDAD1B1
:109F3400C5F80032A360104BC5F80833D3E74FF4DB
:109F44000073C5F8003240F20223A36003F1CE731C
:109F5400C5F80833A368C5F804330123AB602B624A
:109F640086E713F0040318BF0223C4E7003000405F
:109F7400084000201440002002029C012DE9F84F03
:109F84000679374D4FF0340A0AFB06FA05EB0A044A
:109F94009B4694F82D3080460F469146002B5AD1AB
:109FA40030490068FFF730FC002856D13A687B7BC3
:109FB40084F832304FF0A04102F5E073A060C4F899
:109FC40004B084F82F0084F8300040F20C6445F8A3
:109FD4000A9041F823407B6803F5E07C41F82C406B
:109FE400D8F80040C4F80825C4F80C35BB68C4F898
:109FF4002435B9F1000F26D044F30733002B3A7B04
:10A00400B4BF194903F16041C4F307344FEA531351
:10A01400B8BF04F00F074FEA4212A8BF01F561412F
:10A024004FEA8303D2B203F16043B4BFCA5581F847
:10A03400002303F5614304F01F04012202FA04F42F
:10A04400C3F880411C60342303FB0655012385F8C3
:10A054002D30BDE8F88F0820FBE71120F9E700BF99
:10A0640008400020419E020014ED00E003680279DC
:10A074000621C3F80015044B342101FB02330222EC
:10A0840083F82D20704700BF0840002013B5084C0A
:10A09400D4F80433DB0709D5064B1B689847002323
:10A0A400C4F80031D4F800310193019B02B010BD13
:10A0B400000001404440002010B5114B114A1960C2
:10A0C4001378D3B9012111700F490278C1F80C2516
:10A0D40042684FF47A74D203B2FBF4F2C1F8042557
:10A0E400027A0A495201D2B281F810234FF4803225
:10A0F400C1F8802118460A6010BD0820FCE700BFA3
:10A1040044400020404000200000014000E100E005
:10A11400044B0122C3F804231A60034B02221A7071
:10A12400704700BF000001404040002037B505469D
:10A1340000240DF107008DF80740FCF769FE0C4B75
:10A144001A68072A11D8511C19600A492A70D1F8D3
:10A154000805012393400343C1F808359DF807001F
:10A16400FCF77AFE204603B030BD0424F6E700BFB6
:10A174003C40002000000140034B044A00F5C0703D
:10A1840043F82020704700BF000001403546526E5E
:10A194000720704708B5012202210020FFF7F8FFCD
:10A1A40008B1072810D1072202210120FFF7F0FF90
:10A1B40008B1072808D100210A220846FFF7E8FF62
:10A1C40010B1072808BF002008BD00000388102B29
:10A1D40010B502D0112B1ED010BD1A4C2168B1B994
:10A1E40001220846FFF7D4FF08B1072824D107222B
:10A1F40002210120FFF7CCFF08B107281CD104225B
:10A2040002210020FFF7C4FF08B1072814D12368F6
:10A2140001332360E0E70B4A1368013B1360002B12
:10A22400DAD1FFF7B7FF0028D6D0074B1B68002B05
:10A23400D2D0BDE810401847034B1B68002BE6D072
:10A244009847E4E74C400020484000200369C26876
:10A2540093429CBF80681B18013B981A70472DE9F4
:10A26400F843D0E902940546A9EB040840689045F8
:10A2740020440F46144404D90DF0B2FEEC60BDE84E
:10A28400F8834246A4EB09040DF0AAFE686822464E
:10A2940007EB0801F0E72DE9F843C568064689464F
:10A2A40017464FF000083469B3687068A54228BFA8
:10A2B400E418013C621B5C1BBC4228BF3C46944230
:10A2C40028BF14464946284422460DF089FEB36847
:10A2D4002544AB4208BF00253F1BA044A144F560C0
:10A2E400E1D14046BDE8F88310B5114C114AA26192
:10A2F4000323C4E90433104BE36122664FF4006383
:10A304000E4A0F492362626600231022E01DA362F5
:10A314006362E3622367E3666367A2660DF0BCFED3
:10A32400084920460DF0B8FE2023A37110BD00BFDC
:10A334005040002041A2030008410020F8400020C2
:10A344004AA203004EA203002DE9F84FDFF87C80F7
:10A3540098F800308246894616460BB9FFF7C4FFC9
:10A36400182707FB0A873D6FD7F86CB05D452BD9DA
:10A37400BC6E796E641BB44228BF344629444846F7
:10A3840022460DF02DFEBB6E2544A144361BAB4284
:10A3940008BF0025ABEB0502964228BF164656B10E
:10A3A400182303FB0A833246596E484629440DF0AC
:10A3B40017FE3444354424B1182000FB0A88C8F839
:10A3C40070502046BDE8F88F0024E3E75040002099
:10A3D400DFF888C018232DE9F04703FB00C789463E
:10A3E400BE6A7C6AA64215462DD8D7F820A0AAEBEF
:10A3F400040808F1FF3E724509D800FB03339C446E
:10A40400DCF8040020440DF0EBFD2C440DE0764410
:10A41400B24221D800FB03330CEB0306904570686D
:10A424002044144405D90DF0DBFD7C620120BDE815
:10A43400F0874246A4EB0A040DF0D2FD7068224670
:10A4440009EB0801EFE7013E361B964204D300FBFB
:10A45400033363445868D5E70020E8E75040002000
:10A4640070B5164B182400FB04451D4404FB00334F
:10A474001646DC6A012C0ED0022C18D0E4B928460A
:10A48400FFF7E4FE864204D832462846FFF7E7FE8B
:10A494003446204670BD2846FFF7D8FE864234462F
:10A4A40028BF044622462846FFF7D9FEF1E728468E
:10A4B400BDE87040FFF7EFBE0024EAE750400020FB
:10A4C40073B50E4B1B7804460D4616460BB9FFF7C1
:10A4D4000BFF00230DF107008DF80730FCF798FC03
:10A4E400324629462046FFF7BBFF04469DF8070085
:10A4F400FCF7B2FC204602B070BD00BF5040002003
:10A5040013B50446084601910DF0E8FD0199024691
:10A51400204602B0BDE81040FFF7D2BFFFF7E4BE0B
:10A524000FB410B5A2B024AB802153F8042B0193CF
:10A5340002A80DF045FD802804460ADD802202A908
:10A544000020FFF7BDFF204622B0BDE8104004B054
:10A5540070470028F7DD0246F1E701460020FFF7C7
:10A56400CFBF6DDF704779DF70477DDF704764DFF1
:10A5740070472DE9F04F85B000250E9CBDF83CB026
:10A58400B4F800A00191074690461E46A9463A88B1
:10A594004A450DDC45B12388013BA3EB0A039BB27A
:10A5A400FF2B3AD806F80A30002005B0BDE8F08F3A
:10A5B4007A6852F82900039000220DF10B0103A8D8
:10A5C400FFF7D5FF0028F0D19DF80B20424521D19B
:10A5D4002288002D14BF0020022002EB0801014450
:10A5E40059451ADC3DB9013292B2019B2280B35421
:10A5F40022880132228022880DF10B01324403A803
:10A60400FFF7B5FF0028D0D121889DF80B200A441C
:10A614002280012509F10109B9E70C20C5E72DE9DC
:10A62400F341089FBDF824801546CDE90078022245
:10A6340004461E46FFF79DFF50B9334610222946B3
:10A644002046CDE9087802B0BDE8F041FFF791BF9C
:10A6540002B0BDE8F0812DE9F04F00231788138084
:10A6640090F82D3085B006460D4614465BB3082F8E
:10A6740001D80C2028E102A8FFF773FF002840F05E
:10A6840023812388DDF809100822EA542388013342
:10A694009BB21B222380EA54238801339BB2EA181D
:10A6A4002380E950BDF80D30938023889DF808205D
:10A6B40006339BB212F0FE0218BF01222380EA5433
:10A6C400238801332380B378FBB123880433BB424E
:10A6D400CFD802A8FFF747FF002840F0F580238871
:10A6E4000322EA54238801339BB219222380EA54BB
:10A6F4002388BDF8082001339BB2E9182380EA546B
:10A70400120A4A70238802332380F2789AB123888C
:10A71400D91CB942ADD80221E954238801339BB234
:10A7240001212380E95423880B449BB22380EA54FB
:10A7340023880B4423807268AAB12388D91CB942A8
:10A7440097D8022192F90020E954238801339BB25F
:10A754000A212380E954238801339BB22380EA54DD
:10A764002388013323803389002B40F0A180338A6E
:10A774005BB1CDE900472B460722032106F1100007
:10A78400FFF74DFF002840F09F80338B5BB1CDE98C
:10A7940000472B461522142106F11800FFF73FFF4E
:10A7A400002840F09180326A002A40F09080D6F868
:10A7B4002480B8F1000F30D0B8F804302188981CF8
:10A7C4008A1C0244BA423FF654AFFE283FF651AF0A
:10A7D40003336B54238801339BB2FF222380EA5452
:10A7E400238801339BB22380B8F80020EA54E91887
:10A7F400120A4A702088023080B22080B8F80420FF
:10A804005AB1D8F8081000296BD028440DF0E8FBA1
:10A814002388B8F804201344238096F82C30002BA6
:10A8240040F09880307800284ED03388012B58D0DF
:10A83400228802F1020CBC453FF61BAF012805D16A
:10A844007378023313449F42FFF413AF023FBF1ADD
:10A85400BFB202A905EB0C00ADF80870FFF785FE46
:10A8640090BB3178BDF80830022900F0B9807278C5
:10A874009A4202D39F4280F0B180012940F0B28015
:10A88400974293B2C0F0AE80ADF808300821BDF80D
:10A894000830FE2B3FF6EDAE22880133AB542288FC
:10A8A400013292B22280A9542288134423800BE0FF
:10A8B400CDE900472B460622022106F10800FFF7E6
:10A8C400AEFE00283FF453AF05B0BDE8F08FB4F8F6
:10A8D40000C00CF10603BB423FF6CBAE118805293C
:10A8E40001D80720F0E76FF4486E01EB0E039BB22A
:10A8F4004FF27D3E7345F4D95388052BF1D96FF49B
:10A904004860181880B27045EBD94FF6FF70814249
:10A9140001D09942E5D8052305F80C30238801338A
:10A924009BB212212380E954238801339BB22380F4
:10A934001188E954E818090A4170238802339BB24C
:10A9440023805288EA54E918120A4A702388023391
:10A9540023802CE7B36A002BC3D04FF000084FF0DC
:10A964000C0A4FF0160BB16A5FFA88F20AFB02F286
:10A9740001EB0209B9F80430981CFE283FF679AEC1
:10A98400208803332B54238801339BB2238005F89A
:10A9940003B0238801339BB223808A5AEA54E9180E
:10A9A400120A4A702088023080B22080B9F804204C
:10A9B4005AB1D9F80810002993D028440DF010FB9F
:10A9C4002388B9F804201344238096F82C2008F136
:10A9D40001085FFA88F39A42C5D823E7092156E7AC
:10A9E4009F42FBD2ADF8087050E770B5C0B14AB1D0
:10A9F40016880024B44203D305196D789D4208D00B
:10AA0400A14201D800200BE0055D01352C44A4B21D
:10AA1400F0E7A142F6D9A31C1380005D013880B28F
:10AA240070BD13B513460022ADF806200DF10602E1
:10AA34000446FFF7DAFF10B1BDF80630E01802B0A3
:10AA440010BD72DF704773DF704738B501220446CA
:10AA54000D46B0F83812D0F83402FFF7E2FF00B127
:10AA6400057004F13C0204F50D7104F15400BDE8D5
:10AA74003840FFF7E6BF80F830107047F8B5044659
:10AA84000F46002973D0002871D091F87A301BB199
:10AA940091F89830002B6CD1D7F8A030042B68D0F3
:10AAA400D7F89C30042B64D04FF0000C84F802C01B
:10AAB40007F178060FCE251D0FC50FCE0FC596E8FA
:10AAC400070085E8070084F830C0D7F8A430636332
:10AAD400D7F8A830A36304F50D724FF6FF73C4F8DA
:10AAE4004AC2A4F84832C4F84422C4F84DC22278B9
:10AAF4000AB984F8543094F82430002B14BFEE23A0
:10AB04001F2304F15501C4F83412A4F8383204F5B3
:10AB14000E723846FFF79FFD40BB94F82430002B9B
:10AB240014BFEE231F2304F24311C4F83C12A4F80B
:10AB3400403204F5107207F13C00FFF78CFDA8B910
:10AB4400A369A4F848304FF480730125A4F8503069
:10AB540063692064014684F83C50636404F13C0258
:10AB640004F15400FFF76DFF00B92570F8BD0E2005
:10AB7400FCE70720FAE7F8B5067804460D46002EF0
:10AB840000F003810023C0F84A32C0F84D32C38874
:10AB9400817000F24A270BB1012903D0E37943B154
:10ABA400022D06D1636BA3B1012284F8512208203F
:10ABB400984704F24B2204F2512112F8013B5BB98D
:10ABC4009142FAD16A1E032A4FD8DFE802F0070D3A
:10ABD400111484F85132ECE73346F3E7A2791AB141
:10ABE40094F8242002B95BB9E2790AB1002B3ED172
:10ABF400237A002B3DD1637A002B0CBF002504255A
:10AC0400636BA570002B36D0033D012D33D86279D8
:10AC14008AB394F8522272BB84F85422012284F835
:10AC240053220720984704F13C05182200212846A6
:10AC34000DF0FFF9E26A0123511E994284F83C3079
:10AC440098BFD3B284F8513094F8243088BF0026DA
:10AC54001BB1A6B1A26A84F85220A278042A1ED895
:10AC6400DFE802F07A0F25385C000025C8E70225EA
:10AC7400C6E70325C4E7002384F85332D3E701224F
:10AC8400E9E7012384F831300023C4E91073C4F8E0
:10AC94004432022384F83C308023A4F84830A3785B
:10ACA400002B5DD1636B002B6BD1002068E0002B7F
:10ACB40014BF0723032384F83C302369A4F84830E5
:10ACC40000230222C4F84432E36884F83120276464
:10ACD4006364E4E762696264A269A4F8482013B17A
:10ACE400062384F83C306379B3B194F852329BB9AB
:10ACF40094F8543283B1022384F85030042120465E
:10AD0400FFF7A3FE0028CAD1052384F8313004F5E7
:10AD14000D73C4F84432C2E70323F6E7E2696264C0
:10AD2400226AA4F8482013B1062384F83C306379DE
:10AD340083B194F852326BB994F8543253B102236C
:10AD440084F8503004212046FFF77FFE0028A6D166
:10AD54000623DAE70423D8E7002384F831309EE79A
:10AD6400D4F844122A4604F15400FFF76AFE38B9B5
:10AD740094F8301094F85400FFF765FE002891D041
:10AD8400F8BD94F8310098478FE70820F8E7038866
:10AD9400112B10B50C460AD0262B1FD0102B05D131
:10ADA400C37B012B02D18388A1F8483210BD002255
:10ADB400838881F85222B1F848229A42F6D10B795D
:10ADC400002BF3D101212046FFF7D5FE0028EDD05A
:10ADD400A36B002BEAD0BDE810401847037A013B6F
:10ADE400012BE3D8897805230131B1FBF3F303EB9D
:10ADF4008303C91AC9B2E6E7704775DF704776DF87
:10AE040070477ADF70477BDF70470000034B1A8876
:10AE140082420CBF18460020704700BF244900201E
:10AE2400024B9B6903B11847704700BF08490020D3
:10AE340073B585B22846FFF7E9FF044638B3174EC9
:10AE4400027A337B9A420CD200F10A012846FFF7BA
:10AE5400D4FFF0B111281AD002B0BDE87040FFF75A
:10AE6400DFBF00230372337C43B13B212846FFF745
:10AE7400C6FF30F0080301D0FFF7D2FF736933B186
:10AE840000228DF80420ADF8065001A8984702B0BE
:10AE940070BD237A01332372F9E700BF084900200B
:10AEA40037B50B46497A0F4A79B9D2E901141D7AAC
:10AEB4000246002D18BF21465868FDF72BFE78B1D5
:10AEC40003B0BDE83040FFF7ABBF002119725369EE
:10AED40033B10122ADF806008DF8042001A898478B
:10AEE40003B030BD084900204B8802889A4212D82A
:10AEF40042889A420FD380888B8840F2F3118842AB
:10AF040094BF021A421A9A4205D80844984234BFA0
:10AF14000020012070470020704700000388122B96
:10AF240070B5014659D004D8102B1ED0112B44D033
:10AF340070BD502BFCD12F4BC288DB899A42F7D1CC
:10AF4400038A022BF4D186883046FFF75FFF05465B
:10AF54000028EDD001F1120000F0DCF938BB68687C
:10AF6400FDF732FE0028E3D009E0C37B012BDFD1DB
:10AF74004FF6FF70FFF74AFF054620B90420BDE8ED
:10AF84007040FFF74DBF1C4A8E8806800023037271
:10AF94001368C0F80A305368C0F80E3010310A3014
:10AFA400FFF7A2FF134B6872DB89002BC0D129463F
:10AFB4003046BDE87040FFF773BF8088FFF726FF77
:10AFC40004460028B4D04068FDF7FEFD08B1FFF741
:10AFD40027FF4FF6FF732380AAE786883046FFF7E2
:10AFE40015FF05460028A3D008310A30FFF77CFF7F
:10AFF4006872DCE70849002038490020F8B50646A5
:10B0040048B305460FCD154F3C460FC495E80700DD
:10B0140084E807003068124C3C60B0B1FFF7F1FEE1
:10B02400C0B9326813682360536863600D480E4AE0
:10B034004FF6FF7303800D4B40F8043F0021FDF7EA
:10B0440041FD002818BF032004E02046FFF7DBFE83
:10B054000028EBD0F8BD0E20FCE700BF0849002013
:10B06400384900202449002035AE02004049002020
:10B07400F7B5174601900E4691B1019C6CB10025BD
:10B084002C46294601A8FCF781FE18B13946A8B21E
:10B09400B04701340135142DF3D1204603B0F0BD7F
:10B0A4000C46FAE773B50191019C06466CB1002584
:10B0B4002C46294601A8FCF769FE18B106EB4403A7
:10B0C40001349D800135142DF3D13046346002B033
:10B0D40070BD00002DE9F04703888488112B8CB0E3
:10B0E40005463FD01A2B44D0102B1BD1DFF8C88063
:10B0F400D8F80830DB430093D8F804106846FCF70E
:10B10400AAFE009901A8FFF7CDFF0DF10809002759
:10B11400019B9F4209D3132C14D9214AE321042013
:10B12400FBF700FE0CB0BDE8F08739F802AB00264F
:10B134000136514608EB8600FCF71EFE1D2EF7D1A2
:10B144000137E5E717482146FCF7FFFD164821467D
:10B15400FCF7FBFDEB7B012BE4D014482146FCF704
:10B16400F4FDDFE70F4821460CB0BDE8F047FCF7DB
:10B1740003BE037A0E481F2B4FEA131521460AD942
:10B18400FCF7E3FD022D0B482146EDD00CB0BDE8E1
:10B19400F047FCF7DABDFCF7EFFD06482146E3E78C
:10B1A40055A2030068490020644900206C4900202E
:10B1B400704900207449002060490020132801468A
:10B1C40002D80248FCF7E2BD002070476449002021
:10B1D40007B50190FFF7F2FF019930B10448FCF77D
:10B1E400D5FD002814BF0220012003B05DF804FB44
:10B1F4006C49002007B50190FFF7E0FF019930B1D9
:10B204000448FCF7C3FD002814BF0220012003B04A
:10B214005DF804FB6849002007B50190FFF7CEFFF5
:10B22400019928B1044803B05DF804EBFCF7AEBD06
:10B2340003B05DF804FB00BF7049002007B501901E
:10B24400FFF7BCFF019928B1044803B05DF804EB93
:10B25400FCF79CBD03B05DF804FB00BF74490020FB
:10B2640008B518210248FCF79AFDC0B208BD00BF1A
:10B274006049002070B50A4E054630460C46FCF77E
:10B2840085FD58B12846FFF799FF38B106342946A1
:10B2940006EB8400BDE87040FCF778BD002070BD6B
:10B2A40060490020F8B50D4C054620460E46174669
:10B2B400FCF76CFD80B12846FFF780FF60B1B01D3C
:10B2C40004EB800029461FB1BDE8F840FCF73DBD02
:10B2D400BDE8F840FCF750BDF8BD00BF6049002050
:10B2E40073B50B4D019204460E4601462846FCF701
:10B2F4004DFD50B1043405EB8404019AA068314635
:10B3040002B0BDE87040FFF7B3BE02B070BD00BF2D
:10B3140060490020008800F001007047A0DF7047FA
:10B3240010B50446408800F0CDFBA0802046BDE85F
:10B33400104001F08DBB30B587B005460C4618228D
:10B34400002168460CF075FE072368468DF800302E
:10B35400ADF802500294FFF7E3FF07B030BD0000E0
:10B3640030B587B005461822002168460CF061FE0E
:10B374004FF6FF739D42ADF8025023D0284600F0EB
:10B38400B6FA1128044617D007D860B10B2811D09B
:10B3940021462846FFF7CFFF03E043F20203984219
:10B3A400F6D1002209E00E2368468DF80030FFF73D
:10B3B400B7FFF6E70F23F7E70122034B2846197876
:10B3C400FFF770FF07B030BDDD490020FFF7C8BFAD
:10B3D400024B034918780022FFF782BFDF4900209F
:10B3E40015B4020007B542F6A622ADF800200122EA
:10B3F400ADF80220054A03461068019001AA694687
:10B404001846FFF78BFF03B05DF804FBD8A20300D6
:10B4140070B5254E86B031780446FFF72BFF0546FC
:10B4240000283ED1204600F0B5FA1128014623D069
:10B4340008D8062822D0082820D078B12046FFF763
:10B444007AFF19E043F20203984215D043F2014314
:10B454009842F3D12046FFF783FF0DE029461822D6
:10B4640068460CF0E6FD102368468DF80030ADF810
:10B474000240FFF755FF0125012205E0204600F0B8
:10B4840021FB00F0A1FA0022084B20461978FFF7AF
:10B4940009FF31782A46204606B0BDE87040FFF720
:10B4A40001BF06B070BD00BFE0490020DF490020A5
:10B4B40013B5044600F006FB00236A46092100F098
:10B4C4002BFF052805D1044B012219782046FFF7EC
:10B4D400E9FE02B010BD00BFDC49002008B5084BEE
:10B4E400084918780022FFF7FBFE024630B9064BE4
:10B4F40006491878BDE80840FFF7F2BE08BD00BF52
:10B50400DE49002015B50200DC490020E9B3020041
:10B5140030B5012187B005461C48FCF76DFC044694
:10B52400BFF35F8F70BB284600F09CF98628014664
:10B534000ED007D8D0B1112826D02846FFF7FBFE3D
:10B54400002403E043F202039842F6D122460FE0BE
:10B554001822214668460CF06CFD062368468DF8D7
:10B564000030ADF80250FFF7DBFEEFE7012402469E
:10B57400074B28461978FFF795FE1CB9BFF35F8F78
:10B58400024B1C6007B030BD0122F1E7D84900200E
:10B59400DE49002038B503780446A3B94088FFF794
:10B5A400DFFE6588284600F0E2F928B1064B012247
:10B5B40019782846FFF776FE6088FFF779FFBDE823
:10B5C4003840FFF78BBF38BDDF49002037B503781B
:10B5D400082B044630D1427A72BB057A072D1BD062
:10B5E400082D2ED0012D27D180886A46294601F0E6
:10B5F400BBF808BB019B1B78F3B1A08800F090FA5C
:10B604004FF6FF73984217D0124B2A461978FFF76A
:10B6140049FEFFF7DDFE0FE0808800F081FA4FF667
:10B62400FF739842044607D00B4B01221978FFF7A9
:10B6340039FE2046FFF73CFF03B0BDE83040FFF77A
:10B644004DBF064B19680129F6D1BFF35F8F1A600D
:10B65400F2E700BFDF490020DE490020D84900207E
:10B66400F8B5FFF7FDFD144F144E3870FFF7F8FDE1
:10B674003070FFF7F5FD124D124C2870FFF7F0FD06
:10B684002070FFF7EDFD104B18703B78182B10D08D
:10B694003378182B0DD02B78182B0AD02378182B3D
:10B6A40007D0182805D0094B00201860BFF35F8F1E
:10B6B400F8BD0320FCE700BFDE490020DD4900207F
:10B6C400DF490020E0490020DC490020D84900205F
:10B6D40007B5084B084A0093084B002908BF1346D6
:10B6E400019300F0EFF90022694600F081FE03B0F7
:10B6F4005DF804FB01000900DCA20300E0A20300E2
:10B7040030B503888588522B87B0044632D00ED8D2
:10B71400352B46D0502B31D02C4B2D491878002294
:10B72400FFF7DEFD07B0BDE83040FFF751BE542BF4
:10B73400F2D11822002168460CF07BFC1123284624
:10B744008DF80030ADF8025000F0BCF9ADF80400FB
:10B7540000F03AF91F4B284619780022FFF7A2FDA2
:10B764001D4B284619780022FFF79CFD6846FFF719
:10B77400D7FDD1E72846FFF7F3FDCDE7037B012B87
:10B78400CAD1827A012AC7D1018942F602139942A9
:10B79400C2D1124B28461978FFF784FDFFF79EFEAD
:10B7A400BAE70F4B002219782846FFF77BFDE188A2
:10B7B40051B9A389012B03D1A17B003918BF012101
:10B7C4002846FFF785FFA7E70021F9E7DD490020B8
:10B7D400D1B30200E0490020DF490020DE49002007
:10B7E400DC490020AFDF7047B1DF7047B2DF70473C
:10B7F400B3DF704773B50F4B0F4D93E803006C46EE
:10B8040084E8030000222888214600F0F1FD4FF669
:10B81400FF762B88B34201D0112801D102B070BD4C
:10B82400184600F038FE00222146288000F0E0FD92
:10B83400EFE700BFF8A20300E2490020044B1A8896
:10B844004FF6FF739A4201D0FFF7D4BF704700BF91
:10B85400E2490020024B4FF6FF721A800020704725
:10B86400E24900202DE9F743804600F02BF94FF61A
:10B87400FF739842064637D001274FF003093A4632
:10B884006B460821304600F073FF0137BFB205460E
:10B8940028BB01990A46032342F8049B063140461B
:10B8A400FFF7A4FF044648B932460821304600F0A9
:10B8B400EAFF0446204603B0BDE8F0830C280CD010
:10B8C400052800D12C460821304600F0B3FF00289B
:10B8D40018BF0324002DD2D1ECE70125F3E7072894
:10B8E40014BF04460C24E5E743F20204E2E72DE921
:10B8F400F341074600F0E6F84FF6FF73984218D17B
:10B904000024032526464FF001082B4622463146E3
:10B914003846FFF769FF042821D0082825D00B28D2
:10B924001ED115F002030FD196B9ACB902B0BDE82F
:10B93400F0816A46082100F017FF0028E0D1019B3E
:10B944009C881D689E1DDEE701254FF00008DCE79A
:10B9540003251C461E46F8E703253446F5E7112067
:10B96400B8F1000F08BF0B20E0E70020F8E71FB58F
:10B974000DF10703039300F0A5F802AA012100F0DA
:10B98400F3FE20B9039B187805B05DF804FB002092
:10B99400FAE7000070B505460A48FFF729FF70B9B9
:10B9A400084C43F2030621884FF6FF722846FFF73E
:10B9B40019FFB04204D1238801332380F3E7032025
:10B9C40070BD00BFE449002013B5074A044692E85D
:10B9D40003006B4683E8030000221946204600F06A
:10B9E40007FD02B010BD00BF00A3030046DF70478F
:10B9F400421E00F10F0312F8010F10B99A42FAD156
:10BA040070470120704708B570B171B103780A78A6
:10BA1400534013F0FE0F08D10622013101300CF01F
:10BA24006BFAB0FA80F0400908BD0020FCE72DE96C
:10BA3400F04700F101084F1C06460D4600F11109BC
:10BA440001F1110A1022394640460CF055FA044619
:10BA5400D0B94046FFF7CCFF18B13846FFF7C8FF0E
:10BA6400044651464846FFF7CEFF737C03F0FC03BF
:10BA7400042B05D06B7C03F0FC03042B18BF044695
:10BA840004F00100BDE8F0870024EAE77FB505462D
:10BA94000E4600F077FC02AA0DF10601072000F023
:10BAA40079FC10B94FF6FF7409E0BDF80640B442C2
:10BAB400F1D003992846FFF7BAFF0028EBD02046BF
:10BAC40004B070BD132810B5044602D94FF6FF70B8
