:020000022000DC
:106000000000012079630200616302006363020003
:10601000656302006763020069630200000000001C
:106020000000000000000000000000006B630200A0
:106030006D630200000000006F63020071630200E4
:1060400061990200736302009D9D02007363020068
:106050007363020073630200219C020073630200F9
:1060600073630200736302007363020073630200D0
:1060700073630200736302007363020073630200C0
:10608000736302008D710200736302007363020088
:1060900029720200736302007DF102007363020043
:1060A0007363020073630200736302007363020090
:1060B0007363020073630200000000000000000030
:1060C0007363020073630200736302007363020070
:1060D0007363020073630200736302000000000038
:1060E00000000000000000000000000000000000B0
:1060F00000000000000000000000000000000000A0
:10610000000000000000000000000000000000008F
:10611000000000000000000000000000000000007F
:10612000000000000000000000000000000000006F
:10613000000000000000000000000000000000005F
:10614000000000000000000000000000000000004F
:10615000000000000000000000000000000000003F
:10616000000000000000000000000000000000002F
:10617000000000000000000000000000000000001F
:10618000000000000000000000000000000000000F
:1061900000000000000000000000000000000000FF
:1061A00000000000000000000000000000000000EF
:1061B00000000000000000000000000000000000DF
:1061C00000000000000000000000000000000000CF
:1061D00000000000000000000000000000000000BF
:1061E00000000000000000000000000000000000AF
:1061F000000000000000000000000000000000009F
:10620000364937480A1A02D0072291438D4635494C
:1062100035480A1A06D00722914381F309880222E1
:1062200082F3148831483249324A00F045F8324846
:106230003249334A00F040F832483349334A00F0DB
:106240003BF833483349344A00F036F83348344990
:10625000344A00F031F834483449354A00F02CF81B
:1062600034483549354A00F027F835483549002289
:1062700000F02DF834483549002200F028F8344861
:106280003449091A082903DB002202600430016046
:10629000314A90471F482049884205D0026804309F
:1062A00003B4904703BCF7E700208646EC46002085
:1062B00000212A4A9047FEE7884207D0521A05D0AB
:1062C000037801300B700131013AF9D170478842EF
:1062D00002D002700130FAE7704700000000012090
:1062E00000E0002000000120000001208C1B0300C2
:1062F0002C22002080220020D8630200D8630200F4
:1063000036F702008C1B03002C2200202C220020D8
:10631000A0F80200A0F80200A0F80200A0F8020015
:10632000A0F80200A0F80200A0F80200A0F8020005
:106330008C1B0300E01B0300802200208022002031
:10634000802200207C3300207C3300207C3300201E
:106350007C3300207C530020A1630200B1AD020019
:10636000FEE7FEE7FEE7FEE7FEE7FEE7FEE7FEE705
:10637000FEE7FEE7704700BF1048804710484FF027
:106380000701884385460F4880470F48016841F45C
:1063900070010160BFF34F8FBFF36F8FFFF730BF06
:1063A0000A480B490B4A884207D0521A05D0037895
:1063B00001300B700131013AF9D170477563020069
:1063C000000001206193020088ED00E08CF80200DB
:0863D000182200202C220020FD
:1063D800F0B595B01C46164608460D4602F0D2FEAA
:1063E8001A9B0D93CDE9086400242346082205A9C9
:1063F80028460A948DF82C400C9402F0E1FE079B85
:106408000293BDF81830ADF80C30BDF81A30ADF86D
:106418000E309DF814308DF8114003F00302012A64
:106428001DD1BDF81440059EC3F3C203C4F3831401
:106438008DF81030A20008230EA9284602F0C0FEED
:10644800C6F3952608AB0093224602AB0EA9304648
:1064580000F0F0FB284602F099FE15B0F0BD022AC4
:10646800F8D1BDF81640C3F3C203A4098DF8103063
:106478000827082C264628BF08263B4632460EA980
:10648800284602F09DFEA41B08AB02AA31460EA8BE
:10649800374400F033FC002CEBD1DBE7014B012241
:1064A8001A707047C12200207047000070B50E4D69
:1064B80006460FCD88B06C460FC495E80F0084E8F7
:1064C8000F0008A9002E4FF00603084A41F8203DA6
:1064D80008BF0022064803F0C9F908B100F0A4FD7E
:1064E800044B1E7008B070BDA0F80200A56402003D
:1064F8002C2200208022002007B5044B0093044A78
:106508004023FFF765FF03B05DF804FB1D6502003B
:106518008122002038B50D4B0D4D002018700D4814
:1065280004782D5DD2B21C4665B1043004F06AF8D7
:1065380008B100F079FD084B1A7812B12378002BC6
:10654800FBD038BD0C3003F057FEF1E7C122002024
:10655800C02B00202C2200208022002008B50848EB
:10656800084A0378D35C3BB1043003F0E7FF00200E
:10657800BDE80840FFF79ABF0C3003F0D9FDF6E7F5
:106588002C220020C02B00200120FFF78FBF000025
:1065980008B5FFF7F9FF0421034800F0B9FA034BE7
:1065A80001225A7108BD00BF7CF802004022002079
:1065B800037813F0040216D003F00303012B03D071
:1065C800022B09D0012070470A6800880232C0F304
:1065D800831002440A60F5E70B684288023303EB34
:1065E80092130B60EEE71046704700002DE9F04F5C
:1065F80089B00546861C08A8484C019200230F461E
:1066080000F8113D00F0F8FF23683B60D4E901234E
:106618001344226801339B1A04F21C4704F5836A69
:1066280004F21448B3421AD3019A0023002A6DD009
:10663800012262F3010343F0040365F3891321681F
:10664800A2689DF80F000A4003320E4444F8223035
:10665800266000F0F5FF012009B0BDE8F08F0121A8
:10666800384602F011F8504602F027F8404602F08A
:1066780024F80DF120096068D4F808B049F8100D25
:1066880000EA0B00033004EB80004946FFF790FF57
:10669800049BB0B90BEA030204EB8202D1680591AE
:1066A8009A1C013303EA0B0B04EB8B0C01F0030378
:1066B800012B0492DCF80CB020D0022B04D08346C6
:1066C8000BE00BEA0300DDE7BDF816309B09033346
:1066D8004FEA1B4B02EB93030493404601F0F0FF93
:1066E80008B1049B63605946384601F0CDFFD4E9F0
:1066F80001231344226801339B1A93E7BDF8143031
:10670800C3F383134FEA1B4B1344E5E7022262F3FA
:10671800010343F0040365F39F5390E7942300209B
:106728000B4B0C48FF2210B59A600022C3F81824BE
:10673800C3E90022C3F8142483F8202402F0DBFC08
:10674800044610B9044802F085FD204610BD00BF7C
:1067580094230020B8F70200E0F8020030B50A4C94
:1067680071B10A4A0A49121BD20800239A4201D180
:10677800002030BD31F82350854202D00133F5E7BF
:10678800034654F83300F4E7CCF702007CF8020023
:106798002C220020094B013903EBC000032909D83A
:1067A800DFE801F00A020406042070470079704708
:1067B800407970470020704702207047CCF70200EC
:1067C800034BD3E90030C31A58425841704700BF01
:1067D800942300202DE9F04387B0FFF7F1FF064628
:1067E800002840F0FC807F4DC5F81804BFF34F8F98
:1067F8006868AC6806AF47F8100D2040033005EB19
:1068080080003946FFF7D4FE029B18B1D5F818244A
:10681800002A5FD004EA0302991C013305EB8202C7
:10682800234005EB8303D268DB68049302F003037B
:10683800022B0392029162D1BDF80E306A484FEAEA
:106848009318B8F1500FC14628BF4FF0500969F3AB
:106858008F1309F10801ADF80E3002F064FC074609
:10686800002800F0A78002F08DFC03A9002308226D
:10687800384602F09AFC029924EA01060136B6006D
:10688800B14535D95FFA89F97EB3F6B2A9EB0609A5
:10689800214003315FFA89F4B146544E05EB81017A
:1068A80008234A46384602F080FC36B109F108034D
:1068B80022463146384602F078FC029B08F103086C
:1068C80003EB98030293D5F81834002B4BD1D5F875
:1068D80010445BE02A689A4204D86A60304607B0E0
:1068E800BDE8F08304EA030088E740493446D7E767
:1068F8002140033108234A4605EB8101DAE7012BE1
:1069080058D1BDF80C303848C3F38311062928BF85
:10691800062161F3891302318900ADF80C3002F0C9
:1069280002FC0746002845D002F02CFC0023082270
:1069380003A9384602F039FC0026BDF80C20C2F342
:106948008312B31C96424FEA8303BCD202994A1CB5
:1069580021400331029205EB81010422384602F0FE
:1069680024FC0136E9E7384602F010FCFFF728FF5F
:1069780080F00100C6B2B1E7E3685B7923B1236810
:1069880039461B6820469847E3681C68002CF3D1F9
:10699800384602F0FBFB06A800F8114D00F02CFE6B
:1069A800D5F818340BB9029B6B609DF8070000F00E
:1069B80047FEDBE7D5F8104454B90D4B0D480E4996
:1069C800C01AC008000440F0020000F06FF8CDE7DC
:1069D800236820469B689847E3681C68ECE7002614
:1069E8007CE700BF94230020B8F70200A023002012
:1069F800CCF70200F4F70200ECF802002DE9F74F9B
:106A0800284C80460F46924601A9012218469B460B
:106A1800D4F80890FFF7EAFD88B3019D0026A91C69
:106A28005E4506EB010234D100211F4801F0EBFD61
:106A380080F310006A1C02EA090204EB82020004D7
:106A480005EA0903033340EA1840D06014F823200C
:106A580068F3C50204F8232034F8232066F389126A
:106A680024F8232054F82320012167F39F2244F8B7
:106A7800232061F301026FF3820204F8232094F8C3
:106A880020341BB1FFF7A6FE0028FBD103B0BDE8F8
:106A9800F08F09EA020204EB82025AF82630D3602A
:106AA8000136BDE794230020B027002000231A46B2
:106AB800FFF7A4BF13B502AC012344F8042D224606
:106AC800FFF79CFF02B010BD07B5CDE900230223F4
:106AD8006A46FFF793FF03B05DF804FB1FB5CDE9E5
:106AE8000123069B039301AA0323FFF787FF05B041
:106AF8005DF804FB1FB5CDE90023069B0293079BB5
:106B080003936A460423FFF779FF05B05DF804FB99
:106B180030B50F49D1F81024002314463CB9C46895
:106B2800237152B9C1F810042260184630BDE468D8
:106B380025799D4206D02468F0E7D2681168216063
:106B48001060F2E701330A2BE7D14FF0FF33ECE78F
:106B580094230020094A38B50123D2F8104482F85A
:106B680020341D4604B938BDE3685D7123682046AA
:106B78005B689847E3681C68F4E700BF942300202B
:106B8800037A052B10B50C460FD0437A23B1084A77
:106B98000849204601F0F5FD0749204601F0F1FDBE
:106BA8002046BDE8104001F0E1BD002AF8D0F3E727
:106BB80037F90200C30F030059F90200C38873B5FF
:106BC80004460D4633B1144A00921449144A284623
:106BD80001F0D7FD217A05291CD0637A4BB1A08832
:106BE800FFF7D8FD0F4B104953F82020284601F035
:106BF800C8FD227A0D4BA08853F822600021FFF7C8
:106C0800ADFD0B4903463246284602B0BDE8704048
:106C180001F0B7BD02B070BD37F9020044F90200B7
:106C28003CF9020004F90200C30F030068F90200EE
:106C38005CF902002DE9F04385B01F460C9D002346
:106C480006460C46904695F80C902B732946384614
:106C5800FFF7B4FFB8F1060F09D8DFE808F004120F
:106C6800181F283340003146284601F08AFD0022CB
:106C780029463846FFF784FF85F80C9005B0BDE833
:106C8800F08322683146284601F07BFDEFE7D4E91E
:106C980000233146284601F074FDE8E7A368009315
:106CA8003146D4E90023284601F06BFDDFE7E368AD
:106CB8000193A36800933146D4E90023284601F0E4
:106CC80060FDD4E723690293E3680193A368009306
:106CD8003146D4E90023284601F053FDC7E763692C
:106CE800039323690293E3680193A36800933146F1
:106CF800D4E90023284601F044FDB8E708292DE926
:106D0800F84F80460E4617461C4636D8002593F89D
:106D18000C901D7319461046FFF750FFDFF87CA052
:106D2800DFF87CB0AE422AD918F80520594620462B
:106D380001F027FD0135082DF4D11649DFF864B0BC
:106D4800204601F01EFD0025AE421DD918F805A009
:106D5800504608F025FC002814BF52462E225946FA
:106D6800204601F00EFD0135082DEDD10122214606
:106D78003846FFF705FF84F80C90BDE8F88F5146B8
:106D8800204601F0FEFCD5E70349204601F0F9FC56
:106D9800E9E700BF32F9020030F902002EF90200DB
:106DA80028F9020034F902002DE9F04F3B4F89B071
:106DB80000263B4B1B78F5B2AB4202D809B0BDE8C0
:106DC800F08F384B196811F835000124A0F1200222
:106DD800C0F1200304FA02F924FA03F349EA03098B
:106DE800D7E9002304FA00F8CDE9042302EA0802EF
:106DF80003EA0903134301EBC50B4CD0DDE9042377
:106E080022EA080223EA0903C7E90023079102F0EE
:106E1800F9FE0799844611F83500A0F12002C0F167
:106E2800200324FA03F304FA02F21A4304FA00F3E3
:106E380000931D4B0192DDE90045D3E9002314407E
:106E48001D4022462B465FFA8CF40025CDE9044507
:106E5800049CA0F12005AC400394049CC0F12001DF
:106E680024FA01F1039C0C43049903948140029194
:106E7800DDE90245AB4208BFA2420CD19BF80110E4
:106E88004B1E59425941A1EB0C02DBF80430514228
:106E9800514103B1984701368BE700BF8028002095
:106EA8005028002088280020782800202DE9F84F55
:106EB8000646244800F090FB002841D10123A6F1A2
:106EC8002001C6F1200203FA01FB23FA02F203FAB9
:106ED80006FA1D4BD3E900014BEA020B00EA0A0847
:106EE80001EA0B0958EA09021F4623D1304602F08D
:106EF80089FE164BB8B1D3E9000140EA0A0441EA19
:106F08000B05C3E90045D7E900234BEA0305104BFD
:106F18000C4819684AEA0204C7E900450022BDE89E
:106F2800F84F00F015BBD3E9000120EA0A0421EA72
:106F38000B05E6E720EA0A0421EA0B05C3E9004548
:106F4800BDE8F88F582800208028002078280020E5
:106F580054280020042A2DE9F34105460C4616461C
:106F68003AD902F087FDD8B11C4B1D491D601D4B55
:106F7800DFF884801C701C4B00221E600023C1E9CE
:106F880000231A49C1E90023013CE4B20026032783
:106F9800FF2C0CD1164A1748002100F0C7FA03E06D
:106FA80002F030FD0028DFD002B0BDE8F08123B246
:106FB80005EBC30201A992788DF8052015F8330076
:106FC8008DF8066042468DF8047002F05DFD013CC4
:106FD800E4B20028DCD0E7E70720E5E788280020AE
:106FE80078280020502800205428002080280020DD
:106FF800B16D0200C8F90200B56E020070B5084D07
:10700800084E00242B789C4201D3002070BD3368C1
:10701800012113F8340002F0AFFD0134F2E700BF9C
:1070280050280020882800201FB50021039001AABD
:1070380044F20100CDE9011100F004F805B05DF853
:1070480004FB000010B572B6FFF784FDFFF7C2FB22
:107058000028FBD1104B114C1149E41AE408240410
:1070680044F00100FFF722FD0E4B1B68DB0700D53B
:1070780000BE0D4944F00200FFF718FDBFF34F8F23
:107088000A490B4BCA6802F4E0621343CB60BFF3B2
:107098004F8F00BFFDE700BFCCF70200F4F70200F6
:1070A800CCF90200F0ED00E0D8F9020000ED00E0B4
:1070B8000400FA05094A537891780133DBB2994202
:1070C80008BF0023117899421FBF03705078182316
:1070D80003FB002014BF0430002070478C280020D8
:1070E80073B5054602A8002400F8014D0E4600F0CD
:1070F80083FA0DF10600FFF7DDFF90B106700A4B29
:107108009DF8062045605A709DF8070000F098FA2F
:1071180024B9064B4FF48012C3F80021204602B070
:1071280070BD0424F0E700BF8C28002000E100E0D7
:10713800024B4FF43C6043F001031847F0F902009A
:1071480038B50C4B0C4C4FF40032C3F880200125A5
:107158004FF48033C4F84833C4F808336560FFF748
:10716800E7FF064BA56000241C60FFF7E1FF044B16
:107178001C7038BD00E100E000100140A829002083
:1071880099290020F8B51F4B1F491B680025C1F835
:107198004051C1F84451C1F84851C1F84C51C1F8A7
:1071A8000051C1F804514BB3D1F804451749096897
:1071B800641A24F07F442F461A68A24209D8A41AF8
:1071C80015441A7CDE691AB11F74D3E9052090476B
:1071D800AEB90F4B0F4A197813788B4205D101339A
:1071E800DBB2022B08BF0023137012780A4B43F856
:1071F80022500A4B4FF48012C3F80021F8BD3346E1
:10720800DAE700BFAC29002000100140A8290020BF
:10721800A4290020A52900209C29002000E100E0E5
:107228002DE9F74F9E4A9F49137809789E4D994258
:107238003CD00133DBB2022B08BF002313709B49FB
:1072480012789B4B0F6853F822003B1823F07F43BA
:1072580000220B602B6816461446944613B942B1B7
:107268002B6006E0196881420ED902B12B60091A19
:1072780019604FF001082B68DFF83CA20093002743
:10728800BEB9DFF83CB260E0401A0C44D968C3F8D4
:1072980000C0D3F81CE031B13A1922F07F42C3E9AB
:1072A8000121DE611E4601227346D7E70026B0465B
:1072B800E1E73446F6697D4A63681268DFF804C27C
:1072C800A068991A21F07F41614500F2A580014428
:1072D8002160012222742A680023C4E90133E36192
:1072E800002A40F0A2802C60CAE75A1C9BF80210C2
:1072F800D2B291428BF8002004BF00228BF8002004
:10730800182202FB03B32A6819799C68022974D0F1
:1073180003297ED0012918D1217CB1B9DA686260CD
:107328001A69A2605A699B69A361624BE2601B7883
:10733800002BC0D06160BEE79C4200F09380994664
:10734800DB69002BF8D1002323749BF800309BF8ED
:1073580001209A42C9D12B682FB9009A934202D1D1
:10736800B8F1000F43D0002B79D0D3F800A0524DCC
:107378004E4BD5F804751C68DFF84C813E1B98F815
:10738800003026F07F4603369BB94FF48033C5F8AA
:107398004433C5F80433494B4FF400324FF0010928
:1073A800C3F880211A60C5F80090FFF7C1FE88F87D
:1073B8000090B2452CBF5444A41924F07F44C5F86A
:1073C8004045D5F80435DB1B23F07F43E41B03332A
:1073D80024F07F44A3420AD9D5F80435C5F84035CE
:1073E800FFF7A6FE354B4FF40032C3F80021314BAE
:1073F80000221A7003B0BDE8F08F13469146A0E74B
:107408001174D2690123002AFAD1002B9DD02A6079
:107418009BE700231946F6E7D31A23F07F438342FC
:1074280034BFC31A0023236053E7216813689942C5
:1074380013D8591A1160E26155E7091AD8691A4632
:1074480038B1034618688842F7D3401A18601846BE
:1074580013462160E061DC6112E71346F2E7FFF7AB
:107468006FFEC4E74C450DD1D3692B6053B90F4863
:1074780001920121CAF8081003600E4B1970FFF73A
:1074880057FE019AE1692368C9F81C1011B1086810
:1074980003440B602B689A4218BF012753E700BFCB
:1074A800A4290020A5290020AC290020A829002013
:1074B8009C290020982900200010014000E100E0EC
:1074C8008C280020FEFF7F009929002008B5FFF7CF
:1074D80037FE104B00200B2218809A700E4B186054
:1074E8000E4B18700E4B18700E4B4FF48012C021C3
:1074F800C3F8802183F814131A6002F18042A2F5C0
:107508006F22C2F8080583F81113074BD2F8042537
:107518001A6008BD8C280020AC290020A42900206E
:10752800A529002000E100E0A8290020074B9B784E
:107538004BB132B128B10368187C20B959745A612B
:107548007047072070470820704700BF8C2800202C
:107558002DE9F7431D4FBB7805460E4690469BB371
:1075680090B304292ED9436973B3437C02A800243D
:10757800012B00F8014D0CBF8946A14600F03CF8EC
:107588000DF10600FFF796FDD0B101230370104BF3
:107598004560D3F80435C0E90498C0E902369DF87F
:1075A80006307B709DF8070000F04AF824B9094BB3
:1075B8004FF48012C3F80021204603B0BDE8F083E1
:1075C8000424EFE70724F7E70824F5E78C280020D0
:1075D8000010014000E100E0064A92783AB130B16B
:1075E800426922B1002202740221FFF779BD082006
:1075F800704700BF8C28002070B5EFF3108672B674
:107608000C4A946801239CB993600B4B0B4DD3F83B
:10761800801029401160C3F88050D3F8841051605D
:107628004FF0FF32C3F88420047006B962B670BD0B
:107638000370FAE7B029002000E100E0FC06FFBD76
:10764800084B9A6810B55AB150B9EFF3108172B669
:10765800054A1C6814605C685460986001B962B699
:1076680010BD00BFB029002000E100E070B5064E53
:107678000546002456F824300BB1284698470134B3
:10768800042CF7D170BD00BFC8290020033080B298
:1076980040F2FD33984230B51FD8124B1A783AB9E8
:1076A8001C895D892C440444A4B2B4F5806F0AD3C4
:1076B8001A7DA2B99A8BDC8B2244024492B2B2F5AD
:1076C800806F0CD201220A801446142202FB043374
:1076D8005A8910445881002030BD0920FCE7072052
:1076E800FAE700BFFC2900200B4A0C4B51881420F4
:1076F80000FB0131CB6833B90420496810700122BE
:10770800074801F0C3BA05230649137002238B808A
:10771800012200230968F3E7E0290020FC29002062
:1077280018220020C42A002007B500230549009329
:10773800054A09680548082301F012FA03B05DF804
:1077480004FB00BFC42A002004FA0200182200200B
:1077580007B50023009301460823034A034801F0B4
:10776800FFF903B05DF804FBFCF9020018220020C1
:1077780013B500230C46009301460423074A084822
:1077880001F0EEF938B9074B142202FB0434012347
:10779800237402B010BD0E20FBE700BFF8F9020009
:1077A80018220020FC29002037B50A480A4B4268F5
:1077B8009C88196853880325033305709BB2002001
:1077C80000909B0001EB8401044801F0C9F903B063
:1077D80030BD00BFE0290020C42A00201822002064
:1077E80010B50146044800F042FE1C220446002160
:1077F80007F03AFF204610BDB02A00204388033323
:1078080000EB8303994209D382884FF6FF739A42AB
:1078180006D00088B0FA80F040097047022070470F
:10782800012070472DE9F8430223DFF860800B80C0
:107838000D46174600F5805600F108044FF001097F
:10784800B4420FD2236801330CD031462046FFF7EB
:10785800D5FF48B10FB187F8009002280BD14FF43B
:1078680080632B80BDE8F883A368D8F80020934292
:1078780001D9C8F800302B886288033313442B8061
:107888006388033304EB8304DAE700BFF42900209C
:10789800144A142303FB002070B50B6844680D4696
:1078A80004F580569BB15C88033403EB8404B4422E
:1078B8000BD22368013308D031462046FFF79EFFDC
:1078C800012809D005D30228F1D1002003E00834AB
:1078D800EDE72C60012070BD6388033304EB83045B
:1078E800E5E700BFFC290020436873B505460C4650
:1078F8006BB3254AD1688B4229D31269934226D8A3
:1079080013F0030223D121490089098988421ED135
:107918002868996888421AD11D494868834203D962
:1079280000F5805083420ED38A6993420DD902F53F
:107938008052934209D2012323800020B0FA80F0BC
:10794800400902B070BD1346F6E70A20F6E70023A7
:1079580023801E462388012B01D90020F1E70196D8
:1079680001A92088FFF794FF18B9238801332380E1
:10797800F0E7019B2A6899689142F1D16B60034B4B
:107988001B892B81DDE700BF18220020E029002099
:10799800FC2900202DE9F8431C461E4B1B7806469F
:1079A8000F461546002B30D0002A30D07CB3DFF8C4
:1079B8006C804FF01409A388012B01D90A201AE022
:1079C80009FB03F318F80330BBB1A3880133A38084
:1079D800F1E723681EB19988328891420DD11FB111
:1079E80019883A88914208D19A68C5E900230A4B58
:1079F8001B892B810020BDE8F8832146A088FFF76A
:107A080047FF0028E5D12060DFE70220F3E70520E3
:107A1800F1E700BFD8290020E0290020FC29002038
:107A280008B5074B191D5888FFF732FF18B1BDE894
:107A38000840FFF7B9BEBDE80840FFF755BE00BFD4
:107A4800E02900202DE9F04FA04FDFF8A49289B07B
:107A58000646B8463B6823B949469D4800F041FDB3
:107A68003860D8F8005029784B1E052B00F2128197
:107A7800DFE813F0060076007600060106015D01D6
:107A880026B1944B00225A60012424E02B79032B61
:107A98001DD8DFE803F01502424D8F490B78022B01
:107AA800084631D00B7D022B4FF001032ED1142252
:107AB8005343C2180020C8545068FFF749FE03E03A
:107AC80001232B71FFF730FE002800F0D380814B93
:107AD80000225A600E241422002103A807F0C4FDD6
:107AE80041F61D539C4208BF0024D8F80030049486
:107AF8001A78023A042A00F2D381DFE812F0B401BE
:107B0800C001E301EB01F2010023D0E7714A1370D1
:107B18000023536041F61D54DDE770497048002387
:107B280002222B718A800122096801F0AFF8CBE7A5
:107B38006A4C00262E712068674DFFF709FE694BD5
:107B4800D4F800C05A8814235343EA18EE545168F5
:107B58002160A188C2F804C011810222A280B3E783
:107B6800B5F814A0AA7DDFF870B1AEB1022AEB888F
:107B780006D9142101FB0AB1DA1C088902440A81DA
:107B8800142202FB0ABAC3F57F43BAF80A20FD3370
:107B98001344AAF80A3077E7142303FB0AB31889B9
:107BA8005C6804EB8004062A05D8DFE802F0264C5E
:107BB80034421C5866000F24AA7DEB88022A06D995
:107BC800142101FB0AB1DA1C088902440A81142233
:107BD80002FB0ABAC3F57F43BAF80A20FD331344FF
:107BE800AAF80A3077E74048404900234360AB6968
:107BF8000360FFF779FE00285AD00223AB750023F3
:107C080000930423EA182146354800F0A9FF00280C
:107C180030D00E24D0E72B69002B0CBF012303239F
:107C2800AB750023009305F10C02042304F108014D
:107C3800EAE70123AB750022EB8800929B002A69D2
:107C480004F10C01E0E7032914BF06230523AB75F3
:107C580000230093042305F10802E118D4E7062362
:107C6800AB75224B1988204B5868FFF781FD0446F5
:107C78000028A1D109B0BDE8F08F41F61D549BE75B
:107C8800002E7FF401AF2B79012B33D004D3022BC4
:107C98003FF440AF0F241EE702232B710DF10A01B8
:107CA800EB68039303A8CDE90466FFF71DFE08B946
:107CB8000A2410E70498BDF80A108388EB8003882B
:107CC8002B81FFF755FD044627E000BFF829002067
:107CD800B02A0020D8290020FC290020C42A00202E
:107CE80018220020E0290020BC290020D02A0020EA
:107CF800F0290020DFF808A203AA53463146A81D40
:107D0800FFF748FE044660B9BAF804100498FFF774
:107D18002FFD04460A2C3FF4FDAE002C7FF4DBAEA9
:107D2800A8E708223146504607F09EFCF2E7002EED
:107D38007FF4AAAE6D4B1A7BB2B11E731A78013A62
:107D4800062AA7D801A151F822F000BFFB7D020046
:107D5800217E02003F7E0200457E02009D7C0200DB
:107D68004B7E0200617E02001A78072AE6D801A13C
:107D780051F822F09D7D0200457D0200457D0200FC
:107D8800C37D0200D77D0200F77D0200F77D020067
:107D9800BF7D02001A89564901321A8100225A8091
:107DA8001A730A78B2FA82F252099A720A7DB2FA02
:107DB80082F25209DA72012207E04E4958688A882D
:107DC8004088033202448A8002221A70B6E7484C7F
:107DD8005A884849142505FB0242086854685060CF
:107DE8008888108102228A800C600622EDE707222B
:107DF800EBE79A7A32B9DA7A8AB900221A705A808D
:107E08005A6087E63A4900229A72CA68002AF2D173
:107E1800097C0029EFD05A80FFF702FE53E70022C1
:107E2800DA72334A116A0029E7D192F82420002A2D
:107E3800E3D00122EFE7FFF7B7FC44E7FFF754FC74
:107E480041E706221A702A4A5B88142101FB0323A2
:107E58005868FFF77DFC36E707221A7000225A603F
:107E6800FFF762FC2FE701228DF80C201A89ADF884
:107E780018209A88DB68ADF81A20059310E00222D2
:107E88008DF80C201A89ADF818209A88ADF81A20B8
:107E9800DA689B7D05929A1F534253418DF81C3036
:107EA80003A8FFF7E3FB002649461348C8F800601B
:107EB80000F042FB0121114800F0F1FB00287FF49B
:107EC800C9ADD7E603228DF80C20DA88ADF8182062
:107ED8001A89CFE70422DB888DF80C20ADF818301A
:107EE800DEE705238DF80C30DAE700BFE029002033
:107EF800FC290020C42A0020B02A0020C02A002023
:107F0800D42A00204068FFF79DBD000008B5012174
:107F1800044800F0AEFB18B9BDE80840FFF792BD71
:107F280008BD00BFC02A00202DE9F3419846354B13
:107F38001B7806460D46002B5BD000295BD00988CC
:107F48004FF6FF73994258D06B88002B55D06B6859
:107F58009B0754D14AB92F890DF102013846FFF722
:107F680095FB30B102B0BDE8F08113885788ADF8B1
:107F7800023001A8FFF734FC044658B9BDF80230B6
:107F8800214A142101FB032358890338C01B588157
:107F98000820E7E700238375BDF8023083826B6809
:107FA800036180F800800121184800F06DFB2B88E0
:107FB8002381B8F1030F6B88A38004BF0423A37542
:107FC8004FF0000508BF3368E06008BFA361E78091
:107FD800658101A90E4800F074FA36B1E368336090
:107FE8000C4B75601B89B5723381FFF78FFF00203A
:107FF800B8E70220B6E70520B4E70420B2E703207B
:10800800B0E700BFD8290020FC290020F42900206F
:10801800B02A0020E029002008B5084B1A68042A75
:1080280009D01968064A42F821000121184600F0D3
:108038002BFB002008BD0C20FCE700BFCC2A002049
:10804800C82900202DE9F04F89B01422002103A887
:1080580007F00AFB7B4A137803F0FF010091904672
:108068003BB103A8FFF702FB0026304609B0BDE884
:10807800F08F101D00F01EFB05460028F4D14FF0CC
:1080880010234FF080525B6911695269DFF8DCA157
:10809800581C08BF02FB01F3CAF810300022A3F5F0
:1080A80040536949CAF80C30504600F025FD064691
:1080B8000028DAD11C238C226449654800F0A2F913
:1080C8003746B3464FF003093446CDF804A0019B68
:1080D800D9680BEB010002465BF80110002835D087
:1080E8005C4B994232D141685B4B994215D00133C0
:1080F80099422BD1009BDFF86CA1002B59D10022AB
:108108005649CAF80000FFF78DFBBAF80420022A86
:1081180014BF0822042217433AE051494FF0140CC7
:108128000CFB04FC01EB0C024FF0000E01F80CE014
:1081380050600CF110020CF1080C0A446144FFF77E
:1081480071FB47F002070134A4B221E000F5805C1E
:108158001168013167D104329445F9D1414A116857
:1081680029B9022101231060918000930EE01422A6
:1081780062433B4B4FF0020E991803F802E03A4A6B
:10818800486054800134A1F808E0A4B247F0010720
:108198000BF5805BBBF5405F99D1B9F1010F88BF42
:1081A8003D46EDB2022D02D0062D12D0DDB90B26C8
:1081B8005BE72B4B1422624399184FF0020C03F82B
:1081C80002C00134DAF800204A60A1F808C0A4B25D
:1081D80095E7012388F8003003A80023C8F8043085
:1081E800FFF744FA41E702A8FFF7FAFAC8B10123FA
:1081F800013D03700A2D09D8DFE805F006080608D6
:10820800070807080F110F000023037102A910487F
:1082180000F057F9FFF77AFE27E70323F5E7022373
:10822800F3E7082621E70E491422624301EB020C0A
:1082380009F1FF39CCF8040003201FFA89F98854A2
:1082480081E700BFD8290020F8FB0200242A00207B
:10825800B02A0020DEC0ADDEFE011EF1C82A0020D3
:10826800FC290020C42A0020E02900201822002030
:1082780073B50D460446C8B1C1B10DF10601FFF74B
:1082880033FBA8B10B4BBDF806006668142202FB4D
:10829800003001210C3000F0F7F963682E600C33D0
:1082A8006B600123A372002002B070BD0520FBE7BC
:1082B8000A20F9E7FC29002013B50446A8B10DF1FE
:1082C8000601FFF711FB90B10B4ABDF806301421E7
:1082D80001FB0323DA6862B1A27A52B1DA6800209E
:1082E800013ADA60A07202B010BD0520FBE70A204F
:1082F800F9E70620F7E700BFFC2900200223002247
:10830800FFF712BE18B103230022FFF70DBE0520A8
:1083180070470000104B1B7813B50446ABB14FF6FD
:10832800FF73984213D001A8FFF75AFA88B10523C2
:10833800037001230371C48001A9084800F0C1F843
:10834800FFF7E4FD002002B010BD0220FBE7042087
:10835800F9E70820F7E700BFD8290020B02A002055
:108368000E4B1B7807B5A3B101A8FFF739FA90B1F6
:108378000623037001A90A4800F0A3F8094B1A78EC
:108388000AB101221A73FFF7C1FD002003B05DF89E
:1083980004FB0220FAE70820F8E700BFD8290020EC
:1083A800B02A0020E029002007B5ADF8060002A891
:1083B80020F8041D01460DF10600FFF7EBFA03B0A3
:1083C8005DF804FB13B502AC134624F8020D0A4607
:1083D80000202146FFF7DEFA02B010BD13B502AC4B
:1083E800134624F8020D0A4620460021FFF7D2FA68
:1083F80002B010BD20B119B103680B6000207047AE
:108408000520704710B561B1B2FBF3F403FB1424E7
:10841800A4B244B9C0E9001484608281C3812046B3
:1084280010BD0E20FCE70920FAE782B050E8022FC1
:10843800C188B2EB324F4FF0000317BF92B241EA46
:10844800014142EA014104E04268B2EB324F08BF01
:10845800012340E80212002AE8D18DF807309DF880
:108468000730002B0CBF1120002002B0704737B531
:1084780050E8013F9DB2C48925448489A54228BF9C
:108488002D1B0489A54202BFBFF32F8F002207E0EE
:10849800C5EA030540E80154002CE9D14FF0010278
:1084A8008DF803200193019B9DF803200B6002F0D7
:1084B800FF0322B10B880068184403B030BD18468A
:1084C800FBE70A884B889A4209D150E8012FC2EA93
:1084D800024240E80123002BF7D101207047002019
:1084E800704737B550E8023F1FFAA3F5C488A54284
:1084F80002BFBFF32F8F00220DE0C4892544848971
:10850800A54228BF2D1BC3EA054540E80254002CAC
:10851800E8D14FF001028DF803200193019B9DF8EB
:1085280003200B6002F0FF0322B14B880068184457
:1085380003B030BD1846FBE70A884B889A4209D138
:1085480050E8022FC2EA224240E80223002BF7D16A
:10855800012070470020704701F01F024B090121DC
:10856800914000EB830000F063B84B0910B501F0AF
:108578001F040121A14000EB830000F04EF8E04009
:1085880000F0010010BD01F01F0301229A404B09C1
:1085980000EB8300D14300F061B84B0901F01F01E3
:1085A80050F82300C84000F0010070472DE9F0475B
:1085B8004E1E760980460F460136002558F825409C
:1085C80008EB850AE44394FAA4F4B4FA84F44FEA75
:1085D8004519202C06D10135AE42EFD83C4620463D
:1085E800BDE8F0874C44A742F5D921464046FFF73D
:1085F800BCFF0028F3D0DAF80040E44394FAA4F46E
:10860800B4FA84F4E5E750E8002F0B4640E8003C54
:108618009CF0000FF7D11046704750E8002F42EA4F
:10862800010340E8003C9CF0000FF6D1104670476B
:1086380050E8003F43EA010240E8002C9CF0000F9C
:10864800F6D11046704750E8002F02EA010340E8CF
:10865800003C9CF0000FF6D11046704750E8003FF0
:1086680003EA010240E8002C9CF0000FF6D1104606
:10867800704750E8002F02EB010340E8003C9CF0F3
:10868800000FF6D11046704750E8003F03EB010297
:1086980040E8002C9CF0000FF6D11046704750E8D7
:1086A800003FA3EB010240E8002C9CF0000FF6D13C
:1086B800104670470121FFF7B0BF0121FFF7B8BF8F
:1086C8000021FFF7C0BF10B590B1D0E901230168C0
:1086D8009B1ADBB20A60013BDBB2FF2B026802D1B6
:1086E8000020107110BD11684C1C14600B70F2E76B
:1086F8000E20F7E737B5054602A8002400F8014D1B
:10870800FEF77AFF2A686B68116899420ED9481EED
:10871800106011F8014CEB68298A01FB0434AB683E
:1087280011791B1ADBB2994238BF13719DF8070003
:10873800FEF786FF204603B030BD37B5054602A8D0
:10874800002300F8013D0C46FEF756FF2A6813681F
:10875800591C1160E968641A298AB4FBF1F41C7089
:108768009DF80700FEF76CFF03B030BD826810B5B6
:1087780004462AB143690168006998470023A36049
:1087880010BD0EB403B5039929B102AA04AB42F88F
:10879800043D00F06BF802B05DF804EB03B07047DD
:1087A800826830B40468551C8560A154D0E9013250
:1087B8009A4202D330BCFFF7D9BF30BC70470000E3
:1087C8002DE9F84F9946DDE90A431746824688465F
:1087D8000A460126BA420FD24E4538BF4E4613F01C
:1087E800010B01D164B900240125B9F1010F1AD98F
:1087F80009F1FF397D43F8E7B2FBF7F20136E9E703
:108808009B070ED5B9F1000F0CBF30252025A642D5
:10881800EAD2013C29465046FFF7C2FF002CF6D1A8
:10882800E1E72025F3E7B8FBF5F39F42E2D9DFF84B
:108838003890B8FBF5F3504619F8031005FB138878
:10884800FFF7AEFFB5FBF7F5002DF2D1BBF1000F36
:1088580002D00CB1A64201D3BDE8F88F20215046C2
:10886800013CFFF79DFFF4E70CFA02002DE9F74FF2
:10887800054690460E46002900F03A8116F8011B7D
:10888800002958D0252940F0D180002702E047F080
:1088980001071646324612F8013B2D2BF7D0302B34
:1088A80004D02B2B05D147F00407F2E747F0020765
:1088B800EFE700242A2B06F101021BD1D8F800307B
:1088C800191D1B68C8F800101C44164633782E2B57
:1088D8001CD101364FF0000A314611F8012BA2F1E4
:1088E8003000092814D80A2303FB0A23A3F1300A0D
:1088F8000E46F1E712F8013CA3F130010929E5D849
:108908000A2101FB0434303C1646D3E74FF0000A35
:10891800324612F8011B01F0FB0068281646F8D011
:10892800692916D054D8582970D00ED825297DD059
:108938003378002BA2D12B7B002B00F0D98028465E
:1089480003B0BDE8F04FFFF711BF632968D0642971
:10895800EED1D8F80020D2F80090111D89EAE9720A
:10896800C8F80010A2EBE9724FF0010B092A61DC8C
:10897800D34538BFD3462CB1B9F1000F01DB7907D5
:1089880000D5013CBA0702D5BAF1000F04D0FB07A5
:1089980002D4002C54D10024B9F1000F58DAC9F1DF
:1089A80000092D212846FFF7FBFE07F00302022AE3
:1089B80005D1BAF1000F02D1002C4DD10024CDE928
:1089C800004753460A2249462846FFF7F9FEAFE713
:1089D800732954D016D87029AAD1D8F800301A1D96
:1089E800C8F80020302128461C68FFF7D9FE7821F6
:1089F8002846FFF7D5FE00220823CDE9003221469C
:108A08001022E1E775292FD0782991D1D8F80010E4
:108A18000A1DC8F80020CDE90047534610222CE073
:108A2800D8F800301A1D1978C8F800202846FFF732
:108A3800B7FE7DE70A230BF1010B92FBF3F295E7F2
:108A4800A345A9D220212846013CFFF7A9FEA0E7AB
:108A58007807AAD52B21A5E7A345B0D2302128460F
:108A6800013CFFF79DFEA7E7D8F80010CDE90047C5
:108A78000A1DC8F8002053460A220968A4E7D8F856
:108A880000301A1DC8F80020F907D3F8009012D555
:108A98004F46A7EB090B17F8011B41B9A345BFF4D3
:108AA80047AF20212846013CFFF77AFEF6E7284623
:108AB800FFF776FEEDE7B9F1000F17D0484606F04C
:108AC80006FE0746BC4200D954B909F1FF3919F826
:108AD800011F00293FF42CAF2846FFF761FEF6E797
:108AE80020212846013CFFF75BFEEBE74F46E9E70C
:108AF80003B0BDE8F08F000007B50B4688B9124BEC
:108B08001248134AC01A0E23C0080093114B0004E0
:108B1800114940F00100FDF7E1FF0E2003B05DF8B8
:108B280004FB4BB9084B09480C4AC01AC0080E236D
:108B380000930004074BEBE703601B68114603B082
:108B48005DF804EB184700BFCCF702000CF80200F0
:108B5800C9FA02001CFA0200CEFA020045FB020024
:108B68002DE9F34188B93D4B3D483E4AC01AC0083B
:108B78000E243D4B009400043C4940F00100FDF7F1
:108B8800ADFF204602B0BDE8F0814AB9334B344806
:108B9800374AC01AC0080E2400040094324BEBE791
:108BA800D0F800C0BCF1000F09D12C4B2C48314A39
:108BB800C01AC0080824000400942B4BDCE74BB90A
:108BC800264B27482C4AC01AC008092400040094E0
:108BD800254BD1E74768D7F80480B3FBF8F708FBC3
:108BE80017374FB11D4B1E48244AC01AC008092424
:108BF800000400941C4BBFE78F0709D0174B184897
:108C08001F4AC01AC008102400040094164BB3E78A
:108C180012F0030F09D0114B11481A4AC01AC008A4
:108C2800102400040094104BA6E7C768B9420BD380
:108C38004C1E05691C44AC4206D8DCF80C40A4461E
:108C480002B0BDE8F0416047044B05480E4AC01A1F
:108C5800C008102400040094034B8DE7CCF70200F1
:108C68000CF80200C9FA02002EFA0200CEFA02003D
:108C78004BFB02003FFB0200FEFA020051FB020020
:108C88007BFB020093FB0200B6FB0200F7B580B93C
:108C98002A4B2B482B4AC01AC0080E242A4B009492
:108CA80000042A4940F00100FDF718FF204603B0F0
:108CB800F0BDD0F800C0BCF1000F09D11F4B20480F
:108CC800234AC01AC0080824000400941E4BE8E791
:108CD8004AB91A4B1A481F4AC01AC0080924000486
:108CE8000094194BDDE74768D7F800E00EF1FF372D
:108CF8000F4209D0114B1248174AC01AC008102455
:108D080000040094104BCCE7C768B9420CD34C1E42
:108D180005690EFB0244AC4206D8DCF81040A446B4
:108D280003B0BDE8F0406047044B05480B4AC01A41
:108D3800C008102400040094034BB2E7CCF70200EB
:108D48000CF80200C9FA020041FA0200CEFA020049
:108D58003FFB0200FEFA020054FA02007AFA02000F
:108D680029DF704728DF704770B503689D6886B0B3
:108D780004460E466DB114220021684606F074FCC4
:108D8800A3680593237901962BB1012B0DD0684672
:108D9800A84706B070BD01238DF8003023690293FF
:108DA800E368039363690493F1E702238DF80030C5
:108DB800E3681B030293F5E70846704700207047F5
:108DC800024B187A003018BF01207047782B00201A
:108DD800034B187A0122B0FA80F05A7440097047A0
:108DE800782B002008B510461A4606F014FC00201F
:108DF80008BD000008B514220021044806F034FC20
:108E08000348FFF712FB002008BD00BF782B0020A5
:108E1800682B002010B5094C094B43602046FFF72A
:108E280049FC40B906F08CF91C2320748C220549B2
:108E38000548FFF7E7FA002010BD00BF782B002097
:108E4800ECFB0200DC2A0020682B002070B5244DC2
:108E5800244E2B7A2C463BB923492448FFF741FB83
:108E6800306008B9686070BD0223237233681A79CC
:108E780072B1012A24D018460321FFF775FF002399
:108E88002372636018491948BDE87040FFF754BB66
:108E9800D3E90520121AB2F5805F28BF4FF480523B
:108EA800D3E903159208012A014438BF0122284456
:108EB800FFF756FF50B11128DDD101232372D2E705
:108EC800D3E903021044FFF74DFFF3E7237C002B9F
:108ED800C9D10146BDE87040022000F009B800BFC2
:108EE800782B0020902B00208C2B0020682B002052
:108EF80038B5831E012B45D8234C237A002B41D04B
:108F0800022B09D1032830D0204B1B680022E260D5
:108F18001A793AB1012A22D0637C7BBBBDE838407C
:108F2800FFF794BFD3E905128D1AB5F5805F94BF9A
:108F3800521902F580529A619142EDD102284FF000
:108F4800000308BF19462372104B18BF0D2118687B
:108F5800FFF70AFF0E490F48FFF7EEFADCE71A6938
:108F680001321A615B699A42E7E7E3680133082B2B
:108F780001D8E360D0E70023E360DFE7BDE83840CD
:108F880006F0CEB838BD00BF782B0020902B00200B
:108F98008C2B0020682B002000F0FD03012B08D14A
:108FA800044B00225A74421E504250411874FFF775
:108FB8004DBF7047782B002010B5064C201DFFF7D9
:108FC80079FB28B9637C1BB9BDE81040FFF73EBFA9
:108FD80010BD00BF782B00202DE9F34180460D46D7
:108FE8000F4801A916461F46FFF741FA0446A8B1E3
:108FF8001C22002106F038FB2D0B0123237101A947
:10900800C4F80080A760E56066610548FFF759FA73
:10901800FFF7D2FF002002B0BDE8F0810420FAE794
:10902800682B00202DE9F74381468846104801A99E
:1090380017461E46FFF71BFA0446B0B11C22002152
:1090480006F012FB00250A9BA36001A92571C4F84C
:109058000090C4E9037866610548FFF732FAFFF724
:10906800ABFF284603B0BDE8F0830420FAE700BF51
:10907800682B00202DE9F047B0F806904479D2F823
:1090880000A09DF8208009FB04F4043C06460AEB86
:109098000300A0420F4688BFA4EB030A191DC2F8BB
:1090A80000A0B1FBF9F509FB15114DB9A9EB0104B5
:1090B800544528BF5446BAF1000F04D1BDE8F087E3
:1090C8003668013DF1E704317B1970182246B8F182
:1090D800000F0ED001461846AAEB040A06F09BFAC8
:1090E800D145254436684C464FF0000128BF544608
:1090F800E1E71946F0E7FFF7E6BAF8B54679014621
:10910800721E0546002393422D6803D30024A6420D
:1091180002D8F8BD0133F6E70F682846FFF70DFBC4
:1091280001343946F3E72DE9F843068ACD1C074692
:10913800FFF7E0FA043E35440446B5FBF6F5F0B116
:109148004FF48073EDB28380C680013D076081468D
:109158004FF00008A84512D23846FFF7CBFA06466A
:1091680048B163790133637108F10108C9F8000057
:1091780007608146EEE72046FFF7BFFF34462046EA
:10918800BDE8F88301210430FFF77EBA10B501214C
:1091980004460430FFF783FA10F0FF0F04D120468D
:1091A800BDE81040FFF7A9BF10BD1FB504AC44F8D7
:1091B800042D002200922246FFF75CFF04B010BD88
:1091C8001FB504AC44F8042D012200922246FFF793
:1091D80051FF04B010BD41DF70470000064B10B5C9
:1091E80000241C70054B1C60BFF35F8F04490548C1
:1091F80000F039F8204610BD9C2B0020A02B002041
:1092080018FC0200942B002007B502A8002300F8E0
:10921800013DFEF7F1F9F1EE103A23F09F03E1EE7C
:10922800103ABFF35F8F0A4B4022C3F884219DF8A0
:109238000700FEF705FA05F083FF20B1FFF7CBFF23
:1092480003B05DF804FB20BF40BF20BFF8E700BFB4
:1092580000E100E0836800225A609A60C3E90422B2
:10926800DA601A6070470B684A684360934208BF27
:109278000023016008BF43607047436843B1026838
:10928800916852680B449342436004BF00234360D3
:10929800704700000D4930B5A1F59472022591423E
:1092A80001D800200EE08B1ADB1093FBF5F302EBDC
:1092B800C30452F83330834205D802D204F10802BD
:1092C800EDE7606830BD2146E9E700BF68FD0200B0
:1092D80008B5FFF7DFFF024B002808BF184608BD96
:1092E8002DFC02000C4B1B78062B10D10B4B1B6876
:1092F8001A070CD10A4B186800F0F003302B08D07D
:1093080000F0E000A0F140035842584170470020A7
:1093180070470120704700BFE00F00F0E40F00F035
:10932800E80F00F0094B1B78062B0CD1084B1B6883
:109338001A0708D1074B186800F0F000A0F13003B5
:109348005842584170470020704700BFE00F00F0B6
:10935800E40F00F0E80F00F008B5FFF7C3FF28B1ED
:109368007D4B7E4A1B68C3F304231360FFF7DAFFC3
:1093780010B17B4B7B4A1A60FFF7B4FF28B17A4BD8
:109388007A4A1B68C3F342331360FFF7CBFF20B15F
:10939800774AD36823F08073D360FFF7A3FF40B107
:1093A8004FF080430022C3F80C21C3F81021C3F802
:1093B8003825FFF7B7FF10B16E4B03221A60FFF78D
:1093C800B1FF40B16C4B05221A6001229A67002256
:1093D8009A603F225A60694B1B78062B50D1684B24
:1093E8001B6819074CD1674B1B6803F0F003502B1F
:1093F80046D14FF08052644BD2F80414C3F82015BC
:10940800D2F80814C3F82415D2F80C14C3F8281598
:10941800D2F81014C3F82C15D2F81414C3F8301568
:10942800D2F81814C3F83415D2F81C14C3F8401530
:10943800D2F82014C3F84415D2F82414C3F84815F8
:10944800D2F82814C3F84C15D2F82C14C3F85015C8
:10945800D2F83014C3F85415D2F83414C3F8601590
:10946800D2F83814C3F86415D2F83C14C3F8681558
:10947800D2F84014C3F86C15D2F84424C3F8702508
:10948800FFF730FF28B1414B414A1B6803F04F03F7
:109498001360FFF727FF48B14FF08043D3F800244B
:1094A800D20744BF6FF00102C3F80024394B1B6890
:1094B800062B08D1384B1B68062B01BF374A1368A7
:1094C80043F480631360364AD2F8883043F470035B
:1094D800C2F88830BFF34F8FBFF36F8F4FF0102360
:1094E800D3F80022002A03DBD3F80432002B2FDA4A
:1094F8002C4B0122C3F80425D3F80024002AFBD002
:109508004FF010221521C2F80012D3F80024002AC7
:10951800FBD04FF010231522C3F80422214B1A4622
:10952800D3F800140029FBD00021C3F80415D2F8A1
:109538000034002BFBD0BFF34F8F19491A4BCA6870
:1095480002F4E0621343CB60BFF34F8F00BFFDE727
:10955800164B174A1A6008BD240300104035014015
:1095680074C007400DF0ADBA440200103C0500403D
:10957800F0ED00E0A005004010560040E00F00F0BC
:10958800E40F00F0E80F00F000C00040580200109F
:10959800E40E004030010010340100103C17004078
:1095A80000ED00E000E001400400FA054822002038
:1095B8000090D003054A4FF0A043105CD3F804355F
:1095C80023FA00F0C04300F00100704726010300B1
:1095D800044B1A5C012393404FF0A042C2F80C35AB
:1095E800704700BF26010300044B1A5C0123934017
:1095F8004FF0A042C2F80835704700BF26010300AB
:1096080008B50020FFF7F0FF0120FFF7EDFF02206B
:10961800FFF7EAFF0320BDE80840FFF7E5BF08B5FC
:109628000020FFF7D5FF0120FFF7D2FF0220FFF748
:10963800CFFF0320BDE80840FFF7CABF074A4FF035
:10964800A041105CD1F804350122824022EA0300CF
:109658001340C1F80805C1F80C357047260103000E
:10966800054A4FF0A043105CD3F8103523FA00F0F8
:10967800C04300F001007047220103000D2809D003
:109688000E2809D00F2809D010280CBF03204FF04E
:10969800FF30704700207047012070470220704754
:1096A800014B185C704700BF22010300C20708B5D0
:1096B80001460CD54FF0A0430322C3F84427C3F852
:1096C8004827C3F84C27C3F85027FFF799FF8B07A3
:1096D8000AD54FF0A0430C22C3F83427C3F8382723
:1096E800C3F83C27C3F8402708BD000038B5084C2C
:1096F80004F108030546002818BF1C4623682BB14F
:109708001A6822605B6828469847F7E738BD00BFAB
:10971800AC2B002020B9054B01225A70FFF7E6BF99
:10972800012802D1014A9070F8E77047A42B002065
:1097380020B9034B01225A70FFF7D8BF704700BF0A
:10974800A42B002038B50B4C237883B90A486360F2
:10975800A3602361E36000F0D1F8054605F0F0FC52
:1097680008B900F0D9F801232370284638BD8525AB
:10977800FBE700BFA42B00201D97020037B502A805
:109788000023094C00F8013DFDF736FFE368013B73
:10979800E360E56815B900F0D3F8A5709DF80700F7
:1097A800FDF74EFF03B030BDA42B0020012813B5F0
:1097B80009D003D303281BD002B010BD0F4B0122E0
:1097C800C3F88020F8E702A800230D4C00F8013DFB
:1097D800FDF712FF23780BB9FFF7B4FFE3689DF894
:1097E80007000133E3600123A370FDF729FFE3E7D6
:1097F80000F092F8FFF7C2FFDEE700BF00E100E0EB
:10980800A42B00201FB503788DF80030436801931E
:10981800037A8DF80830C3680393054A054B6846F8
:1098280053F8213052F82110984705B05DF804FB31
:10983800B82B0020BC2B00201FB503788DF8003012
:109848004368019383688DF80830C3680393054A19
:10985800054B684653F8213052F82110984705B057
:109868005DF804FBB82B0020BC2B0020F0B5194B89
:10987800067891F81DE043F82620174B94460A69AC
:1098880043F82620154B03F806E00C4607460FCC94
:1098980089B06D460FC594E80F0085E80F0004965F
:1098A800BEF1000F0AD0BCF1000F0D4A694608BF8F
:1098B8000022381D00F07AFD09B0F0BDBCF1000FA0
:1098C800084A694608BF002207F10C0000F070FB47
:1098D800F2E700BFBC2B0020B82B0020C02B0020D3
:1098E8000D9802004198020000F18040002382B0E8
:1098F800036003680193019B02B07047054A13791E
:109908002BB90121106011715371184670478520D9
:10991800704700BFC42B0020084B1A68D20706D432
:10992800C02283F800230122C3F880211A604FF077
:1099380080430122C3F81825704700BF00E100E00A
:10994800044B01221A604FF08042D2F81834DB032E
:10995800FBD470470C000040124B1B6810B573B164
:109968004FF48070FFF7C0FF4FF080430122C3F827
:1099780008230D4B587910B95A711B6898470B4B3F
:109988001B6873B14FF48270FFF7AEFF4FF080434E
:109998000222C3F80823044B01201B68BDE81040CD
:1099A800184710BD00010040C42B002004010040EE
:1099B80000F1804000F5C040002382B003600368D6
:1099C8000193019B02B07047800000F1A040D0F8DD
:1099D800003723F44033C0F80037D0F8003743EAA3
:1099E8000141C0F800177047054B4FF0FF320728B8
:1099F80043F8202084BF1B1883F84820704700BF15
:109A0800CC2B002010B5174C94F8583043BBFF21DD
:109A1800E2180133202B82F83010F9D10021C8B2A6
:109A2800FFF7E2FF01310C29F9D1042200210E4889
:109A380005F01AFE0D4BC02283F806234022C3F816
:109A480080214FF4BE701A60FFF7B2FF084B4FF049
:109A58000042C3F80423012384F85830002010BDC5
:109A68000820FCE7CC2B0020202C002000E100E09F
:109A780000600040034B93F85800003018BF0120E5
:109A8800704700BFCC2B0020F0B5394D2C189446F8
:109A980094F93040002C68DA8E78C6F34006002E20
:109AA80015BF0023082308270C27BB4201D1042037
:109AB800F0BD55F8232001324FEA830441D12F1815
:109AC80045F823C087F8303016B9EA1882F84800FC
:109AD8008A78560716D4D70735D5820002F1A042F6
:109AE800D2F8006726F00206C2F80067214FC608C0
:109AF80000F0070C012202FA0CF217F806C042EA3D
:109B08000C02BA558A780E7812F0020224D004F1B9
:109B1800804303F5C0430002D3F8102522F44732EE
:109B280022F44072C3F810253604D3F8102500F447
:109B3800F85006F4403630431043C3F810050020AF
:109B4800B6E70133B1E74E7800F5E0724FF0A04771
:109B5800B60047F82260C9E7083B2B4493F8500049
:109B680040EA861683F85060E9E70820A0E700BFBE
:109B7800CC2B0020202C002038B5204C251895F936
:109B88003020072A18DD224492F848309B09032B1D
:109B98000DD14FF0A043D3F81035C34013F0010F97
:109BA8000CBF02210321BDE83840FFF70DBF012B90
:109BB80014BF03210221F6E7D3B2072B1CD8930068
:109BC80003F1804303F5C043D3F8100540F00100CA
:109BD800C3F8100502F14000800080B2FFF7E8FEEC
:109BE80051B195F9303054F823302BB1012303FAE1
:109BF80002F2034BC3F8042338BD00BFCC2B00206E
:109C0800006000404FF0A043D3F8103523FA00F06D
:109C180000F00100704700002DE9FF470024584A72
:109C2800584E594D019401211368A2F5C040012BEB
:109C380080B206D1D6F804330B4202D0FFF7B8FE43
:109C48000C430432AA424FEA4101EDD14F4B1B6845
:109C5800012B0AD14FF4BE70FFF7AAFE4FF0A043C4
:109C680044F00044D3F81035019314F0FF0F1AD0D4
:109C7800474F00250126344210D0AB0003F1804342
:109C880003F5C043D3F81005D3F8101557F825305D
:109C9800C0F30420C1F3014103B198470135082DF1
:109CA8004FEA4606E7D1002C66DA00224FF0FF3370
:109CB800CDE90223DFF8D8900127002634464FF07B
:109CC800A04809EB060393F95020531C45D0D2B2A3
:109CD80022F0C005E90804A8084402F0070310F8B8
:109CE80004CC07FA03F31CEA030F36D009EB050C82
:109CF80092099CF930C059F82CA0BAF1000F0AD18A
:109D0800032A2AD10DF1080E1EF801C04CEA030CF3
:109D18000EF801C001E0032AF4D005F5E07110F84F
:109D28000C0C58F821101842C1F3014105D0022942
:109D380013D1032A0BD1114604E003290DD1032ABC
:109D480005D102212846FFF73FFE0134E4B2BAF1FB
:109D5800000F02D011462846D0470136042EB0D154
:109D680054B14FF0A043019AD3F81035934203D071
:109D78000193029B0393A0E704B0BDE8F08700BFFE
:109D88000061004000600040206100407C610040AC
:109D9800CC2B0020014B1B68184700BF282C002043
:109DA8000D4B984237B50D4610D102A8002300F894
:109DB800013DFDF721FC094B1C7914B901221D60F6
:109DC8001A719DF80700FDF73BFC14B9002003B099
:109DD80030BD1120FBE700BF00200040282C0020E8
:109DE800034B984201BF034B00221A601A71704757
:109DF80000200040282C00200023435082B0435804
:109E08000193019B02B070470A4610B54FF48E715A
:109E1800FFF7F2FF136A9168C95C136A0133136292
:109E2800C0F81C1510BD8B690A4610B54FF4847133
:109E380023B9FFF7E1FFD0F8183510BDFFF7DCFFB5
:109E4800536AD168D0F81805C854536A013353626D
:109E5800F3E700001FB501238DF80030044BCDE96E
:109E68000110D3E900126846904705B05DF804FB7D
:109E7800302C002030B54C4AD2F8043313F4007F5C
:109E880085B015464FD0D2F82431002B4BD04FF473
:109E980092711046FFF7B0FF4FF40173C2F8083310
:109EA800424B93F8291009B9012151603E49022219
:109EB8008DF80020D1F88024C1F8802403929A6993
:109EC8000292DA6801920022C3E906226846D3E9C1
:109ED800001290473448D0F81C315BB133490A6A04
:109EE8004B699A420A464BD291F82830002B47D149
:109EF800FFF78AFF2C4AD2F8443193B14FF4A2718C
:109F08001046FFF779FF294B93F8291009B1012171
:109F180011609A692AB100229A61586AD968FFF7D4
:109F280099FF05B030BDD5F804335B07D2D5D5F815
:109F38000831002BCED01D4C1B482146FFF773FF7C
:109F4800636AA2699A422346C4D1E269E1684AB1C8
:109F58002369E3600023606AA261E3616362FFF73B
:109F680079FFB7E794F829200AB901226A600E4AF6
:109F78004FF40170C2F8080300229A61586AEEE7AC
:109F88004FF48E710848FFF737FF51690029B1D0A7
:109F98000023029191688DF8003001915361684661
:109FA800D2E900139847A5E700200040302C002094
:109FB8002DE9F8435A4B047991462C2202FB0432CE
:109FC800064692F82A200D469846002A40F0A380BB
:109FD80054490068FFF7E4FE0746002840F09D80DA
:109FE80029683368481C0BD04FF0A04001228A40F2
:109FF800C0F8082501F5E0724FF0030C40F822C0C4
:10A008006868421C1FBF00F5E0724FF0A04C4FF08B
:10A01800000E4CF822E0AA6995F814C0C3F824256C
:10A028006A7DBCF1010F4CEA0202C3F86C25C3F843
:10A038001405C3F80C151DD1AA68511C1FBF02F5E1
:10A04800E0714FF0A0404FF0000C40F821C0E968E3
:10A05800481C0BD04FF0A04C01208840CCF80805D4
:10A0680001F5E0704FF0030E4CF820E0C3F8081536
:10A07800C3F810252C23634308EB0302C2F80490AD
:10A088002A6948F80320B9F1000F31D04FF48E71D6
:10A0980030682D7FFFF7B0FE30684FF4A271FFF7EC
:10A0A800ABFE3268204BC2F80433120B53B2002BBC
:10A0B800A8BF03F160404FEA53134FEA4511BABFF6
:10A0C8001A4802F00F0500F561404FEA8303C9B250
:10A0D80003F16043B4BF415580F8001303F56143B1
:10A0E80002F01F02012101FA02F2C3F880211A606E
:10A0F80033680422C3F800252C2303FB04830022C1
:10A10800C3E9062283F829205A61012283F82A200C
:10A118003846BDE8F8830827FAE71127F8E700BFB3
:10A12800302C00207D9E02008000020014ED00E02B
:10A13800F8B5047900682D4D0023C0F800352C23AC
:10A1480003FB04535B6873B1294BC0F80833020B57
:10A1580053B201215B0902F01F0201FA02F2203317
:10A16800244941F82320D0F80C65D0F81415D0F80C
:10A178000835D0F810254FF0FF37BE42C0F81475E7
:10A1880018BF06F5E076C0F80C75C0F80875C0F879
:10A1980010751EBF4FF0A0474FF0020C47F826C0BD
:10A1A8004E1C1FBF4FF0A04601F5E071022746F88C
:10A1B8002170511C1FBF4FF0A04102F5E07202262A
:10A1C80041F822605A1C1FBF03F5E0734FF0A0420C
:10A1D800022142F82310FFF703FE2C2303FB04544B
:10A1E800002384F82A306360F8BD00BF302C0020BB
:10A1F8008402020000E100E02DE9F843224F0679CD
:10A208004FF02C0909FB067480466569002D37D18B
:10A218006261A16025624FF48E71006884F828504D
:10A22800FFF7EAFDD8F80000012383602146FFF715
:10A23800EBFD6368A1462BBBD8F80050226A63691E
:10A248009A4212D3D8F80030D3F81C21002AFBD048
:10A258000122DA6000202C2303FB067600237361B9
:10A26800BDE8F88394F8283043B9D5F81C31002BA1
:10A27800F8D049462846FFF7C7FDDFE70F20EAE791
:10A288001120EDE72846EBE7302C0020002343504F
:10A2980082B043580193019B02B070471FB5012358
:10A2A8008DF80030054B8DF8080001916846D3E918
:10A2B8000012904705B05DF804FB00BF5C2C00203D
:10A2C8007FB5384AD2F82461002E49D010464FF4A1
:10A2D8009271FFF7DBFF02238DF80030D2F880344B
:10A2E800C2F880340393D2F83C358DF808302E4BF1
:10A2F800DA6801920022C3E906226846D3E900120F
:10A308009047284AD2F8443173B14FF4A2711046ED
:10A31800FFF7BCFF244B996931B100219961D2F84C
:10A328003C05D968FFF7BAFF1E4AD2F82031ABB115
:10A338004FF490711046FFF7A9FF1B4B596969B19B
:10A34800D2F84C158DF80810002299688DF8002075
:10A3580001915A616846D3E90012904704B070BD74
:10A36800D2F81031002BCCD04FF488711046FFF78B
:10A378008DFF0D4BD2F83C0599698842C1D1DC6943
:10A38800D96864B1D2F8005225F02005C2F800520D
:10A398001A699C61DA60DE61FFF780FFB1E79C61B2
:10A3A800FAE700BF002000405C2C00202DE9F843AC
:10A3B8005E4B06799146242202FB0632044692F847
:10A3C80020200D469846002A40F0AB805849006886
:10A3D800FFF7E6FC0746002840F0A58029682368B7
:10A3E800481C0BD04FF0A04001228A40C0F8082535
:10A3F80001F5E0724FF0030C40F822C06868421C77
:10A408001FBF00F5E0724FF0A04C4FF0000E4CF863
:10A4180022E0AA6995F814C0C3F824256A7DBCF126
:10A42800010F4CEA0202C3F86C25C3F80C15C3F8F7
:10A4380014051DD1AA68511C1FBF02F5E0714FF029
:10A44800A0404FF0000C40F821C0E968481C0BD030
:10A458004FF0A04C01208840CCF8080501F5E070C9
:10A468004FF0030E4CF820E0C3F80815C3F8102588
:10A478002423734308EB0302C2F804902A6948F8BE
:10A488000320B9F1000F3BD04FF4887120682D7F6D
:10A49800FFF7FCFE4FF490712068FFF7F7FE4FF4CA
:10A4A80092712068FFF7F2FE20684FF4A271FFF75F
:10A4B800EDFE22681F4BC2F80433120B53B2002B77
:10A4C800A8BF03F160404FEA53134FEA4511BABFE2
:10A4D800194802F00F0500F561404FEA8303C9B23D
:10A4E80003F16043B4BF415580F8001303F561439D
:10A4F80002F01F02012101FA02F2C3F880211A605A
:10A5080023680822C3F80025242303FB06830022BE
:10A51800C3E906225A61012283F820203846BDE8A3
:10A52800F8830827FAE71127F8E700BF5C2C00201A
:10A53800C9A202001003020014ED00E0F8B5047986
:10A5480000682D4D0023C0F80035242303FB045375
:10A558005B6873B1294BC0F80833020B53B2012171
:10A568005B0902F01F0201FA02F22033244941F884
:10A578002320D0F80C65D0F81415D0F80835D0F899
:10A5880010254FF0FF37BE42C0F80C7518BF06F50E
:10A59800E076C0F81475C0F80875C0F810751EBFCD
:10A5A8004FF0A0474FF0020C47F826C04E1C1FBFC3
:10A5B8004FF0A04601F5E071022746F82170511CC2
:10A5C8001FBF4FF0A04102F5E072022641F8226059
:10A5D8005A1C1FBF03F5E0734FF0A042022142F856
:10A5E8002310FFF7FDFB242303FB0454002384F806
:10A5F80020306360F8BD00BF5C2C0020100302000F
:10A6080000E100E001F06043B3F1005F2DE9F041A3
:10A61800074632D11C4B0679242505FB063598469A
:10A628006C6964BB6A61A96000684FF49071FFF7B8
:10A638002DFE4FF4AC713868FFF728FE3B686A6955
:10A64800A968C3F84415C3F8482501229A606A68C6
:10A65800BAB9D3F82011D3F8582149B9002AF8D04B
:10A668000F20242303FB068600237361BDE8F081D5
:10A67800002A14BF0F200020F3E71020F6E711206E
:10A68800F4E72046F2E700BF5C2C00200220FEF72A
:10A69800D5BF00002DE9F04781460D46FEF7EEFFD5
:10A6A8000328044604D8012D04D024D3022D2FD02A
:10A6B800BDE8F087194D47003A18A918AE5C4A78EA
:10A6C80052B1DFF86880164842464FF40041FCF763
:10A6D8003FFF08B988F800903B192B449A78114B32
:10A6E8001A55002EE4D0104B1B68002BE0D03046E2
:10A6F800BDE8F04718470A48FCF76EFF074B04EB24
:10A70800440213449E78074B1B5DB342D0D1E8E75F
:10A71800024B00EB40041C446678E2E7E42C00207E
:10A72800A42C0020FD2C0020F82C0020802C0020D8
:10A7380002210078FFF7AEBF08B5094B1B7853B16B
:10A748000020FEF751FF0120FEF74EFF0320BDE871
:10A758000840FEF749BFBDE80840FEF751BF00BFFB
:10A76800812C0020F8B57B4C237805461BB10023CB
:10A778002370FFF7E1FF172D00F28880DFE805F06E
:10A788000C17174354657680888D888D959A9A9A08
:10A798009A9AC4C9D1D9E4E4FFF7CEFF6E48FCF712
:10A7A8001BFF6E4B002204461A702046F8BD00209D
:10A7B800FEF700FFF8B10020FEF716FF022D0CBFD0
:10A7C8004FF4E1614FF47A61644B1D704FF400401F
:10A7D8004FF4FA740025E0FB01454FF47A72002328
:10A7E8002046294604F01CFE002201465A48BDE8CE
:10A7F800F840FCF7ADBEFEF7EBFE022D0CBFC821FA
:10A808004FF4C871E0E70020FEF7D4FE40B1002005
:10A81800FEF7EAFE4FF44871504B03221A70D5E751
:10A82800FEF7D6FEC821F7E70020FEF7C3FE38B1D1
:10A838000020FEF7D9FE4FF47A61484B0422EDE779
:10A84800FEF7C6FE4FF4C871F7E70020FEF7B2FE28
:10A8580048B10020FEF7C8FE404B05221A7041F6A9
:10A868009A110022C2E7FEF7B3FEF5E70020FEF7D3
:10A87800E5FE3A4B06221A70002240F6CD41B5E7B4
:10A888000020FEF7A5FE354B07221A7000248CE73E
:10A8980001202070FEF7D2FEEEE701202070FEF7BF
:10A8A800CDFE00224FF48041A0E7FEF7B8FE2B4B07
:10A8B8000C22EAE72A482B4EFCF78EFED5F111054B
:10A8C80004461CD0D8B9012D13D0C8235D434FF4DA
:10A8D80000474FF4FA7000214FF47A720023C7FB47
:10A8E800050104F09DFD224601461D48FCF730FE97
:10A8F80004460220FEF76CFE0123337055E7022060
:10A90800FEF772FE0023F8E7FFF716FF134B12223B
:10A91800BBE7FFF711FF0020FEF75AFE0F4B13228B
:10A92800B3E7FFF709FF0120FEF752FE0B4B142295
:10A93800ABE7FFF701FF0020FEF74AFE0120FEF714
:10A9480047FE064B1522A0E7FEF769FE034B1D7074
:10A958009CE700BFF42C0020C42C0020FC2C002015
:10A96800842C0020812C0020044B1B68DB0703D5B6
:10A97800034B1878FFF7F6BE704700BFF02C002095
:10A98800FC2C0020032801D8FEF76ABE002070477F
:10A99800044B1B6813F0010301D0FFF7E3BE184610
:10A9A800704700BFF02C002038B51C4B18601C4BBA
:10A9B80010F00204054619601AD01A4B1A480E22E4
:10A9C8001A700F22DA7010229A7111225A72042119
:10A9D80040F26662FCF7BEFA044648B9FCF70EFB83
:10A9E800044628B90146114A1148FCF79FFD044660
:10A9F800EB0711D50120FEF759FE6CB921460D4A27
:10AA08000D48FCF793FD044630B90C4A0C48012167
:10AA1800BDE83840FCF78ABD204638BDF02C002040
:10AA2800F82C0020E42C00204C01030039A7020078
:10AA38007001030071A902007401030095A60200C9
:10AA48006C010300032812D8012A0BD1012908D16F
:10AA580000F10E02D2B200EB40000C4B1A54002059
:10AA6800704700220129F6D009D3022901D0072016
:10AA78007047064B00EB400018444270EFE7034B69
:10AA880000EB400018448270E9E700BFE42C002086
:10AA9800032808B512D8FEF703FE800000F1A04095
:10AAA800D0F8003723F44033C0F80037D0F8003727
:10AAB80043F44033C0F80037002008BD0620FCE707
:10AAC80008B5012202210020FFF7BCFF08B10728C2
:10AAD80010D1072202210120FFF7B4FF08B107288F
:10AAE80008D100210A220846FFF7ACFF10B1072859
:10AAF80008BF002008BD00000388102B10B502D045
:10AB0800112B1ED010BD1A4C2168B1B9012208467C
:10AB1800FFF798FF08B1072824D107220221012056
:10AB2800FFF790FF08B107281CD10422022100205A
:10AB3800FFF788FF08B1072814D123680133236081
:10AB4800E0E70B4A1368013B1360002BDAD1FFF7EB
:10AB5800B7FF0028D6D0074B1B68002BD2D0BDE822
:10AB680010401847034B1B68002BE6D09847E4E7D2
:10AB7800082D0020042D002008B50020FFF788FFCD
:10AB880008B1062806D10120FFF782FF10B1062878
:10AB980008BF002008BD00000D4B10B518600C461A
:10ABA80029B10120FFF7EEFE40B102232370094BC3
:10ABB8001B6853B9BDE81040FFF782BFFFF7E2FEFC
:10ABC80008B10B23F2E72070F1E7002010BD00BFA9
:10ABD800042D0020082D002076DF70477ADF7047AB
:10ABE8007CDF70478FDF704733DF7047FCF71CBA94
:10ABF80008B50020FFF7CCFE08B1FCF715FAFFF7FF
:10AC0800BBFF08B1FCF710FAFFF7EEFF18B1BDE87B
:10AC18000840FCF709BA08BD0388212B13B5044680
:10AC280035D005D8102B17D0112B0AD002B010BD83
:10AC38003B2B01D0562BF9D11321A088FFF7CCFF6D
:10AC480020E0174B17481849C01AC008000440F004
:10AC58000300FBF72BFFE9E7114B12481349C01A11
:10AC6800C008000440F00300FBF720FF0720FFF7AF
:10AC78008FFE08B1FCF7D8F90D4BA1880D48198053
:10AC880002F01EF80028D1D0FCF7CEF9CEE702A9D1
:10AC9800002321F8043D8088FFF7A4FFF2E700BFF6
:10ACA800CCF70200F4F702007801030086010300E4
:10ACB80050220020782F002008B503784BB9054BA7
:10ACC8003B211888FFF788FF18B1BDE80840FCF75A
:10ACD800ABB908BD50220020072808B513D00A28B0
:10ACE8000DD0042819D10D4B13211888FFF774FFD4
:10ACF80030F0080311D0BDE80840FCF795B9BDE86D
:10AD08000840FFF775BF054B1A884FF6FF739A4244
:10AD180003D1034800F0B5FDEAE708BD5022002042
:10AD28000C2D002008B598B1032815D10B4B0C4801
:10AD38000C49C01AC008000440F00300FBF7B6FE37
:10AD48000220FFF725FE38B1BDE80840FCF76CB9D2
:10AD5800BDE80840FFF74CBF08BD00BFCCF70200B4
:10AD6800F4F70200C801030008B50321044800F005
:10AD780044FC18B1BDE80840FCF756B908BD00BF4F
:10AD88000C2D002010B5044603F09CFA204603F071
:10AD9800BFF823780C2B03D1BDE81040FFF7E4BFC0
:10ADA80010BDFCF741B9000000B54FF40041ADB04B
:10ADB8000020FBF7B5FC08B1FCF736F9FBF7E8FB18
:10ADC800FCF784FB08B1FCF72FF978490320FFF75B
:10ADD800EBFD08B1FCF728F901A90020FFF7DCFE1C
:10ADE80008B1FCF721F99DF80450FEF7F7F908B10E
:10ADF800FCF71AF904F028F908B1FCF715F9002353
:10AE080001A90120019304F0E5F908B1FCF70CF958
:10AE180001A804F091FA08B1FCF706F92CAC11234B
:10AE280004F8B03D624804F052FC614982B2204601
:10AE3800FFF7D6FE08B1FCF7F7F80021082201A8B1
:10AE480004F012FC5B494FF0C87301A8CDE9011367
:10AE5800FFF7C4FE08B1FCF7E7F80021564801F0F7
:10AE68001DFE08B1FCF7E0F8AC22002101A804F0AF
:10AE7800FBFB022306228DF804308DF807200123FE
:10AE88004E4A8DF80630ADF8143006928DF88030B1
:10AE98004FF4967244F25063CDE9232301A9484B3D
:10AEA80048482A9300F02AFB08B1FCF7BDF80121B5
:10AEB800444800F020FB444B4448019301A901F0A9
:10AEC800EDFE08B1FCF7B0F81C22002101A804F03F
:10AED800CBFB00234FF42032CDE90132ADF812301C
:10AEE8004FF470228DF81430394B039206930322E5
:10AEF800384B8DF8102001A8079300F0E3FD08B146
:10AF0800FCF792F802F0ACFC08B1FCF78DF80522CA
:10AF1800002101A804F0A8FB9DF8043043F00103C8
:10AF2800032203F0F10362F306136FF3C7138DF8DE
:10AF3800043007238DF8053010238DF806309DF86E
:10AF4800073013438DF807309DF8083001A81343E4
:10AF58008DF8083002F01EFD08B1FCF765F81E48B0
:10AF680002F000FD08B1FCF75FF81C4B1C4C1D49B2
:10AF7800E41AE408240444F003042046FBF796FD91
:10AF8800022D0FD118492046FBF790FD02F05AFD1B
:10AF980008B1FCF749F8FBF71DFC0028FBD1FEF7C8
:10AFA80033F9F8E7FFF7E0FEF5E700BFE1AC020090
:10AFB800910103005000A000642F00204C220020C3
:10AFC8002DAD02000C2D0020F5AB0200782F0020DB
:10AFD800C1AC0200ABAD02008DAD0200CCF702009F
:10AFE800F4F70200A1010300BB0103006DDF704705
:10AFF80079DF70477DDF704764DF70472DE9F74FD1
:10B008000C9CBDF834B02788002580468A469146B6
:10B018002E46B8F80020B2420BDC35B12288013A3E
:10B02800D21B92B2FF2A39D8DA55002003B0BDE806
:10B03800F08FD8F8042052F82600019000220DF174
:10B04800030101A8FFF7D8FF0028EFD19DF80320DE
:10B058004A4521D12288002D14BF0020022002EB8E
:10B0680009010144594519DC3DB9013292B22280E7
:10B0780003F802A022880132228022880DF1030100
:10B088001A4401A8FFF7B8FF0028CFD121889DF8FE
:10B0980003200A44228001250136BAE70C20C5E7BF
:10B0A8002DE9F341089CBDF824501746CDE9004529
:10B0B80002220646FFF7A2FF48B910223946304659
:10B0C800CDE9084502B0BDE8F041FFF797BF02B0EF
:10B0D800BDE8F0812DE9F04F00231688138090F821
:10B0E8002D3085B007460D46144653B3082E01D8B7
:10B0F8000C2026E102A8FFF779FF002840F0218103
:10B1080013880822CA54238801339BB21B22238048
:10B11800CA542088013080B2208006220DF109012E
:10B12800284404F078FA23889DF8082006339BB257
:10B1380012F0FE0218BF01222380EA54238801334B
:10B148002380BB78FBB123880433B342D0D802A84C
:10B15800FFF74EFF002840F0F48023880322EA54CA
:10B16800238801339BB219222380EA542388BDF82F
:10B17800082001339BB2E9182380EA54120A4A7066
:10B18800238802332380FA789AB12388D91CB142E4
:10B19800AED80221E954238801339BB201212380D0
:10B1A800E95423880B449BB22380EA5423880B4438
:10B1B80023807A68AAB12388D91CB14298D8022181
:10B1C80092F90020E954238801339BB20A21238095
:10B1D800E954238801339BB22380EA54238801333E
:10B1E80023803B89002B40F0A0803B8A5BB1CDE9EE
:10B1F80000462B460722032107F11000FFF750FFF6
:10B20800002840F09E803B8B5BB1CDE900462B4681
:10B218001522142107F11800FFF742FF002840F01B
:10B2280090803A6A002A40F08F80D7F82480B8F1DD
:10B23800000F30D0B8F804302188981C8A1C0244CA
:10B24800B2423FF655AFFE283FF652AF03336B5478
:10B25800238801339BB2FF222380EA5423880133D9
:10B268009BB22380B8F80020EA54E918120A4A7001
:10B278002088023080B22080B8F804205AB1D8F86B
:10B28800081000296AD0284404F0C5F92388B8F8C2
:10B2980004201344238097F82C30002B40F0998029
:10B2A800387800284DD03B88012B57D021888A1C3C
:10B2B800B2423FF61DAF012805D17B7802330B441B
:10B2C8009E42FFF415AF023E761A04A9B6B221F8E1
:10B2D800086DA818FFF78EFE98BB3978BDF80820CE
:10B2E800022900F0BB807B78934202D3B24240F23D
:10B2F800B380012940F0B4809BB29E42C0F0B08078
:10B30800ADF808300821BDF80830FE2B3FF6F0AE46
:10B3180022880133AB542288013292B22280A95488
:10B3280022881344238000200BE0CDE900462B46F9
:10B338000622022107F10800FFF7B2FE00283FF4B9
:10B3480054AF05B0BDE8F08FB4F800C00CF10603A7
:10B35800B3423FF6CDAE1188052901D80720F0E7A2
:10B368006FF4486E01EB0E039BB24FF27D3E7345BE
:10B37800F4D95388052BF1D96FF44860181880B2B6
:10B388007045EBD94FF6FF70814203D0834201D05C
:10B398009942E3D8052305F80C30238801339BB282
:10B3A80012212380E954238801339BB2238011881A
:10B3B800E954E818090A4170238802339BB22380B4
:10B3C8005288EA54E918120A4A7023880233238003
:10B3D8002BE7BB6A002BC1D04FF000094FF00C0AD5
:10B3E8004FF0160B97F82C305FFA89F293427FF6EC
:10B3F80057AFB96A0AFB02F201EB0208B8F8043049
:10B40800981CFE283FF674AE208803332B542388FB
:10B4180001339BB2238005F803B0238801339BB224
:10B4280023808A5AEA54E918120A4A70208802309E
:10B4380080B22080B8F804205AB1D8F80810002942
:10B448008CD0284404F0E7F82388B8F80420134483
:10B45800238009F10109C5E7092154E7B242FBD964
:10B46800ADF808604EE770B5C0B14AB1168800243F
:10B47800B44203D305196D789D4208D0A14201D882
:10B4880000200BE0055D01352C44A4B2F0E7A14291
:10B49800F6D9A31C1380005D013880B270BD37B5A2
:10B4A80002AC002324F8023D134622460546FFF766
:10B4B800DAFF10B1BDF80600284403B030BD72DFD2
:10B4C800704773DF704774DF704738B50122044650
:10B4D8000D46B0F83812D0F83402FFF7E0FF00B19B
:10B4E800057004F13C0204F50D7104F15400BDE847
:10B4F8003840FFF7E4BF80F830107047F8B50446CD
:10B508000F46002975D0002873D091F87A301BB106
:10B5180091F89830002B6ED1D7F8A030042B6AD060
:10B52800D7F89C30042B66D007F178060FCE4FF081
:10B53800000C251D84F802C00FC50FCE0FC596E874
:10B54800070085E8070084F830C0D7F8A4306363A3
:10B55800D7F8A830A3634FF6FF7504F50D73C4F848
:10B568004432A4F848520722614604F24A2004F003
:10B578007BF823780BB984F8545094F8243004F1FC
:10B588005501C4F8341283B3EE23A4F8383204F515
:10B598000E723846FFF79EFD30BB94F8243004F253
:10B5A800431107F13C00C4F83C1203B3EE23A4F89E
:10B5B800403204F51072FFF78DFDA8B9A269A4F80E
:10B5C800482001236269206484F8500062640146BF
:10B5D80084F8513084F83C3004F13C0204F1540002
:10B5E800FFF76DFF00B92370F8BD1F23CDE71F23B8
:10B5F800DDE70E20F8E70720F6E7F8B507780446F8
:10B608000D46002F00F0058100F24A26A17007229E
:10B618000021304604F028F8E38813B1A378012B01
:10B6280004D0E3794BB1A378022B06D1636BA3B1A5
:10B63800012284F8512208209847334604F51471F2
:10B6480013F8012F12B99942FAD117466B1E032B32
:10B6580053D8DFE803F0050B0F1284F85132ECE7FA
:10B66800A3791BB194F8243003B95FB9E3790BB11E
:10B67800002F44D1237A002B43D1637A002B0CBFCF
:10B6880000250425636BA570002B3CD0033D012DDC
:10B6980039D86279002A36D094F85222002A32D159
:10B6A80084F85422012284F853220720984704F191
:10B6B8003C0518220021284603F0D6FFE36A94F8D7
:10B6C80024200121581E884288BF0B4684F83C106C
:10B6D80084F8513032B1884296BFA36A84F8521078
:10B6E80084F85230A178002384F8503004291BD8FC
:10B6F800DFE801F0770D223559000025C2E7022561
:10B70800C0E70325BEE7002384F85332CFE7C4F827
:10B718004432C4E910630223012284F83C308023B8
:10B7280084F83120A4F84830A378002B5CD1636BEF
:10B73800002B6AD1002067E0022384F8313062B11F
:10B74800072384F83C302369A4F848300023C4F860
:10B758004432E36826646364E6E70323F1E7636938
:10B768006364A369A4F8483012B1062384F83C3016
:10B778006379B3B194F852329BB994F8543283B1D7
:10B78800022384F8503004212046FFF79EFE00284B
:10B79800CAD1052384F8313004F50D73C4F8443256
:10B7A800C2E70323F6E7E3696364236AA4F8483031
:10B7B80012B1062384F83C30637983B194F852328D
:10B7C8006BB994F8543253B1022384F850300421F1
:10B7D8002046FFF77AFE0028A6D10623DAE70423DD
:10B7E800D8E784F831309FE72A46D4F8441204F1A8
:10B7F8005400FFF764FE38B994F8301094F85400F8
:10B80800FFF75FFE002892D0F8BD94F83100984702
:10B8180090E70820F8E70388112B10B50C460AD0EA
:10B82800262B1FD0102B05D1C37B012B02D1838877
:10B83800A1F8483210BD0022838881F85222B1F85D
:10B8480048229A42F6D10B79002BF3D101212046E8
:10B85800FFF7D3FE0028EDD0A36B002BEAD0BDE89C
:10B8680010401847037A013B012BE3D88978052358
:10B87800013191FBF3F303EB8303C91AC9B2E6E77D
:10B88800704738B5044690F85400FFF71CFE0123B2
:10B8980084F85232002384F8543284F85030062158
:10B8A8002046FFF712FE054638B9A1782046FFF773
:10B8B800A4FE10B1A36B03B19847284638BD75DFC5
:10B8C800704776DF70477ADF70477BDF704700008C
:10B8D800034B1A8882420CBF18460020704700BFED
:10B8E800A02F0020024B9B6903B11847704700BF87
:10B8F800842F002037B585B22846FFF7E9FF0346B5
:10B9080070B1164C017A227B91420BD200F10A01E8
:10B918002846FFF7D4FFE8B1112801D0FFF7E2FF6E
:10B9280003B030BD237C0022027243B13B2128467C
:10B93800FFF7C7FF30F0080301D0FFF7D3FF6369B3
:10B94800002BEDD000228DF80420ADF8065001A898
:10B958009847E5E71A7A01321A72E1E7842F002046
:10B9680013B50B46497A0F4C024669B9D4E9011060
:10B978001C7A002C18BF01465868FBF7E9FD08B18E
:10B98800FFF7B0FF02B010BD002119726369002BE8
:10B99800F8D00121ADF806008DF8041001A89847E9
:10B9A800F0E700BF842F00208388B3F5FA7F28BF13
:10B9B8006FF4F97230B528BF9C1805884A8838BFDB
:10B9C800002495420CD84088904209D38A88A24224
:10B9D80006D303F2F310904234BF0020012030BD9B
:10B9E8000020FCE70388112B70B5014648D002D827
:10B9F800102B1ED070BD122B52D0502BFAD12F4BCA
:10BA0800C288DB899A42F5D1038A022BF2D1868853
:10BA18003046FFF75DFF05460028EBD001F1120024
:10BA280000F0C6F930BB6868FBF7D6FD0028E1D006
:10BA380009E0C37B012BDDD14FF6FF70FFF748FF0C
:10BA4800054620B90420BDE87040FFF74BBF1C4AEB
:10BA58008E880680002303721368C5F80A300A30FE
:10BA6800536843601031FFF79FFF144B6872DB89FE
:10BA7800002BBFD129463046BDE87040FFF770BFA4
:10BA88008088FFF725FF04460028B3D04068FBF7FD
:10BA9800A3FD08B1FFF726FF4FF6FF732380A9E740
:10BAA80086883046FFF714FF05460028A2D00831E3
:10BAB8000A30FFF779FF6872DCE700BF842F0020A7
:10BAC800B42F0020F8B5064650B305460FCD154FE4
