:020000022000DC
:1060000000000120796302006163020083E902005D
:10601000656302006763020069630200000000001C
:106020000000000000000000000000001DE402006D
:106030006D630200000000003DE402007163020095
:106040002D890200736302007D8D020073630200DC
:10605000C98F020073630200F98B020073630200B0
:1060600073630200736302007363020073630200D0
:1060700073630200736302007363020073630200C0
:106080007363020091E50200736302007363020010
:106090007363020073630200BDCF020073630200EA
:1060A0007363020073630200736302007363020090
:1060B0007363020073630200000000000000000030
:1060C0007363020073630200736302007363020070
:1060D000C58E0200736302007363020000000000BB
:1060E00000000000000000000000000000000000B0
:1060F00000000000000000000000000000000000A0
:10610000000000000000000000000000000000008F
:10611000000000000000000000000000000000007F
:10612000000000000000000000000000000000006F
:10613000000000000000000000000000000000005F
:10614000000000000000000000000000000000004F
:10615000000000000000000000000000000000003F
:10616000000000000000000000000000000000002F
:10617000000000000000000000000000000000001F
:10618000000000000000000000000000000000000F
:1061900000000000000000000000000000000000FF
:1061A00000000000000000000000000000000000EF
:1061B00000000000000000000000000000000000DF
:1061C00000000000000000000000000000000000CF
:1061D00000000000000000000000000000000000BF
:1061E00000000000000000000000000000000000AF
:1061F000000000000000000000000000000000009F
:10620000364937480A1A02D0072291438D4635494C
:1062100035480A1A06D00722914381F309880222E1
:1062200082F3148831483249324A00F045F8324846
:106230003249334A00F040F832483349334A00F0DB
:106240003BF833483349344A00F036F83348344990
:10625000344A00F031F834483449354A00F02CF81B
:1062600034483549354A00F027F835483549002289
:1062700000F02DF834483549002200F028F8344861
:106280003449091A082903DB002202600430016046
:10629000314A90471F482049884205D0026804309F
:1062A00003B4904703BCF7E700208646EC46002085
:1062B00000212A4A9047FEE7884207D0521A05D0AB
:1062C000037801300B700131013AF9D170478842EF
:1062D00002D002700130FAE7704700000000012090
:1062E00000F000200000012000000120581B0300E6
:1062F000342200205A220020D8630200D863020012
:106300008A050300581B0300342200203422002099
:106310000407030004070300040703000407030045
:106320000407030004070300040703000407030035
:10633000561B0300801B03005C2200205C2200200F
:106340005C220020F0830020F0830020F0830020F6
:10635000F0830020F0930020A1630200EDE9020029
:10636000FEE7FEE7FEE7FEE7FEE7FEE7FEE7FEE705
:10637000FEE7FEE7704700BF1048804710484FF027
:106380000701884385460F4880470F48016841F45C
:1063900070010160BFF34F8FBFF36F8FFFF730BF06
:1063A0000A480B490B4A884207D0521A05D0037895
:1063B00001300B700131013AF9D170477563020069
:1063C00000000120AD84020088ED00E0F00603002B
:0863D0002022002034220020ED
:1063D800037813F0040216D003F00303012B03D053
:1063E800022B09D0012070470A6800880232C0F3E6
:1063F800831002440A60F5E70B684288023303EB16
:1064080092130B60EEE71046704700002DE9F04F3D
:1064180087B000230446851C0DF107000F469046FF
:106428008DF8073000F0ECFA454806683E60D0E980
:106438000132134401339B1B824600F21C4600F5CF
:10644800836900F21447AB421BD30022B8F1000F56
:1064580070D0052363F3070264F38912DAF8001099
:10646800DAF808309DF807000B4003330D444AF86A
:106478002320CAF8005000F0E7FA012007B0BDE871
:10648800F08F0121304601F000FB484601F016FB71
:10649800384601F013FBDAF80400DAF808B0029085
:1064A80000EA0B0003300AEB800002A9FFF790FF17
:1064B800029B50BB0BEA03020AEB820203F1020CB7
:1064C800D2680392013303EA0B0B0AEB8B0B02F041
:1064D8000302012ACDF808C0DBF80C1022D0022AEA
:1064E80016D08346384601F0ECFA10B1029BCAF880
:1064F80004305946304601F0C8FADAE9012313445A
:10650800DAF8002001339B1A9DE70BEA0300C9E77C
:10651800BDF80E309B0903334FEA114B0CEB930384
:106528000293DFE7BDF80C30C3F383134FEA114B36
:106538006344F5E7062363F3070264F39F528DE78C
:106548002C230020034BD3E90030C31A584258418A
:10655800704700BF2C2300202DE9F04387B0FFF7D8
:10656800F1FF0646002840F0FB807E4DC5F8180470
:10657800BFF34F8F6868AC6802902040033005EB8A
:10658800800002A9FFF724FF029B18B1D5F8182450
:10659800002A5FD004EA0302991C013305EB82024A
:1065A800234005EB8303D268DB68049302F00303FE
:1065B800022B0392029162D1BDF80E306A484FEA6D
:1065C8009318B8F1500FC14628BF4FF0500969F32E
:1065D8008F1309F10801ADF80E3001F0C8FD074628
:1065E800002800F0A88001F0F1FD03A9002308228B
:1065F800384601F0FEFD029924EA01060136B6008C
:10660800B14535D95FFA89F97EB3F6B2A9EB060927
:10661800214003315FFA89F4B146544E05EB8101FC
:1066280008234A46384601F0E4FD36B109F108036B
:1066380022463146384601F0DCFD029B08F103088A
:1066480003EB98030293D5F81834002B4BD1D5F8F7
:1066580010445BE02A689A4204D86A60304607B062
:10666800BDE8F08304EA030088E740493446D7E7E9
:106678002140033108234A4605EB8101DAE7012B63
:1066880059D1BDF80C303848C3F38311062928BF07
:10669800062161F3891302318900ADF80C3001F04D
:1066A80066FD0746002846D001F090FD0023082229
:1066B80003A9384601F09DFD0026BDF80C20C2F361
:1066C8008312B300964203F10803BCD202994A1C14
:1066D80021400331029205EB81010422384601F082
:1066E80088FD0136E9E7384601F074FDFFF72AFF17
:1066F80080F00100C6B2B1E7E3685B7923B1236893
:1067080039461B6820469847E3681C68002CF3D17B
:10671800384601F05FFD0DF107008DF8074000F0E5
:106728006FF9D5F818340BB9029B6B609DF8070018
:1067380000F08AF9DAE7D5F8104454B90C4B0D4843
:106748000D49C01AC008000440F0020000F06EF8BD
:10675800CCE7236820469B689847E3681C68ECE709
:1067680000267BE72C230020140603003823002092
:106778002806030060060300040703002DE9F74F0D
:10678800284C80460F46924601A9012218469B468E
:10679800D4F80890FFF73AFE80B3019D0026A91CA3
:1067A8005E4506EB010233D100211F4801F02CF9A8
:1067B80080F310006A1C02EA090204EB820200045A
:1067C80005EA0903033340EA1840D06014F823208F
:1067D80068F3C50204F8232034F8232066F38912ED
:1067E80024F8232054F8232067F39F2244F8232019
:1067F80002F0F80242F0010204F8232094F8203451
:106808001BB1FFF7A9FE0028FBD103B0BDE8F08F4C
:1068180009EA020204EB82025AF82630D3600136F4
:10682800BEE700BF2C2300204827002000231A467B
:10683800FFF7A4BF07B50123019201AAFFF79EFF46
:1068480003B05DF804FB07B5CDE9002302236A46CF
:10685800FFF794FF03B05DF804FB1FB5CDE90123F2
:10686800069B039301AA0323FFF788FF05B05DF891
:1068780004FB7FB5CDE90123089B0393099B04938F
:106888000A9B059301AA0523FFF778FF07B05DF877
:1068980004FB0000094A38B50123D2F8104482F8F5
:1068A80020341D4604B938BDE3685D71236820466D
:1068B8005B689847E3681C68F4E700BF2C23002056
:1068C80082B001238DF807309DF80730114B18600E
:1068D800596044F2010188429A6012D044F20201E0
:1068E800884206D1DA60DA6812889A61DA685268F2
:1068F800DA6172B69DF80730002BFBD162B602B0A0
:1069080070471A611A6992685A611A6912689A611D
:106918001A69ECE75027002000B583B00290009177
:10692800019244F2010071466A4600F003F803B090
:1069380000BD00002DE9FF4106460F46154672B618
:10694800FFF7A8FFFFF708FE0028FBD1234B244CD4
:10695800E41AE40841F2010324049E4244F00104CD
:1069680028D007D8012E14D03A461E492046FFF7F2
:1069780061FF12E044F201039E421DD044F202037B
:106988009E42F1D12B886A6817492046FFF75BFFC2
:1069980003E016492046FFF749FF154B1B68DB0744
:1069A80000D500BE2A463946304604B0BDE8F0415D
:1069B800FFF786BF0F49EDE7D5F80880404601F09C
:1069C8006DFC2B68029701936B6800930A49034694
:1069D80042462046FFF74DFF0849DBE7280603003B
:1069E80060060300AC0703005807030019070300FB
:1069F800F0ED00E036070300720703009807030074
:106A080070B5EFF3108672B60C4A946801239CB9EE
:106A180093600B4B0B4DD3F8801029401160C3F8DD
:106A28008050D3F8841051604FF0FF32C3F88420AF
:106A3800047006B962B670BD0370FAE770270020CB
:106A480000E100E0FC06FFBD084B9A6810B55AB19A
:106A580050B9EFF3108172B6054A1C6814605C687F
:106A68005460986001B962B610BD00BF702700205D
:106A780000E100E070B5064D0646002455F8043BD9
:106A88000BB1304698470134042CF7D170BD00BFD4
:106A980088270020033080B240F2FD33984230B599
:106AA8001FD8124B1A783AB91C895D892C440444C2
:106AB800A4B2B4F5806F0AD31A7DA2B99A8BDC8B85
:106AC8002244024492B2B2F5806F0CD201220A80AD
:106AD8001446142202FB04335A89104458810020BA
:106AE80030BD0920FCE70720FAE700BFBC270020DB
:106AF8000B4A0C4B5188142000FB0131CB6833B989
:106B08000420496810700122074801F0E5B8052300
:106B18000649137002238B80012200230968F3E7DA
:106B2800A0270020BC270020202200208428002045
:106B380007B5002305490093054A09680548082355
:106B480001F034F803B05DF804FB00BF842800208E
:106B5800D00703002022002007B500230093014638
:106B68000823034A034801F021F803B05DF804FB49
:106B7800C80703002022002013B500230C46009309
:106B880001460423074A084801F010F838B9074BB2
:106B9800142202FB04340123237402B010BD0E201A
:106BA800FBE700BFC407030020220020BC27002009
:106BB80037B50A480A4B42689C88196853880325E8
:106BC800033305709BB2002000909B0001EB840109
:106BD800044800F0EBFF03B030BD00BFA027002041
:106BE800842800202022002010B50146044800F027
:106BF8003FFE1C220446002109F03EFC204610BD41
:106C08007028002068B10268084B9A4209D1406890
:106C1800074B984207D0013398420CBF012003204C
:106C28007047032070470020704700BFDEC0ADDE0C
:106C3800FE011EF14388033300EB8303994209D315
:106C480082884FF6FF739A4206D00088B0FA80F027
:106C58004009704702207047012070472DE9F8432A
:106C68000223DFF860800B800D46174600F580563A
:106C780000F108044FF00109B4420FD22368013330
:106C88000CD031462046FFF7D5FF48B10FB187F841
:106C9800009002280BD14FF480632B80BDE8F88365
:106CA800A368D8F80020934201D9C8F800302B888F
:106CB8006288033313442B806388033304EB830413
:106CC800DAE700BFB4270020154A142303FB00208D
:106CD80070B50B6844680D4604F58056ABB15C8806
:106CE800033403EB8404B4420DD2236801330AD081
:106CF80031462046FFF79EFF01280BD010F0FF0F0A
:106D080005D00228EFD1002003E00834EBE72C601F
:106D1800012070BD6388033304EB8304E3E700BFFD
:106D2800BC270020436873B504460D466BB3244A5C
:106D3800D1688B4229D31269934226D813F00302F3
:106D480023D120490089098988421ED12068996881
:106D580088421AD11C494868834203D900F58050FB
:106D680083420ED38A6993420DD902F58052934229
:106D780009D201232B800020B0FA80F0400902B02C
:106D880070BD1346F6E70A20F6E700232B801E465F
:106D9800019601A92888FFF797FF30B92B8801339E
:106DA8009BB2012B2B80F3D9E9E7019B22689968F4
:106DB8009142EED16360034B1B892381DFE700BF5B
:106DC80020220020A0270020BC2700202DE9F8431E
:106DD8001C461C4B1B7806460F4615466BB372B310
:106DE8006CB3DFF868804FF01409A388012B01D930
:106DF8000A2020E009FB03F318F803302BB92146D9
:106E0800A088FFF761FF20B92060A3880133A38021
:106E1800EBE723681EB1998832889142EFD11FB100
:106E280019883A889142EAD19A68C5E90023064B45
:106E38001B892B810020BDE8F8830220FBE7052091
:106E4800F9E700BF98270020A0270020BC270020D2
:106E580008B5074B191D5888FFF736FF18B1BDE86C
:106E68000840FFF7A5BEBDE80840FFF741BE00BFD8
:106E7800A02700202DE9F04FA04FDFF8A49289B099
:106E88000646B8463B6823B949469D4800F02AFDA6
:106E98003860D8F8005029784B1E052B00F2FA808C
:106EA800DFE813F006005E005E00EE00EE005C0115
:106EB80026B1944B00225A600124ECE02B79032B75
:106EC8001DD8DFE803F015022A358F490B78022B0D
:106ED800084619D00B7D022B4FF0010316D114225E
:106EE8005343C2180020C8545068FFF735FE03E02A
:106EF80001232B71FFF71CFE002800F0BC80814B9A
:106F080000225A600E24C6E00023E8E77D4A137089
:106F18000023536041F61D54BDE07C497C480023A2
:106F280002222B718A800122096800F0D5FEE3E76E
:106F3800764C00262E712068734DFFF70DFE754BB9
:106F4800D4F800C05A8814235343EA18EE54516801
:106F58002160A188C2F804C011810222A280CBE777
:106F6800B5F814A0AA7DDFF8A0B1AEB1022AEB886B
:106F780006D9142101FB0AB1DA1C088902440A81E6
:106F8800142202FB0ABAC3F57F43BAF80A20FD337C
:106F98001344AAF80A308FE7142303FB0AB31889AD
:106FA8005C6804EB8004062A68D8DFE802F0274D05
:106FB80035431D59040041F61D54AA7DEB88022A69
:106FC80006D9142101FB0AB1DA1C088902440A8196
:106FD800142202FB0ABAC3F57F43BAF80A20FD332C
:106FE8001344AAF80A3056E04B484C490023436042
:106FF800AB690360FFF796FE002871D00223AB75DA
:10700800002300930423EA182146414800F0CEFDEE
:10701800002830D00E24D0E72B69002B14BF03239F
:107028000123AB750023009305F10C02042304F13E
:107038000801EAE70123AB750022EB8800929B0068
:107048002A6904F10C01E0E703290CBF0523062394
:10705800AB7500230093042305F10802E118D4E777
:107068000623AB752D4B19882B4B5868FFF784FD09
:1070780004460028A1D109B0BDE8F08F0F249CE791
:10708800002E7FF419AF2B79012B4BD0E3B1022BE3
:107098003FF440AF0F241422002103A809F0ECF9B3
:1070A80041F61D539C4208BF0024D8F800300494D0
:1070B8001A78023A042A00F20581DFE812F0E600A5
:1070C800F20015011D01240102232B710DF10A01A3
:1070D800EB68039303A8CDE90466FFF723FE08B91C
:1070E8000A24D8E70498BDF80A108388EB8003883F
:1070F8002B81FFF741FD044627E000BFB827002099
:107108007028002098270020BC2700208428002011
:1071180020220020A02700207C2700209028002083
:10712800B0270020DFF8FCA103AA53463146A81D6A
:10713800FFF74CFE044658B9BAF804100498FFF754
:107148001BFD04460A2C3FF4E5AE002CA3D192E7C0
:1071580008223146504609F08FF9F3E7002E7FF4F4
:10716800ABAE6B4B1A7BAAB11E731A78013A062A8A
:1071780090D801A151F822F0277202004D72020046
:107188006B720200717202009D7002007772020039
:10719800897202001A78072AE7D801A151F822F06B
:1071A800C97102007371020073710200EF7102006D
:1071B800037202002372020023720200EB710200C4
:1071C8001A89544901321A8100225A801A730A789E
:1071D800B2FA82F252099A720A7DB2FA82F252091E
:1071E800DA72012207E04C4958688A8840880332DD
:1071F80002448A8002221A70B7E7464C5A884649E8
:10720800142505FB0242086854685060888810817C
:1072180002228A800C600622EDE70722EBE79A7AC1
:1072280032B9DA7A8AB900221A705A805A6071E63D
:10723800384900229A72CA68002AF2D1097C0029CA
:10724800EFD05A80FFF704FE55E70022DA72314A80
:10725800116A0029E7D192F82420002AE3D00122FC
:10726800EFE7FFF7A5FC46E7FFF742FC43E7294AAB
:107278005B88142101FB03235868FFF76DFC3AE78C
:1072880000225A60FFF754FC35E701228DF80C20E4
:107298001A89ADF818209A88DB68ADF81A2005938A
:1072A80010E002228DF80C201A89ADF818209A886F
:1072B800ADF81A20DA689B7D05929A1F5342534114
:1072C8008DF81C3003A8FFF7D5FB00264946134864
:1072D800C8F8006000F031FB0121114800F0E0FB24
:1072E80000287FF4CFADC6E603228DF80C20DA889B
:1072F800ADF818201A89CFE70422DB888DF80C2016
:10730800ADF81830DEE705238DF80C30DAE700BF5A
:10731800A0270020BC2700208428002070280020F7
:1073280080280020942800204068FFF7A3BD0000B3
:1073380008B50121044800F09DFB18B9BDE80840D4
:10734800FFF798BD08BD00BF802800202DE9F34154
:107358009846354B1B7806460D46002B5BD0002916
:107368005BD009884FF6FF73994258D06B88002B81
:1073780055D06B689B0754D14AB92F890DF102018A
:107388003846FFF787FB30B102B0BDE8F0811388BB
:107398005788ADF8023001A8FFF726FC044658B913
:1073A800BDF80230214A142101FB03235889033810
:1073B800C01B58810820E7E700238375BDF8023019
:1073C80083826B68036180F800800121184800F00F
:1073D8005CFB2B882381B8F1030F6B88A38004BF63
:1073E8000423A3754FF0000508BF3368E06008BFA9
:1073F800A361E780658101A90E4800F063FA36B100
:10740800E36833600C4B75601B89B5723381FFF7F5
:107418008FFF0020B8E70220B6E70520B4E7042074
:10742800B2E70320B0E700BF98270020BC27002060
:10743800B427002070280020A027002008B5084B9A
:107448001A68042A09D01968064A42F8210001215D
:10745800184600F01AFB002008BD0C20FCE700BF0E
:107468008C280020882700202DE9F04F14228BB0AB
:1074780000210DEB020008F0FFFF744A137803F0B7
:10748800FF01CDE901123BB105A8FFF7F3FA002788
:1074980038460BB0BDE8F08F029B181D00F00BFBBF
:1074A8000028F4D14FF010234FF080525B69116926
:1074B8005269674C581C08BF02FB01F32361002284
:1074C800A3F540536349E360204600F03BFB039477
:1074D80007460028DCD11C238C225F495F48DFF86F
:1074E8008891DFF8888100F08EF93D46BA464FF062
:1074F800030B3C46039BDE68564430463146FFF793
:1075080081FB01284DD042B2002A36D0032822D16F
:1075180006F580520868013040F08A8004318A42BA
:10752800F8D1D9F800203AB902220123C9F800603D
:10753800A9F8042001930CE014226243022008EB0E
:10754800020108F80200464A4E605480013408815E
:10755800A4B245F001050AF5805ABAF5405FC9D1D1
:10756800BBF1010F98BF0025EDB2022D03D0062D07
:1075780035D0002D3CD10B278AE71421614308EB55
:10758800010008F8012001F1100208314660424468
:1075980041443046FFF762FB45F002050134A4B2CE
:1075A800D9E7019B63B11422624308EB0201022070
:1075B80008F802000134D9F800204A600881A4B212
:1075C80000222849C9F800603046FFF747FBB9F8A0
:1075D8000420022A0CBF042208221543BBE7029AA2
:1075E8000123137005A800235360FFF743FA4FE700
:1075F80004A8FFF7F9FAC8B10123013D03700A2D69
:1076080009D8DFE805F006080608070807080F117B
:107618000F000023037104A9104800F053F9FFF785
:1076280087FE35E70323F5E70223F3E708272FE76B
:107638000BF1FF321FFA82FB1422624308EB0201AE
:107648004E60032108F80210A8E700BF9827002021
:1076580020220020B4090300E4270020702800201D
:10766800A02700208828002084280020BC2700208C
:1076780073B50D460446C8B1C1B10DF10601FFF757
:1076880051FBA8B10B4BBDF806006668142202FB3B
:10769800003001210C3000F0F8F963682E600C33DB
:1076A8006B600123A372002002B070BD0520FBE7C8
:1076B8000A20F9E7BC27002013B50446A8B10DF14C
:1076C8000601FFF72FFB90B10B4ABDF806301421D5
:1076D80001FB0323DA6862B1A27A52B1DA680020AA
:1076E800013ADA60A07202B010BD0520FBE70A205B
:1076F800F9E70620F7E700BFBC2700200223002295
:10770800FFF724BE18B103230022FFF71FBE052090
:1077180070470000104B1B7813B50446ABB14FF609
:10772800FF73984213D001A8FFF75EFA88B10523CA
:10773800037001230371C48001A9084800F0C2F84E
:10774800FFF7F6FD002002B010BD0220FBE7042081
:10775800F9E70820F7E700BF9827002070280020E5
:107768000E4B1B7807B5A3B101A8FFF73DFA90B1FE
:107778000623037001A90A4800F0A4F8094B1A78F7
:107788000AB101221A73FFF7D3FD002003B05DF898
:1077980004FB0220FAE70820F8E700BF982700203A
:1077A80070280020A027002007B5ADF80600ADF826
:1077B80004100DF1060001A9FFF708FB03B05DF8FE
:1077C80004FB07B51346ADF806000A4600200DF184
:1077D8000601FFF7FBFA03B05DF804FB07B5134693
:1077E800ADF806000A460DF106000021FFF7EEFA93
:1077F80003B05DF804FB20B119B103680B600020E9
:1078080070470520704710B561B1B2FBF3F403FB74
:107818001424A4B244B9C0E9001484608281C381ED
:10782800204610BD0E20FCE70920FAE782B050E898
:10783800022FC188B2EB324F4FF0000317BF92B24C
:1078480041EA014142EA014104E04268B2EB324FA9
:1078580008BF012340E80212002AE8D18DF807305A
:107868009DF80730002B0CBF1120002002B0704794
:1078780037B550E8013F9DB2C48925448489A542A3
:1078880028BF2D1B0489A54202BFBFF32F8F0022FA
:1078980007E0C5EA030540E80154002CE9D14FF0A0
:1078A80001028DF803200193019B9DF803200B60D2
:1078B80002F0FF0322B10B880068184403B030BD02
:1078C8001846FBE70A884B889A4209D150E8012FED
:1078D800C2EA024240E80123002BF7D10120704799
:1078E8000020704737B550E8023F1FFAA3F5C48857
:1078F800A54202BFBFF32F8F00220DE0C4892544A3
:107908008489A54228BF2D1BC3EA054540E80254D7
:10791800002CE8D14FF001028DF803200193019B60
:107928009DF803200B6002F0FF0322B14B8800682A
:10793800184403B030BD1846FBE70A884B889A42C2
:1079480009D150E8022FC2EA224240E80223002B64
:10795800F7D1012070470020704701F01F024B0942
:107968000121914000EB830000F063B84B0910B58A
:1079780001F01F040121A14000EB830000F04EF844
:10798800E04000F0010010BD01F01F0301229A4001
:107998004B0900EB8300D14300F061B84B0901F0BB
:1079A8001F0150F82300C84000F0010070472DE97E
:1079B800F0474E1E760980460F460136002558F8D6
:1079C800254008EB8509E44394FAA4F4B4FA84F456
:1079D8004FEA451A202C06D10135AE42EFD83C4675
:1079E8002046BDE8F0875444A742F5D921464046D1
:1079F800FFF7BCFF0028F3D0D9F80040E44394FA1D
:107A0800A4F4B4FA84F4E5E750E8002F0B4640E804
:107A1800003C9CF0000FF7D11046704750E8002F4B
:107A280042EA010340E8003C9CF0000FF6D1104602
:107A3800704750E8003F43EA010240E8002C9CF000
:107A4800000FF6D11046704750E8002F02EA0103F4
:107A580040E8003C9CF0000FF6D11046704750E813
:107A6800003F03EA010240E8002C9CF0000FF6D129
:107A78001046704750E8002F02EB010340E8003C35
:107A88009CF0000FF6D11046704750E8003F03EB1A
:107A9800010240E8002C9CF0000FF6D11046704718
:107AA80050E8003FA3EB010240E8002C9CF0000FD7
:107AB800F6D1104670470121FFF7B0BF0121FFF74B
:107AC800B8BF0021FFF7C0BF37B5054600240DF148
:107AD80007008DF80740FEF793FF2A686B68116866
:107AE80099420ED9481E106011F8014CEB68298A9A
:107AF80001FB0434AB6811791B1ADBB2994238BF19
:107B080013719DF80700FEF79FFF204603B030BDB4
:107B180037B5054600230DF107000C468DF80730F0
:107B2800FEF76EFF2A681368591C1160E968641A29
:107B3800298AB4FBF1F41C709DF80700FEF784FF56
:107B480003B030BD07B50B4688B9124B1248134A2B
:107B5800C01A0E23C0080093114B0004114940F0CD
:107B68000100FEF77AFE0E2003B05DF804FB4BB966
:107B7800084B09480C4AC01AC0080E230093000499
:107B8800074BEBE703601B68114603B05DF804EB95
:107B9800184700BF2806030078060300850803007D
:107BA800D80703008A080300010903002DE9F341FF
:107BB80088B93D4B3D483E4AC01AC0080E243D4B8B
:107BC800009400043C4940F00100FEF746FE2046C0
:107BD80002B0BDE8F0814AB9334B3448374AC01A7D
:107BE800C0080E2400040094324BEBE7D0F800C024
:107BF800BCF1000F09D12C4B2C48314AC01AC008DF
:107C08000824000400942B4BDCE74BB9264B27488B
:107C18002C4AC01AC008092400040094254BD1E757
:107C28004768D7F80480B3FBF8F708FB17374FB15C
:107C38001D4B1E48244AC01AC00809240004009499
:107C48001C4BBFE78F0709D0174B18481F4AC01AAB
:107C5800C008102400040094164BB3E712F0030F79
:107C680009D0114B11481A4AC01AC0081024000440
:107C78000094104BA6E7C768B9420BD34C1E0569A0
:107C88001C44AC4206D8DCF80C40A44602B0BDE85F
:107C9800F0416047044B05480E4AC01AC00810243A
:107CA80000040094034B8DE72806030078060300C0
:107CB80085080300EA0703008A0803000709030090
:107CC800FB080300BA0803000D0903003709030085
:107CD8004F09030072090300F7B580B92A4B2B48F6
:107CE8002B4AC01AC0080E242A4B009400042A49C3
:107CF80040F00100FEF7B1FD204603B0F0BDD0F81A
:107D080000C0BCF1000F09D11F4B2048234AC01AFC
:107D1800C0080824000400941E4BE8E74AB91A4B2F
:107D28001A481F4AC01AC008092400040094194BB5
:107D3800DDE74768D7F800E00EF1FF370F4209D0BA
:107D4800114B1248174AC01AC008102400040094A6
:107D5800104BCCE7C768B9420CD34C1E05690EFB23
:107D68000244AC4206D8DCF81040A44603B0BDE893
:107D7800F0406047044B05480B4AC01AC00810245D
:107D880000040094034BB2E72806030078060300BA
:107D980085080300FD0703008A080300FB080300A9
:107DA800BA080300100803003608030029DF7047EB
:107DB80028DF704770B503689D6886B004460E4694
:107DC8006DB114220021684608F056FBA36805939C
:107DD800237901962BB1012B0DD06846A84706B030
:107DE80070BD01238DF8003023690293E368039383
:107DF80063690493F1E702238DF80030E3681B03FD
:107E08000293F5E70846704700207047024B187A3E
:107E1800003018BF0120704738290020034B187A1A
:107E28000122B0FA80F05A744009704738290020BE
:107E380008B510461A4608F0F6FA002008BD0000FA
:107E480008B514220021044808F016FB0348FFF780
:107E5800EDFC002008BD00BF38290020282900209B
:107E680010B5094C094B43602046FFF724FE40B982
:107E780004F006FF1C2320748C2205490548FFF7EF
:107E8800C2FC002010BD00BF38290020A80903004B
:107E98009C2800202829002070B5244D244E2B7AD8
:107EA8002C463BB923492448FFF71CFD306008B92C
:107EB800686070BD0223237233681A7972B1012A8F
:107EC80024D018460321FFF775FF0023237263604F
:107ED80018491948BDE87040FFF72FBDD3E90520C0
:107EE800121AB2F5805F28BF4FF48052D3E9031508
:107EF8009208012A014438BF01222844FFF756FF9F
:107F080050B11128DDD101232372D2E7D3E903024E
:107F18001044FFF74DFFF3E7237C002BC9D101463E
:107F2800BDE87040022000F009B800BF38290020E1
:107F3800502900204C2900202829002038B5831E0C
:107F4800012B45D8234C237A002B41D0022B09D191
:107F5800032830D0204B1B680022E2601A793AB11E
:107F6800012A22D0637C7BBBBDE83840FFF794BF71
:107F7800D3E905128D1AB5F5805F94BF521902F541
:107F880080529A619142EDD102284FF0000308BF58
:107F980019462372104B18BF0D211868FFF70AFF06
:107FA8000E490F48FFF7C9FCDCE71A6901321A616C
:107FB8005B699A42E7E7E3680133082B01D8E3607D
:107FC800D0E70023E360DFE7BDE8384004F048BEAF
:107FD80038BD00BF38290020502900204C29002036
:107FE8002829002000F0FD03012B08D1044B0022B2
:107FF8005A74421E504250411874FFF74DBF7047E3
:108008003829002010B5064C201DFFF754FD28B96B
:10801800637C1BB9BDE81040FFF73EBF10BD00BF31
:10802800382900202DE9F34180460D460F4801A963
:1080380016461F46FFF71CFC0446A8B11C22002167
:1080480008F01AFA2D0B0123237101A9C4F8008046
:10805800A760E56066610548FFF734FCFFF7D2FFCB
:10806800002002B0BDE8F0810420FAE728290020AA
:108078002DE9F74381468846104801A917461E4650
:10808800FFF7F6FB0446B0B11C22002108F0F4F912
:1080980000250A9BA36001A92571C4F80090C4E9D2
:1080A800037866610548FFF70DFCFFF7ABFF28462C
:1080B80003B0BDE8F0830420FAE700BF28290020B8
:1080C8002DE9F047B0F806904479D2F800A09DF861
:1080D800208009FB04F4043C06460AEB0300A04296
:1080E8000F4688BFA4EB030A191DC2F800A0B1FB14
:1080F800F9F509FB15114DB9A9EB0104544528BF41
:108108005446BAF1000F04D1BDE8F0873668013D46
:10811800F1E704317B1970182246B8F1000F0ED030
:1081280001461846AAEB040A08F07DF9D145254412
:1081380036684C464FF0000128BF5446E1E719461F
:10814800F0E7F8B546790146721E054600239342CA
:108158002D6803D30024A64202D8F8BD0133F6E700
:108168000F682846FFF7D4FC01343946F3E72DE9B8
:10817800F843068ACD1C0746FFF7A6FC043E3544A3
:108188000446B5FBF6F5F0B14FF48073EDB2838089
:10819800C680013D076081464FF00008A84512D20D
:1081A8003846FFF791FC064648B16379013363719D
:1081B80008F10108C9F8000007608146EEE720468B
:1081C800FFF7BFFF34462046BDE8F883012104309D
:1081D800FFF75BBC10B5012104460430FFF760FCD3
:1081E80010F0FF0F04D12046BDE81040FFF7A9BFEB
:1081F80010BD1FB503920022009203AAFFF760FF8B
:1082080005B05DF804FB0000064B10B500241C7097
:10821800054B1C60BFF35F8F0449054800F00AF85E
:10822800204610BD5C29002060290020D4090300E5
:10823800542900200B684A684360934208BF002312
:10824800016008BF43607047436843B102689168A2
:1082580052680B449342436004BF00234360704755
:1082680010B50D49A1F59472914201D800200FE094
:108278008B1ADB1003EBD3735B1002EBC30452F8C9
:108288003330834205D802D204F10802ECE7606873
:1082980010BD2146E8E700BF240B030008B5FFF72F
:1082A800DFFF024B002808BF184608BDE909030094
:1082B80010B506F093F8037B23B183680068BDE826
:1082C8001040184710BD00207047000073B50E46D7
:1082D80004681546D2B1237BD3B96168C1B91022AD
:1082E800204608F0C9F8321C0A4BA56018BF0122C5
:1082F80000934FF47A712346074805F02DFF0028B4
:10830800606014BF00200E2002B070BD0720FBE79C
:108318000820F9E7B9820200B01703002DE9FF41F0
:10832800446805460F461646002C4ED0037BA3B979
:108338002E60EFF30586BEB94FF002083A46CDF835
:10834800008033460421204605F020FF0128074617
:108358002ED0042004B0BDE8F081204606F032F8A3
:108368000028E5D00020F5E70026009603AB3A4642
:1083780009212046039605F009FF0128E9D105F0F7
:108388006FFB0096024603AB0621204605F0FEFE71
:108398000128DED1039B43B10D4B4FF080525A6048
:1083A80040BFBFF34F8FBFF36F8F01232B73D9E704
:1083B80005F050FBCDF8008002463346394620468A
:1083C80005F0E4FE0128F0D0C3E70820C2E700BFAB
:1083D80000ED00E01FB50446406828B3EFF30583BD
:1083E800CBB10022009203AB0821039205F0CEFE28
:1083F800012801D004200CE0039B43B10B4B4FF044
:1084080080525A6040BFBFF34F8FBFF36F8F002079
:10841800207304B010BD0222009203211A4605F011
:10842800B5FE0128F3D0E5E70820F2E700ED00E00B
:108438000C4B1B78062B10D10B4B1B681A070CD161
:108448000A4B186800F0F003302B08D000F0E00069
:10845800A0F140035842584170470020704701205E
:10846800704700BFE00F00F0E40F00F0E80F00F0E5
:10847800094B1B78062B0CD1084B1B681A0708D12F
:10848800074B186800F0F000A0F13003584258413B
:1084980070470020704700BFE00F00F0E40F00F0C5
:1084A800E80F00F008B5FFF7C3FF28B1784B794A09
:1084B8001B68C3F304231360FFF7DAFF10B1764B90
:1084C800764A1A60FFF7B4FF28B1754B754A1B68E6
:1084D800C3F342331360FFF7CBFF20B1724AD3686E
:1084E80023F08073D360FFF7A3FF40B14FF08043C0
:1084F8000022C3F80C21C3F81021C3F83825FFF770
:10850800B7FF10B1694B03221A60FFF7B1FF40B102
:10851800674B05221A6001229A6700229A603F225F
:108528005A60644B1B78062B50D1634B1B681907A4
:108538004CD1624B1B6803F0F003502B46D14FF02F
:1085480080525F4BD2F80414C3F82015D2F80814EF
:10855800C3F82415D2F80C14C3F82815D2F810144F
:10856800C3F82C15D2F81414C3F83015D2F818141F
:10857800C3F83415D2F81C14C3F84015D2F82014E7
:10858800C3F84415D2F82414C3F84815D2F82814AF
:10859800C3F84C15D2F82C14C3F85015D2F830147F
:1085A800C3F85415D2F83414C3F86015D2F8381447
:1085B800C3F86415D2F83C14C3F86815D2F840140F
:1085C800C3F86C15D2F84424C3F87025FFF730FFC0
:1085D80028B13C4B3C4A1B6803F04F031360FFF77C
:1085E80027FF48B14FF08043D3F80024D20744BF97
:1085F8006FF00102C3F80024344B1B68062B08D126
:10860800334B1B68062B01BF324A136843F480635F
:108618001360314AD2F8883043F47003C2F88830C6
:10862800BFF34F8FBFF36F8F4FF01023D3F80C3287
:10863800DB0729D5294B0122C3F80425D3F80024E8
:10864800002AFBD04FF01022D2F80C3223F001039D
:10865800C2F80C32214B1A46D3F800140029FBD07B
:108668000021C3F80415D2F80034002BFBD0BFF367
:108678004F8F19491A4BCA6802F4E0621343CB6062
:10868800BFF34F8F00BFFDE7164B174A1A6008BDAE
:10869800240300104035014074C007400DF0ADBA06
:1086A800440200103C050040F0ED00E0A005004049
:1086B80010560040E00F00F0E40F00F0E80F00F063
:1086C80000C0004058020010E40E004030010010C5
:1086D800340100103C17004000ED00E000E00140CC
:1086E8000400FA05342200200090D00338B5074C66
:1086F800051E04F1080318BF1C4623682BB11A682D
:1087080022605B6828469847F7E738BD6C29002047
:1087180020B9054B01225A70FFF7E8BF012802D1A2
:10872800014A9070F8E770476429002020B9034B8C
:1087380001225A70FFF7DABF704700BF6429002092
:1087480038B50B4C237883B90A486360A36023616A
:10875800E36000F095F8054604F092FA08B900F0D5
:108768009BF801232370284638BD8525FBE700BF09
:10877800642900201987020037B5184CA3780546EC
:1087880003F0FF029BB110B1436801209847002312
:108798000DF107008DF80730FEF732F9E3689DF810
:1087A80007000133E360FEF74FF903B030BD0DF168
:1087B80007008DF80720FEF723F925B12269134633
:1087C8003BB92A602561E368002BE7D100F078F80F
:1087D800E4E79D42F7D01B68F2E700BF6429002058
:1087E80037B50B4C00230DF107008DF80730FEF765
:1087F80007F9E368013BE360E56815B900F086F81E
:10880800A5709DF80700FEF71FF903B030BD00BF43
:1088180064290020012813B509D018B103281CD0F9
:1088280002B010BD0F4B0122C3F88020F8E70E4CB0
:1088380000230DF107008DF80730FEF7E1F82378E3
:108848000BB9FFF77DFFE3689DF807000133E3608C
:108858000123A370FEF7F8F8E2E700F01DF8FFF730
:10886800BFFFDDE700E100E06429002000F180405F
:10887800002382B0036003680193019B02B0704734
:10888800044A137923B90121106091801846704772
:108898008520704778290020084B1A68D20706D42B
:1088A800E02283F800230122C3F880211A604FF0E8
:1088B80080430122C3F81825704700BF00E100E09B
:1088C80038B54FF48270FFF7D1FF4FF08043022292
:1088D800C3F804230A4AD06840F08073D360094B78
:1088E8001C6844F0010119605D685968491BB1F5BD
:1088F8000A5FFAD31C60044BD06001221A6038BDAD
:10890800F0ED00E0001000E008000040044B0122F8
:108918001A604FF08042D2F81834DB03FBD470475A
:108928000C000040124B1B6810B573B14FF48070F7
:10893800FFF79CFF4FF080430122C3F808230D4B3B
:10894800587910B95A711B6898470B4B1B6873B15B
:108958004FF48270FFF78AFF4FF080430222C3F87A
:108968000823044B01201B68BDE81040184710BDC0
:1089780000010040782900200401004000F18040F7
:1089880000F5C040002382B0036003680193019B97
:1089980002B07047800000F1A040D0F8003723F4FF
:1089A8004033C0F80037D0F8003743EA0141C0F837
:1089B80000177047054B4FF0FF32072843F8202077
:1089C80084BF1B1883F86020704700BF80290020EF
:1089D80010B5184C94F876304BBB04F148032021AD
:1089E800FF22013911F0FF0103F8012BF9D1C8B2B8
:1089F800FFF7E0FF01311229F9D1042200210E48C6
:108A080007F03AFD0D4B402283F806234FF4BE7061
:108A1800C3F880211A60FFF7B1FF094B4FF00042FD
:108A2800C3F80423012384F87630002010BD082001
:108A3800FCE700BF80290020F229002000E100E0C7
:108A48000060004030B52E4B1A1892F948400134A6
:108A580053D18C78002C4CD01C46002254F8045B6F
:108A6800013541D11C1884F84820002443F82240DD
:108A7800920002F1804202F5C0420B78D2F81055FC
:108A88004C7825F498151B04240525F4F85504F4AE
:108A9800801403F44033C2F8105523430402D2F87B
:108AA800105504F4F85423432B43C2F810354A7880
:108AB8000123012A4FF0A04203FA00F30CBFC2F8C9
:108AC8000835C2F80C3500F5E073032142F823108D
:108AD800C2080C49012300F0070003FA00F08B5C80
:108AE80018438854002003E00132082AB6D1042034
:108AF80030BDFE2382F84830D9E70820F8E700BFE8
:108B080080290020F2290020F0B5374B1C1894F971
:108B18004840002C1C4664DA8D78C5F34005002DCA
:108B28000BBF0823002312260826B34201D10420D4
:108B3800F0BD54F8237001373FD1261844F823209C
:108B480086F8483015B9E21882F860008A78550727
:108B580013D4D60733D5820002F1A042D2F80057C9
:108B680025F00205C2F80057204EC50800F0070797
:108B78000122BA40775D3A4372558A780D7812F02F
:108B8800020225D09B0003F1804303F5C043020293
:108B9800D3F8101521F4473121F44071C3F81015AA
:108BA8002D04D3F8101502F4F85205F440352A4381
:108BB8000A43C3F810250020BAE70133B5E74D781A
:108BC80000F5E0724FF0A046AD0046F82250CBE722
:108BD800083B234493F8681041EA851583F86850E8
:108BE800E9E70820A4E700BF80290020F229002037
:108BF8002DE9F04F85B000245A4D01944FF480724E
:108C0800012102F1804303F5C04390B21B68012B98
:108C180006D1D5F804330B4202D0FFF7AFFE0C4360
:108C28000432B2F5907F4FEA4101EAD14E4B1B68FE
:108C3800012B0AD14FF4BE70FFF7A0FE4FF0A043FE
:108C480044F00044D3F81035019314F0FF0F1AD004
:108C5800464F00250126344210D0AB0003F1804373
:108C680003F5C043D3F81005D3F8101557F825308D
:108C780023B1C1F30141C0F3042098470135082D01
:108C88004FEA4606E7D1002C64DA00224FF0FF33A2
:108C9800CDE90223354D01274FF0000A344E5446E2
:108CA8004FF0A04816F9012B531C46D0D2B222F03F
:108CB800C0094FEAD90104A8084402F0070310F8D4
:108CC80004CC07FA03F31CEA030F36D005EB090CB2
:108CD80092099CF948C055F82CB0BBF1000F0AD195
:108CE800032A2AD10DF1080E1EF801C04CEA030C24
:108CF8000EF801C001E0032AF4D009F5E07110F87C
:108D08000C0C58F821101842C1F3014105D0022972
:108D180013D1032A0BD1114604E003290DD1032AEC
:108D280005D102214846FFF735FE0134E4B2BBF114
:108D3800000F02D011464846D8470AF1010ABAF195
:108D48000A0FAFD134B14FF0A043019AD3F81035D0
:108D5800934202D105B0BDE8F08F0193029B0393C3
:108D68009AE700BF006000407C6100408029002035
:108D7800E8290020014B1B68184700BFF82900208C
:108D88000023435082B043580193019B02B07047BF
:108D9800F0B546791F4B204F43F826207500AB19D4
:108DA800FB5CA3BB90F904308C78002BDAB2A8BF27
:108DB80003F1604C4FEA5313B8BF02F00F0E4FEAAD
:108DC8004414B4BFDFF854C00CF5614C4FEA830378
:108DD800E4B203F16043B4BF0CF80E408CF80043D2
:108DE80003F56143012402F01F0204FA02F2C3F8FA
:108DF80080211A6003680A88C3F8082535447B195E
:108E08000A795A707C55CA789A700020F0BD0820FB
:108E1800FCE700BF042A0020002A002014ED00E02F
:108E2800036801221A604379024A03EB43030221D3
:108E3800D1547047002A00202DE9F04106464FF42E
:108E4800803400681C4D8C40C0F84843C0F8084383
:108E580096F805E04FEA4E0C0CEB0E072F4422F073
:108E68007F4297F8018001F5A87740F82720B8F1EC
:108E7800000F11D0D0F80485F4446544A8EB02072C
:108E8800904538BF07F1FF17AA7838BF07F57F4725
:108E9800BA4201DD0D200CE03BB15031890089B2A6
:108EA800FFF76EFF3368C3F8044333680020C3F844
:108EB8004443BDE8F08100BF002A00202DE9F041BD
:108EC800224E234FDFF88C8000244FF48035D7F8EA
:108ED8000433A6F580412B4289B20CD0336853B1D4
:108EE800C7F848533846C7F80853FFF749FFD8F87A
:108EF8000030E0B298470134042C4FEA450506F1EA
:108F08000406E4D11248D0F80433DA070AD5D0F8B9
:108F180000313BB14FF48071FFF732FF0D4B204613
:108F28001B6898470A48D0F804339B070CD5D0F83B
:108F380004314BB14FF48271FFF722FF054B052036
:108F48001B68BDE8F0411847BDE8F0814041024088
:108F580000400240042A002037B5D0F818358A6945
:108F6800DBB28DF807304B6A93423EBF4A699DF8E1
:108F78000740D4544A6A91F82840531C4B62023285
:108F88003CB10C69A2428C6938BF0A61944288BF1F
:108F98008A610D69954205D9CB689B5CC0F81C3580
:108FA80001200BE08C69944202D991F82030F5E752
:108FB800AB42F5D3A3422CBF0020012003B030BD43
:108FC80013B5114B114C00221A601B6801932146FE
:108FD8004FF04020019BFFF7BFFF90B9A27F0C48DC
:108FE800FF2A1FBF012393404FF0A042C2F8083563
:108FF800002363772372D4E9003102B0BDE8104042
:10900800184702B010BD00BF08410040082A0020E0
:10901800102A00200720704708B5012202210020ED
:10902800FFF7F8FF08B1072810D107220221012015
:10903800FFF7F0FF08B1072808D100210A220846E7
:10904800FFF7E8FF10B1072808BF002008BD00009F
:109058000388102B10B502D0112B1ED010BD1A4C4E
:109068002168B1B901220846FFF7D4FF08B10728E3
:1090780024D1072202210120FFF7CCFF08B10728DD
:109088001CD1042202210020FFF7C4FF08B10728E1
:1090980014D1236801332360E0E70B4A1368013BCE
:1090A8001360002BDAD1FFF7B7FF0028D6D0074BA3
:1090B8001B68002BD2D0BDE810401847034B1B6833
:1090C800002BE6D09847E4E7382A0020342A00200D
:1090D8000369C1688B429DBF8268D21802F1FF32D2
:1090E80003F1FF3394BF501A581A70472DE9F04125
:1090F800D0E9027405463E1B4068964220448846E3
:10910800144404D907F08FF9EC60BDE8F0813246C9
:10911800E41B07F088F9224608EB06016868F1E7C6
:109128002DE9F843C5680646894617464FF00008FA
:109138003469B3687068A54228BFE418013C621B13
:109148005C1BBC4228BF3C46944228BF1446494693
:109158002844224607F067F9B3682544AB4208BFA4
:1091680000253F1BA044A144F560E1D14046BDE87D
:10917800F883000010B5114C114AA2610323C4E919
:109188000433104BE36122664FF480530E4A236286
:109198006266002310220D49A362E01D6362E36248
:1091A8002367E3666367A26607F099F908492046D2
:1091B80007F095F92023A37110BD00BF3C2A0020B9
:1091C800080F0300F42A0020E42A0020110F0300EE
:1091D800150F03002DE9F84F1F4B16461A788146E4
:1091E8008A4698460AB9FFF7C5FF182707FB09877B
:1091F8003D6FD7F86CB05D452BD9BC6E796E641B9A
:10920800B44228BF344629445046224607F00BF999
:10921800BB6E2544A244361BAB4208BF0025ABEB0E
:10922800050B5E4528BF5E4656B1182303FB09832C
:109238003246596E5046294407F0F5F8344435440F
:1092480024B1182303FB0988C8F870502046BDE8EC
:10925800F88F0024E3E700BF3C2A0020DFF888C02D
:1092680018232DE9F04703FB00C78A46BE6A7C6ACB
:10927800A64215462DD8D7F82090A9EB040808F186
:10928800FF3E964509D300FB03339C44DCF80400F9
:10929800204407F0C8F82C440DE07644B24221D8A7
:1092A80000FB03330CEB030690457068204414441C
:1092B80005D907F0B8F87C620120BDE8F08742467E
:1092C800A4EB090407F0AFF822460AEB080170681E
:1092D800EFE7013E361BB24204D800FB0333634478
:1092E8005868D5E70020E8E73C2A0020F8B5184C74
:1092F800182300FB033503FB00402544C46A012CF6
:109308000F46164611D024B1022C1BD0002420464B
:10931800F8BD2846FFF7DCFEB042F8D3324639469E
:109328002846FFF7E3FE3446F1E72846FFF7D0FE6C
:109338008642344628BF0446224639462846FFF767
:10934800D5FEE4E72846BDE8F840FFF7E9BE00BFD0
:109358003C2A002073B50E4B1B7804460D46164672
:109368000BB9FFF707FF00230DF107008DF8073051
:10937800FDF746FB324629462046FFF7B7FF04466D
:109388009DF80700FDF760FB204602B070BD00BFE6
:109398003C2A00202DE9F743184C1F462378054640
:1093A800894690460BB9FFF7E5FE2369AB4221D900
:1093B80000260DF107008DF80760FDF721FB65B168
:1093C800182305FB0332A11803FB054344F8029058
:1093D800C1F804801F629E625E62182303FB054485
:1093E8000A9B9DF80700E362FDF72EFB002003B0FF
:1093F800BDE8F0834FF0FF30F9E700BF3C2A0020BA
:109408002DE9F743174D1E462B7804468846174624
:109418000BB9FFF7AFFE6B69A3421FD94FF00009E4
:109428000DF107008DF80790FDF7EAFA4CB1182303
:1094380003FB0453C3E918879E66C3F87090C3F80A
:109448006C90182303FB04540A9B9DF8070063677C
:10945800FDF7FAFA002003B0BDE8F0834FF0FF30C3
:10946800F9E700BF3C2A00206DDF704779DF7047BD
:109478007DDF704764DF70472DE9F74F0C9CBDF81E
:1094880034B02788002580468A4691462E46B8F88B
:109498000020B2420BDC35B12288013AD21B92B2CD
:1094A800FF2A39D8DA55002003B0BDE8F08FD8F884
:1094B800042052F82600019000220DF1030101A8B2
:1094C800FFF7D8FF0028EFD19DF803204A4521D1A6
:1094D8002288002D14BF0020022002EB090101445C
:1094E800594519DC3DB9013292B2228003F802A035
:1094F80022880132228022880DF103011A4401A832
:10950800FFF7B8FF0028CFD121889DF803200A442F
:10951800228001250136BAE70C20C5E72DE9F34181
:10952800089CBDF824501746CDE90045022206469E
:10953800FFF7A2FF48B9102239463046CDE9084561
:1095480002B0BDE8F041FFF797BF02B0BDE8F08177
:109558002DE9F04F00231688138090F82D3085B040
:1095680007460D46144653B3082E01D80C2028E1AF
:1095780002A8FFF779FF002840F02381138808220A
:10958800CA54238801339BB21B222380CA542088E3
:10959800013080B2208006220DF10901284406F02E
:1095A80042FF23889DF8082006339BB212F0FE0282
:1095B80018BF01222380EA54238801332380BB7813
:1095C800FBB123880433B342D0D802A8FFF74EFF7B
:1095D800002840F0F68023880322EA5423880133C8
:1095E8009BB219222380EA542388BDF8082001334E
:1095F8009BB2E9182380EA54120A4A70238802337E
:109608002380FA789AB12388D91CB142AED80221B6
:10961800E954238801339BB201212380E95423882C
:109628000B449BB22380EA5423880B4423807A6836
:10963800AAB12388D91CB14298D8022192F90020F6
:10964800E954238801339BB20A212380E9542388F3
:1096580001339BB22380EA542388013323803B895A
:10966800002B40F0A2803B8A5BB1CDE900462B4637
:109678000722032107F11000FFF750FF002840F0F0
:10968800A0803B8B5BB1CDE900462B461522142107
:1096980007F11800FFF742FF002840F092803A6A6D
:1096A800002A40F09180D7F82480B8F1000F30D01C
:1096B800B8F804302188981C8A1C0244B2423FF64C
:1096C80055AFFE283FF652AF03336B54238801335E
:1096D8009BB2FF222380EA54238801339BB2238064
:1096E800B8F80020EA54E918120A4A7020880230B3
:1096F80080B22080B8F804205AB1D8F808100029A0
:109708006CD0284406F08FFE2388B8F80420134450
:10971800238097F82C30002B40F09B803878002865
:109728004FD03B88012B59D0228802F1020CB44556
:109738003FF61CAF012805D17B78023313449E42C3
:10974800FFF414AF023EB61AB6B202A905EB0C003C
:10975800ADF80860FFF78CFE98BB3978BDF8082093
:10976800022900F0BB807B78934202D3B24240F2D8
:10977800B380012940F0B4809BB29E42C0F0B08013
:10978800ADF808300821BDF80830FE2B3FF6EEAEE4
:1097980022880133AB542288013292B22280A95424
:1097A80022881344238000200BE0CDE900462B4695
:1097B8000622022107F10800FFF7B0FE00283FF457
:1097C80052AF05B0BDE8F08FB4F800C00CF1060345
:1097D800B3423FF6CBAE1188052901D80720F0E740
:1097E8006FF4486E01EB0E039BB24FF27D3E73455A
:1097F800F4D95388052BF1D96FF44860181880B252
:109808007045EBD94FF6FF70814203D0834201D0F7
:109818009942E3D8052305F80C30238801339BB21D
:1098280012212380E954238801339BB223801188B5
:10983800E954E818090A4170238802339BB223804F
:109848005288EA54E918120A4A702388023323809E
:1098580029E7BB6A002BC1D04FF000094FF00C0A72
:109868004FF0160B97F82C305FFA89F293427FF687
:1098780055AFB96A0AFB02F201EB0208B8F80430E6
:10988800981CFE283FF672AE208803332B54238899
:1098980001339BB2238005F803B0238801339BB2C0
:1098A80023808A5AEA54E918120A4A70208802303A
:1098B80080B22080B8F804205AB1D8F808100029DE
:1098C8008CD0284406F0AFFD2388B8F80420134450
:1098D800238009F10109C5E7092154E7B242FBD900
:1098E800ADF808604EE770B5C0B14AB116880024DB
:1098F800B44203D305196D789D4208D0A14201D81E
:1099080000200BE0055D01352C44A4B2F0E7A1422C
:10991800F6D9A31C1380005D013880B270BD13B561
:109928000023ADF8063013460DF106020446FFF792
:10993800DAFF10B1BDF80600204402B010BD72DF96
:10994800704773DF704738B5012204460D46B0F8FA
:109958003812D0F83402FFF7E2FF00B1057004F1C5
:109968003C0204F50D7104F15400BDE83840FFF7DE
:10997800E6BF80F830107047F8B504460F46002956
:1099880075D0002873D091F87A301BB191F89830CF
:10999800002B6ED1D7F8A030042B6AD0D7F89C30B2
:1099A800042B66D007F178060FCE4FF0000C251D6A
:1099B80084F802C00FC50FCE0FC596E8070085E8EA
:1099C800070084F830C0D7F8A4306363D7F8A8300C
:1099D800A3634FF6FF7504F50D73C4F84432A4F879
:1099E80048520722614604F24A2006F045FD2378D2
:1099F8000BB984F8545094F82430002B14BFEE238C
:109A08001F2304F15501C4F83412A4F8383204F5C0
:109A18000E723846FFF79CFD40BB94F82430002BAB
:109A280014BFEE231F2304F24311C4F83C12A4F818
:109A3800403204F5107207F13C00FFF789FDA8B920
:109A4800A369A4F848304FF480720123A4F8502089
:109A5800626920646264014684F83C3004F13C0287
:109A680004F15400FFF76BFF00B92370F8BD0E2016
:109A7800FCE70720FAE7F8B5077804460D46002FFB
:109A880000F0048100F24A26A17007220021304626
:109A980006F0F2FCE38813B1A378012B04D0E37934
:109AA8004BB1A378022B06D1636BA3B1012284F8D2
:109AB800512208209847334604F5147113F8012FF2
:109AC80012B98B42FAD117466B1E032B52D8DFE826
:109AD80003F0050B0F1284F85132ECE7A3791BB1A0
:109AE80094F8243003B95FB9E3790BB1002F43D15F
:109AF800237A002B42D1637A002B0CBF0025042562
:109B0800636BA570002B3BD0033D012D38D86279DB
:109B1800002A35D094F8522292BB84F854220122AC
:109B280084F853220720984704F13C0518220021A5
:109B3800284606F0A1FCE36A94F82420581E012167
:109B4800022828BF0B4684F83C1084F8513032B103
:109B5800884296BFA36A84F8521084F85230A178DC
:109B6800002384F8503004291BD8DFE801F0770D72
:109B7800223559000025C3E70225C1E70325BFE7C1
:109B8800002384F85332CFE7C4F84432C4E91063A1
:109B98000223012284F83C30802384F83120A4F881
:109BA8004830A378002B5CD1636B002B6AD100206E
:109BB80067E00223002A84F8313014BF0723032307
:109BC80084F83C302369A4F848300023C4F84432B0
:109BD800E36826646364E4E763696364A369A4F8DB
:109BE800483012B1062384F83C306379B3B194F855
:109BF80052329BB994F8543283B1022384F850301E
:109C080004212046FFF79FFE0028CAD1052384F8C7
:109C1800313004F50D73C4F84432C2E70323F6E784
:109C2800E3696364236AA4F8483012B1062384F810
:109C38003C30637983B194F852326BB994F854325A
:109C480053B1022384F8503004212046FFF77BFEED
:109C58000028A6D10623DAE70423D8E784F83130B0
:109C68009FE72A46D4F8441204F15400FFF767FE30
:109C780038B994F8301094F85400FFF762FE0028C1
:109C880092D0F8BD94F83100984790E70820F8E79B
:109C98000388112B10B50C460AD0262B1FD0102B89
:109CA80005D1C37B012B02D18388A1F8483210BDAE
:109CB8000022838881F85222B1F848229A42F6D1CC
:109CC8000B79002BF3D101212046FFF7D4FE0028A1
:109CD800EDD0A36B002BEAD0BDE810401847037AFB
:109CE800013B012BE3D8897805230131B1FBF3F35C
:109CF80003EB8303C91AC9B2E6E7704775DF7047FB
:109D080076DF70477ADF70477BDF7047034B1A882E
:109D180082420CBF18460020704700BF103B00204D
:109D2800024B9B6903B11847704700BFF43A002003
:109D380037B585B22846FFF7E9FF034670B1164CE0
:109D4800017A227B91420BD200F10A012846FFF7E3
:109D5800D5FFE8B1112801D0FFF7E2FF03B030BD0D
:109D6800237C0022027243B13B212846FFF7C8FF3B
:109D780030F0080301D0FFF7D3FF6369002BEDD063
:109D880000228DF80420ADF8065001A89847E5E7B1
:109D98001A7A01321A72E1E7F43A002013B50B4639
:109DA800497A0F4C024669B9D4E901101C7A002C93
:109DB80018BF01465868FEF7B1FA08B1FFF7B0FFBF
:109DC80002B010BD002119726369002BF8D001217F
:109DD800ADF806008DF8041001A89847F0E700BF19
:109DE800F43A00204B8802889A4213D842889A4253
:109DF80010D380888A8840F2F313984294BF031ADC
:109E0800C31A934206D800F2F310904234BF0020E0
:109E180001207047002070470388112B70B5014658
:109E280048D002D8102B1ED070BD122B52D0502B08
:109E3800FAD12F4BC288DB899A42F5D1038A022BCB
:109E4800F2D186883046FFF761FF05460028EBD03F
:109E580001F1120000F0C6F930BB6868FEF7BAFAE3
:109E68000028E1D009E0C37B012BDDD14FF6FF705C
:109E7800FFF74CFF054620B90420BDE87040FFF706
:109E88004FBF1C4A8E880680002303721368C5F8EA
:109E98000A300A30536843601031FFF7A3FF144BB0
:109EA8006872DB89002BBFD129463046BDE8704077
:109EB800FFF774BF8088FFF729FF04460028B3D056
:109EC8004068FEF787FA08B1FFF72AFF4FF6FF73DD
:109ED8002380A9E786883046FFF718FF0546002843
:109EE800A2D008310A30FFF77DFF6872DCE700BFB7
:109EF800F43A0020243B0020F8B5064648B305464E
:109F08000FCD154F3C460FC495E8070084E80700BD
:109F18003068124B3B60B0B1FFF7F4FEC0B931684E
:109F28000A681A604A685A600D480E4A4FF6FF736D
:109F380003800D4B40F8043F0021FEF7C7F90028C5
:109F480018BF032004E01846FFF7DEFE0028EBD018
:109F5800F8BD0E20FCE700BFF43A0020243B0020A7
:109F6800103B0020399D02002C3B0020F7B5174616
:109F780001900E4691B1019C6CB100252C462946F2
:109F880001A8FDF70BFD18B13946A8B2B047013456
:109F98000135142DF3D1204603B0F0BD0C46FAE785
:109FA80073B50191019C06466CB100252C462946E3
:109FB80001A8FDF7F3FC18B106EB440301349D80BA
:109FC8000135142DF3D13046346002B070BD000065
:109FD8002DE9F04703888488112B8CB006463ED0C3
:109FE8001A2B41D0102B19D1284DAB68DB430093B5
:109FF80069686846FDF733FD009901A8FFF7D0FFAF
:10A008000DF108094FF00008019B984509D3132C5E
:10A0180015D91F4AE3210420FCF77EFC0CB0BDE8EB
:10A02800F08739F802AB00270137514605EB870066
:10A03800FDF7AAFC1D2FF7D108F10108E4E7214636
:10A048001448FDF78AFC21461348FDF786FCF37B8C
:10A05800012BE3D011482146FDF77FFCDEE70D48D0
:10A068002146FDF791FCD9E7057A0D482D09012D08
:10A07800214606D9FDF771FC022D21460948F0D08A
:10A08800EAE7FDF781FC21460648EAE74C3B002059
:10A098001C0F0300543B0020503B0020583B00207D
:10A0A8005C3B0020603B00201328014602D8024890
:10A0B800FDF774BC00207047503B002010B50446E3
:10A0C800FFF7F2FF38B121460348FDF767FC002887
:10A0D80014BF0220012010BD583B002010B50446D3
:10A0E800FFF7E2FF38B121460348FDF757FC002887
:10A0F80014BF0220012010BD543B002010B50446B7
:10A10800FFF7D2FF28B121460248BDE81040FDF70D
:10A1180045BC10BD5C3B002010B50446FFF7C4FFEA
:10A1280028B121460248BDE81040FDF737BC10BDF4
:10A13800603B002008B518210248FDF738FCC0B282
:10A1480008BD00BF4C3B002070B50A4D06462846A6
:10A158000C46FDF723FC58B13046FFF7A5FF38B190
:10A16800A01D314605EB8000BDE87040FDF716BC28
:10A17800002070BD4C3B0020F8B50D4C054620462C
:10A188000E461746FDF70AFC80B12846FFF78CFFFC
:10A1980060B1B01D04EB800029461FB1BDE8F8404E
:10A1A800FDF7DBBBBDE8F840FDF7EEBBF8BD00BF2F
:10A1B8004C3B0020F8B50A4C05460E4601462046A1
:10A1C8001746FDF7EBFB48B1043504EB85043A4626
:10A1D800A0683146BDE8F840FFF7C8BEF8BD00BF2B
:10A1E8004C3B0020007800F001007047A0DF70476A
:10A1F800024B034918780022FFF7DCBFCB3B002055
:10A20800F1A2020013B5042204460021684606F0B4
:10A2180033F942F6A623ADF8003001238DF8023059
:10A22800044B1868019001AA69462046FFF7DEFF33
:10A2380002B010BD960F030010B50446408800F028
:10A24800ADFBA0802046BDE8104001F061BB30B5F1
:10A2580087B005460C4618220021684606F00CF91E
:10A26800072368468DF80030ADF802500294FFF7D6
:10A27800E3FF07B030BD000030B587B005461822AF
:10A288000021684606F0F8F84FF6FF739D42ADF8D6
:10A29800025023D0284600F096FA0B28044615D021
:10A2A80005D860B121462846FFF7D1FF05E01128FF
:10A2B8000ED043F202039842F4D1002209E00E23A3
:10A2C80068468DF80030FFF7B7FFF6E70F23F7E78A
:10A2D8000122034B28461978FFF74EFF07B030BD1F
:10A2E800C93B0020FFF7C8BF70B5234E86B0317850
:10A2F8000446FFF729FF0546C0BB204600F0B2FA26
:10A308000828014622D006D888B106281ED0204643
:10A31800FFF79DFF09E043F20203984205D043F29C
:10A328000143984224D01128F1D1012214E0294692
:10A338001822684606F0A0F8102368468DF8003009
:10A34800ADF802400125FFF777FFEEE7204600F061
:10A3580025FB00F0A1FA0022084B20461978FFF7E8
:10A368000BFF2A4631782046FFF706FF06B070BD7E
:10A378002046FFF781FFD8E7CC3B0020CB3B0020ED
:10A3880013B5044600F00AFB00236A46092100F0D1
:10A3980029FF052805D1044B012219782046FFF72B
:10A3A800EBFE02B010BD00BFC83B002008B5084B4B
:10A3B800084918780022FFF7FDFE024630B9064B1F
:10A3C80006491878BDE80840FFF7F4BE08BD00BF8D
:10A3D800CA3B0020E9A30200C83B00200DA20200EE
:10A3E80030B5012187B005461C48FDF70DFB044632
:10A3F800BFF35F8F68BB284600F0A0F9112801461B
:10A408001CD005D838B32846FFF721FF002405E003
:10A41800862805D043F202039842F4D122460EE082
:10A4280018222146684606F027F8062368468DF864
:10A438000030ADF80250FFF7FFFEEFE70122084BAE
:10A4480028461978FFF798FE1CB9BFF35F8F034BB6
:10A458001C6007B030BD01240246F0E7C43B002071
:10A46800CA3B002038B503780446A3B94088FFF7F3
:10A4780003FF6588284600F0E3F928B1064B01225E
:10A4880019782846FFF778FE6088FFF779FFBDE85E
:10A498003840FFF78BBF38BDCB3B00200378082B33
:10A4A80037B5044630D1427A72BB057A072D1BD0E6
:10A4B800082D2DD0012D27D16A462946808801F024
:10A4C800B7F808BB019B1B78F3B1A08800F094FA99
:10A4D8004FF6FF73984217D0114B2A461978FFF7A9
:10A4E8004BFEFFF785FE0FE0808800F085FA4FF6F7
:10A4F800FF739842044607D00A4B01221978FFF7E8
:10A508003BFE2046FFF73CFFFFF750FF03B030BD8E
:10A51800054B19680129F7D1BFF35F8F1A60F3E77C
:10A52800CB3B0020CA3B0020C43B0020F8B5FFF716
:10A5380001FE144F144E3870FFF7FCFD3070FFF722
:10A54800F9FD124D124C2870FFF7F4FD2070FFF74B
:10A55800F1FD104B18703B78182B10D03378182B5E
:10A568000DD02B78182B0AD02378182B07D0182851
:10A5780005D0094B00201860BFF35F8FF8BD03209A
:10A58800FCE700BFCA3B0020C93B0020CB3B0020B2
:10A59800CC3B0020C83B0020C43B002013B501235E
:10A5A8000024ADF800300923ADF80240084A8DF8C0
:10A5B8000230084BA14214BF19461146019100F020
:10A5C800EDF92246694600F079FE02B010BD00BFE1
:10A5D8009C0F0300A00F030030B503888488502B1C
:10A5E80087B0054635D00BD8352B45D02D4B2E4995
:10A5F80018780022FFF7DEFDFFF7FAFD07B030BD3F
:10A60800522B22D0542BF1D118220021684605F094
:10A6180033FF112320468DF80030ADF8024000F0DA
:10A62800BDF9ADF8040000F037F9204B2046197841
:10A638000022FFF7A1FD1E4B204600221978FFF7E4
:10A648009BFD6846FFF7F8FDD0E72046FFF714FEAC
:10A65800CCE7037B012BC9D1827A012AC6D10189B3
:10A6680042F602139942C1D1124B20461978FFF7DE
:10A6780083FDFFF79BFEB9E70F4B002219782046B0
:10A68800FFF77AFDE98851B9AB89012B03D1A97B82
:10A69800003118BF01212046FFF780FFA6E70021FF
:10A6A800F9E700BFC93B0020EDA20200CC3B002027
:10A6B800CB3B0020CA3B0020C83B0020AFDF7047DF
:10A6C800B1DF7047B2DF7047B3DF704773B50F4B28
:10A6D8000F4C93E803006D4685E8030000222946E5
:10A6E800208800F0EBFD4FF6FF762388B34201D0B7
:10A6F800112801D102B070BD184600F032FE0022C8
:10A708002946208000F0DAFDEFE700BFB80F03000C
:10A71800CE3B0020044B1A884FF6FF739A4201D0B3
:10A72800FFF7D4BF704700BFCE3B0020024B4FF667
:10A73800FF721A8000207047CE3B00202DE9F743B6
:10A74800804600F02BF94FF6FF739842064637D043
:10A7580001224FF003096B4608213046571C00F0D0
:10A768006BFFBFB2054630BB01990A46032342F886
:10A77800049B06314046FFF7A5FF044648B9324618
:10A788000821304600F0E1FF0446204603B0BDE84A
:10A79800F0830C280DD0052800D12C46082130461E
:10A7A80000F0AAFF002818BF03243A46002DD2D192
:10A7B800EBE70125F2E7072814BF04460C24E4E779
:10A7C80043F20204E1E72DE9F341804600F0E6F8A0
:10A7D8004FF6FF73984217D1002403252646012718
:10A7E8002B46224631464046FFF76AFF042820D010
:10A7F800082823D00B281DD115F002030FD18EB9DC
:10A80800A4B902B0BDE8F0816A46082100F010FF43
:10A818000028E1D1019B9E1D9C881D68DFE701256A
:10A828000027DDE703251C461E46F9E703253446C5
:10A83800F6E71120002F08BF0B20E2E70020F9E718
:10A848001FB50DF10703039300F0A8F802AA012130
:10A8580000F0EEFE20B9039B187805B05DF804FB04
:10A868000020FAE738B504460A48FFF72DFF70B90B
:10A87800084B43F203054FF6FF7219882046FFF78D
:10A888001DFFA84204D11A8801321A80F3E7032079
:10A8980038BD00BFD03B002013B5074A044692E8F4
:10A8A80003006B4683E8030000221946204600F0A7
:10A8B80005FD02B010BD00BFC00F030046DF7047A2
:10A8C800421E00F10F0312F8010F10B99A42FAD193
:10A8D80070470120704708B570B171B103780A78E4
:10A8E800534013F0FE0F08D106220131013005F064
:10A8F8005FFDB0FA80F0400908BD0020FCE72DE9B3
:10A90800F04700F101084F1C06460D4600F11109F9
:10A9180001F1110A10223946404605F049FD044666
:10A92800E0B94046FFF7CCFF18B13846FFF7C8FF3B
:10A93800044651464846FFF7CEFF737C03F0FC03FC
:10A94800042B04D06B7C03F0FC03042B02D1201CE5
:10A9580018BF012000F00100BDE8F0870024E8E7F7
:10A9680030B585B004460D4600F072FC02AA0DF120
:10A978000601072000F074FC10B94FF6FF700BE0D9
:10A98800BDF80630AB42F1D003992046FFF7B7FF78
:10A998000028EBD0BDF8060005B030BD132810B56F
:10A9A800044602D94FF6FF7010BDFFF77DFB002863
:10A9B800F8D00A206043014B185AF5E7D23B002033
:10A9C800132838B504460D4602D943F2020038BDB3
:10A9D800FFF76AFB0028F8D006480A2303FB0400A7
:10A9E80050F8023F2B608388AB808379AB710020DD
:10A9F800EDE700BFD23B00204FF6FF7398422DE9E8
:10AA0800F04106460CD00C4F00244FF00A0808FB12
:10AA180004F3A5B2DB5BB34205D00134142CF6D1A4
:10AA28004FF6FF7504E02846FFF73EFB0028F4D0F8
:10AA38002846BDE8F08100BFD23B0020038843B917
:10AA4800821C00F10A0312F8010B10B99A42FAD1DC
:10AA580070470120704710B50446FFF7EFFF58B163
:10AA680022880B889A4208D108220231A01C05F0DE
:10AA78009FFCB0FA80F0400910BD0020FCE71FB52C
:10AA8800044600F0E5FB02AA0DF10601072000F0DC
:10AA9800E7FB10B94FF6FF7007E0039920464631EF
:10AAA800FFF7D9FF18B1BDF8060004B010BD03992F
:10AAB80020462A31FFF7CFFF0028E4D0F3E7000053
:10AAC80013289FBF0A234343014AD152704700BF4E
:10AAD800D23B002038B50546FFF78EFF04462846CE
:10AAE80000F014FE38B9132C05D80A236343024A30
:10AAF8004FF6FF71D15238BDD23B002070B58CB0F3
:10AB080014466A460D4600F11003164613F8011D57
:10AB180002F8011B9842F9D10D22002104A805F082
:10AB2800ABFC2B788DF81F306B788DF81E303046D3
:10AB3800AB788DF81D30FFF7C1FE9DF82F302370DC
:10AB48009DF82E3063709DF82D30A3700CB070BD49
:10AB580030B5037803F0FE03042B85B004460D4698
:10AB680018D1411C032201A805F05DFC0322211D18
:10AB780003A805F058FC02AA03A92846FFF7BEFF60
:10AB8800032202A901A805F013FCB0FA80F04009DD
:10AB980005B030BD0020FBE730B50388102B93B01B
:10ABA8004ED1041D0FCC07AD0FC50FCC0FC594E8CF
:10ABB80007009DF8203003F0FE03062B85E8070008
:10ABC80008D000F045FB9DF820305B08012B04D924
:10ABD800022B3ED04FF6FF7310E001AA0DF10201DF
:10ABE800072000F03DFB0028F4D0029908A8113195
:10ABF800FFF771FE0028F0D0BDF80230BDF81C1038
:10AC080018480A224A4384188352A21C0898C4F898
:10AC18000200BDF824409DF82600948090714FF6FC
:10AC2800FF7293420CD0ADF8083001A80023ADF8AC
:10AC380006108DF8043000F06DFE01A8FFF712FC35
:10AC480013B030BD029908A80131FFF781FF002831
:10AC5800D2D101AA0DF10201072000F001FB002862
:10AC6800F0D1B7E7D23B002090DF7047A5DF7047EF
:10AC7800B5DF70477FB50023ADF80810ADF80A10AE
:10AC88006A4602A9064603930093ADF80430FFF71D
:10AC9800EBFF054600B3124B124CE41AE408FDF72B
:10ACA800FDFA240444F00104034632460E492046C6
:10ACB800FBF7C9FDBDF80020BDF8023052EA0301D8
:10ACC80003D00A492046FBF7BEFDBDF804201AB19F
:10ACD80007492046FBF7AEFD284604B070BD00BF0B
:10ACE8002806030070060300F20F03003C1003005F
:10ACF8007B10030078B14FF0171303601B23037117
:10AD08001723C380038141F61B320023016143816D
:10AD18008281184670470E207047000013B503461D
:10AD280080880C46A0B91A88232A00F0A38011D87D
:10AD3800102A22D0112A51D0A37A4BB1E1880020E1
:10AD4800FFF794FF002840F09B804FF480736381E5
:10AD580002B010BD3A2A49D0552A5FD0242AEBD137
:10AD68001A7A0B694A73002BE6D04DF67A21ADF8B2
:10AD7800040000918DF8042078E0DB7B0A790A73DF
:10AD8800012B13D0022B14D0E18823898B4205D2E2
:10AD98000020FFF76BFF70B90123E372217B637B0F
:10ADA8008B42C9D20020FFF765FFC5E70B88E38017
:10ADB800EAE74B88FBE7112802D10123A372EDE7EC
:10ADC800FDF76CFA374A384B38499B1ADB081B04E5
:10ADD800024643F00100FBF72DFDDFE71723CB8088
:10ADE8000B8141F61B3348818B81A5E75B89CA88B3
:10ADF800934228BF1346172B0A6938BF17230B81C4
:10AE08004AB1C97A39B140F677210091ADF80430DA
:10AE1800694620469047002363818DE7DB88C9880F
:10AE2800A072172B38BF17238B4228BF0B462381EC
:10AE3800FFF71EFF60B1FDF731FA1A4A1A4B1C4999
:10AE48009B1ADB081B04024643F00100FBF7F2FCE7
:10AE5800E37A002B7FF470AF2369002B3FF46CAFCB
:10AE680040F6772200922289ADF8042069462046F0
:10AE7800984761E7197A237B994228BF194692E7D8
:10AE880011283FF465AFFDF709FA064A064B074952
:10AE98009B1ADB081B04024643F00100FBF7CAFCBF
:10AEA80056E700BF2806030070060300D110030010
:10AEB80002110300B0DF704766DF7047034610B524
:10AEC80000214088FFF7F8FF024608B91A7210BD42
:10AED800112801D10122F9E75B68BDE81040184745
:10AEE80060B159B10378DE2B0AD00B684360DE23CA
:10AEF80003704FF6FF734380002070470E207047A1
:10AF08000820704728B10378DE2B04D14180002047
:10AF180070470E20704708207047F0B5054685B089
:10AF28000C46F1B1E8B10B78DE2B1AD182884B8838
:10AF38009A4204D10B7A13B10846FFF7BFFF2B885A
:10AF4800112B32D0512B0ED0012B0AD12B7A012B89
:10AF580007D1A9886288914203D123722046FFF75E
:10AF6800ADFF05B0F0BDAE886388B342F9D1AF79C3
:10AF7800022FF6D1AD7B2B1F022BF2D80021102215
:10AF8800684605F079FA052D14BF4FF4C073002305
:10AF9800694630468DF80070ADF80430FFF78AFF37
:10AFA8000028DED063689847DBE76388AA889A425E
:10AFB80004BF4FF6FF736380D3E7012804D0043839
:10AFC80005288CBF00200120704773B504460D4644
:10AFD800164600210822684605F04EFAA5F580417C
:10AFE800A4F580406B46324689B280B2FCF7DCFBA0
:10AFF800002818BF052002B070BD0000F0B5224D32
:10B008008DB00021082201A8297005F035FA4FF605
:10B01800FF7000F04DFC4FF6FF770446BC4211D09C
:10B02800A4F58046B6B201AA03A93046FCF7D6FBC0
:10B038000A2809D03046FCF76DFB082806460BD1D4
:10B0480001232B700DB0F0BD204600F0D5FB204643
:10B0580000F02EFC0446E1E7002EF3D01822002170
:10B068000DEB020005F008FA07238DF8183006A842
:10B078000123ADF81C4008968DF82430ADF81A70FD
:10B0880000F028FADEE700BFA43C00204FF6FF736B
:10B09800438000F01FBA000070B5044686B018223D
:10B0A8000021684605F0E8F9A0892378334D00F5BA
:10B0B800804080B25A1EADF80400042A25D8DFE883
:10B0C80002F0030303324B0043F6FE76B042E189F7
:10B0D80004D901F5804292B2B24216D8DA1E534220
:10B0E80053418DF80930A368039363688DF80810FD
:10B0F8008BB908238DF800309DF8103043F0010318
:10B108008DF810306846FFF7C1FF2B780BB1FFF7B9
:10B1180075FF06B070BD0922049301238DF8002045
:10B128008DF81430EEE743F6FE739842EDD8E389C4
:10B13800002BEAD163683BB90A238DF8003000F090
:10B148005BFB01232B70DDE70B22029301238DF8B3
:10B1580000208DF80C30F4E763683BB913238DF8B1
:10B1680000304FF6FF73ADF80430CBE7142202939A
:10B1780001238DF800208DF80C30F2E7A43C002064
:10B1880030B5174889B0FCF759F920BBFCF76CF9C2
:10B19800044610BB00F010FB0822214603A805F066
:10B1A8006BF903AA05A94CF20700FCF70AFB10B1DA
:10B1B800204609B030BD01A905A8FCF759FA019B42
:10B1C8009D8805F58045ADB205A8FCF775FA2846B7
:10B1D80000F0FAFAE5E70324EAE78624E8E700BF87
:10B1E800A1B00200F0B5FF2887B004460D46174607
:10B1F8001E462BD80846FFF7E0FE38B303AA2046C0
:10B20800FFF7E3FE18B10524204607B0F0BD01A9F9
:10B2180003A8FCF72DFA04460028F4D1019BBD7061
:10B228005D883D80029926B9796003A8FCF744FA45
:10B23800EAE736887868AD00AE4228BF2E46324627
:10B2480005F0F1F8B542F0D90C24DDE70724DBE777
:10B2580008220021014805F00FB900BF9C3C0020DE
:10B26800F0B587B007460E461546FFF7A6FE04461A
:10B27800F8B1A7F58040104A03A980B2FCF7A1FAFB
:10B2880018B10024204607B0F0BD01A903A8FCF7B7
:10B29800EFF90028F5D1019BAF705A889B882A8066
:10B2A80003F58043029A6A6003A83380FCF704FA26
:10B2B800E8E70124E6E700BF9C3C002030B5FF2802
:10B2C80087B003460C46154634D889780846FFF7F8
:10B2D80074FE78B3A3F58042ADF80020A1F5804252
:10B2E800ADF802206268019222880292184603AAE9
:10B2F800FFF76BFE0528694603A80AD1FCF7FEF99B
:10B308000728044618D007D868B10324204607B098
:10B3180030BDFCF7F7F9F3E708280FD00E280CBF6B
:10B3280011240324F2E7002DF0D0294603A8FCF7E6
:10B3380062FAEBE70724E9E78624E7E71124E5E763
:10B348004FF6FF7000F040BAFF2808B505D800F0A6
:10B3580041FAFFF753FE002008BD0720FCE700F084
:10B368005FBA00F08BBA00F0A3BA00000A68084B75
:10B3780070B50C25012A01D9002006E005FB02F46E
:10B38800E65A864202D10A60181970BD0132F1E707
:10B398005C3D002037B500230D460446019301A902
:10B3A800FFF7E4FF38B18378AB4206D1837A9B0775
:10B3B80003D143680BB903B030BD019B013301933E
:10B3C80001A92046ECE710B5044600F0F9FB204639
:10B3D80001F0F8FA2046FFF79DF92046BDE8104035
:10B3E800FFF75CB870B50E4E04460025237AAB42D1
:10B3F8000DD84FF6FF732380A370002363604FF4CA
:10B408007F432381A37A23F00303A37270BD617A7B
:10B418002944C9B2304600F01BFE0135E6E700BFFB
:10B428004C3D002013B50023CDE900330446837852
:10B43800417A26488DF8023000F0F1FDF8B1237A00
:10B44800A2788DF8022003EB83039B00ADF800304F
:10B45800531E0190072B08D8DFE803F013070707EE
:10B46800071304151423ADF800302246694632F854
:10B47800040BFFF723FF07281BD008D8A8B1032027
:10B4880017E00123EFE7838809339B08EBE71128CE
:10B4980011D08628F3D1A37A23F0030343F00103E4
:10B4A800A3720B4B01221A7003E0A37A23F0030363
:10B4B800A37202B010BDA37A23F0030343F0020382
:10B4C800A372034B01221A700020F2E74C3D0020C2
:10B4D800483D0020F0B53C4DC3686A68934287B088
:10B4E80006461CD02A6993421BD101240C2000FB7C
:10B4F80004503378354F092B15D0132B47D0082B20
:10B5080047D1747A002C44D1002844D0FFF76AFF51
:10B518003046FFF758FF3B787BB907B0F0BD0024F1
:10B52800E4E70020E5E7747A002C32D1002832D015
:10B53800837A446043F00203837200233B70AB7A42
:10B54800C3F34002002A3CD001233B702AB31E48B3
:10B55800FFF768FF18B300224FF6FF73ADF802300B
:10B568000C2353438628EB5AADF8043017BF072342
:10B5780006238DF80030029018BF002368460CBFE0
:10B588008DF800308DF80C30FFF71DFFC5E701245A
:10B59800BEE70024BCE70446BAE7002CD7D1AA7D51
:10B5A800C2F340030BB9D207B7D501223A700BB9E1
:10B5B800002CB2D00648FFF735FF0028ADD0012295
:10B5C800CAE7D907C0D4EAE75C3D0020483D00201F
:10B5D800683D0020124B13B54FF6FF72997A1A8016
:10B5E8009A709A819A739A7D00244FF47F4021F0D3
:10B5F800030122F003025C60188199721C61988231
:10B608009A7502235022CDE900320649064B0748B5
:10B61800A02200F0F0FC002818BF032002B010BDE3
:10B628005C3D0020A83C0020743D00204C3D0020DB
:10B638000023FFF7D7BD00002DE9F04180460E46F4
:10B6480014461F46002B4ED0CB1F012B4ED8531E3D
:10B65800012B4BD8FFF79EFE054610BBFF214FF686
:10B66800FF70FFF797FE0546C8B1A0F80080867006
:10B678006B7AFF2B1AD121461E4800F001FDFF28E6
:10B6880068722DD14FF6FF732B8000236B604FF447
:10B698007F432B81AB7AA87023F00303AB72112090
:10B6A80022E0037AA342E3D00F201DE04FF0000808
:10B6B8002C72697A0F4800F0B2FCC8B104EB84041C
:10B6C8002401A4B2A408BE7078603C80B8F1000FD1
:10B6D80004D0082E02D1A400063C8480002003E098
:10B6E8004FF00108E4E70E20BDE8F0810720FBE7F2
:10B6F8000320F9E74C3D002008B5FFF74BFE18B1D1
:10B70800FFF770FE002008BD0520FCE713B50023F5
:10B718000446019301A9FFF729FE30B92046FFF737
:10B7280013FE50B1072807D107E081782046FFF7BC
:10B73800E3FF20B1052802D0032002B010BD019B11
:10B748000133019301A92046E5E7CB1F012B70B512
:10B7580006460C46154601D9072070BD1046FFF76E
:10B76800FEFD0028F8D021463046FFF713FE28B129
:10B7780005808470BDE87040FFF754BE0520ECE7F3
:10B7880010B54FF6FF7304469C4208460AD14FF4A1
:10B798008071FCF70CF984B2B4F5807F09D14FF6BB
:10B7A800FF7406E0FF2CFAD82146FCF7DFF80028E2
:10B7B800F5D1204610BD000040220021014804F0C8
:10B7C8005BBE00BF783D00200149FFF7D9BF00BF2D
:10B7D800783D00204FF6FF73984210B5044606D016
:10B7E8000449FFF7CDFF231A5842584110BD0020E5
:10B7F800FCE700BF983D0020FF2810B5044609D893
:10B8080001460548FCF7C0F821460448BDE8104049
:10B81800FCF7BAB810BD00BF783D0020983D002065
:10B82800FF28014602D80248FCF7B8B80020704744
:10B83800783D0020FF28014602D80248FCF7AEB840
:10B8480000207047983D00204FF6FF73984270B56E
:10B8580018BF441C0E4614BFA4B20024A5B2FF2D85
:10B8680002D94FF6FF7506E021463046FCF796F8F8
:10B8780001340028F2D0284670BD000070B50B498D
:10B888000A4EFFF7E1FF4FF6FF750446AC4201D1BF
:10B89800204670BD2046FFF7CDFF0028F8D020468F
:10B8A8003146FFF7D1FF0446F0E700BF783D00209E
:10B8B8000149FFF7C9BF00BF983D0020F8B5074D03
:10B8C800074E074600243378A34200DCF8BD55F83C
:10B8D800043B384698470134F5E700BFC03D0020D7
:10B8E800CF3D0020074B1B7810B504464BB1FFF73E
:10B8F80053F9204601F0A6F82046BDE81040FEF7AF
:10B908006BBE10BDCE3D002008B1FFF7D7BF704712
:10B91800FFF7D4BFFFF7D2BF08B5FFF731FC08B176
:10B92800032008BDFFF756FE0028F9D101F06EF894
:10B938000028F5D100F0ACFC0028F1D1FEF7F6FDA7
:10B948000028EDD1FEF7F2FE0028E9D1054B4FF6AD
:10B95800FF721A80044B1860044B1870044B0122C4
:10B968001A70DEE7CC3D0020D43D0020D03D0020F9
:10B97800CE3D0020084B1B7853B1084A1378022BA0
:10B9880008D8074941F82300013313700020704795
:10B998000820704704207047CE3D0020CF3D00208E
:10B9A800C03D0020034B1B780BB101F065B808209F
:10B9B800704700BFCE3D002008B5054B1B782BB162
:10B9C80001F078F8082808BF112008BD0820FCE716
:10B9D800CE3D002038B5194B1B7805460C4633B3CD
:10B9E80039B3FEF77BFB30B3831E584258412378A6
:10B9F80060F3000323702846FEF7D0FF4FF6FF736D
:10BA0800C01A237818BF012060F3C30323702846A7
:10BA1800FEF774FB237860F3410323702846FEF792
:10BA28007BFB237860F382032370002038BD082055
:10BA3800FCE70E20FAE743F20200F7E7CE3D0020CC
:10BA4800034B1B780BB1FFF745B80820704700BFC0
:10BA5800CE3D002070B51A4B1B7886B063B3194EE3
:10BA680001234FF6FF703370FFF77BFC4FF6FF732F
:10BA7800984205460CD01E462846FFF7E1FF0446CB
:10BA8800E0B92846FFF76DFCB0420546F4D110E056
:10BA98000024182221466846347004F0EDFC0C237B
:10BAA80068468DF80030ADF80450ADF80250FFF745
:10BAB80005FF204606B070BD0824FAE70324F8E71E
:10BAC800CE3D0020BC3D00202DE9F04F87B0CDE9E8
