:020000022000DC
:10600000000001207963020061630200F1FC0200DC
:10601000656302006763020069630200000000001C
:1060200000000000000000000000000019F1020064
:106030006D6302000000000039F10200716302008C
:10604000DD90020073630200999602007363020000
:1060500029990200736302001D9502007363020018
:1060600073630200736302007363020073630200D0
:1060700073630200736302007363020073630200C0
:10608000736302008DF20200736302007363020007
:106090007363020073630200B5DC020073630200E5
:1060A0007363020073630200736302007363020090
:1060B0007363020073630200000000000000000030
:1060C0007363020073630200736302007363020070
:1060D0002198020073630200736302000000000055
:1060E00000000000000000000000000000000000B0
:1060F00000000000000000000000000000000000A0
:10610000000000000000000000000000000000008F
:10611000000000000000000000000000000000007F
:10612000000000000000000000000000000000006F
:10613000000000000000000000000000000000005F
:10614000000000000000000000000000000000004F
:10615000000000000000000000000000000000003F
:10616000000000000000000000000000000000002F
:10617000000000000000000000000000000000001F
:10618000000000000000000000000000000000000F
:1061900000000000000000000000000000000000FF
:1061A00000000000000000000000000000000000EF
:1061B00000000000000000000000000000000000DF
:1061C00000000000000000000000000000000000CF
:1061D00000000000000000000000000000000000BF
:1061E00000000000000000000000000000000000AF
:1061F000000000000000000000000000000000009F
:10620000364937480A1A02D0072291438D4635494C
:1062100035480A1A06D00722914381F309880222E1
:1062200082F3148831483249324A00F045F8324846
:106230003249334A00F040F832483349334A00F0DB
:106240003BF833483349344A00F036F83348344990
:10625000344A00F031F834483449354A00F02CF81B
:1062600034483549354A00F027F835483549002289
:1062700000F02DF834483549002200F028F8344861
:106280003449091A082903DB002202600430016046
:10629000314A90471F482049884205D0026804309F
:1062A00003B4904703BCF7E700208646EC46002085
:1062B00000212A4A9047FEE7884207D0521A05D0AB
:1062C000037801300B700131013AF9D170478842EF
:1062D00002D002700130FAE7704700000000012090
:1062E00000F0002000000120000001207C97030046
:1062F0003422002028230020D8630200D863020043
:10630000FC7A03007C970300342200203422002012
:10631000847C0300847C0300847C0300847C030071
:10632000847C0300847C0300847C0300847C030061
:106330007C97030070980300282300202823002066
:1063400028230020588000205880002058800020FA
:106350005880002058900020A1630200FDFC02003C
:10636000FEE7FEE7FEE7FEE7FEE7FEE7FEE7FEE705
:10637000FEE7FEE7704700BF1048804710484FF027
:106380000701884385460F4880470F48016841F45C
:1063900070010160BFF34F8FBFF36F8FFFF730BF06
:1063A0000A480B490B4A884207D0521A05D0037895
:1063B00001300B700131013AF9D170477563020069
:1063C00000000120598C020088ED00E0707C030081
:0863D0002022002034220020ED
:1063D8007047000007B5054B0093054A4FF48063EA
:1063E80000F031F803B05DF804FB00BFFD63020064
:1063F800292300202DE9F84389461446B2B10F4BF2
:106408000F4E0325002743F00108224609EB070138
:10641800002003F0B7FD0744241A48B933782BB19C
:106428004FF47A40C047013D02D13570BDE8F8838A
:1064380001233370002CE8D1F8E700BF907C0300FB
:10644800282300207047F0B595B01C46164608462C
:106458000D4602F081FA1A9B0D93CDE908640024D9
:106468002346082205A928460A948DF82C400C9446
:1064780002F090FA079B0293BDF81830ADF80C3083
:10648800BDF81A30ADF80E309DF814308DF8114073
:1064980003F00302012A1DD1BDF81440059EC3F381
:1064A800C203C4F383148DF81030A20008230EA988
:1064B800284602F06FFAC6F3952608AB00932246E9
:1064C80002AB0EA9304600F027FB284602F048FA36
:1064D80015B0F0BD022AF8D1BDF81640C3F3C203C7
:1064E800A4098DF810300827082C264628BF08264E
:1064F8003B4632460EA9284602F04CFAA41B08ABCC
:1065080002AA31460EA8374400F06AFB002CEBD1F2
:10651800DBE7037813F0040216D003F00303012B22
:1065280003D0022B09D0012070470A680088023284
:10653800C0F3831002440A60F5E70B68428802330F
:1065480003EB92130B60EEE7104670472DE9F04F0E
:1065580089B00546861C08A8484C019200230F46BE
:1065680000F8113D00F04CFC23683B60D4E901239E
:106578001344226801339B1A04F21C4704F5836A0A
:1065880004F21448B3421AD3019A0023002A6DD0AA
:10659800012262F3010343F0040365F389132168C0
:1065A800A2689DF80F000A4003320E4444F82230D6
:1065B800266000F049FC012009B0BDE8F08F0121F8
:1065C800384601F065FC504601F07BFC404601F07E
:1065D80078FC0DF120096068D4F808B049F8100D6E
:1065E80000EA0B00033004EB80004946FFF791FFF7
:1065F800049BB0B90BEA030204EB8202D16805914F
:106608009A1C013303EA0B0B04EB8B0C01F0030318
:10661800012B0492DCF80CB020D0022B04D0834666
:106628000BE00BEA0300DDE7BDF816309B090333E6
:106638004FEA1B4B02EB93030493404601F044FCE2
:1066480008B1049B63605946384601F021FCD4E93F
:1066580001231344226801339B1A93E7BDF81430D1
:10666800C3F383134FEA1B4B1344E5E7022262F39B
:10667800010343F0040365F39F5390E7FC270020D0
:1066880030B50A4C71B10A4A0A49121BD2080023D4
:106698009A4201D1002030BD31F82350854202D002
:1066A8000133F5E7034654F83300F4E7987B030019
:1066B800607C030034220020094B013903EBC00041
:1066C800032909D8DFE801F00A020406042070470C
:1066D8000079704740797047002070470220704762
:1066E800987B0300034BD3E90030C31A5842584142
:1066F800704700BFFC2700202DE9F04387B0FFF763
:10670800F1FF0646002840F0FC807F4DC5F81804CC
:10671800BFF34F8F6868AC6806AF47F8100D20408C
:10672800033005EB80003946FFF7F3FE029B18B1F2
:10673800D5F81824002A5FD004EA0302991C013313
:1067480005EB8202234005EB8303D268DB680493E0
:1067580002F00303022B0392029162D1BDF80E30BE
:106768006A484FEA9318B8F1500FC14628BF4FF056
:10677800500969F38F1309F10801ADF80E3002F0E2
:10678800BCF80746002800F0A78002F0E5F803A946
:1067980000230822384602F0F2F8029924EA01069A
:1067A8000136B600B14535D95FFA89F97EB3F6B23C
:1067B800A9EB0609214003315FFA89F4B146544E2A
:1067C80005EB810108234A46384602F0D8F836B16D
:1067D80009F1080322463146384602F0D0F8029BF8
:1067E80008F1030803EB98030293D5F81834002B3B
:1067F8004BD1D5F810445BE02A689A4204D86A6005
:10680800304607B0BDE8F08304EA030088E7404952
:106818003446D7E72140033108234A4605EB810176
:10682800DAE7012B58D1BDF80C303848C3F383118F
:10683800062928BF062161F3891302318900ADF8C2
:106848000C3002F05AF80746002845D002F084F8C8
:106858000023082203A9384602F091F80026BDF863
:106868000C20C2F38312B31C96424FEA8303BCD2B6
:1068780002994A1C21400331029205EB810104224E
:10688800384602F07CF80136E9E7384602F068F845
:10689800FFF728FF80F00100C6B2B1E7E3685B7933
:1068A80023B1236839461B6820469847E3681C686B
:1068B800002CF3D1384602F053F806A800F8114D21
:1068C80000F09EFAD5F818340BB9029B6B609DF85E
:1068D800070000F0B9FADBE7D5F8104454B90D4BBE
:1068E8000D480E49C01AC008000440F0020000F02C
:1068F8006FF8CDE7236820469B689847E3681C68D3
:10690800ECE700267CE700BFFC270020847B03001F
:1069180008280020987B0300D07B0300B47C030088
:106928002DE9F74F284C80460F46924601A90122CF
:1069380018469B46D4F80890FFF708FE88B3019DD7
:106948000026A91C5E4506EB010234D100211F4830
:1069580001F05DFA80F310006A1C02EA090204EBF8
:106968008202000405EA0903033340EA1840D060B4
:1069780014F8232068F3C50204F8232034F82320F0
:1069880066F3891224F8232054F82320012167F3A1
:106998009F2244F8232061F301026FF3820204F876
:1069A800232094F820341BB1FFF7A6FE0028FBD162
:1069B80003B0BDE8F08F09EA020204EB82025AF83C
:1069C8002630D3600136BDE7FC270020182C0020B4
:1069D80000231A46FFF7A4BF13B502AC012344F8FD
:1069E800042D2246FFF79CFF02B010BD07B5CDE984
:1069F800002302236A46FFF793FF03B05DF804FB08
:106A08001FB5CDE90123069B039301AA0323FFF7D2
:106A180087FF05B05DF804FB7FB5CDE90123089B2E
:106A28000393099B04930A9B059301AA0523FFF787
:106A380077FF07B05DF804FB094A38B50123D2F89F
:106A4800104482F820341D4604B938BDE3685D71EE
:106A5800236820465B689847E3681C68F4E700BF32
:106A6800FC270020037A052B10B50C460FD0437A7B
:106A780023B1084A0849204601F070FA0749204620
:106A880001F06CFA2046BDE8104001F05CBA002A1B
:106A9800F8D0F3E7FF7C0300047D0300D2910300E4
:106AA800C38873B504460D4633B1144A009214499D
:106AB800144A284601F052FA217A05291CD0637A33
:106AC8004BB1A088FFF7F8FD0F4B104953F8202071
:106AD800284601F043FA227A0D4BA08853F8226029
:106AE8000021FFF7CDFD0B4903463246284602B088
:106AF800BDE8704001F032BA02B070BDFF7C0300FF
:106B08000F7D0300077D0300CC7C0300047D030098
:106B1800347D0300277D03002DE9F04385B01F462F
:106B28000C9D002306460C46904695F80C902B7356
:106B380029463846FFF7B4FFB8F1060F09D8DFE851
:106B480008F00412181F283340003146284601F087
:106B580005FA002229463846FFF784FF85F80C908D
:106B680005B0BDE8F08322683146284601F0F6F901
:106B7800EFE7D4E900233146284601F0EFF9E8E7CA
:106B8800A36800933146D4E90023284601F0E6F9CA
:106B9800DFE7E3680193A36800933146D4E9002353
:106BA800284601F0DBF9D4E723690293E3680193EF
:106BB800A36800933146D4E90023284601F0CEF9B2
:106BC800C7E76369039323690293E3680193A368A2
:106BD80000933146D4E90023284601F0BFF9B8E70D
:106BE80008292DE9F84F80460E4617461C4636D828
:106BF800002593F80C901D7319461046FFF750FFB7
:106C0800DFF87CA0DFF87CB0AE422AD918F805205E
:106C18005946204601F0A2F90135082DF4D116494C
:106C2800DFF864B0204601F099F90025AE421DD97D
:106C380018F805A0504610F0BDFA002814BF5246B7
:106C48002E225946204601F089F90135082DEDD14B
:106C5800012221463846FFF705FF84F80C90BDE86D
:106C6800F88F5146204601F079F9D5E703492046C7
:106C780001F074F9E9E700BFFA7C0300F87C03002F
:106C8800F67C0300F07C0300FC7C030082B0012347
:106C98008DF807309DF80730114B1860596044F2A1
:106CA800010188429A6012D044F20201884206D15A
:106CB800DA60DA6812889A61DA685268DA6172B65C
:106CC8009DF80730002BFBD162B602B070471A61FD
:106CD8001A6992685A611A6912689A611A69ECE726
:106CE800202C002000B583B002900091019244F25C
:106CF800010071466A4600F003F803B000BD0000C9
:106D08002DE9FF4106460F46154672B6FFF794FE79
:106D1800FFF7F2FC0028FBD12F4B304CE41AE408B3
:106D280041F2010324049E4244F0010434D00BD8FC
:106D3800012E1DD020463A462949FFF74DFE394617
:106D4800274803F0D5F91AE044F201039E4229D0FE
:106D580044F202039E42EDD16A682B8821492046FD
:106D6800FFF744FE2A8869681F4803F0C1F906E066
:106D780020461E49FFF72CFE1C4803F0B9F91C4BAE
:106D88001B68DB0700D500BE2A463946304604B0EA
:106D9800BDE8F041FFF77ABF20461649FFF718FE15
:106DA8001448EAE7D5F80880404601F049FE2B6808
:106DB800029701936B680093424603460E492046AA
:106DC800FFF72AFED5E90021074803F091F90B499E
:106DD8002046FFF7FDFDD2E7987B0300D07B030038
:106DE8002C7E0300D87D0300EC7D0300997D030011
:106DF800F0ED00E0B67D0300F27D0300187E03008D
:106E080070B5EFF3108672B60C4A946801239CB9EA
:106E180093600B4B0B4DD3F8801029401160C3F8D9
:106E28008050D3F8841051604FF0FF32C3F88420AB
:106E3800047006B962B670BD0370FAE7402C0020F2
:106E480000E100E0FC06FFBD084B9A6810B55AB196
:106E580050B9EFF3108172B6054A1C6814605C687B
:106E68005460986001B962B610BD00BF402C002084
:106E780000E100E070B5064E0546002456F82430BF
:106E88000BB1284698470134042CF7D170BD00BFD8
:106E9800582C0020033080B240F2FD33984230B5C0
:106EA8001FD8124B1A783AB91C895D892C440444BE
:106EB800A4B2B4F5806F0AD31A7DA2B99A8BDC8B81
:106EC8002244024492B2B2F5806F0CD201220A80A9
:106ED8001446142202FB04335A89104458810020B6
:106EE80030BD0920FCE70720FAE700BF8C2C002002
:106EF8000B4A0C4B5188142000FB0131CB6833B985
:106F08000420496810700122074801F0ABBA052334
:106F18000649137002238B80012200230968F3E7D6
:106F2800702C00208C2C002020220020542D0020C2
:106F380007B5002305490093054A09680548082351
:106F480001F0FAF903B05DF804FB00BF542D0020EE
:106F5800507E03002022002007B50023009301463D
:106F68000823034A034801F0E7F903B05DF804FB7E
:106F7800487E03002022002013B500230C4600930E
:106F880001460423074A084801F0D6F938B9074BE7
:106F9800142202FB04340123237402B010BD0E2016
:106FA800FBE700BF447E0300202200208C2C002039
:106FB80037B50A480A4B42689C88196853880325E4
:106FC800033305709BB2002000909B0001EB840105
:106FD800044801F0B1F903B030BD00BF702C0020A7
:106FE800542D00202022002010B50146044800F04E
:106FF80042FE1C220446002110F05EF9204610BD16
:10700800402D00204388033300EB8303994209D3C2
:1070180082884FF6FF739A4206D00088B0FA80F053
:107028004009704702207047012070472DE9F84356
:107038000223DFF860800B800D46174600F5805666
:1070480000F108044FF00109B4420FD2236801335C
:107058000CD031462046FFF7D5FF48B10FB187F86D
:10706800009002280BD14FF480632B80BDE8F88391
:10707800A368D8F80020934201D9C8F800302B88BB
:107088006288033313442B806388033304EB83043F
:10709800DAE700BF842C0020144A142303FB0020E5
:1070A80070B50B6844680D4604F580569BB15C8842
:1070B800033403EB8404B4420BD22368013308D0B1
:1070C80031462046FFF79EFF012809D005D3022844
:1070D800F1D1002003E00834EDE72C60012070BDF9
:1070E8006388033304EB8304E5E700BF8C2C00209E
:1070F800436873B505460C466BB3254AD1688B4285
:1071080029D31269934226D813F0030223D12149C7
:107118000089098988421ED12868996888421AD14D
:107128001D494868834203D900F5805083420ED335
:107138008A6993420DD902F58052934209D20123FC
:1071480023800020B0FA80F0400902B070BD1346D9
:10715800F6E70A20F6E7002323801E462388012B42
:1071680001D90020F1E7019601A92088FFF794FFD3
:1071780018B9238801332380F0E7019B2A689968AE
:107188009142F1D16B60034B1B892B81DDE700BF76
:1071980020220020702C00208C2C00202DE9F843A0
:1071A8001C461E4B1B7806460F461546002B30D052
:1071B800002A30D07CB3DFF86C804FF01409A38824
:1071C800012B01D90A201AE009FB03F318F8033050
:1071D800BBB1A3880133A380F1E723681EB1998866
:1071E800328891420DD11FB119883A88914208D14D
:1071F8009A68C5E900230A4B1B892B810020BDE84A
:10720800F8832146A088FFF747FF0028E5D12060D2
:10721800DFE70220F3E70520F1E700BF682C002034
:10722800702C00208C2C002008B5074B191D58889D
:10723800FFF732FF18B1BDE80840FFF7B9BEBDE857
:107248000840FFF755BE00BF702C00202DE9F04F15
:10725800A04FDFF8A49289B00646B8463B6823B928
:1072680049469D4800F041FD3860D8F8005029781B
:107278004B1E052B00F21281DFE813F006007600A2
:107288007600060106015D0126B1944B00225A6082
:10729800012424E02B79032B1DD8DFE803F0150225
:1072A800424D8F490B78022B084631D00B7D022BBB
:1072B8004FF001032ED114225343C2180020C854A2
:1072C8005068FFF749FE03E001232B71FFF730FEFA
:1072D800002800F0D380814B00225A600E2414222B
:1072E800002103A80FF0E8FF41F61D539C4208BF98
:1072F8000024D8F8003004941A78023A042A00F2DC
:10730800D381DFE812F0B401C001E301EB01F2011F
:107318000023D0E7714A13700023536041F61D54CF
:10732800DDE770497048002302222B718A80012210
:10733800096801F097F8CBE76A4C00262E7120689F
:10734800674DFFF709FE694BD4F800C05A8814232B
:107358005343EA18EE5451682160A188C2F804C06A
:1073680011810222A280B3E7B5F814A0AA7DDFF844
:1073780070B1AEB1022AEB8806D9142101FB0AB11B
:10738800DA1C088902440A81142202FB0ABAC3F5EE
:107398007F43BAF80A20FD331344AAF80A3077E786
:1073A800142303FB0AB318895C6804EB8004062ADB
:1073B80005D8DFE802F0264C34421C5866000F243A
:1073C800AA7DEB88022A06D9142101FB0AB1DA1C2E
:1073D800088902440A81142202FB0ABAC3F57F43D2
:1073E800BAF80A20FD331344AAF80A3077E7404870
:1073F800404900234360AB690360FFF779FE00282A
:107408005AD00223AB75002300930423EA182146BF
:10741800354800F091FF002830D00E24D0E72B69C2
:10742800002B0CBF01230323AB750023009305F148
:107438000C02042304F10801EAE70123AB750022DA
:10744800EB8800929B002A6904F10C01E0E703290C
:1074580014BF06230523AB7500230093042305F10D
:107468000802E118D4E70623AB75224B1988204B94
:107478005868FFF781FD04460028A1D109B0BDE88E
:10748800F08F41F61D549BE7002E7FF401AF2B7956
:10749800012B33D004D3022B3FF440AF0F241EE757
:1074A80002232B710DF10A01EB68039303A8CDE9C0
:1074B8000466FFF71DFE08B90A2410E70498BDF812
:1074C8000A108388EB8003882B81FFF755FD04465B
:1074D80027E000BF882C0020402D0020682C0020C9
:1074E8008C2C0020542D002020220020702C0020FD
:1074F8004C2C0020602D0020802C0020DFF808A2F2
:1075080003AA53463146A81DFFF748FE044660B952
:10751800BAF804100498FFF72FFD04460A2C3FF42C
:10752800FDAE002C7FF4DBAEA8E7082231465046BA
:107538000FF0C2FEF2E7002E7FF4AAAE6D4B1A7B65
:10754800B2B11E731A78013A062AA7D801A151F8D8
:1075580022F000BF03760200297602004776020077
:107568004D760200A5740200537602006976020087
:107578001A78072AE6D801A151F822F0A575020069
:107588004D7502004D750200CB750200DF750200D3
:10759800FF750200FF750200C77502001A89564977
:1075A80001321A8100225A801A730A78B2FA82F2DA
:1075B80052099A720A7DB2FA82F25209DA720122EB
:1075C80007E04E4958688A884088033202448A8016
:1075D80002221A70B6E7484C5A884849142505FB18
:1075E80002420868546850608888108102228A80A4
:1075F8000C600622EDE70722EBE79A7A32B9DA7ACD
:107608008AB900221A705A805A6087E63A490022DD
:107618009A72CA68002AF2D1097C0029EFD05A80F0
:10762800FFF702FE53E70022DA72334A116A002993
:10763800E7D192F82420002AE3D00122EFE7FFF7F0
:10764800B7FC44E7FFF754FC41E706221A702A4AC0
:107658005B88142101FB03235868FFF77DFC36E79C
:1076680007221A7000225A60FFF762FC2FE70122F6
:107678008DF80C201A89ADF818209A88DB68ADF8C7
:107688001A20059310E002228DF80C201A89ADF813
:1076980018209A88ADF81A20DA689B7D05929A1FFF
:1076A800534253418DF81C3003A8FFF7E3FB002633
:1076B80049461348C8F8006000F042FB0121114810
:1076C80000F0F1FB00287FF4C9ADD7E603228DF85E
:1076D8000C20DA88ADF818201A89CFE70422DB8855
:1076E8008DF80C20ADF81830DEE705238DF80C3046
:1076F800DAE700BF702C00208C2C0020542D0020CD
:10770800402D0020502D0020642D00204068FFF7F8
:107718009DBD000008B50121044800F0AEFB18B972
:10772800BDE80840FFF792BD08BD00BF502D0020FE
:107738002DE9F3419846354B1B7806460D46002B3C
:107748005BD000295BD009884FF6FF73994258D067
:107758006B88002B55D06B689B0754D14AB92F8989
:107768000DF102013846FFF795FB30B102B0BDE8D4
:10777800F08113885788ADF8023001A8FFF734FC70
:10778800044658B9BDF80230214A142101FB0323ED
:1077980058890338C01B58810820E7E70023837500
:1077A800BDF8023083826B68036180F80080012194
:1077B800184800F06DFB2B882381B8F1030F6B8804
:1077C800A38004BF0423A3754FF0000508BF3368E6
:1077D800E06008BFA361E780658101A90E4800F059
:1077E80074FA36B1E36833600C4B75601B89B57267
:1077F8003381FFF78FFF0020B8E70220B6E70520A6
:10780800B4E70420B2E70320B0E700BF682C0020EB
:107818008C2C0020842C0020402D0020702C00206F
:1078280008B5084B1A68042A09D01968064A42F8AC
:1078380021000121184600F02BFB002008BD0C2078
:10784800FCE700BF5C2D0020582C00202DE9F04FEC
:1078580089B01422002103A80FF02EFD7B4A13786B
:1078680003F0FF01009190463BB103A8FFF702FB2C
:107878000026304609B0BDE8F08F101D00F01EFB51
:1078880005460028F4D14FF010234FF080525B6971
:1078980011695269DFF8DCA1581C08BF02FB01F32B
:1078A800CAF810300022A3F540536949CAF80C30D1
:1078B800504600F00DFD06460028DAD11C238C2224
:1078C8006449654800F0A2F93746B3464FF003090A
:1078D8003446CDF804A0019BD9680BEB01000246A1
:1078E8005BF80110002835D05C4B994232D14168D1
:1078F8005B4B994215D0013399422BD1009BDFF89D
:107908006CA1002B59D100225649CAF80000FFF794
:107918008DFBBAF80420022A14BF08220422174358
:107928003AE051494FF0140C0CFB04FC01EB0C023B
:107938004FF0000E01F80CE050600CF110020CF151
:10794800080C0A446144FFF771FB47F00207013451
:10795800A4B221E000F5805C1168013167D10432DE
:107968009445F9D1414A116829B9022101231060CF
:10797800918000930EE0142262433B4B4FF0020EBD
:10798800991803F802E03A4A486054800134A1F893
:1079980008E0A4B247F001070BF5805BBBF5405F38
:1079A80099D1B9F1010F88BF3D46EDB2022D02D041
:1079B800062D12D0DDB90B265BE72B4B1422624350
:1079C80099184FF0020C03F802C00134DAF80020CD
:1079D8004A60A1F808C0A4B295E7012388F80030EE
:1079E80003A80023C8F80430FFF744FA41E702A8C7
:1079F800FFF7FAFAC8B10123013D03700A2D09D82F
:107A0800DFE805F006080608070807080F110F0049
:107A18000023037102A9104800F057F9FFF77AFE16
:107A280027E70323F5E70223F3E7082621E70E49B2
:107A38001422624301EB020C09F1FF39CCF804006F
:107A480003201FFA89F9885481E700BF682C0020B9
:107A580044800300B42C0020402D0020DEC0ADDEA1
:107A6800FE011EF1582D00208C2C0020542D0020E2
:107A7800702C00202022002073B50D460446C8B1A2
:107A8800C1B10DF10601FFF733FBA8B10B4BBDF8EF
:107A980006006668142202FB003001210C3000F059
:107AA800F7F963682E600C336B600123A372002022
:107AB80002B070BD0520FBE70A20F9E78C2C0020F6
:107AC80013B50446A8B10DF10601FFF711FB90B1FB
:107AD8000B4ABDF80630142101FB0323DA6862B1B2
:107AE800A27A52B1DA680020013ADA60A07202B0D4
:107AF80010BD0520FBE70A20F9E70620F7E700BFDD
:107B08008C2C002002230022FFF712BE18B1032399
:107B18000022FFF70DBE052070470000104B1B78B0
:107B280013B50446ABB14FF6FF73984213D001A8C2
:107B3800FFF75AFA88B10523037001230371C48043
:107B480001A9084800F0C1F8FFF7E4FD002002B0E1
:107B580010BD0220FBE70420F9E70820F7E700BF83
:107B6800682C0020402D00200E4B1B7807B5A3B1D0
:107B780001A8FFF739FA90B10623037001A90A4852
:107B880000F0A3F8094B1A780AB101221A73FFF71B
:107B9800C1FD002003B05DF804FB0220FAE70820CD
:107BA800F8E700BF682C0020402D0020702C002032
:107BB80007B5ADF8060002A820F8041D01460DF12E
:107BC8000600FFF7EBFA03B05DF804FB13B502AC4F
:107BD800134624F8020D0A4600202146FFF7DEFA74
:107BE80002B010BD13B502AC134624F8020D0A46C4
:107BF80020460021FFF7D2FA02B010BD20B119B11A
:107C080003680B60002070470520704710B561B10C
:107C1800B2FBF3F403FB1424A4B244B9C0E9001482
:107C280084608281C381204610BD0E20FCE70920B4
:107C3800FAE782B050E8022FC188B2EB324F4FF01A
:107C4800000317BF92B241EA014142EA014104E050
:107C58004268B2EB324F08BF012340E80212002A03
:107C6800E8D18DF807309DF80730002B0CBF1120A4
:107C7800002002B0704737B550E8013F9DB2C48973
:107C880025448489A54228BF2D1B0489A54202BF2B
:107C9800BFF32F8F002207E0C5EA030540E801542F
:107CA800002CE9D14FF001028DF803200193019BCC
:107CB8009DF803200B6002F0FF0322B10B880068D7
:107CC800184403B030BD1846FBE70A884B889A422F
:107CD80009D150E8012FC2EA024240E80123002BF3
:107CE800F7D1012070470020704737B550E8023FB0
:107CF8001FFAA3F5C488A54202BFBFF32F8F002245
:107D08000DE0C48925448489A54228BF2D1BC3EAF8
:107D1800054540E80254002CE8D14FF001028DF8E7
:107D280003200193019B9DF803200B6002F0FF03E1
:107D380022B14B880068184403B030BD1846FBE7F1
:107D48000A884B889A4209D150E8022FC2EA224297
:107D580040E80223002BF7D101207047002070472C
:107D680001F01F024B090121914000EB830000F054
:107D780063B84B0910B501F01F040121A14000EBC5
:107D8800830000F04EF8E04000F0010010BD01F063
:107D98001F0301229A404B0900EB8300D14300F0F6
:107DA80061B84B0901F01F0150F82300C84000F0EA
:107DB800010070472DE9F0474E1E760980460F46B0
:107DC8000136002558F8254008EB850AE44394FA63
:107DD800A4F4B4FA84F44FEA4519202C06D10135ED
:107DE800AE42EFD83C462046BDE8F0874C44A74257
:107DF800F5D921464046FFF7BCFF0028F3D0DAF852
:107E08000040E44394FAA4F4B4FA84F4E5E750E8B3
:107E1800002F0B4640E8003C9CF0000FF7D11046BD
:107E2800704750E8002F42EA010340E8003C9CF00C
:107E3800000FF6D11046704750E8003F43EA0102B0
:107E480040E8002C9CF0000FF6D11046704750E82F
:107E5800002F02EA010340E8003C9CF0000FF6D135
:107E68001046704750E8003F03EA010240E8002C42
:107E78009CF0000FF6D11046704750E8002F02EB37
:107E8800010340E8003C9CF0000FF6D11046704713
:107E980050E8003F03EB010240E8002C9CF0000F83
:107EA800F6D11046704750E8003FA3EB010240E8C6
:107EB800002C9CF0000FF6D1104670470121FFF707
:107EC800B0BF0121FFF7B8BF0021FFF7C0BF37B52A
:107ED800054602A8002400F8014DFEF791FF2A6824
:107EE8006B68116899420ED9481E106011F8014C50
:107EF800EB68298A01FB0434AB6811791B1ADBB2E1
:107F0800994238BF13719DF80700FEF79DFF204680
:107F180003B030BD37B5054602A8002300F8013D7F
:107F28000C46FEF76DFF2A681368591C1160E96852
:107F3800641A298AB4FBF1F41C709DF80700FEF757
:107F480083FF03B030BD826810B504462AB1436987
:107F58000168006998470023A36010BD0EB403B5FB
:107F6800039929B102AA04AB42F8043D00F06AF86B
:107F780002B05DF804EB03B07047826830B404685F
:107F8800551C8560A154D0E901329A4202D330BC15
:107F9800FFF7D9BF30BC70472DE9F84F9946DDE9A6
:107FA8000A431746824688460A460126BA420FD235
:107FB8004E4538BF4E4613F0010B01D164B9002479
:107FC8000125B9F1010F1AD909F1FF397D43F8E705
:107FD800B2FBF7F20136E9E79B070ED5B9F1000FBE
:107FE8000CBF30252025A642EAD2013C294650463E
:107FF800FFF7C3FF002CF6D1E1E72025F3E7B8FB34
:10800800F5F39F42E2D9DFF83890B8FBF5F3504614
:1080180019F8031005FB1388FFF7AFFFB5FBF7F559
:10802800002DF2D1BBF1000F02D00CB1A64201D352
:10803800BDE8F88F20215046013CFFF79EFFF4E78A
:10804800587E03002DE9F74F054690460E46002955
:1080580000F03A8116F8011B002958D0252940F074
:10806800D180002702E047F001071646324612F891
:10807800013B2D2BF7D0302B04D02B2B05D147F00B
:108088000407F2E747F00207EFE700242A2B06F17E
:1080980001021BD1D8F80030191D1B68C8F8001060
:1080A8001C44164633782E2B1CD101364FF0000A9B
:1080B800314611F8012BA2F13000092814D80A23FF
:1080C80003FB0A23A3F1300A0E46F1E712F8013C3C
:1080D800A3F130010929E5D80A2101FB0434303C19
:1080E8001646D3E74FF0000A324612F8011B01F09A
:1080F800FB0068281646F8D0692916D054D85829A4
:1081080070D00ED825297DD03378002BA2D12B7BB7
:10811800002B00F0D980284603B0BDE8F04FFFF7E8
:1081280012BF632968D06429EED1D8F80020D2F8AC
:108138000090111D89EAE972C8F80010A2EBE972F3
:108148004FF0010B092A61DCD34538BFD3462CB167
:10815800B9F1000F01DB790700D5013CBA0702D558
:10816800BAF1000F04D0FB0702D4002C54D100242C
:10817800B9F1000F58DAC9F100092D212846FFF797
:10818800FCFE07F00302022A05D1BAF1000F02D162
:10819800002C4DD10024CDE9004753460A22494618
:1081A8002846FFF7F9FEAFE7732954D016D870298F
:1081B800AAD1D8F800301A1DC8F800203021284666
:1081C8001C68FFF7DAFE78212846FFF7D6FE002262
:1081D8000823CDE9003221461022E1E775292FD086
:1081E800782991D1D8F800100A1DC8F80020CDE9E7
:1081F8000047534610222CE0D8F800301A1D197891
:10820800C8F800202846FFF7B8FE7DE70A230BF1DF
:10821800010B92FBF3F295E7A345A9D2202128464A
:10822800013CFFF7AAFEA0E77807AAD52B21A5E70E
:10823800A345B0D230212846013CFFF79EFEA7E7B0
:10824800D8F80010CDE900470A1DC8F800205346A9
:108258000A220968A4E7D8F800301A1DC8F80020D7
:10826800F907D3F8009012D54F46A7EB090B17F87A
:10827800011B41B9A345BFF447AF20212846013C63
:10828800FFF77BFEF6E72846FFF777FEEDE7B9F143
:10829800000F17D048460FF064F80746BC4200D9D3
:1082A80054B909F1FF3919F8011F00293FF42CAF1F
:1082B8002846FFF762FEF6E720212846013CFFF733
:1082C8005CFEEBE74F46E9E703B0BDE8F08F00003E
:1082D80007B50B4688B9124B1248134AC01A0E2329
:1082E800C0080093114B0004114940F00100FEF74B
:1082F80087FB0E2003B05DF804FB4BB9084B094817
:108308000C4AC01AC0080E2300930004074BEBE781
:1083180003601B68114603B05DF804EB184700BF03
:10832800987B0300E87B0300157F0300687E030049
:108338001A7F0300917F03002DE9F34188B93D4B73
:108348003D483E4AC01AC0080E243D4B0094000424
:108358003C4940F00100FEF753FB204602B0BDE85F
:10836800F0814AB9334B3448374AC01AC0080E2442
:1083780000040094324BEBE7D0F800C0BCF1000FCA
:1083880009D12C4B2C48314AC01AC00808240004D3
:1083980000942B4BDCE74BB9264B27482C4AC01AD4
:1083A800C008092400040094254BD1E74768D7F892
:1083B8000480B3FBF8F708FB17374FB11D4B1E4875
:1083C800244AC01AC0080924000400941C4BBFE7C3
:1083D8008F0709D0174B18481F4AC01AC008102425
:1083E80000040094164BB3E712F0030F09D0114BA9
:1083F80011481A4AC01AC008102400040094104BEF
:10840800A6E7C768B9420BD34C1E05691C44AC42A9
:1084180006D8DCF80C40A44602B0BDE8F04160473D
:10842800044B05480E4AC01AC008102400040094E2
:10843800034B8DE7987B0300E87B0300157F03005F
:108448007A7E03001A7F0300977F03008B7F030067
:108458004A7F03009D7F0300C77F0300DF7F03007F
:1084680002800300F7B580B92A4B2B482B4AC01A63
:10847800C0080E242A4B009400042A4940F0010049
:10848800FEF7BEFA204603B0F0BDD0F800C0BCF13C
:10849800000F09D11F4B2048234AC01AC0080824DE
:1084A800000400941E4BE8E74AB91A4B1A481F4AC1
:1084B800C01AC008092400040094194BDDE7476876
:1084C800D7F800E00EF1FF370F4209D0114B1248E0
:1084D800174AC01AC008102400040094104BCCE7B7
:1084E800C768B9420CD34C1E05690EFB0244AC4266
:1084F80006D8DCF81040A44603B0BDE8F040604759
:10850800044B05480B4AC01AC00810240004009404
:10851800034BB2E7987B0300E87B0300157F030059
:108528008D7E03001A7F03008B7F03004A7F0300C0
:10853800A07E0300C67E030029DF704728DF70474E
:1085480070B503689D6886B004460E466DB1142266
:10855800002168460EF0B0FEA368059323790196C2
:108568002BB1012B0DD06846A84706B070BD01237A
:108578008DF8003023690293E368039363690493D9
:10858800F1E702238DF80030E3681B030293F5E757
:108598000846704700207047024B187A003018BF11
:1085A80001207047082E0020034B187A0122B0FAE8
:1085B80080F05A7440097047082E002008B510460C
:1085C8001A460EF050FE002008BD000008B514221F
:1085D800002104480EF070FE0348FFF72AFB002034
:1085E80008BD00BF082E0020F82D002010B5094C4A
:1085F800094B43602046FFF761FC40B905F0BAF922
:108608001C2320748C2205490548FFF7FFFA002037
:1086180010BD00BF082E0020388003006C2D0020FC
:10862800F82D002070B5244D244E2B7A2C463BB9EA
:1086380023492448FFF759FB306008B9686070BDCA
:108648000223237233681A7972B1012A24D018469A
:108658000321FFF775FF0023237263601849194847
:10866800BDE87040FFF76CBBD3E90520121AB2F5DC
:10867800805F28BF4FF48052D3E903159208012A7E
:10868800014438BF01222844FFF756FF50B1112892
:10869800DDD101232372D2E7D3E903021044FFF7A7
:1086A8004DFFF3E7237C002BC9D10146BDE870409C
:1086B800022000F009B800BF082E0020202E00205C
:1086C8001C2E0020F82D002038B5831E012B45D81C
:1086D800234C237A002B41D0022B09D1032830D018
:1086E800204B1B680022E2601A793AB1012A22D095
:1086F800637C7BBBBDE83840FFF794BFD3E9051224
:108708008D1AB5F5805F94BF521902F580529A61AF
:108718009142EDD102284FF0000308BF1946237299
:10872800104B18BF0D211868FFF70AFF0E490F48B4
:10873800FFF706FBDCE71A6901321A615B699A42A6
:10874800E7E7E3680133082B01D8E360D0E70023AB
:10875800E360DFE7BDE8384005F0FCB838BD00BF8E
:10876800082E0020202E00201C2E0020F82D00208E
:1087780000F0FD03012B08D1044B00225A74421E5D
:10878800504250411874FFF74DBF7047082E002023
:1087980010B5064C201DFFF791FB28B9637C1BB967
:1087A800BDE81040FFF73EBF10BD00BF082E0020F7
:1087B8002DE9F34180460D460F4801A916461F468C
:1087C800FFF759FA0446A8B11C2200210EF074FDE7
:1087D8002D0B0123237101A9C4F80080A760E5606F
:1087E80066610548FFF771FAFFF7D2FF002002B073
:1087F800BDE8F0810420FAE7F82D00202DE9F743C1
:1088080081468846104801A917461E46FFF733FAE5
:108818000446B0B11C2200210EF04EFD00250A9B33
:10882800A36001A92571C4F80090C4E903786661C2
:108838000548FFF74AFAFFF7ABFF284603B0BDE843
:10884800F0830420FAE700BFF82D00202DE9F04757
:10885800B0F806904479D2F800A09DF8208009FB72
:1088680004F4043C06460AEB0300A0420F4688BF06
:10887800A4EB030A191DC2F800A0B1FBF9F509FB26
:1088880015114DB9A9EB0104544528BF5446BAF156
:10889800000F04D1BDE8F0873668013DF1E70431E7
:1088A8007B1970182246B8F1000F0ED00146184601
:1088B800AAEB040A0EF0D7FCD145254436684C468D
:1088C8004FF0000128BF5446E1E71946F0E7F8B534
:1088D80046790146721E0546002393422D6803D34C
:1088E8000024A64202D8F8BD0133F6E70F682846EF
:1088F800FFF710FB01343946F3E72DE9F843068A00
:10890800CD1C0746FFF7E3FA043E35440446B5FBA1
:10891800F6F5F0B14FF48073EDB28380C680013D67
:10892800076081464FF00008A84512D23846FFF785
:10893800CEFA064648B163790133637108F101083C
:10894800C9F8000007608146EEE72046FFF7BFFF41
:1089580034462046BDE8F88301210430FFF798BA71
:1089680010B5012104460430FFF79DFA10F0FF0FFF
:1089780004D12046BDE81040FFF7A9BF10BD1FB5C0
:1089880004AC44F8042D002200922246FFF75EFF53
:1089980004B010BD1FB504AC44F8042D01220092A8
:1089A8002246FFF753FF04B010BD0000064B10B578
:1089B80000241C70054B1C60BFF35F8F04490548F9
:1089C80000F00AF8204610BD2C2E0020302E002082
:1089D80064800300242E00200B684A684360934299
:1089E80008BF0023016008BF43607047436843B174
:1089F8000268916852680B449342436004BF0023A5
:108A0800436070470D4930B5A1F594720225914233
:108A180001D800200EE08B1ADB1093FBF5F302EB74
:108A2800C30452F83330834205D802D204F1080255
:108A3800EDE7606830BD2146E9E700BFB481030077
:108A480008B5FFF7DFFF024B002808BF184608BD2E
:108A58007980030010B506F03FFB037B23B18368E0
:108A68000068BDE81040184710BD0020704700009E
:108A780073B50E4604681546D2B1237BD3B9616835
:108A8800C1B9102220460EF017FC321C0A4BA56013
:108A980018BF012200934FF47A712346074806F065
:108AA800DBF90028606014BF00200E2002B070BD02
:108AB8000720FBE70820F9E75D8A0200F87C03003D
:108AC8002DE9F043446885B0054689461646002CD2
:108AD80050D0037BA3B92E60EFF30586BEB94FF0E3
:108AE8000208CDF8008033464A460421204606F0A5
:108AF800CDF90128074630D0042005B0BDE8F08341
:108B0800204606F0DDFA0028E5D00020F5E704AE9F
:108B1800002746F8047D4A46009733460921204637
:108B280006F0B4F90128E7D105F01AFE00970246CD
:108B380033460621204606F0A9F90128DCD1039B1B
:108B480043B10D4B4FF080525A6040BFBFF34F8F77
:108B5800BFF36F8F01232B73D7E705F0FBFDCDF82B
:108B68000080024633463946204606F08FF9012830
:108B7800F0D0C1E70820C0E700ED00E01FB50446CB
:108B8800406830B3EFF30583D3B104AB002243F858
:108B9800042D0821009206F079F9012801D004205B
:108BA8000CE0039B43B10C4B4FF080525A6040BF1E
:108BB800BFF34F8FBFF36F8F0020207304B010BD39
:108BC8000222009203211A4606F060F90128F3D028
:108BD800E5E70820F2E700BF00ED00E00C4B1B784A
:108BE800062B10D10B4B1B681A070CD10A4B1868BF
:108BF80000F0F003302B08D000F0E000A0F14003B3
:108C0800584258417047002070470120704700BF04
:108C1800E00F00F0E40F00F0E80F00F0094B1B78BC
:108C2800062B0CD1084B1B681A0708D1074B18688C
:108C380000F0F000A0F1300358425841704700207E
:108C4800704700BFE00F00F0E40F00F0E80F00F0FD
:108C580008B5FFF7C3FF28B1784B794A1B68C3F3FF
:108C680004231360FFF7DAFF10B1764B764A1A60D7
:108C7800FFF7B4FF28B1754B754A1B68C3F342333D
:108C88001360FFF7CBFF20B1724AD36823F08073DB
:108C9800D360FFF7A3FF40B14FF080430022C3F831
:108CA8000C21C3F81021C3F83825FFF7B7FF10B11E
:108CB800694B03221A60FFF7B1FF40B1674B0522E9
:108CC8001A6001229A6700229A603F225A60644B18
:108CD8001B78062B50D1634B1B6819074CD1624B8C
:108CE8001B6803F0F003502B46D14FF080525F4BC6
:108CF800D2F80414C3F82015D2F80814C3F82415C0
:108D0800D2F80C14C3F82815D2F81014C3F82C158F
:108D1800D2F81414C3F83015D2F81814C3F834155F
:108D2800D2F81C14C3F84015D2F82014C3F844151F
:108D3800D2F82414C3F84815D2F82814C3F84C15EF
:108D4800D2F82C14C3F85015D2F83014C3F85415BF
:108D5800D2F83414C3F86015D2F83814C3F864157F
:108D6800D2F83C14C3F86815D2F84014C3F86C154F
:108D7800D2F84424C3F87025FFF730FF28B13C4BE4
:108D88003C4A1B6803F04F031360FFF727FF48B105
:108D98004FF08043D3F80024D20744BF6FF001029C
:108DA800C3F80024344B1B68062B08D1334B1B68CF
:108DB800062B01BF324A136843F480631360314ABB
:108DC800D2F8883043F47003C2F88830BFF34F8F6D
:108DD800BFF36F8F4FF01023D3F80C32DB0729D580
:108DE800294B0122C3F80425D3F80024002AFBD01C
:108DF8004FF01022D2F80C3223F00103C2F80C32E3
:108E0800214B1A46D3F800140029FBD00021C3F8DF
:108E18000415D2F80034002BFBD0BFF34F8F19494B
:108E28001A4BCA6802F4E0621343CB60BFF34F8F5A
:108E380000BFFDE7164B174A1A6008BD240300104F
:108E48004035014074C007400DF0ADBA440200102F
:108E58003C050040F0ED00E0A00500401056004041
:108E6800E00F00F0E40F00F0E80F00F000C0004051
:108E780058020010E40E00403001001034010010C8
:108E88003C17004000ED00E000E001400400FA0556
:108E98003C2200200090D00338B5084C04F10803A8
:108EA8000546002818BF1C4623682BB11A682260A3
:108EB8005B6828469847F7E738BD00BF3C2E00207E
:108EC80020B9054B01225A70FFF7E6BF012802D1ED
:108ED800014A9070F8E77047342E002020B9034B00
:108EE80001225A70FFF7D8BF704700BF342E002008
:108EF80038B50B4C237883B90A486360A3602361B3
:108F0800E36000F093F8054604F034FD08B900F07A
:108F18009BF801232370284638BD8525FBE700BF51
:108F2800342E0020C98E020037B5184CA3780546A8
:108F380003F0FF029BB110B143680120984700235A
:108F48000DF107008DF80730FDF75AFFE3689DF82B
:108F580007000133E360FDF777FF03B030BD0DF183
:108F680007008DF80720FDF74BFF25B1226913464E
:108F78003BB92A602561E368002BE7D100F078F857
:108F8800E4E79D42F7D01B68F2E700BF342E0020CB
:108F980037B502A80023094C00F8013DFDF730FF62
:108FA800E368013BE360E56815B900F087F8A57050
:108FB8009DF80700FDF748FF03B030BD342E0020B0
:108FC800012813B509D003D303281BD002B010BD64
:108FD8000F4B0122C3F88020F8E702A800230D4CAC
:108FE80000F8013DFDF70CFF23780BB9FFF780FF70
:108FF800E3689DF807000133E3600123A370FDF7E0
:1090080023FFE3E700F020F8FFF7C2FFDEE700BF29
:1090180000E100E0342E002000F18040002382B0FF
:10902800036003680193019B02B07047054A1379F6
:109038002BB90121106011715371184670478520B2
:10904800704700BF482E0020084B1A68D20706D484
:10905800E02283F800230122C3F880211A604FF030
:1090680080430122C3F81825704700BF00E100E0E3
:1090780038B54FF48270FFF7CFFF4FF080430222DC
:10908800C3F804230A4AD06840F08073D360094BC0
:109098001C6844F0010119605D685968491BB1F505
:1090A8000A5FFAD31C60044BD06001221A6038BDF5
:1090B800F0ED00E0001000E008000040044B012241
:1090C8001A604FF08042D2F81834DB03FBD47047A3
:1090D8000C000040124B1B6810B573B14FF4807040
:1090E800FFF79AFF4FF080430122C3F808230D4B86
:1090F800587910B95A711B6898470B4B1B6873B1A4
:109108004FF48270FFF788FF4FF080430222C3F8C4
:109118000823044B01201B68BDE81040184710BD08
:1091280000010040482E00200401004000F180406A
:1091380000F5C040002382B0036003680193019BDF
:1091480002B07047800000F1A040D0F8003723F447
:109158004033C0F80037D0F8003743EA0141C0F87F
:1091680000177047054B4FF0FF32072843F82020BF
:1091780084BF1B1883F86020704700BF502E002062
:10918800C208054900F0070001238340885C20EAF3
:1091980003008854704700BFC22E002010B5174C3A
:1091A80094F876303BBBFF21E2180133202B82F87C
:1091B8004810F9D10021C8B2FFF7D4FF01311229B4
:1091C800F9D1042200210E480EF076F80D4B40220A
:1091D80083F806234FF4BE70C3F880211A60FFF7A6
:1091E800A5FF094B4FF00042C3F80423012384F87C
:1091F8007630002010BD0820FCE700BF502E00206C
:10920800C22E002000E100E00060004030B52E4C86
:10921800231893F94820013253D18A78002A4CD078
:10922800002354F8235001354FEA830240D1251812
:1092380002F1804202F5C04285F84830002544F822
:109248002350D2F810550B784C7825F498151B0448
:10925800240525F4F85504F4801403F44033C2F8C7
:10926800105523430402D2F8105504F4F85423434C
:109278002B43C2F810354A780123012A4FF0A04247
:1092880003FA00F30CBFC2F80835C2F80C3500F534
:10929800E073032142F82310C2080C49012300F0AF
:1092A800070003FA00F08B5C18438854002003E0A1
:1092B8000133082BB5D1042030BDFE2283F84820A5
:1092C800D9E70820F8E700BF502E0020C22E002062
:1092D800012303FA00F04FF0A043C3F808057047D4
:1092E800012303FA00F04FF0A043C3F80C057047C0
:1092F800F0B5394D2C18944694F94840002C68DA9A
:109308008E78C6F34006002E15BF002308230827D1
:109318001227BB4201D10420F0BD55F823200132A9
:109328004FEA830441D12F1845F823C087F8483005
:1093380016B9EA1882F860008A78560716D4D70753
:1093480035D5820002F1A042D2F8006726F0020665
:10935800C2F80067214FC60800F0070C012202FA84
:109368000CF217F806C042EA0C02BA558A780E7851
:1093780012F0020224D004F1804303F5C043000236
:10938800D3F8102522F4473222F44072C3F810258E
:109398003604D3F8102500F4F85006F4403630436C
:1093A8001043C3F810050020B6E70133B1E74E7843
:1093B80000F5E0724FF0A047B60047F82260C9E711
:1093C800083B2B4493F8680040EA861683F86860E7
:1093D800E9E70820A0E700BF502E0020C22E002099
:1093E80038B5204C251895F94820072A18DD22445D
:1093F80092F860309B09032B0DD14FF0A043D3F8AE
:109408001035C34013F0010F0CBF02210321BDE842
:109418003840FFF797BE012B14BF03210221F6E75E
:10942800D3B2072B1CD8930003F1804303F5C04344
:10943800D3F8100540F00100C3F8100502F1400010
:10944800800080B2FFF772FE51B195F9483054F8A8
:1094580023302BB1012303FA02F2034BC3F8042390
:1094680038BD00BF502E0020006000400E4B034462
:1094780093F94820072A02DD0021FFF763BED3B223
:10948800072B10D8930003F1804303F5C043D3F8AA
:10949800101521F00101C3F81015012303FA02F297
:1094A800024BC3F808237047502E0020006000408C
:1094B80038B5164C0546FFF7D9FF631993F94830BC
:1094C800DAB2072A9FBF03F5A273114A002142F8B6
:1094D800231004EBD50305F0070193F8722001234C
:1094E8008B401A4209D005F5E0734FF0A0420221E3
:1094F80042F823102846FFF743FE2C4494F848000E
:10950800FFF730FEFF2384F8483038BD502E002086
:10951800006000402DE9FF470024584A584E594D35
:10952800019401211368A2F5C040012B80B206D135
:10953800D6F804330B4202D0FFF7F8FD0C4304328F
:10954800AA424FEA4101EDD14F4B1B68012B0AD1CA
:109558004FF4BE70FFF7EAFD4FF0A04344F000441B
:10956800D3F81035019314F0FF0F1AD0474F002598
:109578000126344210D0AB0003F1804303F5C04309
:10958800D3F81005D3F8101557F82530C0F3042088
:10959800C1F3014103B198470135082D4FEA46064A
:1095A800E7D1002C66DA00224FF0FF33CDE9022321
:1095B800DFF8D8900127002634464FF0A04809EB81
:1095C800060393F96820531C45D0D2B222F0C00597
:1095D800E90804A8084402F0070310F804CC07FAC5
:1095E80003F31CEA030F36D009EB050C92099CF92A
:1095F80048C059F82CA0BAF1000F0AD1032A2AD181
:109608000DF1080E1EF801C04CEA030C0EF801C05B
:1096180001E0032AF4D005F5E07110F80C0C58F8B5
:1096280021101842C1F3014105D0022913D1032AA0
:109638000BD1114604E003290DD1032A05D10221DB
:109648002846FFF77FFD0134E4B2BAF1000F02D0DB
:1096580011462846D04701360A2EB0D154B14FF0F2
:10966800A043019AD3F81035934203D00193029B8B
:109678000393A0E704B0BDE8F08700BF0061004095
:1096880000600040206100407C610040502E0020B6
:10969800014B1B68184700BFC82E00200D4B98428D
:1096A80037B50D4610D102A8002300F8013DFDF79B
:1096B800A7FB094B1C7914B901221D601A719DF88A
:1096C8000700FDF7C1FB14B9002003B030BD11201D
:1096D800FBE700BF00200040C82E002000234350B5
:1096E80082B043580193019B02B07047F0B54679A8
:1096F8001F4B204F43F826207500AB19FB5CA3BB1A
:1097080090F904308C78002BDAB2A8BF03F1604CD2
:109718004FEA5313B8BF02F00F0E4FEA4414B4BF18
:10972800DFF854C00CF5614C4FEA8303E4B203F14F
:109738006043B4BF0CF80E408CF8004303F5614356
:10974800012402F01F0204FA02F2C3F880211A6011
:1097580003680A88C3F8082535447B190A795A70C2
:109768007C55CA789A700020F0BD0820FCE700BF3D
:10977800D42E0020D02E002014ED00E00368012232
:109788001A604379024A03EB43030221D15470471C
:10979800D02E00202DE9F04106464FF480340068B1
:1097A8001C4D8C40C0F84843C0F8084396F805E0C3
:1097B8004FEA4E0C0CEB0E072F4422F07F4297F82D
:1097C800018001F5A87740F82720B8F1000F11D0E3
:1097D800D0F80485F4446544A8EB0207904538BFE7
:1097E80007F1FF17AA7838BF07F57F47BA4201DDAE
:1097F8000D200CE03BB15031890089B2FFF76EFFB4
:109808003368C3F8044333680020C3F84443BDE811
:10981800F08100BFD02E00202DE9F041234EDFF863
:109828009480234F00254FF48034D6F8043305F193
:1098380050018900234289B20ED005EB08039B0032
:109848001B684BB1C6F848433046C6F80843FFF7D3
:1098580045FF3B68E8B298470135042D4FEA4404B8
:10986800E3D1124CD4F80433DA070BD5D4F800311D
:1098780043B120464FF48071FFF730FF0C4B284668
:109888001B689847D4F804339B070DD5D4F80431E6
:1098980053B106484FF48271FFF720FF044B0520AF
:1098A8001B68BDE8F0411847BDE8F0810040024060
:1098B800D42E00205090001037B5D0F818358A699A
:1098C800DBB28DF807304B6A93423EBF4A699DF878
:1098D8000740D4544A6A91F82840531C4B6202321C
:1098E8003CB10C69A2428C6938BF0A61944288BFB6
:1098F8008A610D69954205D9CB689B5CC0F81C3517
:1099080001200BE08C69944202D991F82030F5E7E8
:10991800AB42F5D3A3422CBF0020012003B030BDD9
:1099280013B5114B114C00221A601B680193214694
:109938004FF04020019BFFF7BFFF90B9A27F0C4872
:10994800FF2A1FBF012393404FF0A042C2F80835F9
:10995800002363772372D4E9003102B0BDE81040D8
:10996800184702B010BD00BF08410040D82E0020A3
:10997800E02E00202DE9F74F9B460379674D0193B0
:109988002C275F4305EB070A80469AF81C300C46E3
:109998009146002B40F0BE8061490068FFF77EFECB
:1099A800002840F0B98045F80790CAF804B094F848
:1099B80000C0277B4FF0A042012303FA0CF3012FCC
:1099C80094BFC2F80C35C2F808350CF5E0730121D4
:1099D80042F823106378FF2B1FBF9940C2F80C157B
:1099E80003F5E0714FF0030E18BF42F821E0A278AA
:1099F80008BF4FF0FF33FF2A1FBF02F5E0714FF099
:109A0800A04E4FF0040B4EF821B098F804104FF018
:109A18002C0E0EFB015E18BF92468EF81F20E278CE
:109A280008BF4FF0FF3AFF2A0CD04FF0A04B4FF081
:109A3800010E0EFA02FECBF808E502F5E07E0326D9
:109A48004BF82E604FF02C0E0EFB015E8EF81E2098
:109A5800D8F80020C2F808C5C2F80C35A368C2F8C7
:109A680010A5C2F82435637B003318BF0123022FE9
:109A78004AD0032F4BD0012F01D143F00203C2F883
:109A880054352C2303FB0151637981F82030B9F157
:109A9800000F02D00423C2F804330123C2F80035B2
:109AA800B9F1000F25D0120B53B22179002BA8BFB2
:109AB80003F16044D2B24FEA5313B8BF02F00F0764
:109AC8004FEA4111B4BF174C04F561444FEA8303D0
:109AD800C9B203F16043B4BFE15584F8001303F53C
:109AE800614302F01F02012101FA02F2C3F880214A
:109AF8001A60019A2C2303FB025500236B7701237C
:109B08002B7703B0BDE8F08F43F00403B7E743F0C9
:109B18000603B4E70820F4E71120F2E7D82E002066
:109B28002999020014ED00E02DE9F7430679424D2A
:109B38002C2373439646EA180F46517F8146002925
:109B480078D155F803C0BCF1000F01D00123537739
:109B580097E80F002C2404FB065404F10C0888E84D
:109B68000F00A27F0023FF2A84F828301FBF01239B
:109B780093404FF0A042C2F80C352C23BEF1000FE1
:109B880007D003FB065300225A77062003B0BDE82E
:109B9800F083D9F800400422C4F8082303FB0653D5
:109BA800C4F808E1D4F80821C3F824E00092009A28
:109BB8007A688AB13B681B78C4F81C35012A0ED92B
:109BC8003B685B78C4F81C35BCF1000F10D0042347
:109BD800C4F804330020D9E793F82030ECE7FB6899
:109BE800012BF1D92C2303FB065393F82030E9E726
:109BF8004FF02C0806FB08586746D4F80831002BAC
:109C0800FBD0C4F80871D4F80831019341462046C6
:109C1800019BFFF751FE0028EFD12C2303FB0655CB
:109C2800AA7FFF2AB2D0012393404FF0A042C2F886
:109C38000835ABE71120A9E7D82E00207FB50378B7
:109C48008DF804304368029383688DF80C30C3683C
:109C5800049303698DF81430054A064B01A853F89C
:109C6800213052F82110984707B05DF804FB00BF77
:109C7800042F0020102F002030B4084D10F8044B9A
:109C880045F82420064D002A45F82430054A234685
:109C980008BF002230BCFFF76DBE00BF102F0020A8
:109CA800042F0020459C02000720704708B50122B8
:109CB80002210020FFF7F8FF08B1072810D107227A
:109CC80002210120FFF7F0FF08B1072808D1002181
:109CD8000A220846FFF7E8FF10B1072808BF00204E
:109CE80008BD00000388102B10B502D0112B1ED020
:109CF80010BD1A4C2168B1B901220846FFF7D4FFFC
:109D080008B1072824D1072202210120FFF7CCFF40
:109D180008B107281CD1042202210020FFF7C4FF44
:109D280008B1072814D1236801332360E0E70B4A00
:109D38001368013B1360002BDAD1FFF7B7FF002847
:109D4800D6D0074B1B68002BD2D0BDE8104018476F
:109D5800034B1B68002BE6D09847E4E7202F002030
:109D68001C2F00200369C1688B429DBF8268D218EE
:109D780002F1FF3203F1FF3394BF501A581A7047AB
:109D88002DE9F041D0E902670446F61B4068964287
:109D980088461546384405D90DF065FA3D44E56016
:109DA800BDE8F0813246AD1B0DF05DFA2A4608EB9E
:109DB800060160680DF057FAF1E72DE9F843C56828
:109DC8000646894617464FF000083469B36870683C
:109DD800A54228BFE418013C621B5C1BBC4228BF9B
:109DE8003C46944228BF14464946284422460DF072
:109DF8003AFAB3682544AB4208BF00253F1BA0448C
:109E0800A144F560E1D14046BDE8F88310B5114C96
:109E1800114AA2610223C4E90433104BE361A2642E
:109E28004FF480630E4A2362E264002310220D4936
:109E3800A362E01D6362E362A3656365E36522656F
:109E48000DF06DFA084920460DF069FA2023A37138
:109E580010BD00BF242F002098850300AC2F0020E0
:109E68009C2F0020A1850300A58503002DE9F84F4C
:109E78001F4B16461A7881468A4698460AB9FFF754
:109E8800C5FF182707FB0987BD6DD7F854B05D4596
:109E98002BD93C6DF96C641BB44228BF3446294465
:109EA800504622460DF0DFF93B6D2544A244361B8F
:109EB800AB4208BF0025ABEB050B5E4528BF5E46ED
:109EC80056B1182303FB09833246D96C50462944FE
:109ED8000DF0C9F93444354424B1182303FB09882B
:109EE800C8F858502046BDE8F88F0024E3E700BFC3
:109EF800242F0020DFF888C02DE9F0474FF0180A1A
:109F08000AFB00C78946BE6A7D6AAE4214462BD852
:109F18003B6AA3EB050808F1FF3E724506D800FB33
:109F28000AA39C44DCF8040028440AE07644B242C0
:109F380023D800FB0AA30CEB03069045706828445D
:109F480003D90DF090F92C440AE04246A4EB08042A
:109F58000DF089F9224609EB080170680DF083F9C4
:109F68007C620120BDE8F087013E761B964204D34F
:109F780000FB0AA363445868D6E70020F2E700BF55
:109F8800242F0020F8B5184C182300FB033503FBD9
:109F980000402544C46A012C0F46164611D003D34D
:109FA800022C1BD000240AE02846FFF7DBFE86427D
:109FB80005D8324639462846FFF7E2FE34462046A1
:109FC800F8BD2846FFF7CEFE8642344628BF044631
:109FD800224639462846FFF7D3FEF0E72846BDE873
:109FE800F840FFF7EABE00BF242F002073B50D4BE1
:109FF8001B7804460D4616460BB9FFF707FF02A863
:10A00800002300F8013DFCF7FBFE324629462046B6
:10A01800FFF7B8FF04469DF80700FCF715FF204638
:10A0280002B070BD242F00202DE9F743174C1F46BE
:10A0380023780546894690460BB9FFF7E7FE236962
:10A04800AB4220D902A8002600F8016DFCF7D8FE23
:10A0580065B1182305FB0332A11803FB054344F837
:10A068000290C1F804801F629E625E62182303FB9F
:10A0780005440A9B9DF80700E362FCF7E5FE002013
:10A0880003B0BDE8F0834FF0FF30F9E7242F00203C
:10A098002DE9F743154D1F462B780446894690460F
:10A0A8000BB9FFF7B3FE6B69A3421BD902A80026C0
:10A0B80000F8016DFCF7A4FE3CB1182303FB045320
:10A0C800C3E912981F659E655E65182303FB045457
:10A0D8000A9B9DF80700E365FCF7B6FE002003B075
:10A0E800BDE8F0834FF0FF30F9E700BF242F0020D0
:10A0F8000FB410B5A2B024AB802153F8042B019300
:10A1080002A80DF0A2F8802804460ADD802202A9E0
:10A118000020FFF76BFF204622B0BDE8104004B0D6
:10A1280070470028F7DD0246F1E76DDF704779DFF9
:10A1380070477DDF704764DF70472DE9F74F0C9C4F
:10A14800BDF834B02788002580468A4691462E46B9
:10A15800B8F80020B2420BDC35B12288013AD21B94
:10A1680092B2FF2A39D8DA55002003B0BDE8F08F43
:10A17800D8F8042052F82600019000220DF10301BE
:10A1880001A8FFF7D8FF0028EFD19DF803204A4522
:10A1980021D12288002D14BF0020022002EB0901E2
:10A1A8000144594519DC3DB9013292B2228003F8C5
:10A1B80002A022880132228022880DF103011A446C
:10A1C80001A8FFF7B8FF0028CFD121889DF8032008
:10A1D8000A44228001250136BAE70C20C5E72DE99B
:10A1E800F341089CBDF824501746CDE900450222EA
:10A1F8000646FFF7A2FF48B9102239463046CDE996
:10A20800084502B0BDE8F041FFF797BF02B0BDE8CE
:10A21800F0812DE9F04F00231688138090F82D3037
:10A2280085B007460D46144653B3082E01D80C20B6
:10A2380026E102A8FFF779FF002840F02181138862
:10A248000822CA54238801339BB21B222380CA5494
:10A258002088013080B2208006220DF109012844AF
:10A268000DF001F823889DF8082006339BB212F000
:10A27800FE0218BF01222380EA5423880133238079
:10A28800BB78FBB123880433B342D0D802A8FFF7C8
:10A298004EFF002840F0F48023880322EA542388E4
:10A2A80001339BB219222380EA542388BDF8082081
:10A2B80001339BB2E9182380EA54120A4A702388B2
:10A2C80002332380FA789AB12388D91CB142AED8D8
:10A2D8000221E954238801339BB201212380E954E8
:10A2E80023880B449BB22380EA5423880B442380A1
:10A2F8007A68AAB12388D91CB14298D8022192F968
:10A308000020E954238801339BB20A212380E954B1
:10A31800238801339BB22380EA54238801332380A6
:10A328003B89002B40F0A0803B8A5BB1CDE9004619
:10A338002B460722032107F11000FFF750FF0028E2
:10A3480040F09E803B8B5BB1CDE900462B46152241
:10A35800142107F11800FFF742FF002840F0908011
:10A368003A6A002A40F08F80D7F82480B8F1000FAD
:10A3780030D0B8F804302188981C8A1C0244B242B4
:10A388003FF655AFFE283FF652AF03336B54238890
:10A3980001339BB2FF222380EA54238801339BB206
:10A3A8002380B8F80020EA54E918120A4A70208875
:10A3B800023080B22080B8F804205AB1D8F80810CA
:10A3C80000296AD028440CF04EFF2388B8F80420EE
:10A3D8001344238097F82C30002B40F0998038786C
:10A3E80000284DD03B88012B57D021888A1CB242C7
:10A3F8003FF61DAF012805D17B7802330B449E42FE
:10A40800FFF415AF023E761A04A9B6B221F8086D1A
:10A41800A818FFF78EFE98BB3978BDF808200229E6
:10A4280000F0BB807B78934202D3B24240F2B38003
:10A43800012940F0B4809BB29E42C0F0B080ADF8D4
:10A4480008300821BDF80830FE2B3FF6F0AE228810
:10A458000133AB542288013292B22280A954228857
:10A468001344238000200BE0CDE900462B4606224A
:10A47800022107F10800FFF7B2FE00283FF454AFAD
:10A4880005B0BDE8F08FB4F800C00CF10603B34284
:10A498003FF6CDAE1188052901D80720F0E76FF403
:10A4A800486E01EB0E039BB24FF27D3E7345F4D923
:10A4B8005388052BF1D96FF44860181880B270459D
:10A4C800EBD94FF6FF70814203D0834201D0994205
:10A4D800E3D8052305F80C30238801339BB21221F9
:10A4E8002380E954238801339BB223801188E954DF
:10A4F800E818090A4170238802339BB223805288E6
:10A50800EA54E918120A4A702388023323802BE799
:10A51800BB6A002BC1D04FF000094FF00C0A4FF076
:10A52800160B97F82C305FFA89F293427FF657AFF3
:10A53800B96A0AFB02F201EB0208B8F80430981C69
:10A54800FE283FF674AE208803332B54238801334A
:10A558009BB2238005F803B0238801339BB2238084
:10A568008A5AEA54E918120A4A702088023080B2DE
:10A578002080B8F804205AB1D8F8081000298CD0E7
:10A5880028440CF070FE2388B8F804201344238074
:10A5980009F10109C5E7092154E7B242FBD9ADF831
:10A5A80008604EE770B5C0B14AB116880024B442BD
:10A5B80003D305196D789D4208D0A14201D8002027
:10A5C8000BE0055D01352C44A4B2F0E7A142F6D9B1
:10A5D800A31C1380005D013880B270BD37B502AC92
:10A5E800002324F8023D134622460546FFF7DAFF0A
:10A5F80010B1BDF80600284403B030BD72DF7047C3
:10A6080073DF704738B5012204460D46B0F838129A
:10A61800D0F83402FFF7E2FF00B1057004F13C0204
:10A6280004F50D7104F15400BDE83840FFF7E6BFAA
:10A6380080F830107047F8B504460F46002975D0E9
:10A64800002873D091F87A301BB191F89830002B1C
:10A658006ED1D7F8A030042B6AD0D7F89C30042BE1
:10A6680066D007F178060FCE4FF0000C251D84F850
:10A6780002C00FC50FCE0FC596E8070085E8070092
:10A6880084F830C0D7F8A4306363D7F8A830A36340
:10A698004FF6FF7504F50D73C4F84432A4F8485218
:10A6A8000722614604F24A200CF006FE23780BB913
:10A6B80084F8545094F8243004F15501C4F8341245
:10A6C80083B3EE23A4F8383204F50E723846FFF748
:10A6D800A0FD30BB94F8243004F2431107F13C008C
:10A6E800C4F83C1203B3EE23A4F8403204F5107208
:10A6F800FFF78FFDA8B9A269A4F848200123626971
:10A70800206484F850006264014684F8513084F86B
:10A718003C3004F13C0204F15400FFF76FFF00B92C
:10A728002370F8BD1F23CDE71F23DDE70E20F8E7D0
:10A738000720F6E7F8B5077804460D46002F00F025
:10A74800058100F24A26A1700722002130460CF04C
:10A75800B3FDE38813B1A378012B04D0E3794BB19F
:10A76800A378022B06D1636BA3B1012284F851228E
:10A7780008209847334604F5147113F8012F12B9CD
:10A788009942FAD117466B1E032B53D8DFE803F022
:10A79800050B0F1284F85132ECE7A3791BB194F83A
:10A7A800243003B95FB9E3790BB1002F44D1237A80
:10A7B800002B43D1637A002B0CBF00250425636B63
:10A7C800A570002B3CD0033D012D39D86279002AB1
:10A7D80036D094F85222002A32D184F85422012229
:10A7E80084F853220720984704F13C0518220021D9
:10A7F80028460CF061FDE36A94F824200121581ED4
:10A80800884288BF0B4684F83C1084F8513032B136
:10A81800884296BFA36A84F8521084F85230A1780F
:10A82800002384F8503004291BD8DFE801F0770DA5
:10A83800223559000025C2E70225C0E70325BEE7F7
:10A84800002384F85332CFE7C4F84432C4E91063D4
:10A858000223012284F83C30802384F83120A4F8B4
:10A868004830A378002B5CD1636B002B6AD10020A1
:10A8780067E0022384F8313062B1072384F83C3062
:10A888002369A4F848300023C4F84432E3682664F6
:10A898006364E6E70323F1E763696364A369A4F8E3
:10A8A800483012B1062384F83C306379B3B194F888
:10A8B80052329BB994F8543283B1022384F8503051
:10A8C80004212046FFF79EFE0028CAD1052384F8FC
:10A8D800313004F50D73C4F84432C2E70323F6E7B8
:10A8E800E3696364236AA4F8483012B1062384F844
:10A8F8003C30637983B194F852326BB994F854328E
:10A9080053B1022384F8503004212046FFF77AFE21
:10A918000028A6D10623DAE70423D8E784F83130E3
:10A928009FE72A46D4F8441204F15400FFF766FE64
:10A9380038B994F8301094F85400FFF761FE0028F5
:10A9480092D0F8BD94F83100984790E70820F8E7CE
:10A958000388112B10B50C460AD0262B1FD0102BBC
:10A9680005D1C37B012B02D18388A1F8483210BDE1
:10A978000022838881F85222B1F848229A42F6D1FF
:10A988000B79002BF3D101212046FFF7D3FE0028D5
:10A99800EDD0A36B002BEAD0BDE810401847037A2E
:10A9A800013B012BE3D889780523013191FBF3F3AF
:10A9B80003EB8303C91AC9B2E6E7704775DF70472E
:10A9C80076DF70477ADF70477BDF7047034B1A8862
:10A9D80082420CBF18460020704700BFC8330020D1
:10A9E800024B9B6903B11847704700BFAC33002086
:10A9F80037B585B22846FFF7E9FF034670B1164C14
:10AA0800017A227B91420BD200F10A012846FFF716
:10AA1800D5FFE8B1112801D0FFF7E2FF03B030BD40
:10AA2800237C0022027243B13B212846FFF7C8FF6E
:10AA380030F0080301D0FFF7D3FF6369002BEDD096
:10AA480000228DF80420ADF8065001A89847E5E7E4
:10AA58001A7A01321A72E1E7AC33002013B50B46BB
:10AA6800497A0F4C024669B9D4E901101C7A002CC6
:10AA780018BF01465868FEF723F808B1FFF7B0FF82
:10AA880002B010BD002119726369002BF8D00121B2
:10AA9800ADF806008DF8041001A89847F0E700BF4C
:10AAA800AC3300208388B3F5FA7F28BF6FF4F972BE
:10AAB80030B528BF9C1805884A8838BF00249542BD
:10AAC8000CD84088904209D38A88A24206D303F260
:10AAD800F310904234BF0020012030BD0020FCE775
:10AAE8000388112B70B5014648D002D8102B1ED010
:10AAF80070BD122B52D0502BFAD12F4BC288DB8954
:10AB08009A42F5D1038A022BF2D186883046FFF7A4
:10AB18005DFF05460028EBD001F1120000F0CAF9EC
:10AB280030BB6868FEF72AF80028E1D009E0C37B4B
:10AB3800012BDDD14FF6FF70FFF748FF054620B91E
:10AB48000420BDE87040FFF74BBF1C4A8E88068082
:10AB5800002303721368C5F80A300A30536843604B
:10AB68001031FFF79FFF144B6872DB89002BBFD1B0
:10AB780029463046BDE87040FFF770BF8088FFF770
:10AB880025FF04460028B3D04068FDF7F7FF08B159
:10AB9800FFF726FF4FF6FF732380A9E78688304624
:10ABA800FFF714FF05460028A2D008310A30FFF746
:10ABB80079FF6872DCE700BFAC330020DC3300208B
:10ABC800F8B5064650B305460FCD154F3C460FC4A1
:10ABD80095E8070084E807003068124B3B60B8B17D
:10ABE800FFF7F0FEC8B931680A681A604A685A6007
:10ABF8000D480E4A4FF6FF7303800D4B40F8043F93
:10AC08000021FDF735FF002814BF0320002004E0D1
:10AC18001846FFF7D9FE0028EAD0F8BD0E20FCE759
:10AC2800AC330020DC330020C8330020F9A902002F
:10AC3800E4330020F7B5174601900E4691B1019C08
:10AC48006CB100252C46294601A8FDF7AAF818B1D1
:10AC58003946A8B2B04701340135142DF3D1204646
:10AC680003B0F0BD0C46FAE773B50191019C0646A6
:10AC78006CB100252C46294601A8FDF792F818B1B9
:10AC880006EB440301349D800135142DF3D1304681
:10AC9800346002B070BD00002DE9F0430388848859
:10ACA800112B8DB0064642D01A2B45D0102B18D147
:10ACB8002A4DAB680CA8DB4340F8303D55F8041F1B
:10ACC800FDF7D0F8009901A8FFF7CEFF0027019BF8
:10ACD8009F4209D3132C1AD9214AE3210420FCF7F7
:10ACE80001F80DB0BDE8F08301AB03EB47034FF06B
:10ACF8000008B3F8049005EB0800494608F1040879
:10AD0800FDF745F8B8F1740FF5D10137DFE72146B3
:10AD18001448FDF725F821461348FDF721F8F37B81
:10AD2800012BDED011482146FDF71AF8D9E70D4866
:10AD38002146FDF72CF8D4E7057A0D482D09012D99
:10AD4800214606D9FDF70CF8022D21460948F0D016
:10AD5800EAE7FDF71CF821460648EAE70434002034
:10AD6800AC8503000C340020083400201034002087
:10AD780014340020183400201328014602D8024851
:10AD8800FDF70FB8002070470834002010B50446BE
:10AD9800FFF7F2FF38B121460348FDF702F8002813
:10ADA80014BF0220012010BD1034002010B5044645
:10ADB800FFF7E2FF38B121460348FCF7F2FF00280D
:10ADC80014BF0220012010BD0C34002010B5044629
:10ADD800FFF7D2FF28B121460248BDE81040FCF732
:10ADE800E0BF10BD1434002010B50446FFF7C4FFBF
:10ADF80028B121460248BDE81040FCF7D2BF10BD7B
:10AE08001834002008B518210248FCF7D3FFC0B257
:10AE180008BD00BF0434002070B50A4D0646284618
:10AE28000C46FCF7BEFF58B13046FFF7A5FF38B116
:10AE3800A01D314605EB8000BDE87040FCF7B1BFAE
:10AE4800002070BD04340020F8B50D4C054620469E
:10AE58000E461746FCF7A5FF80B12846FFF78CFF82
:10AE680060B1B01D04EB800029461FB1BDE8F84071
:10AE7800FCF776BFBDE8F840FCF789BFF8BD00BF16
:10AE880004340020F8B50A4C05460E460146204613
:10AE98001746FCF786FF48B1043504EB85043A46AB
:10AEA800A0683146BDE8F840FFF7C4BEF8BD00BF52
:10AEB80004340020007800F001007047A0DF7047DC
:10AEC80010B50446408800F0D1FBA0802046BDE8BC
:10AED800104001F097BB30B587B005460C461822E4
:10AEE800002168460CF0E8F9072368468DF8003021
:10AEF800ADF802500294FFF7E3FF07B030BD000041
:10AF080030B587B005461822002168460CF0D4F900
:10AF18004FF6FF739D42ADF802501AD0284600F054
:10AF2800BAFA0B2804461DD005D8A0B121462846F8
:10AF3800FFF7D1FF05E0112805D043F2020398423C
:10AF4800F4D1002200E00122074B28461978FFF7C8
:10AF58007BFF07B030BD0E2368468DF80030FFF741
:10AF6800AFFFEEE70F23F7E781340020FFF7C8BFF4
:10AF7800024B034918780022FFF784BF833400206E
:10AF8800C1AF020013B504220446002168460CF044
:10AF980093F942F6A623ADF8003001238DF802306C
:10AFA800044B1868019001AA69462046FFF786FFFE
:10AFB80002B010BDEE85030070B5234E86B031781F
:10AFC8000446FFF729FF0546C0BB204600F0B2FA49
:10AFD8000828014622D006D888B106281ED0204667
:10AFE800FFF779FF09E043F20203984205D043F2E4
:10AFF8000143984224D01128F1D1012214E02946B6
:10B00800182268460CF058F9102368468DF800306D
:10B01800ADF802400125FFF753FFEEE7204600F0A8
:10B0280025FB00F0A1FA0022084B20461978FFF70B
:10B038000BFF2A4631782046FFF706FF06B070BDA1
:10B048002046FFF75DFFD8E78434002083340020D2
:10B0580013B5044600F00AFB00236A46092100F0F4
:10B068002FFF052805D1044B012219782046FFF748
:10B07800EBFE02B010BD00BF8034002008B5084BBD
:10B08800084918780022FFF7FDFE024630B9064B42
:10B0980006491878BDE80840FFF7F4BE08BD00BFB0
:10B0A80082340020B9B00200803400208DAF020045
:10B0B80030B5012187B005461C48FCF7A8FE0446B8
:10B0C800BFF35F8F00BB284600F0A0F911280146A6
:10B0D8001CD005D860B12846FFF7FDFE002405E026
:10B0E800862815D043F202039842F4D1224601E0A3
:10B0F800012402460E4B28461978FFF7A5FE1CB915
:10B10800BFF35F8F094B1C6007B030BD0122F1E728
:10B118001822214668460CF0CFF8062368468DF8B9
:10B128000030ADF80250FFF7CBFEDFE77C3400209B
:10B138008234002038B503780446A3B94088FFF765
:10B14800DFFE6588284600F0E3F928B1064B0122A6
:10B1580019782846FFF778FE6088FFF779FFBDE881
:10B168003840FFF78BBF38BD833400200378082BA5
:10B1780037B5044630D1427A72BB057A072D1BD009
:10B18800082D2DD0012D27D16A462946808801F047
:10B19800C7F808BB019B1B78F3B1A08800F094FAAC
:10B1A8004FF6FF73984217D0114B2A461978FFF7CC
:10B1B8004BFEFFF7DDFE0FE0808800F085FA4FF6C2
:10B1C800FF739842044607D00A4B01221978FFF70B
:10B1D8003BFE2046FFF73CFFFFF750FF03B030BDB2
:10B1E800054B19680129F7D1BFF35F8F1A60F3E7A0
:10B1F80083340020823400207C340020F8B5FFF727
:10B2080001FE144F144E3870FFF7FCFD3070FFF745
:10B21800F9FD124D124C2870FFF7F4FD2070FFF76E
:10B22800F1FD104B18703B78182B10D03378182B81
:10B238000DD02B78182B0AD02378182B07D0182874
:10B2480005D0094B00201860BFF35F8FF8BD0320BD
:10B25800FCE700BF823400208134002083340020C2
:10B2680084340020803400207C34002013B501236E
:10B278000024ADF800300923ADF80240084A8DF8E3
:10B288000230084BA14214BF19461146019100F043
:10B29800EDF92246694600F07FFE02B010BD00BFFE
:10B2A800F4850300F885030030B503888488502BA3
:10B2B80087B0054635D00BD8352B45D02D4B2E49B8
:10B2C80018780022FFF7DEFDFFF752FE07B030BD09
:10B2D800522B22D0542BF1D11822002168460BF0B2
:10B2E800EBFF112320468DF80030ADF8024000F046
:10B2F800BDF9ADF8040000F037F9204B2046197865
:10B308000022FFF7A1FD1E4B204600221978FFF707
:10B318009BFD6846FFF7D4FDD0E72046FFF7F0FD18
:10B32800CCE7037B012BC9D1827A012AC6D10189D6
:10B3380042F602139942C1D1124B20461978FFF701
:10B3480083FDFFF79BFEB9E70F4B002219782046D3
:10B35800FFF77AFDE98851B9AB89012B03D1A97BA5
:10B36800003118BF01212046FFF780FFA6E7002122
:10B37800F9E700BF8134002075AF02008434002053
:10B38800833400208234002080340020AFDF7047EF
:10B39800B1DF7047B2DF7047B3DF704773B50F4B4B
:10B3A8000F4C93E803006D4685E803000022294608
:10B3B800208800F0F1FD4FF6FF762388B34201D0D4
:10B3C800112801D102B070BD184600F035FE0022E8
:10B3D8002946208000F0E0FDEFE700BF108603005B
:10B3E80086340020044B1A884FF6FF739A4201D026
:10B3F800FFF7D4BF704700BF86340020024B4FF6DA
:10B40800FF721A8000207047863400202DE9F74328
:10B41800804600F02BF94FF6FF739842064637D066
:10B4280001224FF003096B4608213046571C00F0F3
:10B438007BFFBFB2054630BB01990A46032342F899
:10B44800049B06314046FFF7A5FF044648B932463B
:10B458000821304600F0F3FF0446204603B0BDE85B
:10B46800F0830C280DD0052800D12C460821304641
:10B4780000F0BAFF002818BF03243A46002DD2D1A5
:10B48800EBE70125F2E7072814BF04460C24E4E79C
:10B4980043F20204E1E72DE9F341804600F0E6F8C3
:10B4A8004FF6FF73984217D100240325264601273B
:10B4B8002B46224631464046FFF76AFF042820D033
:10B4C800082823D00B281DD115F002030FD18EB9FF
:10B4D800A4B902B0BDE8F0816A46082100F020FF57
:10B4E8000028E1D1019B9E1D9C881D68DFE701258E
:10B4F8000027DDE703251C461E46F9E703253446E9
:10B50800F6E71120002F08BF0B20E2E70020F9E73B
:10B518001FB50DF10703039300F0A8F802AA012153
:10B5280000F0FEFE20B9039B187805B05DF804FB17
:10B538000020FAE738B504460A48FFF72DFF70B92E
:10B54800084B43F203054FF6FF7219882046FFF7B0
:10B558001DFFA84204D11A8801321A80F3E703209C
:10B5680038BD00BF8834002013B5074A044692E866
:10B5780003006B4683E8030000221946204600F0CA
:10B588000BFD02B010BD00BF1886030046DF7047F0
:10B59800421E00F10F0312F8010F10B99A42FAD1B6
:10B5A80070470120704708B570B171B103780A7807
:10B5B800534013F0FE0F08D10622013101300BF081
:10B5C800FEFDB0FA80F0400908BD0020FCE72DE937
:10B5D800F04700F101084F1C06460D4600F111091D
:10B5E80001F1110A1022394640460BF0E8FD0446E5
:10B5F800E0B94046FFF7CCFF18B13846FFF7C8FF5F
:10B60800044651464846FFF7CEFF737C03F0FC031F
:10B61800042B04D06B7C03F0FC03042B02D1201C08
:10B6280018BF012000F00100BDE8F0870024E8E71A
:10B6380030B585B004460D4600F078FC02AA0DF13D
:10B648000601072000F07AFC10B94FF6FF700BE0F6
:10B65800BDF80630AB42F1D003992046FFF7B7FF9B
:10B668000028EBD0BDF8060005B030BD132810B592
:10B67800044602D94FF6FF7010BDFFF77DFB002886
:10B68800F8D00A206043014B185AF5E78A340020A5
:10B69800132838B504460D4602D943F2020038BDD6
:10B6A800FFF76AFB0028F8D006480A2303FB0400CA
:10B6B80050F8023F2B608388AB808379AB71002000
:10B6C800EDE700BF8A3400204FF6FF7398422DE95A
:10B6D800F04106460CD00C4F00244FF00A0808FB36
:10B6E80004F3A5B2DB5BB34205D00134142CF6D1C8
:10B6F8004FF6FF7504E02846FFF73EFB0028F4D01C
:10B708002846BDE8F08100BF8A340020038843B989
:10B71800821C00F10A0312F8010B10B99A42FAD1FF
:10B7280070470120704710B50446FFF7EFFF58B186
:10B7380022880B889A4208D108220231A01C0BF0FB
:10B748003EFDB0FA80F0400910BD0020FCE71FB5AF
:10B75800044600F0EBFB02AA0DF10601072000F0F9
:10B76800EDFB10B94FF6FF7007E00399204646310C
:10B77800FFF7D9FF18B1BDF8060004B010BD039952
:10B7880020462A31FFF7CFFF0028E4D0F3E7000076
:10B7980013289FBF0A235843014B1952704700BF13
:10B7A8008A34002038B50546FFF78EFF0446284640
:10B7B80000F024FE38B9132C05D80A236343024A43
:10B7C8004FF6FF71D15238BD8A34002030B58DB0A4
:10B7D80014460D4600F110030DF1FF3213F8011D58
:10B7E80002F8011F9842F9D10D22002104A80BF09C
:10B7F80063FD2B788DF81F306B788DF81E30684606
:10B80800AB788DF81D30FFF7C1FE9DF82F302370FF
:10B818009DF82E3063709DF82D30A3700DB030BDAB
:10B8280030B5037803F0FE03042B85B004460D46BB
:10B8380018D1411C032201A80BF015FD0322211D7C
:10B8480003A80BF010FD02AA03A92846FFF7BEFFC4
:10B85800032202A901A80BF0B2FCB0FA80F040095B
:10B8680005B030BD0020FBE730B50388102B93B03E
:10B8780052D1041D0FCC07AD0FC50FCC0FC594E8EE
:10B88800070012AC85E8070014F8283D03F0FE0312
:10B89800062B4BD000F04AFB9DF820305B08012BAB
:10B8A8003CD9022B42D101AA0DF10201072000F078
:10B8B80045FB00283AD0029920460131FFF7B0FF36
:10B8C8000028F0D005E0029920461131FFF76BFE01
:10B8D80020B3BDF80230BDF81C1016480A224A43AE
:10B8E80085188352AA1C0898C5F80200A588A07973
:10B8F800958090714FF6FF7293420DD012ACADF85F
:10B908000830002304F8443D2046ADF8061000F046
:10B918007BFE2046FFF70EFC13B030BD01AA0DF1E7
:10B928000201072000F00AFB0028CCD14FF6FF7374
:10B93800D1E700BF8A34002090DF7047A5DF704749
:10B94800B5DF70477FB50023ADF80810ADF80A10D1
:10B958006A4602A9064603930093ADF80430FFF740
:10B96800EBFF0546F8B1114B114CE41AE408FDF75A
:10B9780067F8240444F00104034632460D49204682
:10B98800FBF734F8BDF80020BDF8023002B91BB14E
:10B9980009492046FBF72AF8BDF804201AB10749DF
:10B9A8002046FBF719F8284604B070BD987B0300C1
:10B9B800E07B03004A86030094860300D3860300D5
:10B9C80080B14FF0171303601B2303711723C38043
:10B9D800038141F61B32002301618372C3728281A5
:10B9E800184670470E20704713B5034680880C46EA
:10B9F800A0B91A88232A00F0AE8011D8102A25D0C1
:10BA0800112A54D0A37A4BB1E1880020FFF796FFA2
:10BA1800002840F0A6800123A072E37202B010BD96
:10BA28003A2A4DD0552A67D0242AEBD11A7A0B69C5
:10BA38004A73002BE6D04DF67A21ADF80400ADF834
:10BA48000010ADF802008DF8042080E0DB7B0A7955
:10BA58000A73012B13D0022B14D0E18823898B425F
:10BA680005D20020FFF76AFF70B90123E372217B3A
:10BA7800637B8B42C6D20020FFF764FFC2E70B88C6
:10BA8800E380EAE74B88FBE7112802D10123A37280
:10BA9800EDE7FCF7D5FF3B4A3B4B3C499B1ADB08DB
:10BAA8001B04024643F00100FAF796FFDFE717236D
:10BAB800CB800B8141F61B338872C8728B81A1E75A
:10BAC8005B89CA88934228BF1346172B0A6938BF77
