:020000021000EC
:1090000000600020759301005D9301005F930100F3
:10901000619301006393010065930100000000006B
:109020000000000000000000000000006793010045
:1090300069930100000000006B9301006D93010033
:10904000E5B201006F9301006F9301006F9301007F
:109050006F930100000000003DB60100B5BC0100A7
:109060006DBC01007DBC01008DBC01006F9301004F
:109070006F9301006F9301006F9301006F930100E4
:109080006F930100E19401006F9301006F93010061
:109090007D9501006F930100450A02006F93010066
:1090A0006F9301006F9301000000000000000000BA
:1090B00025BA01006F9301000000000000000000CD
:1090C00000000000000000000000000000000000A0
:1090D0000000000000000000000000000000000090
:1090E0000000000000000000000000000000000080
:1090F0000000000000000000000000000000000070
:10910000000000000000000000000000000000005F
:10911000000000000000000000000000000000004F
:10912000000000000000000000000000000000003F
:10913000000000000000000000000000000000002F
:10914000000000000000000000000000000000001F
:10915000000000000000000000000000000000000F
:1091600000000000000000000000000000000000FF
:1091700000000000000000000000000000000000EF
:1091800000000000000000000000000000000000DF
:1091900000000000000000000000000000000000CF
:1091A00000000000000000000000000000000000BF
:1091B00000000000000000000000000000000000AF
:1091C000000000000000000000000000000000009F
:1091D000000000000000000000000000000000008F
:1091E000000000000000000000000000000000007F
:1091F000000000000000000000000000000000006F
:10920000354936480A1A02D0072291438D4634491F
:1092100034480A1A06D00722914381F309880222B2
:1092200082F3148830483149314A00F044F831481B
:109230003149324A00F03FF831483249324A00F0B1
:109240003AF832483249334A00F035F83248334967
:10925000334A00F030F833483349344A00F02BF8F1
:1092600033483449344A00F026F83448344900225F
:1092700000F02CF833483449002200F027F8334836
:109280003349091A082902DB002202604160314A91
:1092900090471F481F49884205D00268043003B434
:1092A000904703BCF7E700208646EC4600200021EB
:1092B000294A9047FEE7884207D0521A05D0037822
:1092C00001300B700131013AF9D17047884202D068
:1092D00002700130FAE7704700600020005800205B
:1092E0000060002000600020101402005C1B0020C1
:1092F00004230020C0930100C09301001812020053
:10930000101402005C1B00205C1B0020C81202002D
:10931000C8120200C8120200C8120200C8120200DD
:10932000C8120200C8120200C81202001014020083
:10933000B81B020004230020042300200423002083
:10934000E82C0020E82C0020E82C0020E82C00204D
:10935000E83400208B93010081C60100FEE7FEE7A0
:10936000FEE7FEE7FEE7FEE7FEE7FEE7FEE7FEE7D5
:10937000704700BF0C4880470C484FF007018843F6
:1093800085460B488047FFF73BBF0A480A490B4A0E
:10939000884207D0521A05D0037801300B70013192
:1093A000013AF9D17047000071930100006000207C
:1093B00061AF0100B4120200481B00205C1B0020BA
:1093C0001FB50021039001AA44F20100CDE901116B
:1093D00000F004F805B05DF804FB000072B6094B1C
:1093E0001B68DB0700D500BEBFF34F8F0649074B54
:1093F000CA6802F4E0621343CB60BFF34F8F00BF33
:10940000FDE700BFF0ED00E000ED00E00400FA052C
:10941000094A537891780133DBB2994208BF00239F
:10942000117899421FBF03705078182303FB002066
:1094300014BF0430002070470423002073B5054694
:1094400000240DF107000E468DF8074000F088FA61
:109450000DF10600FFF7DCFF90B10670094B9DF897
:10946000062045605A709DF8070000F09DFA24B967
:10947000054B4FF48012C3F80021204602B070BDA6
:109480000424F0E70423002000E100E0024B4FF445
:109490003C6043F001031847C812020038B50C4B7A
:1094A0000C4C4FF40032C3F8802001254FF4803378
:1094B000C4F84833C4F808336560FFF7E7FF064B8C
:1094C000A56000241C60FFF7E1FF044B1C7038BD51
:1094D00000E100E0001001402024002011240020C1
:1094E000F8B51F4B1F491B680025C1F84051C1F852
:1094F0004451C1F84851C1F84C51C1F80051C1F86C
:1095000004514BB3D1F8044517490968641A24F093
:109510007F442F461A68A24209D8A41A15441A7C1F
:10952000DE691AB11F74D3E905209047AEB90F4A1E
:109530000F4B11781B788B4205D10133DBB2022B24
:1095400008BF0023137012780A4B43F822500A4BCD
:109550004FF48012C3F80021F8BD3346DAE700BFAC
:109560002424002000100140202400201D2400207D
:109570001C2400201424002000E100E02DE9F04F1D
:10958000A04AA14913780978A04D994285B03CD0F2
:109590000133DBB2022B08BF002313709C49127801
:1095A0009C4B0F6853F822003B1823F07F430022A6
:1095B0000B602B6816461446944613B942B12B60D3
:1095C00006E0196881420ED902B12B60091A1960B0
:1095D0004FF001082B68DFF844A201930027BEB9C1
:1095E000DFF840B266E0401A0C44D968C3F800C006
:1095F000D3F81CE031B13A1922F07F42C3E90121CE
:10960000DE611E4601227346D7E70026B046E1E739
:109610003446F6697E4A63681268DFF80CC2A068B7
:10962000991A21F07F41614500F2A5800144216033
:10963000012222742A680023C4E90133E361002A6D
:1096400040F0A2802C60CAE75A1C9BF80210D2B2EC
:1096500091428BF8002004BF00228BF800201822D2
:1096600002FB03B31A799C68022A1CD0032A12D089
:10967000012A1FD1207CE8B9D3E90312A2605A69FC
:10968000E2609A69644BA2611B78002B0CBF0B4609
:1096900003466360BEE700222B681146002B66D1AB
:1096A00042B12B6006E029680A468946002A59D152
:1096B000002323749BF800309BF801209A42C3D109
:1096C0002B682FB9019A9A4202D1B8F1000F43D00A
:1096D000002B73D0D3F800A0504D4D4BD5F8047536
:1096E0001C68DFF848813E1B98F8003026F07F4662
:1096F00003369BB94FF48033C5F84433C5F80433BF
:10970000474B4FF400324FF00109C3F880211A6033
:10971000C5F80090FFF7BAFE88F80090B2452CBF5C
:109720005444A41924F07F44C5F84045D5F80435C5
:10973000DB1B23F07F43E41B033324F07F44A3426D
:109740000AD9D5F80435C5F84035FFF79FFE344BEC
:109750004FF40032C3F800212F4B00221A7005B0DD
:10976000BDE8F08F94422CD09146D2699EE71974DF
:109770000122DB6992E7D31A23F07F43834234BF8F
:10978000C31A0023236053E721681368994213D852
:10979000591A1160E26155E7091AD8691A4638B1B9
:1097A000034618688842F7D3401A186018461346D3
:1097B0002160E061DC6112E71346F2E7FFF76EFE1D
:1097C000CAE74C4511D1CB692B6073B9DFF840E093
:1097D0000120CDE90212CAF80800CEF800300E4B85
:1097E0001870FFF753FEDDE902121368D269C9F859
:1097F0001C2012B11068034413602B68994218BFF3
:10980000012755E71C2400201D24002024240020CB
:1098100020240020142400201024002000100140E7
:1098200000E100E004230020FEFF7F00112400205F
:1098300008B5FFF733FE104B00200B2218809A70FA
:109840000E4B18600E4B18700E4B18700E4B4FF4E9
:109850008012C021C3F8802183F814131A6002F12A
:109860008042A2F56F22C2F8080583F81113074B56
:10987000D2F804251A6008BD042300202424002007
:109880001C2400201D24002000E100E020240020F2
:10989000074B9B784BB132B128B10368187C20B9D3
:1098A00059745A617047072070470820704700BFFD
:1098B000042300202DE9F7431E4FBB7805460E46D2
:1098C0009046A3B398B304292FD943697BB3437C53
:1098D0000024012B0DF107000CBF8946A1468DF82D
:1098E000074000F03DF80DF10600FFF791FDD0B103
:1098F00001230370104B4560D3F80435C0E9049888
:10990000C0E902369DF806307B709DF8070000F034
:109910004BF824B9094B4FF48012C3F800212046BC
:1099200003B0BDE8F0830424EFE70724F7E7082439
:10993000F5E700BF042300200010014000E100E033
:10994000064A92783AB130B1426922B100220274DB
:109950000221FFF773BD0820704700BF04230020D9
:1099600070B5EFF3108672B60C4A946801239CB967
:1099700093600B4B0B4DD3F8801029401160C3F856
:109980008050D3F8841051604FF0FF32C3F8842028
:10999000047006B962B670BD0370FAE7282400208F
:1099A00000E100E0FC06FFBD084B9A6810B55AB113
:1099B00050B9EFF3108172B6054A1C6814605C68F8
:1099C0005460986001B962B610BD00BF2824002021
:1099D00000E100E070B5064D0646002455F8043B52
:1099E0000BB1304698470134042CF7D170BD00BF4D
:1099F00040240020033080B240F2FD33984230B55D
:109A00001FD8124B1A783AB91C895D892C4404443A
:109A1000A4B2B4F5806F0AD31A7DA2B99A8BDC8BFD
:109A20002244024492B2B2F5806F0CD201220A8025
:109A30001446142202FB04335A8910445881002032
:109A400030BD0920FCE70720FAE700BF742400209E
:109A50000B4A0C4B5188142000FB0131CB6833B901
:109A60000420496810700122074801F001B805235D
:109A70000649137002238B80012200230968F3E753
:109A80005824002074240020481B00203C2500207E
:109A900007B5002305490093054A096805480823CE
:109AA00000F0B8FF03B05DF804FB00BF3C250020C8
:109AB000DC120200481B002007B50023009301467A
:109AC0000823034A034800F0A5FF03B05DF804FB38
:109AD000D4120200481B002013B500230C4600934B
:109AE00001460423074A084800F094FF38B9074BA1
:109AF000142202FB04340123237402B010BD0E2093
:109B0000FBE700BFD0120200481B00207424002095
:109B100037B50A480A4B42689C8819685388032560
:109B2000033305709BB2002000909B0001EB840181
:109B3000044800F06FFF03B030BD00BF5824002080
:109B40003C250020481B002010B50146044800F0C9
:109B50003DFE1C220446002107F0FBFA204610BD02
:109B60002825002068B10268084B9A4209D1406854
:109B7000074B984207D0013398420CBF01200320C5
:109B80007047032070470020704700BFDEC0ADDE85
:109B9000FE011EF14388033300EB8303994209D38E
:109BA00082884FF6FF739A4206D00088B0FA80F0A0
:109BB0004009704702207047012070472DE9F843A3
:109BC0000223DFF860800B800D46174600F58056B3
:109BD00000F108044FF00109B4420FD223680133A9
:109BE0000CD031462046FFF7D5FF48B10FB187F8BA
:109BF000009002280BD14FF480632B80BDE8F883DE
:109C0000A368D8F80020934201D9C8F800302B8807
:109C10006288033313442B806388033304EB83048B
:109C2000DAE700BF6C240020154A142303FB002050
:109C300070B50B6844680D4604F58056ABB15C887E
:109C4000033403EB8404B4420DD2236801330AD0F9
:109C500031462046FFF79EFF01280BD010F0FF0F82
:109C600005D00228EFD1002003E00834EBE72C6098
:109C7000012070BD6388033304EB8304E3E700BF76
:109C800074240020436873B504460D466BB3244A20
:109C9000D1688B4229D31269934226D813F003026C
:109CA00023D120490089098988421ED120689968FA
:109CB00088421AD11C494868834203D900F5805074
:109CC00083420ED38A6993420DD902F580529342A2
:109CD00009D201232B800020B0FA80F0400902B0A5
:109CE00070BD1346F6E70A20F6E700232B801E46D8
:109CF000019601A92888FFF797FF30B92B88013317
:109D00009BB2012B2B80F3D9E9E7019B226899686C
:109D10009142EED16360034B1B892381DFE700BFD3
:109D2000481B002058240020742400202DE9F8430B
:109D30001C461C4B1B7806460F4615466BB372B388
:109D40006CB3DFF868804FF01409A388012B01D9A8
:109D50000A2020E009FB03F318F803302BB9214651
:109D6000A088FFF761FF20B92060A3880133A3809A
:109D7000EBE723681EB1998832889142EFD11FB179
:109D800019883A889142EAD19A68C5E90023064BBE
:109D90001B892B810020BDE8F8830220FBE705200A
:109DA000F9E700BF5024002058240020742400202C
:109DB00008B5074B191D5888FFF736FF18B1BDE8E5
:109DC0000840FFF7A5BEBDE80840FFF741BE00BF51
:109DD000582400202DE9F04FA04FDFF8A49289B05D
:109DE0000646B8463B6823B949469D4800F028FD21
:109DF0003860D8F8005029784B1E052B00F2FA8005
:109E0000DFE813F006005E005E00EE00EE005C018D
:109E100026B1944B00225A600124ECE02B79032BED
:109E20001DD8DFE803F015022A358F490B78022B85
:109E3000084619D00B7D022B4FF0010316D11422D6
:109E40005343C2180020C8545068FFF735FE03E0A2
:109E500001232B71FFF71CFE002800F0BC80814B12
:109E600000225A600E24C6E00023E8E77D4A137002
:109E70000023536041F61D54BDE07C497C4800231B
:109E800002222B718A800122096800F0F1FDE3E7CC
:109E9000764C00262E712068734DFFF70DFE754B32
:109EA000D4F800C05A8814235343EA18EE5451687A
:109EB0002160A188C2F804C011810222A280CBE7F0
:109EC000B5F814A0AA7DDFF8A0B1AEB1022AEB88E4
:109ED00006D9142101FB0AB1DA1C088902440A815F
:109EE000142202FB0ABAC3F57F43BAF80A20FD33F5
:109EF0001344AAF80A308FE7142303FB0AB3188926
:109F00005C6804EB8004062A68D8DFE802F0274D7D
:109F100035431D59040041F61D54AA7DEB88022AE1
:109F200006D9142101FB0AB1DA1C088902440A810E
:109F3000142202FB0ABAC3F57F43BAF80A20FD33A4
:109F40001344AAF80A3056E04B484C4900234360BA
:109F5000AB690360FFF796FE002871D00223AB7552
:109F6000002300930423EA182146414800F052FDE3
:109F7000002830D00E24D0E72B69002B14BF032318
:109F80000123AB750023009305F10C02042304F1B7
:109F90000801EAE70123AB750022EB8800929B00E1
:109FA0002A6904F10C01E0E703290CBF052306230D
:109FB000AB7500230093042305F10802E118D4E7F0
:109FC0000623AB752D4B19882B4B5868FFF784FD82
:109FD00004460028A1D109B0BDE8F08F0F249CE70A
:109FE000002E7FF419AF2B79012B4BD0E3B1022B5C
:109FF0003FF440AF0F241422002103A807F0A9F872
:10A0000041F61D539C4208BF0024D8F80030049448
:10A010001A78023A042A00F20581DFE812F0E6001D
:10A02000F20015011D01240102232B710DF10A011B
:10A03000EB68039303A8CDE90466FFF723FE08B994
:10A040000A24D8E70498BDF80A108388EB800388B7
:10A050002B81FFF741FD044627E000BF702400205C
:10A060002825002050240020742400203C250020B6
:10A07000481B0020582400203424002048250020BC
:10A0800068240020DFF8FCA103AA53463146A81D2E
:10A09000FFF74CFE044658B9BAF804100498FFF7CD
:10A0A0001BFD04460A2C3FF4E5AE002CA3D192E739
:10A0B00008223146504607F04CF8F3E7002E7FF4B3
:10A0C000ABAE6B4B1A7BAAB11E731A78013A062A03
:10A0D00090D801A151F822F07FA10100A5A10100B3
:10A0E000C3A10100C9A10100F59F0100CFA101009A
:10A0F000E1A101001A78072AE7D801A151F822F05E
:10A1000021A10100CBA00100CBA0010047A10100CB
:10A110005BA101007BA101007BA1010043A1010023
:10A120001A89544901321A8100225A801A730A7816
:10A13000B2FA82F252099A720A7DB2FA82F2520996
:10A14000DA72012207E04C4958688A884088033255
:10A1500002448A8002221A70B7E7464C5A88464960
:10A16000142505FB024208685468506088881081F5
:10A1700002228A800C600622EDE70722EBE79A7A3A
:10A1800032B9DA7A8AB900221A705A805A6071E6B6
:10A19000384900229A72CA68002AF2D1097C002943
:10A1A000EFD05A80FFF704FE55E70022DA72314AF9
:10A1B000116A0029E7D192F82420002AE3D0012275
:10A1C000EFE7FFF7A5FC46E7FFF742FC43E7294A24
:10A1D0005B88142101FB03235868FFF76DFC3AE705
:10A1E00000225A60FFF754FC35E701228DF80C205D
:10A1F0001A89ADF818209A88DB68ADF81A20059303
:10A2000010E002228DF80C201A89ADF818209A88E7
:10A21000ADF81A20DA689B7D05929A1F534253418C
:10A220008DF81C3003A8FFF7D5FB002649461348DC
:10A23000C8F8006000F02FFB0121114800F0D3FBAB
:10A2400000287FF4CFADC6E603228DF80C20DA8813
:10A25000ADF818201A89CFE70422DB888DF80C208E
:10A26000ADF81830DEE705238DF80C30DAE700BFD3
:10A2700058240020742400203C250020282500209C
:10A28000382500204C2500204068FFF7A3BD0000C2
:10A2900008B50121044800F090FB18B9BDE808405A
:10A2A000FFF798BD08BD00BF382500202DE9F34118
:10A2B0009846354B1B7806460D46002B5BD000298F
:10A2C0005BD009884FF6FF73994258D06B88002BFA
:10A2D00055D06B689B0754D14AB92F890DF1020103
:10A2E0003846FFF787FB30B102B0BDE8F081138834
:10A2F0005788ADF8023001A8FFF726FC044658B98C
:10A30000BDF80230214A142101FB03235889033888
:10A31000C01B58810820E7E700238375BDF8023091
:10A3200083826B68036180F800800121184800F087
:10A330004FFB2B882381B8F1030F6B88A38004BFE8
:10A340000423A3754FF0000508BF3368E06008BF21
:10A35000A361E780658101A90E4800F061FA36B17A
:10A36000E36833600C4B75601B89B5723381FFF76E
:10A370008FFF0020B8E70220B6E70520B4E70420ED
:10A38000B2E70320B0E700BF50240020742400206F
:10A390006C240020282500205824002008B5084BF4
:10A3A0001A68042A09D01968064A42F821000121D6
:10A3B000184600F00DFB002008BD0C20FCE700BF94
:10A3C00044250020402400202DE9F04F14228BB0BA
:10A3D00000210DEB020006F0BCFE734A137803F077
:10A3E000FF01CDE901123BB105A8FFF7F3FA002701
:10A3F00038460BB0BDE8F08F029B181D00F0FEFA46
:10A400000028F4D14FF010234FF080525B6912699D
:10A41000664C591C04BF3023534323610022A3F52B
:10A4200040536349E360204600F0EBFA039407468B
:10A430000028DDD11C238C225E495F48DFF884911F
:10A44000DFF8848100F08DF93D46BA464FF0030BEA
:10A450003C46039BDE68564430463146FFF782FB9C
:10A4600001284DD042B2002A36D0032822D106F569
:10A4700080520868013040F08A8004318A42F8D165
:10A48000D9F800203AB902220123C9F80060A9F8DE
:10A49000042001930CE014226243022008EB020125
:10A4A00008F80200454A4E60548001340881A4B285
:10A4B00045F001050AF5805ABAF5405FC9D1BBF1F4
:10A4C000010F98BF0025EDB2022D03D0062D35D027
:10A4D000002D3CD10B278BE71421614308EB0100D1
:10A4E00008F8012001F1100208314660424441445D
:10A4F0003046FFF763FB45F002050134A4B2D9E70B
:10A50000019B63B11422624308EB0201022008F8A8
:10A5100002000134D9F800204A600881A4B2002268
:10A520002749C9F800603046FFF748FBB9F8042016
:10A53000022A0CBF042208221543BBE7029A01231A
:10A54000137005A800235360FFF744FA50E704A8EE
:10A55000FFF7FAFAC8B10123013D03700A2D09D8AB
:10A56000DFE805F006080608070807080F110F00C6
:10A570000023037104A9104800F052F9FFF788FE88
:10A5800036E70323F5E70223F3E7082730E70BF16B
:10A59000FF321FFA82FB1422624308EB02014E6075
:10A5A000032108F80210A8E750240020481B0020CF
:10A5B000F01202009C2400202825002058240020AE
:10A5C000402500203C2500207424002073B50D4652
:10A5D0000446C8B1C1B10DF10601FFF753FBA8B1A4
:10A5E0000B4BBDF806006668142202FB0030012107
:10A5F0000C3000F0EDF963682E600C336B600123C2
:10A60000A372002002B070BD0520FBE70A20F9E725
:10A610007424002013B50446A8B10DF10601FFF71C
:10A6200031FB90B10B4ABDF80630142101FB032326
:10A63000DA6862B1A27A52B1DA680020013ADA60CF
:10A64000A07202B010BD0520FBE70A20F9E7062042
:10A65000F7E700BF7424002002230022FFF726BE84
:10A6600018B103230022FFF721BE05207047000028
:10A67000104B1B7813B50446ABB14FF6FF739842ED
:10A6800013D001A8FFF760FA88B1052303700123F6
:10A690000371C48001A9084800F0C2F8FFF7F8FD73
:10A6A000002002B010BD0220FBE70420F9E70820DB
:10A6B000F7E700BF50240020282500200E4B1B7810
:10A6C00007B5A3B101A8FFF73FFA90B106230370C5
:10A6D00001A90A4800F0A4F8094B1A780AB101222E
:10A6E0001A73FFF7D5FD002003B05DF804FB0220CC
:10A6F000FAE70820F8E700BF5024002028250020B2
:10A700005824002007B5ADF80600ADF804100DF18F
:10A71000060001A9FFF70AFB03B05DF804FB07B5CB
:10A720001346ADF806000A4600200DF10601FFF7BA
:10A73000FDFA03B05DF804FB07B51346ADF806005B
:10A740000A460DF106000021FFF7F0FA03B05DF8AC
:10A7500004FB20B119B103680B600020704705208D
:10A76000704710B561B1B2FBF3F403FB1424A4B23B
:10A7700044B9C0E9001484608281C381204610BDC1
:10A780000E20FCE70920FAE782B050E8022FC188CA
:10A79000B2EB324F4FF0000317BF92B241EA0141D2
:10A7A00042EA014104E04268B2EB324F08BF0123A4
:10A7B00040E80212002AE8D18DF807309DF80730F2
:10A7C000002B0CBF1120002002B0704737B550E8B5
:10A7D000013F9DB2C48925448489A54228BF2D1B11
:10A7E0000489A54202BFBFF32F8F002207E0C5EA0C
:10A7F000030540E80154002CE9D14FF001028DF827
:10A8000003200193019B9DF803200B6002F0FF03DE
:10A8100022B10B880068184403B030BD1846FBE72E
:10A820000A884B889A4209D150E8012FC2EA0242B5
:10A8300040E80123002BF7D101207047002070472A
:10A8400037B550E8023F1FFAA3F5C488A54202BFFE
:10A85000BFF32F8F00220DE0C48925448489A542CF
:10A8600028BF2D1BC3EA054540E80254002CE8D15F
:10A870004FF001028DF803200193019B9DF8032006
:10A880000B6002F0FF0322B14B880068184403B04C
:10A8900030BD1846FBE70A884B889A4209D150E838
:10A8A000022FC2EA224240E80223002BF7D1012006
:10A8B00070470020704701F01F024B0901219140B1
:10A8C00000EB830000F063B84B0910B501F01F04E2
:10A8D0000121A14000EB830000F04EF8E04000F0C1
:10A8E000010010BD01F01F0301229A404B0900EB4B
:10A8F0008300D14300F056B84B0901F01F0150F816
:10A900002300C84000F0010070472DE9F0474E1EBB
:10A91000760980460F460136002558F8254008EB99
:10A920008509E44394FAA4F4B4FA84F44FEA451A8E
:10A93000202C06D10135AE42EFD83C462046BDE87A
:10A94000F0875444A742F5D921464046FFF7BCFFA3
:10A950000028F3D0D9F80040E44394FAA4F4B4FA00
:10A9600084F4E5E750E8002F0B4640E8003C9CF0FB
:10A97000000FF7D11046704750E8002F42EA01035C
:10A9800040E8003C9CF0000FF6D11046704750E8BC
:10A99000003F43EA010240E8002C9CF0000FF6D192
:10A9A0001046704750E8003F03EA010240E8002CDF
:10A9B0009CF0000FF6D11046704750E8002F02EBD4
:10A9C000010340E8003C9CF0000FF6D110467047B0
:10A9D00050E8003F03EB010240E8002C9CF0000F20
:10A9E000F6D11046704750E8003FA3EB010240E863
:10A9F000002C9CF0000FF6D1104670470121FFF7A4
:10AA0000BBBF0B4620B11BB1036011461B68184742
:10AA10000E2070472DE9F04108B302B3D0F800E0F2
:10AA2000BEF1000F1ED0FBB14768D7F80480B3FB1E
:10AA3000F8F708FB1737BFB942EA010C1CF0030F07
:10AA400014D1C768B94211D34C1E05691C44AC42ED
:10AA50000CD8DEF80C40A446BDE8F04160470E205B
:10AA6000BDE8F0810820FBE70920F9E71020F7E7AF
:10AA7000F0B5D8B1D0F800C0BCF1000F18D0CAB101
:10AA80004768D7F800E00EF1FF370F4214D1C768CE
:10AA9000B94211D34C1E05690EFB0244AC420BD8DF
:10AAA000DCF81040A446BDE8F04060470E20F0BD41
:10AAB0000820FCE70920FAE71020F8E729DF7047B3
:10AAC00028DF704770B503689D6886B004460E465F
:10AAD0006DB114220021684606F03BFBA368059384
:10AAE000237901962BB1012B0DD06846A84706B0FB
:10AAF00070BD01238DF8003023690293E36803934E
:10AB000063690493F1E702238DF80030E3681B03C7
:10AB10000293F5E70846704700207047024B187A09
:10AB2000003018BF01207047F0250020034B187A31
:10AB30000122B0FA80F05A7440097047F0250020D5
:10AB400008B510461A4606F0DBFA002008BD0000E2
:10AB500008B514220021044806F0FBFA0348FFF769
:10AB600013FE002008BD00BFF0250020E0250020D6
:10AB700010B5094C094B43602046FFF73FFF40B931
:10AB800005F046FF1C2320748C2205490548FFF779
:10AB9000E8FD002010BD00BFF0250020E4120200F7
:10ABA00054250020E025002070B5244D244E2B7A3A
:10ABB0002C463BB923492448FFF742FE306008B9D0
:10ABC000686070BD0223237233681A7972B1012A5A
:10ABD00024D018460321FFF775FF0023237263601A
:10ABE00018491948BDE87040FFF755BED3E9052064
:10ABF000121AB2F5805F28BF4FF48052D3E90315D3
:10AC00009208012A014438BF01222844FFF756FF69
:10AC100050B11128DDD101232372D2E7D3E9030219
:10AC20001044FFF74DFFF3E7237C002BC9D1014609
:10AC3000BDE87040022000F009B800BFF0250020F8
:10AC40000826002004260020E025002038B5831EB9
:10AC5000012B45D8234C237A002B41D0022B09D15C
:10AC6000032830D0204B1B680022E2601A793AB1E9
:10AC7000012A22D0637C7BBBBDE83840FFF794BF3C
:10AC8000D3E905128D1AB5F5805F94BF521902F50C
:10AC900080529A619142EDD102284FF0000308BF23
:10ACA00019462372104B18BF0D211868FFF70AFFD1
:10ACB0000E490F48FFF7EFFDDCE71A6901321A6110
:10ACC0005B699A42E7E7E3680133082B01D8E36048
:10ACD000D0E70023E360DFE7BDE8384005F088BE39
:10ACE00038BD00BFF02500200826002004260020E3
:10ACF000E025002000F0FD03012B08D1044B0022C9
:10AD00005A74421E504250411874FFF74DBF7047AD
:10AD1000F025002010B5064C201DFFF76FFE28B966
:10AD2000637C1BB9BDE81040FFF73EBF10BD00BFFC
:10AD3000F02500202DE9F34180460D460F4801A97A
:10AD400016461F46FFF742FD0446A8B11C2200210B
:10AD500006F0FFF92D0B0123237101A9C4F800802F
:10AD6000A760E56066610548FFF75AFDFFF7D2FF6F
:10AD7000002002B0BDE8F0810420FAE7E0250020C1
:10AD80002DE9F74381468846104801A917461E461B
:10AD9000FFF71CFD0446B0B11C22002106F0D9F9D2
:10ADA00000250A9BA36001A92571C4F80090C4E99D
:10ADB000037866610548FFF733FDFFF7ABFF2846D0
:10ADC00003B0BDE8F0830420FAE700BFE0250020CF
:10ADD00033DF704741DF7047064B10B500241C700D
:10ADE000054B1C60BFF35F8F0449054800F068F80D
:10ADF000204610BD15260020182600201013020042
:10AE00000C26002008B505F003FE18B1BDE8084087
:10AE1000FFF7E0BF20BF40BF20BF08BD70B5224C88
:10AE2000054601212046FFF79DFDBFF35F8F2646B3
:10AE300038B9042D0AD01D4B1A781AB1BFF35F8FB1
:10AE4000206070BD1A4A157001221A70194C184DF5
:10AE5000636828787BB90238012813D8BFF34F8F75
:10AE60001549164BCA6802F4E0621343CB60BFF386
:10AE70004F8F00BFFDE71B68984788B1204600F060
:10AE800029F8E5E705F0C4FD08B1FFF7A1FF4FF091
:10AE900080430122C3F80025BFF34F8F20BFFDE799
:10AEA000BFF35F8F3060CCE7182600201526002006
:10AEB000142600200C26002000ED00E00400FA0516
:10AEC0000B684A684360934208BF0023016008BFD3
:10AED00043607047436843B10268916852680B440D
:10AEE0009342436004BF0023436070470C4B1B78C0
:10AEF000062B10D10B4B1B681A070CD10A4B186894
:10AF000000F0F003302B08D000F0E000A0F1400387
:10AF1000584258417047002070470120704700BFD9
:10AF2000E00F00F0E40F00F0E80F00F0094B1B7891
:10AF3000062B0CD1084B1B681A0708D1074B186861
:10AF400000F0F000A0F13003584258417047002053
:10AF5000704700BFE00F00F0E40F00F0E80F00F0D2
:10AF600008B5FFF7C3FF28B1524B534A1B68C3F320
:10AF700004231360FFF7DAFF10B1504B504A1A60F8
:10AF8000504B514A1B68C3F342331360FFF7CEFFA7
:10AF900020B14E4AD36823F08073D3604FF08043D2
:10AFA0000022C3F80C21C3F81021C3F83825FFF79D
:10AFB000BDFF10B1464B03221A60FFF7B7FF40B147
:10AFC000444B05221A6001229A6700229A603F22B0
:10AFD0005A604FF08052404BD2F80414C3F8201549
:10AFE000D2F80814C3F82415D2F80C14C3F82815A5
:10AFF000D2F81014C3F82C15D2F81414C3F8301575
:10B00000D2F81814C3F83415D2F81C14C3F840153C
:10B01000D2F82014C3F84415D2F82414C3F8481504
:10B02000D2F82814C3F84C15D2F82C14C3F85015D4
:10B03000D2F83014C3F85415D2F83414C3F860159C
:10B04000D2F83814C3F86415D2F83C14C3F8681564
:10B05000D2F84014C3F86C15D2F84424C3F8702514
:10B0600003F54053FB22C3F81825FFF73FFF28B133
:10B070001A4B1B4A1B6803F04F0313604FF08043C9
:10B08000D3F80024D20744BF6FF00102C3F80024B4
:10B09000144B1B68062B08D1134B1B68062B01BFF2
:10B0A000124A136843F480631360114B114A1A600B
:10B0B00008BD00BF240300104035014074C00740A4
:10B0C0000DF0ADBA440200103C050040F0ED00E088
:10B0D000A00500401056004000C00040580200107B
:10B0E000E40E004030010010340100103C17004015
:10B0F0005C1B00200090D0034FF0A043D3F8040560
:10B100006FEA103000F0010070474FF0A0434FF499
:10B110008052C3F80C2570474FF0A0434FF4805283
:10B12000C3F8082570474FF0A0434FF48052C3F88E
:10B13000082570474FF0A0434FF48052C3F80C2508
:10B1400070474FF0A042D2F80435D94301F4805142
:10B1500003F48053C2F80815C2F80C35704700009C
:10B1600038B5074C051E04F1080318BF1C462368B8
:10B170002BB11A6822605B6828469847F7E738BD0C
:10B180002426002020B9054B01225A70FFF7E8BFA2
:10B19000012802D1014A9070F8E770471C26002070
:10B1A00020B9034B01225A70FFF7DABF704700BF86
:10B1B0001C26002038B50B4C237883B90A486360FD
:10B1C000A3602361E36000F061F8054605F020FC10
:10B1D00008B900F067F801232370284638BD85259B
:10B1E000FBE700BF1C26002085B1010037B50B4CE2
:10B1F00000230DF107008DF80730FEF7B1FBE3687F
:10B20000013BE360E56815B900F060F8A5709DF8B2
:10B210000700FEF7C9FB03B030BD00BF1C260020AD
:10B22000012813B509D018B103281CD002B010BDF5
:10B230000F4B0122C3F88020F8E70E4C00230DF1DC
:10B2400007008DF80730FEF78BFB23780BB9FFF76B
:10B25000B1FFE3689DF807000133E3600123A370A9
:10B26000FEF7A2FBE2E700F01DF8FFF7BFFFDDE706
:10B2700000E100E01C26002000F18040002382B0A5
:10B28000036003680193019B02B07047044A13797D
:10B2900023B90121106091801846704785207047BE
:10B2A00030260020084B1A68D20706D4C02283F843
:10B2B00000230122C3F880211A604FF0804301224D
:10B2C000C3F81825704700BF00E100E0044B0122DD
:10B2D0001A604FF08042D2F81834DB03FBD4704779
:10B2E0000C000040124B1B6810B573B14FF4807016
:10B2F000FFF7C2FF4FF080430122C3F808230D4B34
:10B30000587910B95A711B6898470B4B1B6873B179
:10B310004FF48270FFF7B0FF4FF080430222C3F872
:10B320000823044B01201B68BDE81040184710BDDE
:10B3300000010040302600200401004000F1804060
:10B3400000F5C040002382B0036003680193019BB5
:10B3500002B07047800000F1A040D0F8003723F41D
:10B360004033C0F80037D0F8003743EA0141C0F855
:10B3700000177047054B4FF0FF32072843F8202095
:10B3800084BF1B1883F84820704700BF3826002070
:10B3900010B5184C94F8583053BB04F130032021F9
:10B3A000FF22013911F0FF0103F8012BF9D1C8B2D6
:10B3B000FFF7E0FF01310C29F9D1042200210E48EA
:10B3C00005F0C7FE0D4BC02283F806234022C3F8C8
:10B3D00080214FF4BE701A60FFF7B0FF084B4FF0AA
:10B3E0000042C3F80423012384F85830002010BD24
:10B3F0000820FCE7382600208C26002000E100E031
:10B400000060004030B52E4B1A1892F930400134DC
:10B4100053D18C78002C4CD01C46002254F8045B8D
:10B42000013541D11C1884F83020002443F8224013
:10B43000920002F1804202F5C0420B78D2F810551A
:10B440004C7825F498151B04240525F4F85504F4CC
:10B45000801403F44033C2F8105523430402D2F899
:10B46000105504F4F85423432B43C2F810354A789E
:10B470000123012A4FF0A04203FA00F30CBFC2F8E7
:10B480000835C2F80C3500F5E073032142F82310AB
:10B49000C2080C49012300F0070003FA00F08B5C9E
:10B4A00018438854002003E00132082AB6D1042052
:10B4B00030BDFE2382F83030D9E70820F8E700BF1E
:10B4C000382600208C260020F0B5374B1C1894F944
:10B4D0003040002C1C4664DA8D78C5F34005002D01
:10B4E0000BBF082300230C260826B34201D10420F9
:10B4F000F0BD54F8237001373FD1261844F82320BB
:10B5000086F8303015B9E21882F848008A78550775
:10B5100013D4D60733D5820002F1A042D2F80057E7
:10B5200025F00205C2F80057204EC50800F00707B5
:10B530000122BA40775D3A4372558A780D7812F04D
:10B54000020225D09B0003F1804303F5C0430202B1
:10B55000D3F8101521F4473121F44071C3F81015C8
:10B560002D04D3F8101502F4F85205F440352A439F
:10B570000A43C3F810250020BAE70133B5E74D7838
:10B5800000F5E0724FF0A046AD0046F82250CBE740
:10B59000083B234493F8501041EA851583F8505036
:10B5A000E9E70820A4E700BF382600208C26002009
:10B5B00038B5204C251895F93020072A18DD22448B
:10B5C00092F848309B09032B0DD14FF0A043D3F8DC
:10B5D0001035C34013F0010F0CBF02210321BDE859
:10B5E0003840FFF7B7BE012B14BF03210221F6E755
:10B5F000D3B2072B1CD8930003F1804303F5C0435B
:10B60000D3F8100540F00100C3F8100502F1400026
:10B61000800080B2FFF792FE51B195F9303054F8B6
:10B6200023302BB1012303FA02F2034BC3F80423A6
:10B6300038BD00BF38260020006000402DE9F04FE3
:10B6400085B00024594D01944FF48072012102F11C
:10B65000804303F5C04390B21B68012B06D1D5F897
:10B6600004330B4202D0FFF769FE0C430432B2F5FB
:10B67000907F4FEA4101EAD14D4B1B68012B0AD163
:10B680004FF4BE70FFF75AFE4FF0A04344F0004461
:10B69000D3F81035019314F0FF0F1AD0454F01264F
:10B6A0000025344210D0AB0003F1804303F5C043C2
:10B6B000D3F81005D3F8101557F8253023B1C1F38E
:10B6C0000141C0F3042098470135082D4FEA460692
:10B6D000E7D1002C63DA00224FF0FF33CDE90223DB
:10B6E000344D354E0024A24601274FF0A04816F9EC
:10B6F000012B531C46D0D2B222F0C0094FEAD90127
:10B7000004A8084402F0070310F804CC07FA03F376
:10B710001CEA030F36D005EB090C92099CF930C0E6
:10B7200055F82CB0BBF1000F0AD1032A2AD10DF134
:10B73000080E1EF801C04CEA030C0EF801C001E02F
:10B74000032AF4D009F5E07110F80C0C58F8211018
:10B750001842C1F3014105D0022913D1032A0BD1AC
:10B76000114604E003290DD1032A05D102214846E0
:10B77000FFF7F0FD0134E4B2BBF1000F02D0114637
:10B780004846D8470AF1010ABAF1040FAFD134B1E3
:10B790004FF0A043019AD3F81035934202D105B07F
:10B7A000BDE8F08F0193029B03939AE7006000408D
:10B7B0007C6100403826002088260020002343506A
:10B7C00082B043580193019B02B0704738B51D46C3
:10B7D00002230B710B684A7104467BB112F0040F0F
:10B7E0000CBF82219221100748BF41F02001D306EF
:10B7F000236848BF21F08001C3F8001320684FF48C
:10B800008271FFF7DBFF206812F0800F05BF012374
:10B8100043514019002038BD2DE9F04F07794E4CB7
:10B820004FEAC70804EB080385B01B7906460D46AE
:10B83000002B40F08E8044F8372001396A4605F12C
:10B8400003094FF0010A4FF0A0404FF0030B11F82D
:10B8500001CFBCF1FF0F78D02CF0800313600AFAFF
:10B8600003FE03F5E0731CF0800F14BFC0F808E579
:10B87000C0F80CE540F823B0494502F10402E6D1D6
:10B880003068009BC0F86035019BC0F86435029BAE
:10B89000C0F86835039BC0F86C350123C0F800354B
:10B8A000AA792B896979C0F80C15C0F80425C0F86D
:10B8B00008356B89C0F810350023C0F800324FF40A
:10B8C0008E71C0F80033FFF779FF4FF4887130684C
:10B8D000FFF774FF4FF48A713068FFF76FFF4FF482
:10B8E00082713068FFF76AFF54F8373033B332683B
:10B8F0002979120B53B2002BA8BF03F16040D2B2DA
:10B900004FEA5313B8BF02F00F054FEA4111B4BF1D
:10B91000124800F561404FEA8303C9B203F1604366
:10B92000B4BF415580F8001303F5614302F01F02D4
:10B93000012101FA02F2C3F880211A604444012374
:10B940002371002005B0BDE8F08F4FF0FF33136086
:10B9500092E70820F6E700BF9426002014ED00E0EF
:10B96000F0B40D461C461A490379D5F800C0AF88DB
:10B97000AE68ED6801EBC3010368C3F820C5C3F8E6
:10B980002475C3F82865C3F82C55C3F840C5C3F81F
:10B990004475C3F84865C3F84C5502F0010505EB42
:10B9A0005202C3F81425E20710D414F0020203D0A7
:10B9B000002D14BF08220422002DC3F80022E2B299
:10B9C00014BF0C230823F0BCFFF700BF1022F3E7DD
:10B9D000942600200379084A016802EBC302137918
:10B9E000D1F80411DBB219B9981E18BF01207047B5
:10B9F00001201071704700BF9426002038B505461D
:10BA00000C46FFF7E7FF50B92B6801225A60284621
:10BA1000FFF7E0FF18B9002CF9D1204638BD01240A
:10BA2000FBE700002148D0F8103110B55BB14FF4AE
:10BA30008871FFF7C3FE1E4B5A79510703D51B6867
:10BA40000BB1012098471948D0F814315BB14FF47D
:10BA50008A71FFF7B3FE164B5A79120703D51B689C
:10BA60000BB1022098471148D0F81C315BB14FF45C
:10BA70008E71FFF7A3FE0E4B587910F0100002D123
:10BA80001B6803B198470948D0F8043163B14FF4FB
:10BA90008271FFF793FE064B01221A711B681BB1DE
:10BAA0000320BDE81040184710BD00BF00C0014092
:10BAB000942600202DE9F743002406460F4600F5A2
:10BAC000A0754FF48038A146A0002B6800F5A07047
:10BAD00080B26BB1D6F8043308FA04F21A4207D0E8
:10BAE000C5F800902B680193019BD7E90031984776
:10BAF0000134042C05F10405E6D103B0BDE8F08360
:10BB0000F7B50579334C0C266E43A7193B7A002B09
:10BB10005DD1A2514A687A60467900681F46DAB260
:10BB200096424BD8020B53B2CE78002BA8BF03F13C
:10BB30006047D2B24FEA5313B8BF02F00F0C4FEA7E
:10BB40004616B4BF244F07F561474FEA8303F6B2A8
:10BB500003F16043B4BF07F80C6087F8006303F596
:10BB60006143012602F01F0206FA02F2C3F88021A7
:10BB70001A60D0F804254B7822F0030203F0030387
:10BB80001343C0F80435D0F808258B7822F003025F
:10BB900003F003031343C0F80835D0F810250B78E1
:10BBA00022F00F0203F00F031343C0F810350C23EB
:10BBB00003FB05440020267203B0F0BD9A0002F595
:10BBC000A0720133875082580192019AA7E708209A
:10BBD000F2E700BF9C26002014ED00E0036801227C
:10BBE0001A600379034A0C2101FB032302221A7213
:10BBF000704700BF9C260020036801221A6070472E
:10BC0000036801225A60704703680122DA607047B6
:10BC100037B54FF480348C4000687BB101F150039C
:10BC20009B000025C550C3580193019BC0F80443F5
:10BC300001F5A87140F8212003B030BDC0F80843D9
:10BC4000F6E770B4046840F20116D4F800528E4052
:10BC500025EA0605C4F80052D4F800522B43C4F874
:10BC600000329DF80C3070BCFFF7D2BF014902488A
:10BC7000FFF720BF9C2600200080004001490248B9
:10BC8000FFF718BFA8260020009000400149024895
:10BC9000FFF710BFB426002000A0004000F1804054
:10BCA00000F5E040002382B0036003680193019B2C
:10BCB00002B07047F0B5534B534C1B6885B0002B56
:10BCC0003DD04FF4827094F82E20FFF7E7FF2AB39F
:10BCD00094F82F3013BB4D4B1B68002B33D04FF41F
:10BCE0008070FFF7DBFF94F82D20638B91B28B42BD
:10BCF0004ED95B1A21899BB26383CB1A616801EB31
:10BD00004301434BC3F82C16C3F830264FF482701E
:10BD1000FFF7C4FF3F4B01221A6014E063680293EF
:10BD20002389ADF80C30E36800218DF8041023BBA3
:10BD30002374236801A89847002384F82F3094F8CF
:10BD40002E30002BC7D1344B1B685BB14FF4887089
:10BD5000FFF7A4FF0023237402238DF8043001A809
:10BD6000236898472D4B1B6813B34FF48A70FFF775
:10BD700095FF0023237405B0F0BD208B60836360C2
:10BD80002081E160002AD4D1214B01221A60D0E742
:10BD9000BCD1E368012184F82F103BB100216183FD
:10BDA0001B49C1F82C36C1F83026AFE76383ADE7F5
:10BDB00066694FF000470125002EDCD0B6FA86F206
:10BDC00027FA02F34632920026EA030602F1804384
:10BDD00003F5E0431B68002BEED01046FFF75EFF33
:10BDE000A2F58C72D30882F00402C2F380028DF8AF
:10BDF00008308DF804508DF80920236801A8984771
:10BE0000DAE700BF04710040C02600200071004046
:10BE10000070004004700040107100401471004038
:10BE200038B51D4B044693F82C0098BB1B4A19608B
:10BE30002178C2F8F0156178C2F8F415E578187425
:10BE4000012183F82C1083F82D00586183F82F000E
:10BE500083F82E506FF00043C2F808334FF482701D
:10BE6000FFF71CFF4FF48070FFF718FFA3780C4812
:10BE70005B01DBB280F807338023C0F880310360B8
:10BE80000223C2F804330DB1C2F80413C2F800153E
:10BE9000002038BD0820FCE7C026002000700040CC
:10BEA00000E100E02A4B1A7C70B502F0FF05002A81
:10BEB0004BD10A79012A9CBF264CC4F8005500F1E9
:10BEC0000C0503EB4504247924B993F82D40013483
:10BED00083F82D4003EB4503CC790D7A8E781C71E5
:10BEE0005D714B7836021B0106F4E06603F0300307
:10BEF00033430E7806F003063343CE78360306F458
:10BF000080563343160406F4E02633434E7989798C
:10BF1000360506F480160906334301F080710B43A1
:10BF20000C4901EB0016000100F1804000F5E040F3
:10BF3000012AC6F81835C0F81455C0F8104502D8C3
:10BF40000123C1F80035002000E0112070BD00BFC2
:10BF5000C026002000700040264A274B70B50546D9
:10BF60001220C2F808031C7C022C03D1C2F804037F
:10BF7000112070BD187C01281DD1D86818B102238A
:10BF8000C2F80433F4E7DD60198393F82E3063B907
:10BF90001A4A1368002BFCD04FF48070FFF77EFE26
:10BFA000144BC3F82C56C3F83016124B0222C3F8B8
:10BFB00004230020DDE7022093F82E40C2F804039A
:10BFC000012600201E745D601981D8603CB1598340
:10BFD00093F82D30C2F82C56C2F83036C9E7C2F8B3
:10BFE0002C564FF48070C2F83016FFF757FE2046EB
:10BFF0001660BEE700700040C026002000710040BF
:10C00000084A137CDBB2012B09D192F82E0018B13B
:10C01000054A002013607047044A136070470820E7
:10C02000704700BFC0260020007000400470004030
:10C03000034B1B7813B10020FFF76EB8FFF773B8FE
:10C04000F0260020F8B57B4C237805461BB1002371
:10C050002370FFF7EDFF172D00F28880DFE805F071
:10C060000C17174354657680888D888D959A9A9A17
:10C070009A9AC4C9D1D9E4E4FFF7DAFF6E48FDF714
:10C080005FFC6E4B002204461A702046F8BD00206B
:10C09000FFF732F8F8B10020FFF73EF8022D0CBF91
:10C0A0004FF4E1614FF47A61644B1D704FF400402E
:10C0B0004FF4FA740025E0FB01454FF47A72002337
:10C0C0002046294604F07AFF002201465A48BDE87E
:10C0D000F840FDF7EFBBFFF718F8022D0CBFC821A1
:10C0E0004FF4C871E0E70020FFF706F840B10020E8
:10C0F000FFF712F84FF44871504B03221A70D5E73E
:10C10000FFF703F8C821F7E70020FEF7F5FF38B185
:10C110000020FFF701F84FF47A61484B0422EDE765
:10C12000FEF7F3FF4FF4C871F7E70020FEF7E4FFD6
:10C1300048B10020FEF7F0FF404B05221A7041F68F
:10C140009A110022C2E7FEF7E0FFF5E70020FEF7B4
:10C15000F8FF3A4B06221A70002240F6CD41B5E7AF
:10C160000020FEF7D2FF354B07221A7000248CE71F
:10C1700001202070FEF7E5FFEEE701202070FEF7BA
:10C18000E0FF00224FF48041A0E7FEF7D3FF2B4BE6
:10C190000C22EAE72A482B4EFDF7D2FBD5F1110518
:10C1A00004461CD0D8B9012D13D0C8235D434FF4E9
:10C1B00000474FF4FA7000214FF47A720023C7FB56
:10C1C000050104F0FBFE224601461D48FDF772FB07
:10C1D00004460220FEF799FF0123337055E7022041
:10C1E000FEF79AFF0023F8E7FFF722FF134B122216
:10C1F000BBE7FFF71DFF0020FEF787FF0F4B132261
:10C20000B3E7FFF715FF0120FEF77FFF0B4B14226A
:10C21000ABE7FFF70DFF0020FEF777FF0120FEF7E9
:10C2200074FF064B1522A0E7FEF784FF034B1D7039
:10C230009CE700BF3C270020142700203D2700205A
:10C24000F4260020F0260020044B1B6813F00103A5
:10C2500001D0FFF7F7BE1846704700BF382700200F
:10C2600048B9012A02D1012907D00246012905D087
:10C2700051B1022905D0072070470E22044B1A70D5
:10C280007047034B5A707047014B9A70704700BF5C
:10C290003427002008B5012202210020FFF7E0FF2B
:10C2A00008B1072810D1072202210120FFF7D8FF8B
:10C2B00008B1072808D100210A220846FFF7D0FF5D
:10C2C00010B1072808BF002008BD00000388102B0C
:10C2D00010B502D0112B1ED010BD1A4C2168B1B977
:10C2E00001220846FFF7BCFF08B1072824D1072226
:10C2F00002210120FFF7B4FF08B107281CD1042256
:10C3000002210020FFF7ACFF08B1072814D12368F1
:10C3100001332360E0E70B4A1368013B1360002BF5
:10C32000DAD1FFF7B7FF0028D6D0074B1B68002BE8
:10C33000D2D0BDE810401847034B1B68002BE6D055
:10C340009847E4E7442700204027002076DF704725
:10C350007ADF70477CDF70478FDF70474CDF7047B4
:10C36000012070471321FFF7F1BF0000014B0122AC
:10C370001A61704700C00140FDF722B808B5FFF709
:10C380003FFE18B1BDE80840FDF71AB808BD00002F
:10C3900013B5002301A80193FFF7E0FF019B084CB0
:10C3A000002BB8BF033321689B108B42019303D04D
:10C3B00001A9044800F0B0FD019B236002B010BD4C
:10C3C000A4280020782800200388212B13B50446D8
:10C3D0003FD00FD8102B2BD0112B14D02146214841
:10C3E00000F044FB204B21480CCB214600F0D2FB4F
:10C3F00002B010BD3B2B01D0562BEFD11321A088EA
:10C40000FFF7A4FF20E04FF0A0434FF48052C3F8A1
:10C410000C254FF00072C3F80C251548FFF7F4FB0C
:10C420001348FFF7EDFB01210F48FFF7E7FAD5E7C7
:10C430000720FFF709FF08B1FCF7C2FF0D4BA188E9
:10C440000D48198002F07EFC0028C7D0FCF7B8FF29
:10C45000C4E7002301A98088ADF80430FFF77CFF12
:10C46000F2E700BF602800204813020030280020B7
:10C4700054130200681B00206C28002008B50378C4
:10C480004BB9054B3B211888FFF760FF18B1BDE899
:10C490000840FCF795BF08BD681B0020037810B565
:10C4A000002B57D140680121B0F90040FFF754FD3F
:10C4B00008B1FCF785FF4FF4167314FB03F3002B50
:10C4C000B8BF03F2FF339B1203EB43035B0003F19E
:10C4D0000A018BB240F6B732934237D840F6543255
:10C4E00093420FD9C3F53B6308333A2159436FF0A8
:10C4F000630391FBF3F16431C9B21748BDE8104002
:10C5000000F0ABBE40F6B4218B4208D9D31A1821F3
:10C5100059436FF09F0391FBF3F12A31ECE740F6AA
:10C520008812934206D9C91A6FF0180391FBF3F1F0
:10C530001231E1E740F634018B4209D9D31A0621C2
:10C540005943064B91FBF3F10631D5E76421D4E75B
:10C550000021D2E710BD00BF04280020ACFEFFFF81
:10C56000032807D14FF08043A922C3F820250020DB
:10C57000FEF754BC7047032808B507D10220FFF727
:10C5800063FE18B1BDE80840FCF71ABF08BD000003
:10C5900010B504468CB0A8B901462C2201A804F0BD
:10C5A000D8FD01234FF4FA6201A907488DF808303D
:10C5B000CDE905248DF8043001F0A8FA214603489E
:10C5C00001F0FAFC0CB010BD4C27002065C301003F
:10C5D00008B50321044801F061F918B1BDE808402D
:10C5E000FCF7EEBE08BD00BF4C27002010B5044686
:10C5F00003F003FB204603F00DFB23780C2B03D143
:10C60000BDE81040FFF7E4BF10BDFCF7D9BE000045
:10C6100037B5012301A91848019300F0E7FB4FF05B
:10C62000A042164DD2F80435D94301F4805103F4E9
:10C630008053C2F80815C2F80C35002301934FF45B
:10C64000FA6445F001054FF47A40A847013CFAD15D
:10C6500001A9094800F0CAFB4FF0A042D2F8043506
:10C66000D94301F4805103F48053C2F80815C2F88D
:10C670000C3503B030BD00BF302800203C13020051
:10C680002DE9F041B4B004F0F3FB08B1FCF798FEDB
:10C69000FEF77EFE08B1FCF793FE0125002403A9F6
:10C6A0000C2004AFADF80C508DF80E40FEF7AAFE3A
:10C6B00039461520ADF810508DF81240FEF7A2FE55
:10C6C00040F20233ADF818309DF81A30B74A23F023
:10C6D000030306AD43F0020329460E208DF81A30FD
:10C6E000FEF7F2FE08B1FCF76BFE01210E20FEF70B
:10C6F0005FFF09AC0123ADF8243021460023192047
:10C700008DF82630FEF77EFEFDF792F808B1FCF7B3
:10C7100057FEA74AA7480121FDF7BAF808B1FCF770
:10C720004FFEA54AA5480121FDF7B2F808B1FCF774
:10C7300047FE4FF080430122C3F87825FEF74CFBFB
:10C7400008B1FCF73DFE04F0E5F808B1FCF738FE4F
:10C75000002321460120099304F0A4F908B1FCF755
:10C760002FFE204604F0F6F908B1FCF729FE944BA1
:10C77000944906932846FFF753FB08B1FCF720FEC7
:10C78000914A10685168127A234603C3214600205B
:10C790001A70FFF787FB08B1FCF712FE01218B48E6
:10C7A000FFF7DAFB08B1FCF70BFE01218848FFF721
:10C7B000D3FB08B1FCF704FE112386488DF818302E
:10C7C00004F0FAFC834982B22846FFF7C3FD08B1A2
:10C7D000FCF7F6FD08220021204604F0BAFC7E4A50
:10C7E0004FF0C8732046CDE90923FFF7B1FD08B12A
:10C7F000FCF7E6FD0021794802F006FA08B1FCF7E3
:10C80000DFFDAC220021204604F0A3FC4FF0805352
:10C8100064265B6E049300230593714B43F001087B
:10C820004FF47A40C047013EFAD15323ADF8183097
:10C830000823ADF81C3002238DF82430ADF83430D5
:10C84000684B0E9301238DF8A0304FF4FA6340F249
:10C850000162CDE92B362146634B64480897ADF859
:10C8600026201295329300F0A7FF08B1FCF7A8FD2F
:10C8700001215E4800F09DFF0023099329465C4B8F
:10C880005C48069302F04CFA08B1FCF799FD5A4B4C
:10C890000993204604F070FA08B1FCF791FD57485F
:10C8A00000F006F9564800F0BDF9564800F0C7FA06
:10C8B000554800F06BFC554800F056FB1C22002147
:10C8C000204604F046FC00234FF42032CDE9093223
:10C8D000ADF832304FF470228DF834304C4B0B925F
:10C8E0000E9303224B4B8DF8302020460F9301F01E
:10C8F00017FA08B1FCF764FD02F030FF08B1FCF74D
:10C900005FFD05220021204604F023FC099B03F073
:10C910007C42414B134309939DF8283023F00303D5
:10C9200043F0030320468DF8283002F05DFF08B184
:10C93000FCF746FD394802F03FFF08B1FCF740FD27
:10C9400000224FF480313648FCF7B4FF00224FF448
:10C95000A0213448FCF7AEFFFFF73AFE324A1068D8
:10C960005168234603C390681860002221462F486F
:10C97000FEF752FF08B1FCF723FD2D4B2D4A93E83B
:10C98000030084E8030021462B48FFF7B9F808B1FB
:10C99000FCF716FD294B2A49D3F810252648012318
:10C9A000D2B221FA02F2009300214BE011C601003D
:10C9B00091C30100501302007DC301004413020023
:10C9C000010006019DC401001C130200482700203D
:10C9D0004A2700205C130200900120035028002009
:10C9E0003C130200601B002077C501004C2700208B
:10C9F00079C301006C28002091C501006028002047
:10CA00003028002078280020042800204428002016
:10CA10007DC401000BC6010031071003EDC5010004
:10CA2000842800201028002026130200481302004A
:10CA3000341302006DC30100541302000090004043
:10CA400080140700FFF7FDF80448FFF7C7F8034814
:10CA5000FFF7D6F8FEF7D6F9FCE700BF5413020043
:10CA6000A8DF7047AADF7047ADDF70471FB5E0B1A0
:10CA7000D9B10B88502B18D1042302936B44C98879
:10CA800003938388994210D102AA0088FFF7ECFF34
:10CA9000019B03F00303012B4FF0A0434FF480529E
:10CAA0000CBFC3F80825C3F80C2505B05DF804FBDE
:10CAB00070B590B0012304468DF80A30821C41F60F
:10CAC000020302A90120ADF80830FFF7C9FF08B141
:10CAD000FCF776FC01238DF80E301C2242F63F2332
:10CAE000002109A8ADF80C3004F033FB9DF8243088
:10CAF00001AE23F00A0343F00A030322002130466B
:10CB00008DF8243004F025FB41F21113ADF8043008
:10CB10009DF80630012565F342031422002104A884
:10CB20008DF8063004F015FB03ABCDE90436002385
:10CB30008DF8003004AA231D09A96088ADF81C50A7
:10CB4000ADF81850CDF820D0FFF78CFF08B1FCF7F6
:10CB500037FC10B070BDA8DF7047AADF7047ADDFAB
:10CB60007047AEDF704762DF7047B0F5A07F03D03B
:10CB7000B0F5A27F00D070474FF0A042D2F8043544
:10CB8000D94301F4805103F48053C2F80815C2F868
:10CB90000C35704770B58CB06C4684E80C0070B3EF
:10CBA00069B30C88502C2AD104AD85E80C0004230D
:10CBB000069303ABC9880793838899421FD106AABD
:10CBC0000088FFF7CCFF039E06F00306012E4FF00E
:10CBD000A0434FF0007214D1C3F808250F4B0FCBC0
:10CBE00008AC84E80F000223324621462846FEF7AF
:10CBF000B7FE0B48FFF708F80948FEF7FDFF0CB039
:10CC000070BDC3F80C250648FEF7FEFF0448FEF78A
:10CC1000F7FF01212846FEF7F1FEF0E7641302005A
:10CC2000541302002DE9F04399B041F611036B4A09
:10CC3000ADF8103001238DF8123000230446CDE901
:10CC4000062306A9664A6748FEF75AFF08B1FCF7B3
:10CC5000B7FBA21C04A90120FFF77DFF08B1FCF778
:10CC6000AFFB614B08AA03F110069046B146186865
:10CC70005968154603C50833B3422A46F7D1012344
:10CC80000DF116014046ADF81430FFF76CFF08B106
:10CC9000FCF796FB1C22002111A804F05AFA9DF81B
:10CCA000443003AD23F00A0343F00A0303220021BA
:10CCB00028468DF8443004F04CFA41F21113ADF8D7
:10CCC0000C309DF80E30012666F342031422002139
:10CCD0000CA88DF80E3004F03CFA002305AFADF837
:10CCE0003C60ADF838608DF8083002AE231D0CAA08
:10CCF00011A960881096CDE90C75FFF72EFF08B1D9
:10CD0000FCF75EFB384BC44618685968624603C29C
:10CD100008334B459446F7D102230DF116014046E6
:10CD2000ADF81430FFF71FFF08B1FCF749FB1C22D8
:10CD3000002111A804F00DFA9DF8443023F01203ED
:10CD400043F012030322002130468DF8443004F0F2
:10CD500000FA41F21113ADF808309DF80A3016962A
:10CD60004FF0010868F342038DF80A309DF8443013
:10CD7000032243F01003002128468DF8443004F0CC
:10CD8000E8F99DF80E3068F342038DF80E30142256
:10CD9000112300210CA88DF80C3004F0DAF90023DF
:10CDA0008DF8043001AB10930CAA04F10C0311A907
:10CDB0006088ADF83C80CDE90C75ADF83880FFF7A0
:10CDC000CCFE08B1FCF7FCFA012341F288320021C5
:10CDD0000448FEF71DFF19B0BDE8F0830900000606
:10CDE0006BCB0100E42200207413020070B50288AE
:10CDF0004FF6FF739A4286B004460E4617D00125BF
:10CE00000021102202A8ADF8065004F0A2F9A3896F
:10CE1000ADF808300023ADF80C3002A90DF106037F
:10CE200020888DF80A50CDE90436FFF79AFE06B047
:10CE300070BDA8DF7047AADF7047AEDF70472DE9ED
:10CE4000F041012492B041F60903821C054604A971
:10CE500020468DF81240ADF81030FFF7EAFF064685
:10CE600008B1FCF7ADFA42F61C231C2200210BA8E6
:10CE7000ADF814308DF8164004F06BF99DF82C30A5
:10CE800002AF23F0120343F01203032200213846BD
:10CE90008DF82C3004F05DF99DF80A30109764F39A
:10CEA00042038DF80A309DF82C3003AF43F0100395
:10CEB00041F211180322002138468DF82C30ADF8CC
:10CEC000088004F046F99DF80E30ADF80C8064F34C
:10CED00042031422002106A88DF80E3004F039F91F
:10CEE00005ABCDE9063700238DF8043001AB0A937A
:10CEF00006AA2B1D0BA96888ADF82440ADF8204088
:10CF0000FFF799FF08B1FCF75BFA16B13046FCF762
:10CF100057FA12B0BDE8F08170B502884FF6FF7382
:10CF20009A4286B004460E4617D0012500211022F1
:10CF300002A8ADF8065004F00CF9A388ADF808304B
:10CF40000023ADF80C3002A90DF1060320888DF8FE
:10CF50000A50CDE90436FFF770FF06B070BDA8DFB8
:10CF60007047AADF704700002DE9F047012494B014
:10CF700041F60A03821C074603A920468DF80E409D
:10CF8000ADF80C30FFF7EBFF804608B1FCF718FA5C
:10CF900042F629231C2200210DA8ADF810308DF88F
:10CFA000124004F0D6F89DF8343001AE43F002038D
:10CFB0000322002130468DF8343004F0CAF89DF881
:10CFC0000630129664F342038DF806309DF8343033
:10CFD00002AD41F2111943F0020303220021284659
:10CFE000ADF804908DF8343004F0B3F89DF80A30B1
:10CFF000ADF8089064F342031422002108A88DF8CC
:10D000000A3004F0A6F85C4A04AB10685168127A42
:10D01000CDE9083505AB03C31A700923ADF82C30F0
:10D02000ADF8283007F1040905AB0C9308AA4B466C
:10D030000DA97888FFF795FF08B1FCF7C1F942F612
:10D04000242301241C2200210DA8ADF810308DF8F6
:10D05000124004F07EF803220021304604F079F8F3
:10D060009DF80630129664F342038DF806309DF861
:10D07000343023F00A0343F0020341F2111A032271
:10D08000002128468DF83430ADF804A004F061F892
:10D090009DF80A30394AADF808A064F342031068DD
:10D0A0008DF80A3012798DF8182004AB0522CDE9ED
:10D0B000083505AB0590ADF82C20ADF828200C9371
:10D0C00008AA4B460DA97888FFF74BFF08B1FCF77B
:10D0D00077F942F626231C2200210DA8ADF8103066
:10D0E0008DF8124004F035F803220021304604F098
:10D0F00030F89DF80630129664F342038DF806303E
:10D100009DF8343023F00A0343F0020341F2111A70
:10D110000322002128468DF83430ADF804A004F035
:10D1200018F89DF80A30154AADF808A064F34203D8
:10D1300010688DF80A3012798DF8182004AB05229A
:10D14000CDE9083505AB0590ADF82C20ADF82820C9
:10D150000C9308AA4B460DA97888FFF702FF08B187
:10D16000FCF72EF9B8F1000F02D04046FCF728F981
:10D1700014B0BDE8F08700BF841302008D130200D5
:10D18000A8DF7047AADF7047AEDF7047F0B5012413
:10D1900093B0054641F60F03821C04A920468DF882
:10D1A0001240ADF81030FFF7EBFF08B1FCF708F9BB
:10D1B00042F619231C2200210BA8ADF814308DF87B
:10D1C000164003F0C6FF9DF82C3002AE23F0120388
:10D1D00043F012030322002130468DF82C3003F077
:10D1E000B8FF9DF80A30109664F342038DF80A30B8
:10D1F0009DF82C3003AE43F0100341F211170322C7
:10D20000002130468DF82C30ADF8087003F0A1FFF6
:10D210009DF80E30ADF80C7064F342031422002127
:10D2200006A88DF80E3003F094FF05ABCDE9063665
:10D2300064238DF807300DF107030A9306AA2B1D0E
:10D240000BA96888ADF82440ADF82040FFF79AFF9D
:10D2500008B1FCF7B5F813B0F0BD30B5028889B05D
:10D260004FF6FF739A4204468DF807101AD0102229
:10D27000012500210DEB0200ADF80E5003F069FF0F
:10D28000A388ADF810300023ADF814300DF10E0373
:10D29000069304A90DF1070320888DF81250079317
:10D2A000FFF772FF09B030BD6DDF704779DF70475F
:10D2B0007DDF704764DF70472DE9F74F0C9CBDF8A8
:10D2C00034B02788002580468A4691462E46B8F815
:10D2D0000020B2420BDC35B12288013AD21B92B257
:10D2E000FF2A39D8DA55002003B0BDE8F08FD8F80E
:10D2F000042052F82600019000220DF1030101A83C
:10D30000FFF7D8FF0028EFD19DF803204A4521D12F
:10D310002288002D14BF0020022002EB09010144E5
:10D32000594519DC3DB9013292B2228003F802A0BE
:10D3300022880132228022880DF103011A4401A8BB
:10D34000FFF7B8FF0028CFD121889DF803200A44B9
:10D35000228001250136BAE70C20C5E72DE9F3410B
:10D36000089CBDF824501746CDE900450222064628
:10D37000FFF7A2FF48B9102239463046CDE90845EB
:10D3800002B0BDE8F041FFF797BF02B0BDE8F08101
:10D390002DE9F04F00231688138090F82D3085B0CA
:10D3A00007460D46144653B3082E01D80C2028E139
:10D3B00002A8FFF779FF002840F023811388082294
:10D3C000CA54238801339BB21B222380CA5420886D
:10D3D000013080B2208006220DF10901284403F0BB
:10D3E0008FFE23889DF8082006339BB212F0FE02C0
:10D3F00018BF01222380EA54238801332380BB789D
:10D40000FBB123880433B342D0D802A8FFF74EFF04
:10D41000002840F0F68023880322EA542388013351
:10D420009BB219222380EA542388BDF808200133D7
:10D430009BB2E9182380EA54120A4A702388023307
:10D440002380FA789AB12388D91CB142AED8022140
:10D45000E954238801339BB201212380E9542388B6
:10D460000B449BB22380EA5423880B4423807A68C0
:10D47000AAB12388D91CB14298D8022192F9002080
:10D48000E954238801339BB20A212380E95423887D
:10D4900001339BB22380EA542388013323803B89E4
:10D4A000002B40F0A2803B8A5BB1CDE900462B46C1
:10D4B0000722032107F11000FFF750FF002840F07A
:10D4C000A0803B8B5BB1CDE900462B461522142191
:10D4D00007F11800FFF742FF002840F092803A6AF7
:10D4E000002A40F09180D7F82480B8F1000F30D0A6
:10D4F000B8F804302188981C8A1C0244B2423FF6D6
:10D5000055AFFE283FF652AF03336B5423880133E7
:10D510009BB2FF222380EA54238801339BB22380ED
:10D52000B8F80020EA54E918120A4A70208802303C
:10D5300080B22080B8F804205AB1D8F80810002929
:10D540006CD0284403F0DCFD2388B8F80420134491
:10D55000238097F82C30002B40F09B8038780028EF
:10D560004FD03B88012B59D0228802F1020CB445E0
:10D570003FF61CAF012805D17B78023313449E424D
:10D58000FFF414AF023EB61AB6B202A905EB0C00C6
:10D59000ADF80860FFF78CFE98BB3978BDF808201D
:10D5A000022900F0BB807B78934202D3B24240F262
:10D5B000B380012940F0B4809BB29E42C0F0B0809D
:10D5C000ADF808300821BDF80830FE2B3FF6EEAE6E
:10D5D00022880133AB542288013292B22280A954AE
:10D5E00022881344238000200BE0CDE900462B461F
:10D5F0000622022107F10800FFF7B0FE00283FF4E1
:10D6000052AF05B0BDE8F08FB4F800C00CF10603CE
:10D61000B3423FF6CBAE1188052901D80720F0E7C9
:10D620006FF4486E01EB0E039BB24FF27D3E7345E3
:10D63000F4D95388052BF1D96FF44860181880B2DB
:10D640007045EBD94FF6FF70814203D0834201D081
:10D650009942E3D8052305F80C30238801339BB2A7
:10D6600012212380E954238801339BB2238011883F
:10D67000E954E818090A4170238802339BB22380D9
:10D680005288EA54E918120A4A7023880233238028
:10D6900029E7BB6A002BC1D04FF000094FF00C0AFC
:10D6A0004FF0160B97F82C305FFA89F293427FF611
:10D6B00055AFB96A0AFB02F201EB0208B8F8043070
:10D6C000981CFE283FF672AE208803332B54238823
:10D6D00001339BB2238005F803B0238801339BB24A
:10D6E00023808A5AEA54E918120A4A7020880230C4
:10D6F00080B22080B8F804205AB1D8F80810002968
:10D700008CD0284403F0FCFC2388B8F80420134490
:10D71000238009F10109C5E7092154E7B242FBD989
:10D72000ADF808604EE770B5C0B14AB11688002464
:10D73000B44203D305196D789D4208D0A14201D8A7
:10D7400000200BE0055D01352C44A4B2F0E7A142B6
:10D75000F6D9A31C1380005D013880B270BD13B5EB
:10D760000023ADF8063013460DF106020446FFF71C
:10D77000DAFF10B1BDF80600204402B010BD72DF20
:10D78000704773DF704738B5012204460D46B0F884
:10D790009810D0F89400FFF7E2FF00B1057004F193
:10D7A0003C0204F1940104F15400BDE83840FFF755
:10D7B000E6BF80F830107047F8B504460F460029E0
:10D7C00068D0002866D091F87A301BB191F8983073
:10D7D000002B61D1D7F8A030042B5DD0D7F89C3056
:10D7E000042B59D007F178060FCE4FF0000C251D01
:10D7F00084F802C00FC50FCE0FC596E8070085E874
:10D80000070084F830C0D7F8A4306363D7F8A83095
:10D81000A3634FF6FF7504F19403C4F8A430A4F891
:10D82000A8500722614604F1AA0003F092FC237875
:10D830000BB984F85450224604F155011F25C4F851
:10D840009410384622F8985FFFF7A2FD08BB2246E5
:10D8500004F17401C4F89C1007F13C0022F8A05FA9
:10D86000FFF796FDA8B9A369A4F848304FF4807279
:10D870000123A4F85020626920646264014684F8A0
:10D880003C3004F13C0204F15400FFF778FF00B98A
:10D890002370F8BD0E20FCE70720FAE7F8B50778FB
:10D8A00004460D46002F00F0F98000F1AA06A17091
:10D8B00007220021304603F04CFCE38813B1A37823
:10D8C000012B04D0E3794BB1A378022B06D1636B13
:10D8D000A3B1012284F8B12008209847334604F10F
:10D8E000B00113F8012F12B98B42FAD117466B1E03
:10D8F000032B52D8DFE803F0050B0F1284F8B13088
:10D90000ECE7A3791BB194F8243003B95FB9E3794C
:10D910000BB1002F43D1237A002B42D1637A002B25
:10D920000CBF00250425636BA570002B3BD0033D85
:10D93000012D38D86279002A35D094F8B22092BBF4
:10D9400084F8B420012284F8B3200720984704F11A
:10D950003C0518220021284603F0FBFBE36A591E10
:10D960000122022928BF134684F8513094F824304C
:10D9700084F83C2033B1914296BFA36A84F85220C8
:10D9800084F85230A278002384F85030042A1BD83F
:10D99000DFE802F06C0D223252000025C3E70225B9
:10D9A000C1E70325BFE7002384F8B330CFE7C4F80D
:10D9B000A430C4E910630223012284F83C308023A0
:10D9C00084F83120A4F84830A378002B51D1636B40
:10D9D000002B5FD100205CE0022384F83130032368
:10D9E00084F83C302369A4F848300023C4F8A430FC
:10D9F000E36826646364E7E763696364A369A4F882
:10DA000048306379B3B194F8B2309BB994F8B4302C
:10DA100083B1022384F8503004212046FFF7B3FE7F
:10DA20000028D1D1052384F8313004F19403C4F8DF
:10DA3000A430C9E70323F6E7E3696364236AA4F823
:10DA40004830637983B194F8B2306BB994F8B4304C
:10DA500053B1022384F8503004212046FFF793FE8F
:10DA60000028B1D10623DEE70423DCE784F8313057
:10DA7000AAE72A46D4F8A41004F15400FFF77FFE69
:10DA800038B994F8301094F85400FFF77AFE002863
:10DA90009DD0F8BD94F8310098479BE70820F8E73F
:10DAA0000388112B10B50C460AD0262B1FD0102B43
:10DAB00005D1C37B012B02D18388A1F8A83010BD0A
:10DAC0000022838881F8B220B1F8A8209A42F6D1CA
:10DAD0000B79002BF3D101212046FFF7DFFE002850
:10DAE000EDD0A36B002BEAD0BDE810401847037AB5
:10DAF000013B012BE3D8897805230131B1FBF3F316
:10DB000003EB8303C91AC9B2E6E7704730B50D4687
:10DB1000041D0FCD0FC40FCD0FC495E8070084E896
:10DB2000070030BD75DF704776DF70477ADF7047DA
:10DB30007BDF7047034B1A8882420CBF18460020D7
:10DB4000704700BFC4280020024B9B6903B11847EF
:10DB5000704700BFA828002037B585B22846FFF7D8
:10DB6000E9FF034670B1164C017A227B91420BD239
:10DB700000F10A012846FFF7D5FFE8B1112801D0CE
:10DB8000FFF7E2FF03B030BD237C0022027243B1F5
:10DB90003B212846FFF7C8FF30F0080301D0FFF70C
:10DBA000D3FF6369002BEDD000228DF80420ADF87F
:10DBB000065001A89847E5E71A7A01321A72E1E7A0
:10DBC000A828002013B50B46497A0F4C024669B9C4
:10DBD000D4E901101C7A002C18BF01465868FBF7E5
:10DBE00069FE08B1FFF7B0FF02B010BD0021197245
:10DBF0006369002BF8D00121ADF806008DF8041000
:10DC000001A89847F0E700BFA82800204B880288A9
:10DC10009A4213D842889A4210D380888A8840F268
:10DC2000F313984294BF031AC31A934206D800F222
:10DC3000F310904234BF002001207047002070474D
:10DC40000388112B70B5014648D002D8102B1ED086
:10DC500070BD122B52D0502BFAD12F4BC288DB89CA
:10DC60009A42F5D1038A022BF2D186883046FFF71B
:10DC700061FF05460028EBD001F1120000F0D5F954
:10DC800030BB6868FBF75CFE0028E1D009E0C37B8D
:10DC9000012BDDD14FF6FF70FFF74CFF054620B991
:10DCA0000420BDE87040FFF74FBF1C4A8E880680F5
:10DCB000002303721368C5F80A300A3053684360C2
:10DCC0001031FFF7A3FF144B6872DB89002BBFD123
:10DCD00029463046BDE87040FFF774BF8088FFF7E3
:10DCE00029FF04460028B3D04068FBF729FE08B19D
:10DCF000FFF72AFF4FF6FF732380A9E78688304697
:10DD0000FFF718FF05460028A2D008310A30FFF7B8
:10DD10007DFF6872DCE700BFA8280020D82800201B
:10DD2000F8B5064648B305460FCD154F3C460FC41F
:10DD300095E8070084E807003068124B3B60B0B1FB
:10DD4000FFF7F4FEC0B931680A681A604A685A6081
:10DD50000D480E4A4FF6FF7303800D4B40F8043F09
:10DD60000021FBF795FD002818BF032004E01846AA
:10DD7000FFF7DEFE0028EBD0F8BD0E20FCE700BF69
:10DD8000A8280020D8280020C428002059DB010042
:10DD9000E0280020F7B5174601900E4691B1019C8E
:10DDA0006CB100252C46294601A8FCF7A5FD18B149
:10DDB0003946A8B2B04701340135142DF3D12046BD
:10DDC00003B0F0BD0C46FAE773B50191019C06461D
:10DDD0006CB100252C46294601A8FCF78DFD18B131
:10DDE00006EB440301349D800135142DF3D13046F8
:10DDF000346002B070BD00002DE9F04703888488CC
:10DE0000112B8CB006463CD01A2B3FD0102B17D1CB
:10DE1000274DAB68DB43009369686846FCF7C2FD99
:10DE2000009901A8FFF7D0FF0DF108094FF0000895
:10DE3000019B984507D3132C13D90420FBF7C0FA94
:10DE40000CB0BDE8F08739F802AB00270137514626
:10DE500005EB8700FCF746FD1D2FF7D108F10108FF
:10DE6000E6E721461348FCF726FD21461248FCF759
:10DE700022FDF37B012BE3D010482146FCF71BFD6C
:10DE8000DEE70C482146FCF72DFDD9E7057A0C4862
:10DE90002D09012D214606D9FCF70DFD022D214645
:10DEA0000848F0D0EAE7FCF71DFD21460548EAE7FF
:10DEB0000029002008290020042900200C29002026
:10DEC00010290020142900201328014602D80248F6
:10DED000FCF712BD0020704704290020FFF7F4BFB3
:10DEE00010B50446FFF7F0FF38B121460348FCF7B0
:10DEF00003FD002814BF0220012010BD08290020C6
:10DF000010B50446FFF7E0FF28B121460248BDE8FE
:10DF10001040FCF7F1BC10BD1029002010B50446DC
:10DF2000FFF7D2FF28B121460248BDE81040FCF7B8
:10DF3000E3BC10BD1429002008B518210248FCF7E5
:10DF4000E4FCC0B208BD00BF0029002070B50A4D36
:10DF5000064628460C46FCF7CFFC58B13046FFF782
:10DF6000B3FF38B1A01D314605EB8000BDE870401D
:10DF7000FCF7C2BC002070BD00290020F8B50D4C94
:10DF8000054620460E461746FCF7B6FC80B12846EB
:10DF9000FFF79AFF60B1B01D04EB800029461FB166
:10DFA000BDE8F840FCF787BCBDE8F840FCF79ABC38
:10DFB000F8BD00BF00290020034B9B680A460146BC
:10DFC0001846FFF7E7BE00BF00290020F8B50A4C4D
:10DFD00005460E46014620461746FCF78DFC48B123
:10DFE000043504EB85043A46A0683146BDE8F840A4
:10DFF000FFF7D0BEF8BD00BF00290020AADF7047A0
:10E00000002301380B70042806D8DFE800F003066F
:10E01000080A0C0011230B7070472123FBE7312302
:10E02000F9E71223F7E72223F5E7007800F0010073
:10E0300070470078C0F340007047F0B58B7891B01E
:10E04000002B0C4608BF01238DF80E3005460B88C7
:10E05000ADF80C30002116466846032203F079F82B
:10E060006946607CFFF7CCFF0DF10101A07CFFF752
:10E07000C7FF9DF80230E27B62F3C303227C62F3A8
:10E080000413227B62F30003227D002A14BF0222C4
:10E09000012262F3420300211C2209A88DF80230FC
:10E0A00003F057F8637B13F0300F15D002AF032253
:10E0B0000021384603F04DF80DF10901E07CFFF72F
:10E0C0009FFF11238DF808309DF80A300E9701222A
:10E0D00062F342038DF80A30637B8DF824301422FA
:10E0E000A37B8DF82530002104A803F032F803ABA0
:10E0F0000493A388ADF81C30A368CDF814D01BB1ED
:10E10000E288ADF818200893A369002B2ED001AF48
:10E1100003220021384603F01CF8A3691A88ADF8E1
:10E120002C205A88187BADF82E2039465A680A925E
:10E130000D97FFF765FFA3690DF10501587BFFF708
:10E140005FFFA2699DF80630917A61F3C303D17A2B
:10E1500061F30413117A927B002A61F3000314BF68
:10E160000222012262F342038DF80630E36903B113
:10E170000C93334604AA09A92846FFF73FFF11B0C4
:10E18000F0BDA0DF70470000024B03491878002261
:10E19000FFF71CBF7F29002081E2010013B5042294
:10E1A00004460021684602F0D4FF42F6A623ADF8EB
:10E1B000003001238DF80230044B1868019001AA49
:10E1C00069462046FFF7DDFF02B010BD9213020042
:10E1D00010B50446408800F0ADFBA0802046BDE8A5
:10E1E000104001F0B7BA30B587B005460C4618228A
:10E1F0000021684602F0ADFF072368468DF8003025
:10E20000ADF802500294FFF7E3FF07B030BD000005
:10E2100030B587B0054618220021684602F099FF04
:10E220004FF6FF739D42ADF8025023D0284600F010
:10E2300096FA0B28044615D005D860B12146284629
:10E24000FFF7D1FF05E011280ED043F202039842F8
:10E25000F4D1002209E00E2368468DF80030FFF764
:10E26000B7FFF6E70F23F7E70122034B284619789B
:10E27000FFF784FE07B030BD7D290020FFF7C8BF3F
:10E2800070B5234E86B031780446FFF75FFE054631
:10E29000C0BB204600F0B2FA0828014622D006D8BA
:10E2A00088B106281ED02046FFF79DFF09E043F203
:10E2B0000203984205D043F20143984224D011282A
:10E2C000F1D1012214E029461822684602F041FFEC
:10E2D000102368468DF80030ADF802400125FFF7A5
:10E2E00077FFEEE7204600F025FB00F0A1FA0022C0
:10E2F000084B20461978FFF741FE2A463178204620
:10E30000FFF73CFE06B070BD2046FFF781FFD8E75F
:10E31000802900207F29002013B5044600F00AFB65
:10E3200000236A46092100F07DFE052805D1044B33
:10E33000012219782046FFF721FE02B010BD00BF70
:10E340007C29002008B5084B084918780022FFF7FF
:10E350003DFE024630B9064B06491878BDE8084034
:10E36000FFF734BE08BD00BF7E29002079E301001D
:10E370007C2900209DE1010030B5012187B00546D0
:10E380001C48FCF7EFFA0446BFF35F8F68BB2846D2
:10E3900000F0A0F9112801461CD005D838B3284652
:10E3A000FFF721FF002405E0862805D043F2020391
:10E3B0009842F4D122460EE018222146684602F027
:10E3C000C8FE062368468DF80030ADF80250FFF70E
:10E3D000FFFEEFE70122084B28461978FFF7CEFD34
:10E3E0001CB9BFF35F8F034B1C6007B030BD012425
:10E3F0000246F0E7782900207E29002038B503780E
:10E400000446A3B94088FFF703FF6588284600F05B
:10E41000E3F928B1064B012219782846FFF7AEFD33
:10E420006088FFF779FFBDE83840FFF78BBF38BD44
:10E430007F2900200378082B37B5044630D1427A73
:10E4400072BB057A072D1BD0082D2DD0012D27D1A9
:10E450006A462946808801F00DF808BB019B1B78AD
:10E46000F3B1A08800F094FA4FF6FF73984217D0EA
:10E47000114B2A461978FFF781FDFFF785FE0FE063
:10E48000808800F085FA4FF6FF739842044607D063
:10E490000A4B01221978FFF771FD2046FFF73CFF78
:10E4A000FFF750FF03B030BD054B19680129F7D1C4
:10E4B000BFF35F8F1A60F3E77F2900207E290020D9
:10E4C00078290020F8B5FFF737FD144F144E387047
:10E4D000FFF732FD3070FFF72FFD124D124C287000
:10E4E000FFF72AFD2070FFF727FD104B18703B78CF
:10E4F000182B10D03378182B0DD02B78182B0AD06E
:10E500002378182B07D0182805D0094B0020186055
:10E51000BFF35F8FF8BD0320FCE700BF7E2900201A
:10E520007D2900207F290020802900207C290020CF
:10E530007829002013B501230024ADF80030092309
:10E54000ADF80240084A8DF80230084BA14214BFD2
:10E5500019461146019100F0EDF92246694600F096
:10E56000CDFD02B010BD00BF981302009C13020045
:10E5700030B503888488502B87B0054635D00BD83A
:10E58000352B45D02D4B2E4918780022FFF71EFD64
:10E59000FFF7FAFD07B030BD522B22D0542BF1D13A
:10E5A00018220021684602F0D4FD112320468DF880
:10E5B0000030ADF8024000F0BDF9ADF8040000F005
:10E5C00037F9204B204619780022FFF7D7FC1E4B65
:10E5D000204600221978FFF7D1FC6846FFF7F8FDC6
:10E5E000D0E72046FFF714FECCE7037B012BC9D10F
:10E5F000827A012AC6D1018942F602139942C1D119
:10E60000124B20461978FFF7B9FCFFF79BFEB9E7DC
:10E610000F4B002219782046FFF7B0FCE98851B96A
:10E62000AB89012B03D1A97B003118BF0121204602
:10E63000FFF780FFA6E70021F9E700BF7D29002052
:10E640007DE20100802900207F2900207E29002012
:10E650007C290020AFDF7047B1DF7047B2DF704721
:10E66000B3DF704773B50F4B0F4C93E803006D4653
:10E6700085E8030000222946208800F03FFD4FF680
:10E68000FF762388B34201D0112801D102B070BDBA
:10E69000184600F086FD00222946208000F02EFD5D
:10E6A000EFE700BFA013020082290020044B1A8864
:10E6B0004FF6FF739A4201D0FFF7D4BF704700BFF7
:10E6C00082290020024B4FF6FF721A80002070470B
:10E6D000822900202DE9F743804600F02BF94FF600
:10E6E000FF739842064637D001224FF003096B466C
:10E6F00008213046571C00F0C1FEBFB2054630BBB2
:10E7000001990A46032342F8049B06314046FFF76D
:10E71000A5FF044648B932460821304600F037FFCD
:10E720000446204603B0BDE8F0830C280DD0052830
:10E7300000D12C460821304600F000FF002818BF09
:10E7400003243A46002DD2D1EBE70125F2E7072852
:10E7500014BF04460C24E4E743F20204E1E72DE988
:10E76000F341804600F0E6F84FF6FF73984217D168
:10E7700000240325264601272B46224631464046E3
:10E78000FFF76AFF042820D0082823D00B281DD1CA
:10E7900015F002030FD18EB9A4B902B0BDE8F08123
:10E7A0006A46082100F066FE0028E1D1019B9E1D0B
:10E7B0009C881D68DFE701250027DDE703251C464F
:10E7C0001E46F9E703253446F6E71120002F08BF5F
:10E7D0000B20E2E70020F9E71FB50DF107030393D3
:10E7E00000F0A8F802AA012100F044FE20B9039B22
:10E7F000187805B05DF804FB0020FAE738B5044648
:10E800000A48FFF72DFF70B9084B43F203054FF696
:10E81000FF7219882046FFF71DFFA84204D11A880D
:10E8200001321A80F3E7032038BD00BF842900209D
:10E8300013B5074A044692E803006B4683E80300D9
:10E8400000221946204600F059FC02B010BD00BF5E
:10E85000A813020046DF7047421E00F10F0312F8B2
:10E86000010F10B99A42FAD170470120704708B5DC
:10E8700070B171B103780A78534013F0FE0F08D1DC
:10E8800006220131013002F000FCB0FA80F04009AC
:10E8900008BD0020FCE72DE9F04700F101084F1CFE
:10E8A00006460D4600F1110901F1110A1022394600
:10E8B000404602F0EAFB0446E0B94046FFF7CCFFD1
:10E8C00018B13846FFF7C8FF044651464846FFF7DF
:10E8D000CEFF737C03F0FC03042B04D06B7C03F0AD
:10E8E000FC03042B02D1201C18BF012000F0010002
:10E8F000BDE8F0870024E8E730B585B004460D4652
:10E9000000F0C6FB02AA0DF10601072000F0C8FBCB
:10E9100010B94FF6FF700BE0BDF80630AB42F1D0F6
:10E9200003992046FFF7B7FF0028EBD0BDF806009B
:10E9300005B030BD132810B5044602D94FF6FF705C
:10E9400010BDFFF7C1FA0028F8D00A206043014B40
:10E95000185AF5E786290020132838B504460D46D5
:10E9600002D943F2020038BDFFF7AEFA0028F8D012
:10E9700006480A2303FB040050F8023F2B608388FB
:10E98000AB808379AB710020EDE700BF86290020C2
:10E990004FF6FF7398422DE9F04106460CD00C4F1C
:10E9A00000244FF00A0808FB04F3A5B2DB5BB34276
:10E9B00005D00134142CF6D14FF6FF7504E028463B
:10E9C000FFF782FA0028F4D02846BDE8F08100BFA6
:10E9D00086290020038843B9821C00F10A0312F83B
:10E9E000010B10B99A42FAD170470120704710B557
:10E9F0000446FFF7EFFF58B122880B889A4208D1EE
:10EA000008220231A01C02F040FBB0FA80F040095D
:10EA100010BD0020FCE71FB5044600F039FB02AA38
:10EA20000DF10601072000F03BFB10B94FF6FF7017
:10EA300007E0039920464631FFF7D9FF18B1BDF82A
:10EA4000060004B010BD039920462A31FFF7CFFF1E
:10EA50000028E4D0F3E7000013289FBF0A234343B4
:10EA6000014AD152704700BF8629002038B50546BB
:10EA7000FFF78EFF0446284600F06AFD38B9132CD4
:10EA800005D80A236343024A4FF6FF71D15238BDBD
:10EA90008629002070B58CB014466A460D4600F1F8
:10EAA0001003164613F8011D02F8011B9842F9D114
:10EAB0000D22002104A802F04CFB2B788DF81F30AA
:10EAC0006B788DF81E303046AB788DF81D30FFF72F
:10EAD000C1FE9DF82F3023709DF82E3063709DF895
