:020000022000DC
:1060000000000120796302006163020075EF020065
:10601000656302006763020069630200000000001C
:106020000000000000000000000000006B630200A0
:106030006D630200000000006F63020071630200E4
:1060400031BC02007363020035CE020073630200AC
:10605000C1DD02007363020055CB020073630200CE
:1060600073630200736302007363020073630200D0
:1060700073630200736302007363020073630200C0
:1060800073630200C5790200736302007363020048
:10609000057A020073630200790B04007363020047
:1060A0007363020073630200736302007363020090
:1060B0007363020073630200000000000000000030
:1060C0007363020073630200736302007363020070
:1060D000D9D4020073630200736302000000000061
:1060E00000000000000000000000000000000000B0
:1060F00000000000000000000000000000000000A0
:10610000000000000000000000000000000000008F
:10611000000000000000000000000000000000007F
:10612000000000000000000000000000000000006F
:10613000000000000000000000000000000000005F
:10614000000000000000000000000000000000004F
:10615000000000000000000000000000000000003F
:10616000000000000000000000000000000000002F
:10617000000000000000000000000000000000001F
:10618000000000000000000000000000000000000F
:1061900000000000000000000000000000000000FF
:1061A00000000000000000000000000000000000EF
:1061B00000000000000000000000000000000000DF
:1061C00000000000000000000000000000000000CF
:1061D00000000000000000000000000000000000BF
:1061E00000000000000000000000000000000000AF
:1061F000000000000000000000000000000000009F
:10620000364937480A1A02D0072291438D4635494C
:1062100035480A1A06D00722914381F309880222E1
:1062200082F3148831483249324A00F045F8324846
:106230003249334A00F040F832483349334A00F0DB
:106240003BF833483349344A00F036F83348344990
:10625000344A00F031F834483449354A00F02CF81B
:1062600034483549354A00F027F835483549002289
:1062700000F02DF834483549002200F028F8344861
:106280003449091A082903DB002202600430016046
:10629000314A90471F482049884205D0026804309F
:1062A00003B4904703BCF7E700208646EC46002085
:1062B00000212A4A9047FEE7884207D0521A05D0AB
:1062C000037801300B700131013AF9D170478842EF
:1062D00002D002700130FAE7704700000000012090
:1062E00000E00020000001200000012060430400C5
:1062F0003422002000230020D8630200D86302006B
:10630000D01A04006043040034220020342200200C
:10631000401C0400401C0400401C0400401C0400FD
:10632000401C0400401C0400401C0400401C0400ED
:10633000604304002C4404000023002000230020BC
:1063400000230020DC410020DC410020DC41002053
:10635000DC410020DC610020A1630200C5EF0200E7
:10636000FEE7FEE7FEE7FEE7FEE7FEE7FEE7FEE705
:10637000FEE7FEE7704700BF1048804710484FF027
:106380000701884385460F4880470F48016841F45C
:1063900070010160BFF34F8FBFF36F8FFFF730BF06
:1063A0000A480B490B4A884207D0521A05D0037895
:1063B00001300B700131013AF9D170477563020069
:1063C0000000012061AF020088ED00E02C1C0400F9
:0863D0002022002034220020ED
:1063D80082B04FF0FF33019300BF02B0704700B5A1
:1063E80083B001900091019B1B681B68009901987C
:1063F800984700BF03B05DF804FB00B583B0019077
:10640800019B1B685B680198984700BF03B05DF863
:1064180004FB00B583B00190019B1B689B68019841
:10642800984700BF03B05DF804FB82B00190019B60
:10643800DB6801225A7100BF02B0704782B0019038
:10644800019BDB685B79184602B0704700B585B0E0
:1064580001900091154BFF229A60144B00221A609C
:10646800124B00225A60114B0022C3F818240F4B1C
:106478000022C3F814240D4B002283F820240C4872
:1064880004F0ECFA0390039B002B01D0039B08E077
:10649800084804F083FC084A084BD31ADB08029327
:1064A8000023184605B05DF804FB00BFE82700206C
:1064B800581B0400401C04002C1C04006C1B040026
:1064C800024A034BD31ADB08184670472C1C0400F9
:1064D8006C1B040084B00190009100238DF80F30EC
:1064E800019B1B7803F00403DBB2002B24D0019B33
:1064F8001B78C3F30103DBB2012B02D0022B0CD0B3
:1065080017E0009B1B68019A1288C2F38312D2B26B
:1065180013449A1C009B1A600BE0009B1B68019AAD
:106528005288C2F3891292B213449A1C009B1A60D3
:1065380000BF01238DF80F309DF80F30184604B0C6
:106548007047000000B58BB00023ADF826303E48F8
:1065580003F081FC3D4803F07EFC3D4B5B680493EF
:106568003B4B9B680693049A069B134002339B009F
:10657800374A13440433089304AB19460898FFF7C5
:10658800A9FF0346002B09D0049A069B1340023347
:106598009B002F4A134404330893EDE700BF002300
:1065A800079311E0049B5A1C0492069A1340079A19
:1065B800920001A90A44264902339B000B445B68F8
:1065C8001360079B01330793079B012BEAD99DF8BA
:1065D8000430C3F30103DBB2012B10D0022B1CD112
:1065E800BDF80A30ADF82630BDF80630C3F389137C
:1065F8009BB203339A08049B1344049313E0BDF839
:106608000A30ADF82630BDF80430C3F38313DBB28B
:106618001A46049B1344049305E00E494FF4BF70D7
:1066280008F090F800BF094803F021FC0590059B8D
:10663800002B02D0049B064A5360BDF8263018464A
:106648000BB05DF804FB00BF002C0020FC2B0020E1
:10665800E8270020501C040000B585B00021074839
:1066680003F02EFB0390039B0293029B83F310031A
:106678000193019B184605B05DF804FB042C00202B
:1066880000B589B00390029101920093039B1B0C03
:106698000793FFF7E1FF0690FFF712FF0246079BFB
:1066A800934204D3214940F2A31008F04BF8069B0B
:1066B8001904009B5A1C0A9B1340079A0A431C4959
:1066C80002339B000B445A60009A0A9B1340023322
:1066D8009B00174A134404330593039B03F00703F5
:1066E800D9B2059A137861F3C5031370019B03F0BF
:1066F8000F03D9B2059A138861F389131380029B9B
:10670800C3F31501059A136861F39F231360059A73
:106718001378012161F301031370059A13786FF35D
:106728008203137000BF09B05DF804FB501C04001D
:10673800E827002000B58DB00390029113468DF82C
:106748000730039B02330A9301238DF82730002377
:106758008DF81B300DF11B03184601F07FFA404BF2
:106768001A68029B1A603E4B9A683D4B59683C4B2D
:106778001B68CB1A134401330B9314E001213948E9
:1067880003F02DFBFFF7DEFE07900799354803F06D
:1067980026FB334B9A68324B5968314B1B68CB1A2E
:1067A800134401330B930A9A0B9B9A42E6D89DF83F
:1067B8002730002B48D0002305939DF80730002B85
:1067C80017D09DF81430012262F301038DF81430BC
:1067D8009DF8143043F004038DF81430039B03F044
:1067E8000F03DAB2BDF8143062F38913ADF8143030
:1067F80016E09DF81430022262F301038DF814307C
:106808009DF8143043F004038DF81430039BC3F350
:1068180009039AB2BDF8163062F38F13ADF816303B
:106828000F4B1A680E4B9B68134002339B000C4AAF
:10683800134404330893059A089B1A60084B1A6896
:106848000A9B1344064A13609DF81B30184601F052
:106858001BFA9DF8273018460DB05DF804FB00BF01
:10686800E8270020042C002000B58BB00590049187
:10687800039202931F4B9B68079306AB01221946AC
:106888000298FFF757FF0346002B24D0069B0233DC
:1068980009930023089311E0089B9B00039A1A446C
:1068A800099B591C099107990B4012681149023339
:1068B8009B000B445A60089B01330893089A029B7B
:1068C8009A42E9D3069A079B00931346029A0499C1
:1068D8000598FFF7D5FE074B93F82034002B05D019
:1068E80000BF00F07BF80346002BFAD100BF0BB0C5
:1068F8005DF804FBE827002000B583B00190009103
:106908000023002200990198FFF7AEFF00BF03B0F3
:106918005DF804FB00B587B0039002910192019BDA
:10692800059305AA012302990398FFF79DFF00BF6D
:1069380007B05DF804FB00B587B00390029101929F
:106948000093019B0493009B059304AA02230299D8
:106958000398FFF789FF00BF07B05DF804FB00B597
:1069680089B00390029101920093019B0593009BCB
:1069780006930A9B079305AA032302990398FFF736
:1069880073FF00BF09B05DF804FB00B58BB003903E
:10699800029101920093019B0593009B06930C9B27
:1069A80007930D9B08930E9B099305AA052302994B
:1069B8000398FFF759FF00BF0BB05DF804FB000018
:1069C800054B5A68044B1B689A420CBF01230023ED
:1069D800DBB21846704700BFE827002000B599B021
:1069E800FFF7EEFF0346002B01D00023BCE19A4BD2
:1069F8000022C3F81824BFF34F8F974B5B680493AA
:106A0800954B9B681093049A109B134002339B008C
:106A1800914A1344043311930023179300231693C8
:106A280000230F9304AB19461198FFF753FD034653
:106A3800002B19D0884BD3F81834002B14D1864B6F
:106A48001A68049B9A4205D8834B1B68824A536094
:106A5800002389E1049A109B134002339B007E4A6D
:106A6800134404331193DDE70023159311E0049BCD
:106A78005A1C0492109A1340159A920001A90A44CC
:106A8800754902339B000B445B681360159B013307
:106A98001593159B012BEAD99DF8043003F00303E5
:106AA800DBB2022B40F09C80BDF80630C3F389139B
:106AB8009BB20D93BDF80630C3F389139BB2502BDC
:106AC80028BF50239BB20C930C9BC3F309039AB2C3
:106AD800BDF8063062F38F13ADF806300C9B08330F
:106AE8000B939DF80430C3F3C203DBB20F930B99E9
:106AF8005A4803F0BEFF1790179B002B00F0D08078
:106B0800179804F046F801A9169B0822179804F074
:106B1800FBF8169B08331693049BDA43109B13402B
:106B280001339B000A930C9A0A9B9A4242D90A9B0A
:106B3800002B08D0049A109B134002339B00464A4E
:106B48001344043300E0464B08930A9B002B02D001
:106B58000A9BDBB201E00C9BDBB28DF81F300A9B6D
:106B6800002B01D03E4B00E0002306930A9B002B2C
:106B780006D00C9BDAB20A9BDBB2D31ADBB200E078
:106B880000238DF817309DF81F20169B0899179839
:106B980004F0BAF89DF81F30169A13441693069B12
:106BA800002B16D09DF81720169B0699179804F00D
:106BB800ABF80EE0049A109B134002339B00264A60
:106BC800134404330993169B0C9A0999179804F0F7
:106BD8009BF80D9B03339A08049B134404935FE0CE
:106BE8009DF8043003F00303DBB2012B58D1BDF844
:106BF8000430C3F38313DBB2062B28BF0623DAB2B3
:106C0800BDF8043062F38913ADF80430BDF80430E0
:106C1800C3F38313DBB202330E939DF80430C3F33E
:106C2800C203DBB20F930E9B9B0019460B4803F07F
:106C380020FF1790179B002B32D0179803F0A9FF5D
:106C480001A9169B0822179804F05EF8169B0833D2
:106C58001693002315931AE0E8270020581B040018
:106C6800F4270020049B5A1C0492109A1340023304
:106C78009B003F4A1344191D169B0422179804F0E1
:106C880043F8169B04331693159B01331593BDF8EF
:106C98000430C3F38313DBB21A46159B9342E1D346
:106CA800179B002B40D0324BD3F810341493304B41
:106CB800D3F81834002B1BD0179803F079FF4DE058
:106CC80000238DF84F301498FFF7B8FB0346002BCC
:106CD80002D001238DF84F309DF84F30002B03D0A0
:106CE80017991498FFF77BFB149BDB681B681493B8
:106CF800149B002BE4D1179803F05AFF00238DF85A
:106D080003300DF10303184600F0A8FF184BD3F821
:106D18001834002B02D1049B154A53609DF80330A8
:106D2800184600F0B1FF19E0114BD3F81034129354
:106D380006E01298FFF76DFB129BDB681B68129345
:106D4800129B002BF5D10B4A0B4BD31ADB081B0403
:106D580043F0020309491846FFF7CEFDFFF730FE5E
:106D6800034683F00103DBB2184619B05DF804FB53
:106D7800E8270020A41B04006C1B0400CC1C0400A2
:106D880000B583B00C4BD3F8103401930A4B0122A1
:106D980083F8202409E00198FFF747FB0198FFF7E3
:106DA8002CFB019BDB681B680193019B002BF2D134
:106DB80000BF03B05DF804FBE827002086B003900D
:106DC8000291019201238DF817309DF817301F4A60
:106DD800039B13601D4A029B53601C4A019B9360EE
:106DE800039B44F20102934212D044F202029342FE
:106DF80021D1019B154AD360144BDB681B881A46C6
:106E0800124B9A61114BDB685B68104AD36112E040
:106E1800019B0E4A13610D4B1B699B680B4A53611A
:106E28000A4B1B691B68094A9361084B1B695B681D
:106E3800064AD36100BF72B600BF9DF81730DBB2B7
:106E4800002BFAD162B600BF06B070470C2C0020A8
:106E580000B583B002900091019244F2010071469E
:106E68006A4600F003F803B000BD00BF30B58BB030
:106E780007900691059272B6FFF782FF00BFFFF7F1
:106E8800ADFD0346002BFAD1079B41F20102934264
:106E98001BD041F20102934202D8012B09D05FE0D6
:106EA80044F2010293422ED044F20202934218D0D7
:106EB80056E0394A394BD31ADB081B0443F0010367
:106EC80037491846FFF718FD57E0334A334BD31AB2
:106ED800DB081B0443F0010332491846FFF70CFD99
:106EE8004BE0059B09932C4A2C4BD31ADB081B0457
:106EF80043F00100099B5B681A46099B1B882A49D5
:106F0800FFF719FD39E0059B0893234A234BD31A51
:106F1800DB081B0443F00104089B9D68089B9B68E1
:106F2800184603F0B5FF03461846089B5B681946E8
:106F3800089B1B68069A02920193009103462A4611
:106F48001A492046FFF721FD134A144BD31ADB08D0
:106F58001B0443F0010316491846FFF7CDFC0CE06B
:106F68000D4A0E4BD31ADB081B0443F00103069AA3
:106F780010491846FFF7CEFC00BF0F4B1B6803F003
:106F88000103002B00D000BE059A06990798FFF769
:106F980015FF00BF0BB030BDA41B04006C1B040020
:106FA800E01C0400001D0400241D0400401D040012
:106FB800681D04007C1D0400F0ED00E082B003466B
:106FC8008DF807309DF8073003F01F0205499DF939
:106FD80007305B09012000FA02F241F8232000BFC4
:106FE80002B0704700E100E082B003468DF8073038
:106FF8009DF8073003F01F0206499DF907305B0929
:10700800012000FA02F2203341F8232000BF02B029
:10701800704700BF00E100E082B003468DF80730FA
:107028009DF8073003F01F0206499DF907305B09F8
:10703800012000FA02F2403341F8232000BF02B0D9
:10704800704700BF00E100E082B003468DF80730CA
:107058009DF8073003F01F0206499DF907305B09C8
:10706800012000FA02F2603341F8232000BF02B089
:10707800704700BF00E100E082B0034600918DF840
:1070880007309DF90730002B0CDA009BDAB20C4967
:107098009DF8073003F00F03043B5201D2B20B44B2
:1070A8001A7609E0009BDAB206499DF907305201C9
:1070B800D2B20B4483F8002300BF02B0704700BF70
:1070C80000ED00E000E100E000B585B00190019B13
:1070D800002B0AD0074B43F001030393019B9B014C
:1070E8000293039B0298984700E000BF05B05DF843
:1070F80004FB00BFA01D040000B583B00190064A40
:10710800019BC2F8083507211120FFF7B5FF00BF22
:1071180003B05DF804FB00BF0010014008B50D4B3B
:107128004FF48032C3F844230A4B4FF48032C3F83B
:1071380004231120FFF788FF1120FFF73FFF054BBD
:1071480001221A602F20FFF7BFFF034B01221A709C
:1071580000BF08BD001001404A2D002008B51120CD
:10716800FFF742FF0E4B4FF48032C3F848230C4B15
:107178004FF48032C3F80823094B01225A602F20AC
:10718800FFF7A2FF064B01229A60064B00221A6005
:107198002F20FFF799FF044B00221A7000BF08BD8B
:1071A800001001403C2D00204A2D0020024BD3F84E
:1071B80004351846704700BF0010014082B00190A6
:1071C8000091019A009BD31A23F07F43184602B01E
:1071D8007047000082B00190034A019BC2F8403515
:1071E80000BF02B0704700BF0010014086B0019098
:1071F800284B1B68002B03D1264A019B136045E0EE
:10720800019B1A68234B1B681B689A4210D8214BB4
:107218001B681968019B1A681E4B1B688A1A1A603A
:107228001C4B1A68019BDA611A4A019B13602DE016
:10723800019B1B680393174B1B680593154B1B6831
:10724800049309E0049B1B68039AD31A0393049BD5
:107258000593049BDB690493049B002B04D0049BD7
:107268001B68039A9A42EDD8049B002B05D0049B17
:107278001A68039BD21A049B1A60019B039A1A602E
:10728800019B049ADA61059B019ADA6100BF06B096
:10729800704700BF382D002000B587B001902A4BF9
:1072A8001B680393284B1B680593059B049308E010
:1072B800049A019B9A4208D0049B0593049BDB69BE
:1072C8000493049B002BF3D100E000BF049B002B28
:1072D80001D1002333E0059A049B9A4214D11A4B3A
:1072E8001B68DB69184A1360174B1B68002B0BD10E
:1072F800164B01229A60164B00221A60154B012288
:107308001A702F20FFF7E0FE049B1B680293049B72
:10731800DA69059BDA61059BDB690493049B002B02
:1073280005D0049B1A68029B1A44049B1A60064BFA
:107338001B68039A9A4214BF01230023DBB2184644
:1073480007B05DF804FB00BF382D00200010014095
:107358003C2D00204B2D002008B51120FFF75CFEC6
:1073680000BF08BD08B51420FFF756FE00BF08BDD2
:1073780000B583B00190019B5B69019A9269104640
:10738800984700BF03B05DF804FB000000B585B066
:107398002B4B1B68002B4ED000230193FFF706FFF1
:1073A8000246284B1B6819461046FFF707FF029054
:1073B800234B1B6803931DE0039B1B68029A9A42A8
:1073C8001CD3039B1B68029AD31A0293039B1B6866
:1073D800019A13440193039B0093039BDB69039376
:1073E800009B1B7C002B05D0009B00221A74009880
:1073F800FFF7BEFF039B002BDED100E000BF124B5E
:107408001A78124B1B789A420CD1104B1B78013317
:10741800DAB20E4B1A700D4B1B78022B02D10B4BB4
:1074280000221A70094B1B781946094A019B42F839
:107438002130FFF797FF00BF05B05DF804FB00BFE0
:10744800382D00203C2D0020482D0020492D0020FB
:10745800402D002082B00190184B1A78184B1B78E9
:107468009A4223D0154B1B780133DAB2134B1A70AA
:10747800124B1B78022B02D1104B00221A700F4BB3
:107488001B781A460F4B53F82220019B1A60019B68
:107498001A680D4B1B6813440B4A13600A4B1B6890
:1074A80023F07F43084A1360012303E0019B002275
:1074B8001A600023184602B0704700BF482D00200C
:1074C800492D0020402D00203C2D002088B003903D
:1074D800029101920023079338E0204B1B68069322
:1074E800069B1B68039A9A4206D2069B1A68039B5E
:1074F800D21A069B1A602DE0069B1B68039AD31AC2
:107508000393069B1B68079A13440793069B002264
:107518001A60124B1B680593069BDB690F4A1360C0
:10752800069BDB68002B11D0029A079B134423F0BB
:107538007F42069B5A60069BDA68069B9A60019B0D
:107548001A68069BDA61019B059A1A60034B1B684F
:10755800002BC2D100BF08B0704700BF382D0020F3
:1075680000B589B0019000238DF81F30664B1B6869
:107578000593AAE0019B002B05D0019B0693069B6F
:10758800DB69019361E0614B1B781A4613465B0087
:107598001344DB005D4A1344043304935B4B1B78AC
:1075A8000133DAB2594B1A70584B1A78574B9B78FB
:1075B8009A4202D1554B00221A70049B5B680693CD
:1075C800049B1B78022B04D0032B1BD0012B1FD04C
:1075D8001DE0049B5B681846FFF75EFE0346002B20
:1075E80002D001238DF81F30069B00221A746CE02C
:1075F800454B1B680393039B00221A74039BDB69AA
:10760800414A1360404B1B68002BF1D15DE05CE000
:1076180000BF069B1B7C002B00D056E0049B9A6899
:10762800069B5A60049BDA68069B9A60049B1A6959
:10763800069BDA60049B5A69069B9A61344B1B7857
:10764800002B02D0069B00225A60069B5A68314BD9
:107658001B68D31A23F07F432F4A93420ED8069B08
:107668005A682C4B1B6819461046FFF7A7FD0246BF
:10767800069B9B681A44069B1A6017E0254B1A68FC
:10768800069B5B6819461046FFF798FD0290069B1B
:107698009B68029A9A4206D2069B9A68029BD21A63
:1076A800069B1A6002E0069B00221A60069B0022D5
:1076B8005A60069B00229A60069B01221A74069B58
:1076C8000022DA610698FFF791FD019B002B7FF4F9
:1076D80051AF0E4B1A780D4B5B789A427FF44AAF44
:1076E8009DF81F30002B04D1074B1B68059A9A425E
:1076F80001D0012300E0002303F00103DBB21846A8
:1077080009B05DF804FB00BF382D00202C2C0020A8
:107718004B2D00203C2D0020FEFF7F0010B588B0C7
:107728000190274B1B68002B44D0254B1B681B6816
:107738000793FFF73BFD0690224B1B6805930599BD
:107748000698FFF73BFD0346033304931E4B1B7853
:1077580083F00103DBB2002B01D0FFF7DFFC049AB2
:10776800079B934238BF1346059A13440593059B1C
:1077780023F07F4305930598FFF72CFDFFF716FDCF
:10778800039006990398FFF719FD0346DC1C069938
:107798000598FFF713FD03469C420DD9FFF706FD38
:1077A80003461846FFF716FD2F20FFF78DFCFFF75D
:1077B800D3FD01E0FFF7D2FC00BF08B010BD00BF49
:1077C800382D00203C2D00204A2D002000B587B020
:1077D8000023019300238DF81730194B1B6804937D
:1077E800184B1B6803936B461846FFF733FE034696
:1077F8008DF80B309DF80B30002B08D0009B01AAA8
:1078080004991846FFF762FE01238DF81730019B93
:107818001846FFF7A5FE0346002B02D001238DF87A
:1078280017309DF81730002B02D00398FFF776FF2A
:10783800054B00221A7000BF07B05DF804FB00BFBB
:107848003C2D0020382D00204B2D002082B003460F
:107858008DF80730034A9DF80730537000BF02B017
:10786800704700BF2C2C002084B00190144B5B782B
:1078780001338DF80F30124B9B789DF80F209A42F8
:1078880002D100238DF80F300D4B1B789DF80F2087
:107898009A4201D100230FE0019B9DF80F201A7036
:1078A800074B5B781A4613465B001344DB00044A17
:1078B800134404330293029B184604B0704700BF78
:1078C8002C2C002000B589B00390029101920093FE
:1078D8000023079300238DF816300DF11603184680
:1078E80000F0BCF90DF117031846FFF7BDFF06902D
:1078F800069B002B02D10423079318E0069B012264
:107908001A70069B039A5A60FFF750FC0246069BC2
:107918009A60069B029ADA60069B019A1A61069B96
:10792800009A5A619DF817301846FFF78FFF9DF8A7
:107938001630184600F0A8F9079B002B01D1FFF775
:1079480011FD079B184609B05DF804FB00B587B028
:1079580001900B468DF803300023059300238DF822
:107968000E300DF10E03184600F078F90DF10F03F3
:107978001846FFF779FF0490049B002B02D10423DB
:1079880005930BE0049B9DF803201A70049B019A51
:107998005A609DF80F301846FFF758FF9DF80E30D3
:1079A800184600F071F9059B002B01D1FFF7DAFCAE
:1079B800059B184607B05DF804FB000008B50E4BA0
:1079C8000022C3F840210C4B0022C3F844210A4B83
:1079D8000022C3F84821084B0022C3F84C21064B6B
:1079E8000022C3F80021044B0022C3F80421FFF74A
:1079F800CDFC00BF08BD00BF0010014008B5FFF76F
:107A0800E5FE00BF08BD000008B5FFF7A7FB134B54
:107A180000221A70114B00225A70104B0B229A70D8
:107A28000F4B00221A600F4B00221A700E4B0022D7
:107A38001A701420FFF708FB07211420FFF71CFB1E
:107A48001420FFF7BBFA0020FFF756FBFFF7AEFB49
:107A58000246064B1A600023184608BD2C2C00204D
:107A6800382D0020482D0020492D00203C2D0020D5
:107A780086B003900B4601928DF80B30134B9B7820
:107A8800002B01D108231EE0019B002B01D1072305
:107A980019E0039B002B01D1072314E0039B1B680B
:107AA8001B7C002B01D008230DE0039B1B6805936A
:107AB800059B00221A74059B9DF80B205A74059BA0
:107AC800019A5A610023184606B070472C2C0020F2
:107AD80000B587B0039002910192039B0593144B64
:107AE8009B78002B01D108231EE0039B002B01D1BA
:107AF800082319E0029B042B01D8072314E0059BF7
:107B08005B69002B01D108230EE0059B5B7C012BF0
:107B180001D1029B00E000230493019B049A02997F
:107B28000598FFF7CFFE0346184607B05DF804FB3B
:107B38002C2C002000B585B00190019B03930D4BC0
:107B48009B78002B01D1082310E0019B002B03D068
:107B5800039B5B69002B01D1082307E0039B0022EC
:107B68001A7402210398FFF7F1FE0346184605B080
:107B78005DF804FB2C2C002082B0EFF310830093F7
:107B8800009B019372B6019B184602B0704762B61B
:107B980000BF704700B585B00190FFF7EDFF039077
:107BA800164B9B68002B1BD1144B01229A60144B77
:107BB800D3F88020134B1340104A1360104B114A1E
:107BC800C3F880200E4BD3F884300C4A53600C4B1A
:107BD8004FF0FF32C3F88420019B00221A7002E0A4
:107BE800019B01221A70039B002B01D1FFF7CFFFE5
:107BF8000023184605B05DF804FB00BF4C2D00209B
:107C080000E100E0FC06FFBD00B585B003468DF835
:107C18000730104B9B68002B16D09DF80730002BBF
:107C280012D1FFF7A9FF03900B4A0A4B1B68136098
:107C3800094A084B5B685360064B00229A60039B15
:107C4800002B01D1FFF7A3FF0023184605B05DF80C
:107C580004FB00BF4C2D002000E100E000B583B01C
:107C6800019000F02BF80346012B03D0054943206F
:107C780006F068FD0198FFF78DFF00BF03B05DF8BF
:107C880004FB00BFA81D040000B583B003468DF8AF
:107C9800073000F013F80346012B03D006495120A2
:107CA80006F050FD9DF807301846FFF7ADFF00BFFE
:107CB80003B05DF804FB00BFA81D040084B0EFF317
:107CC80005830193019BC3F308030393039B002BD4
:107CD8000DD1EFF314830093009B0293029B03F0F2
:107CE8000103002B0CBF01230023DBB200E00123BA
:107CF800184604B0704782B00190019B03F003035B
:107D0800002B0CBF01230023DBB2184602B07047DA
:107D180000B585B00190002303930EE00A4A039B47
:107D280052F82330002B05D0074A039B52F8233022
:107D380001989847039B01330393039B032BEDD9C9
:107D480000BF05B05DF804FB682D002082B00190EB
:107D58000091019B1B78013B052B61D801A252F8C9
:107D680023F000BF857D02008D7D0200B37D0200F7
:107D7800E57D0200057E0200217E0200009B0022B4
:107D88001A704EE0009B01221A70019B1A89009B11
:107D98009A81019B9A88009BDA81019BDA68009B93
:107DA8009A60009B00221A743BE0009B02221A7022
:107DB800019B1A89009B9A81019B9A88009BDA8112
:107DC800019BDA68009B9A60019B9B7D062B0CBF88
:107DD80001230023DAB2009B1A7422E0009B0322DD
:107DE8001A70019BDA88009B9A81019B1A89009B73
:107DF800DA81019BDA68009B9A6012E0009B0422FA
:107E08001A70019BDA88009B9A81009B0022DA8114
:107E1800009B00229A6004E0009B05221A7000E093
:107E280000BF00BF02B0704784B001900091019B71
:107E38000393039A009B9A4206D2039B1B68B3F1F3
:107E4800FF3F01D0012300E0002303F00103DBB270
:107E5800184604B0704782B00190019B5B880333D9
:107E68009B00019A1344184602B0704700B583B0CE
:107E7800019000910198FFF7EEFF0246009B9342A4
:107E880001D202230CE0019B9B884FF6FF729342BC
:107E980003D0019B1B88002B01D1012300E00023A4
:107EA800184603B05DF804FB00B583B00190019B50
:107EB800002B13D00D4BDB681A46019B93420DD360
:107EC8000A4B1B691A46019B934207D80198FFF792
:107ED80012FF0346002B01D0012300E0002303F02A
:107EE8000103DBB2184603B05DF804FB2022002032
:107EF80082B00190019B002B04D0019B1B680B4AA8
:107F0800934201D003230DE0019B04331B68084A08
:107F1800934204D0074A934203D1012302E000238D
:107F280000E00323184602B0704700BFDEC0ADDE94
:107F3800FE011EF1FF011EF184B00190002303939E
:107F48000CE0039B9B00019A13441B68B3F1FF3FAD
:107F580001D0002307E0039B01330393039BB3F590
:107F6800806FEED30123184604B0704782B00346F1
:107F78000A46ADF806301346ADF80430BDF80620C1
:107F8800134913469B0013449B000B4408331A887B
:107F9800BDF804301344ADF80430BDF806200C4990
:107FA80013469B0013449B000B440A331A88BDF800
:107FB80004301344ADF80430BDF8043040F2FF3209
:107FC800934294BF01230023DBB2184602B07047E6
:107FD800182E002084B0019000910A2303930023F7
:107FE800ADF80A3027E0BDF80A20174913469B0070
:107FF80013449B000B4404331B68009A9A4215D91A
:10800800BDF80A20104913469B0013449B000B44FB
:1080180004331B6803F58053009A9A4206D2002362
:108028000393019BBDF80A201A8008E0BDF80A30C6
:108038000133ADF80A30BDF80A30012BD3D9039BC0
:10804800184604B0704700BF182E002000B589B04C
:10805800039002910192039B03F580530693039BBF
:1080680008330393029B02221A80039B079332E092
:1080780006990798FFF7FAFE03468DF817309DF822
:108088001730002B0AD1079B9A68184B1B689A4235
:1080980013D9079B9B68154A13600EE0019B002BC0
:1080A80002D0019B01221A709DF81730022B04D1CF
:1080B800029B4FF480621A8014E0029B1A88079B87
:1080C8005B8813449BB203339AB2029B1A800798C9
:1080D800FFF7C1FE079006990798FFF7A5FE03462C
:1080E800002BC5D109B05DF804FB00BF782D002036
:1080F80082B001900091009B9B7D022B09D9019BC6
:108108001A89009BDB8813449BB203339AB2019B04
:108118001A81019B5A89009BDB88D31A9BB2033BC7
:108128009AB2019B5A8100BF02B0704700B583B074
:10813800074B1B681946002300930823054A064885
:1081480001F0FAFF0346184603B05DF804FB00BFD0
:10815800402E0020881E04002022002000B585B093
:1081680003900399002300930823044A044801F06C
:10817800E3FF0346184605B05DF804FB901E0400B3
:108188002022002000B585B003460091ADF80630E6
:1081980000238DF80F30BDF806300333ADF80A30F0
:1081A800BDF80A3040F2FD32934201D909234AE072
:1081B8000023ADF80C303BE0BDF80C2024491346F1
:1081C8009B0013449B000B441B78002B2BD1BDF85C
:1081D8000A20BDF80C3011461846FFF7C7FE0346C3
:1081E800002B20D001238DF80F30009BBDF80C2008
:1081F8001A80BDF80C20164913469B0013449B00B7
:108208000B440A331988BDF80C20BDF80A300B441A
:1082180098B20F4913469B0013449B000B440A3342
:1082280002461A8008E0BDF80C300133ADF80C3076
:10823800BDF80C30012BBFD99DF80F30002B01D0B1
:10824800002300E00723184605B05DF804FB00BFD3
:10825800182E002082B003460A46ADF806301346B1
:10826800ADF80430BDF804200D4913469B001344B3
:108278009B000B440A331A88BDF80630D31A9BB208
:10828800BDF80420033B98B2054913469B001344EC
:108298009B000B440A3302461A8000BF02B07047A5
:1082A800182E002008B50121024801F098FD034668
:1082B800184608BD782D002000B585B0034600910A
:1082C800ADF80630BDF80620234913469B00134439
:1082D8009B000B4404331B6803F580530293009BF7
:1082E8001B680393039B002B04D00398FFF7B3FD8F
:1082F800039024E0BDF80620174913469B00134459
:108308009B000B4404331B680833039317E002995E
:108318000398FFF7ABFD0346012B09D0022B0CD0C5
:10832800002B00D00BE0009B039A1A6001230EE09B
:108338000398FFF790FD039001E0002307E00299FE
:108348000398FFF771FD0346002BE0D10023184680
:1083580005B05DF804FB00BF182E002000B585B0FD
:1083680001900091019B5B681846FFF79DFD03464D
:10837800002B19D0019B1A89244B1B899A4213D1CF
:10838800019B1A68019B5B689B689A420CD1019B10
:108398005B6819460098FFF71DFE0346002B0CBFCB
:1083A80001230023DBB22CE0009B00221A8023E08B
:1083B8000023029310E0029B0393039B9A68019B9E
:1083C8001B689A4208D1029A019B5A600F4B1A897E
:1083D800019B1A81012314E0009B1B8802AA114605
:1083E8001846FFF769FF0346002BE4D1009B1B8862
:1083F80001339AB2009B1A80009B1B88012BD7D9A6
:108408000023184605B05DF804FB00BF482E002085
:1084180000B587B00390029101920093304B1B780E
:10842800DBB283F00103DBB2002B01D0022353E05F
:10843800019B002B02D0009B002B48D105234BE069
:10844800009B9B881946274A0B469B000B449B00C0
:1084580013441B78002B33D124E0009B1B68059341
:10846800039B002B06D0059B9A88039B1B889A4286
:1084780000D017E0029B002B06D0059B1A88029BB0
:108488001B889A4200D00DE0059B9A68019B1A60F0
:10849800009B1A68019B5A60134B1A89019B1A8129
:1084A800002319E0009B9B88009A11461846FFF7A5
:1084B80003FF0346002BD0D1009B00221A6000E086
:1084C80000BF009B9B8801339AB2009B9A80009B57
:1084D8009B88012BB4D90A23184607B05DF804FB22
:1084E800582D0020182E0020482E002000B585B0F9
:1084F8000190084B0199184601F0CFFA03901C220D
:108508000021039819F07DFA039B184605B05DF821
:1085180004FB00BF082E002000B583B00190044B77
:108528000199184601F0D2FA00BF03B05DF804FBC8
:10853800082E002000B583B00190054B019918461C
:1085480001F0D8FA0346184603B05DF804FB00BFF3
:10855800082E002000B583B00190044B01991846FD
:1085680001F0E1FA00BF03B05DF804FB082E00201B
:1085780008B50A4B1B68002B04D1094940F27A2040
:1085880006F0E0F80121054801F041FC0346002B04
:1085980014BF01230023DBB2184608BD602D00205C
:1085A800201E040000B587B0002305930023ADF812
:1085B80012300323ADF8103000238DF80F3000235C
:1085C800ADF80C30F0E0BDF80C301B031A467F4BB9
:1085D800DB68134402930298FFF78AFC03468DF880
:1085E80007309DF80730012B00F09C80032B02D048
:1085F800002B62D0D3E00298FFF79EFC0346002BC5
:108608003BD0734B1B68002B29D0BDF81220714951
:1086180013469B0013449B000B4402221A70BDF8BA
:1086280012206C4913469B0013449B000B440433EF
:10863800029A1A60BDF81220664913469B0013443B
:108648009B000B44083302221A80634ABDF812309B
:108658005380BDF812300133ADF8123008E05C4A9F
:10866800029B13605A4B02229A8001238DF80F3027
:10867800059B43F00103059391E0BDF81030013BE1
:10868800ADF81030BDF81220524913469B00134430
:108698009B000B440433029A1A60BDF812204D491E
:1086A80013469B0013449B000B4403221A70BDF829
:1086B80012300133ADF8123071E0BDF8122045498F
:1086C80013469B0013449B000B4400221A70BDF80C
:1086D8001220404913469B0013449B000B4404336B
:1086E800029A1A60BDF8122013469B0013449B009F
:1086F8000833384A9918BDF8122013469B001344D2
:108708009B001033334A13441A460298FFF79EFC25
:10871800059B43F002030593BDF812300133ADF811
:1087280012303CE09DF80F30002B25D0BDF8122008
:10873800284913469B0013449B000B4402221A70DD
:10874800BDF81220224B1968224813469B00134497
:108758009B00034404331960BDF812201D491346D9
:108768009B0013449B000B44083302221A80BDF877
:1087780012300133ADF81230154A029B1360002203
:1087880016490298FFF762FC114B9B88022B01D116
:10879800042300E00823059A1343059300BFBDF89E
:1087A8000C300133ADF80C30BDF80C30022B7FF6DD
:1087B8000AAFBDF81030012B01D800230593059BA3
:1087C800DBB2184607B05DF804FB00BF202200208A
:1087D800402E0020182E0020482E0020442E002075
:1087E80000B587B003900291039B02229A75029903
:1087F800039B1A1D002300930423074801F09CFCE7
:108808000590059B002B01D1002300E00E2318469C
:1088180007B05DF804FB00BF2022002000B587B038
:1088280003900291039B1B69002B01D0032200E0F7
:108838000122039B9A75029B08331946039B03F197
:108848000C02002300930423064801F075FC0590F0
:10885800059B002B01D1002300E00E23184607B02A
:108868005DF804FB2022002000B587B00390029138
:10887800039B1B78032B01D1052200E00622039BF2
:108888009A75029B04331946039B03F108020023DF
:1088980000930423064801F04FFC0590059B002B2C
:1088A80001D1002300E00E23184607B05DF804FB51
:1088B8002022002000B587B003900B46ADF80A309F
:1088C80003990023009304230C4A0D4801F034FC5B
:1088D8000590059B002B01D00E230BE0BDF80A2064
:1088E800084913469B0013449B000B441033012294
:1088F8001A700023184607B05DF804FB981E0400A0
:1089080020220020182E002000B589B0019002AB6B
:1089180000221A605A609A60019BDB6802930DF18D
:10892800160202AB11461846FFF718FD0346002B46
:1089380012D0039B0693069B9A88019BDA80069BBC
:108948001A88019B1A81039BBDF816201146184608
:10895800FFF7B0FF079001E00A230793079B18462B
:1089680009B05DF804FB000000B587B00190019BD9
:10897800981D02AA0D4B0021FFF74AFD0590059BA3
:10898800002B08D1039A094B9B8819461046FFF71C
:1089980091FF059004E008220021044819F031F8FD
:1089A800059B184607B05DF804FB00BF582E002051
:1089B80000B587B003900291039B01229A75029B30
:1089C8000C331846039B1A69039BDB889900002324
:1089D80000930B460146074801F0AEFB0590059B46
:1089E800002B01D1002300E00E23184607B05DF8E4
:1089F80004FB00BF2022002082B0184B1B890133E2
:108A08009AB2164B1A81154B00225A80134B00223A
:108A18001A730023ADF8063018E0BDF80620104997
:108A280013469B0013449B000B441A78BDF806308C
:108A3800002A0CBF01220022D1B2084A13440A4678
:108A48009A72BDF806300133ADF80630BDF806302D
:108A5800012BE2D900BF02B0704700BF482E0020AA
:108A6800182E002084B0019000238DF80F300023C9
:108A7800ADF80C3031E0BDF80C301C4A13449B7A39
:108A8800002B25D0BDF80C30184A134400229A72E6
:108A9800BDF80C20164913469B0013449B000B4459
:108AA8000C331B68002B13D1BDF80C20104913465A
:108AB8009B0013449B000B4410331B78002B07D0FA
:108AC800019BBDF80C201A8001238DF80F3008E0B7
:108AD800BDF80C300133ADF80C30BDF80C30012B6B
:108AE800C9D99DF80F30184604B07047482E0020A9
:108AF800182E002008B5084B05221A70074B0222D1
:108B08009A80064B1B68194600230122044801F08D
:108B1800F5FB0346184608BD482E0020402E0020CD
:108B28002022002000B583B0164B5B88ADF80230D8
:108B3800BDF80220144913469B0013449B000B44C4
:108B48000C331B68002B14D10E4B04221A70BDF88D
:108B580002200D4913469B0013449B000B44043329
:108B68001B68194600230122084801F0C7FB019041
:108B780002E0FFF7BFFF0190019B184603B05DF8C4
:108B880004FB00BF482E0020182E002020220020C1
:108B980000B587B0114B5B680593114B1A68104BF1
:108BA8009B889B0013440493059B5B880333ADF8B3
:108BB8000E300A4B03221A700499084B5A68BDF804
:108BC8000E309800002300930346064801F0B4FADB
:108BD8000346184607B05DF804FB00BF482E002086
:108BE800402E00202022002000B583B00A4B5B886D
:108BF8000A491846FFF760FB0346002B03D0FFF72E
:108C0800C7FF019002E0FFF78DFF0190019B184616
:108C180003B05DF804FB00BF482E00204C2E002056
:108C280008B50A4B06221A70084B5B881946084A91
:108C38000B469B000B449B00134404331B681846E7
:108C4800FFF78CFA0346184608BD00BF482E0020DF
:108C5800182E002008B5054B07221A70034B002276
:108C68005A60FFF763FA0346184608BD482E0020ED
:108C780008B50D48FFF7F6FE034683F00103DBB2A3
:108C8800002B0BD0094B00221A70084B00225A8087
:108C9800064B00225A6041F61D5302E0FFF7A4FF7D
:108CA8000346184608BD00BF4A2E0020482E002063
:108CB80082B0094B5B680193019B5B880333ADF875
:108CC8000230064B9A88BDF8023013449AB2034B1F
:108CD8009A8000BF02B07047482E0020402E002026
:108CE80082B0184B1B680193174B5B881946174ACB
:108CF8000B469B000B449B00134404331B68114A2A
:108D08001360114B5B881946104A0B469B000B44B5
:108D18009B0013440433019A1A600B4B5B88194675
:108D2800084B9888094A0B469B000B449B00134448
:108D3800083302461A80034B02229A8000BF02B011
:108D4800704700BF402E0020482E0020182E00201B
:108D580008B51A4B1B78072B2CD801A252F823F020
:108D6800898D0200BD8D0200BD8D0200958D020027
:108D7800A18D0200AD8D0200AD8D0200B58D0200FF
:108D8800FFF73AFE0D4B01221A7014E0FFF790FF2F
:108D98000A4B02221A700EE0FFF7A2FF074B0622C9
:108DA8001A7008E0054B07221A7004E0034B0122F1
:108DB8001A7000E000BF00BF08BD00BF482E0020A9
:108DC80000B587B0019000910F230593019B002BFC
:108DD80004D0624B00225A600123BBE0009B1B7940
:108DE800032B00F2AB8001A252F823F0058E02009B
:108DF800138E0200A18E0200C18E0200009B012288
:108E08001A71FFF793F905909BE000238DF8133052
:108E18000023ADF810302BE0BDF810205049134660
:108E28009B0013449B000B441B78022B1BD1BDF8FD
:108E380010204B4913469B0013449B000B4400220F
:108E48001A7001238DF81330BDF8102044491346D9
:108E58009B0013449B000B4404331B681846FFF720
:108E68007DF9059008E0BDF810300133ADF81030F9
:108E7800BDF81030012BCFD99DF8133083F00103D2
:108E8800DBB2002B5CD0354B01221A70334B002229
:108E98005A6041F61D535DE0009B00221A71314B68
:108EA80002229A802F4B1B681946002301222E4864
:108EB80001F024FA059044E0009B00221A71294B26
:108EC8001B681846FFF74AF90590284B5B88ADF8F0
:108ED8000E30244B1B680293BDF80E202049134620
:108EE8009B0013449B000B4404331B681D4A13600A
:108EF800BDF80E201A4913469B0013449B000B44EF
:108F08000433029A1A60BDF80E20164B988814494B
:108F180013469B0013449B000B44083302461A80F7
:108F2800104B02229A80BDF80E200D4913469B0073
:108F380013449B000B4400221A7002E000BF00E0BB
:108F480000BF059B002B04D0044B00225A600E235F
:108F580000E00023184607B05DF804FB582D0020F8
:108F6800182E0020402E002020220020482E00200D
:108F780000B587B001900091009B9B8A1A46134662
:108F88009B0013449B003A4A13440493019B002B13
:108F980005D000990498FFF7ABF8012363E0049B20
:108FA8005A68049B1B899B0013440393009B9B7D79
:108FB800062B4DD801A252F823F000BF07900200FB
:108FC8002B900200139002001F900200E18F020014
:108FD8003790020051900200264B00225A60009BF5
:108FE8009B69244A136024492248FFF7B7F90346CE
:108FF80083F00103DBB2002B01D00A2333E003998D
:109008000098FFF7EDFB059025E003990098FFF71E
:1090180005FC05901FE003990098FFF7C9FC05902F
:1090280019E003990098FFF71FFC059013E0009BD7
:1090380006229A750F4B5A680F4B1B881946104623
:10904800FFF738FC059006E041F61D53059302E052
:109058000F23059300BF059B002B03D000990498AC
:10906800FFF746F8059B184607B05DF804FB00BFFC
:10907800182E0020602E00206C2E002000B585B030
:1090880001900091019B002B01D0012323E0009B5C
:109098001B79012B0BD0022B14D0002B16D1009B6F
:1090A80002221A710098FFF72FFC039012E0009833
:1090B800FFF75AFC0390039B0A2B0AD141F61D5374
:1090C800039306E041F61D53039303E00F23039334
:1090D80000E000BF039B184605B05DF804FB0000E4
:1090E80000B585B00190019B002B01D001233BE026
:1090F8001F4B1B7B002B03D01D4B00221A7301E072
:10910800FFF726FE1A4B1B78013B062B28D801A235
:1091180052F823F03991020041910200499102006E
:109128005191020069910200599102006191020077
:10913800FFF79EFD039016E0FFF756FD039012E03F
:10914800FFF726FD03900EE0FFF7ECFC03900AE022
:10915800FFF766FD039006E0FFF77CFD039002E051
:109168000F23039300BF039B184605B05DF804FB6B
:10917800482E002000B589B001903F4B1B68002B9A
:1091880005D13E48FFF7D6F902463B4B1A603A4BE9
:109198001B68002B04D13A4940F2825005F0D2FAFC
:1091A800354B1B681B78013B052B2CD801A252F8C4
:1091B80023F000BFD5910200E5910200E59102007D
:1091C800F5910200F5910200059202002A4B1B68F6
:1091D80019460198FFF7F4FD019017E0264B1B682C
:1091E80019460198FFF7C4FE01900FE0224B1B6857
:1091F80019460198FFF742FF019007E00198FFF731
:109208006FFF019002E00F23019300BF019B002B29
:109218002BD003AB00221A605A609A60DA601A6198
:10922800019B41F61D52934201D0019B00E00023AF
:109238000493114B1B6803AA11461846FEF786FDD6
:1092480003AB1846FEF764FD0B4B00221A6000239F
:1092580001930A48FFF77EF9FFF78AF9034683F07E
:109268000103DBB2002B02D187E700BF00E000BF9B
:1092780000BF09B05DF804FB702E0020742E00209A
:10928800201E040008B50121054800F090FD0346A2
:10929800002B02D10020FFF76DFF00BF08BD00BF03
:1092A800602D002000B583B00190019B5B681846D3
:1092B800FFF760FF00BF03B05DF804FB00B58BB09B
:1092C8000390029101928DF803300023ADF8243009
:1092D8000023ADF82630514B1B78DBB283F0010335
:1092E800DBB2002B01D0022393E0029B002B01D1BB
:1092F80005238EE0029B1B884FF6FF72934203D032
:10930800029B5B88002B01D1042382E0029B5B68EF
:109318001846FEF7F0FC034683F00103DBB2002B8E
:1093280001D0032375E0019B002B11D1029B9B68A0
:10933800ADF826300DF11A02BDF826301146184650
:10934800FEF720FF0890089B002B09D0089B60E0DF
:10935800019B1B88ADF81A30019B5B88ADF826305D
:1093680005AB1846FFF7C2F80790079B002B09D1F9
:10937800BDF81A20BDF8263011461846FEF76AFFD8
:10938800082346E0079B9DF803201A70079B0022DC
:109398009A75BDF81A20079B9A82029B5A68079B08
:1093A8001A61FEF77FFF0246079BDA60029B1A8864
:1093B800079B1A81029B5A88079B9A80079BBDF8D6
:1093C8002620DA809DF80330032B06D1079B042260
:1093D8009A75039B1A68079B9A61079BBDF824201E
:1093E8005A8105AB1846FFF797F8039B002B0DD061
:1093F800039B00225A60079BDA68039B1A60039B51
:1094080000229A72064B1A89039B1A81FFF73AFFCA
:10941800002318460BB05DF804FB00BF582D002050
:10942800482E002000B585B001900C4B1B68042B1A
:1094380002D10C2303930BE0084B1B680849019ADF
:1094480041F823200121054800F0C9FC00230393BB
:10945800039B184605B05DF804FB00BF642D00208F
:10946800682D002084B04FF010235B6903934FF000
:1094780080531B6902934FF080535B690193039BF0
:10948800B3F1FF3F04D1019B029A02FB03F300E012
:10949800039B184604B0704700B583B04FF440539F
:1094A8000193FFF7DFFF0246054B1A61044B1A6967
:1094B800019BD31A024AD36000BF03B05DF804FBD6
:1094C8002022002008B5FFF7E7FF002203490448DF
:1094D80000F0EAFD0346184608BD00BF0C21040051
:1094E8002022002008B504481C238C22034900F0E0
:1094F8008DFA00BF08BD00BF082E00207C2D00207B
:1095080000B58BB002AB00221A605A609A60DA602C
:109518001A61404B1B78DBB2002B05D002AB184612
:10952800FEF7F6FB002371E03B4800F088FC034699
:10953800002B01D0002369E0FFF7C4FF0990099BC5
:10954800002B01D0099B61E0FFF7CCFFFFF72AF859
:1095580003468DF823309DF82330022B0DD0062BBF
:109568000DD0002B09D000BF01AB1846FEF7BEFF97
:109578000790079B002B10D10DE00B2346E0254BED
:1095880001221A70234B00225A6002AB1846FEF7DC
:10959800BFFB00233AE0082338E0079B01221A703A
:1095A8009DF82330013B0A2B28D801A252F823F05A
:1095B800E595020005960200E59502000596020071
:1095C800FD95020005960200FD9502000596020031
:1095D800ED950200F5950200ED950200079B00222B
:1095E8001A710CE0079B03221A7108E0079B0222FC
:1095F8001A7104E0079B01221A7100E000BF01AB59
:109608001846FEF789FFFFF73DFE002318460BB00A
:109618005DF804FB582D00205C2D002000B585B0B6
:1096280001900091019B002B02D0009B002B01D1DF
:10963800052329E00DF10A0319460198FEF78EFE6D
:109648000346002B1FD0019B5B680393BDF80A30CB
:109658001A4613469B0013449B0008330C4A1344D4
:1096680004330121184600F0BAFB009B039A1A60E4
:10967800019B5B6803F10C02009B5A60019B01226D
:109688009A72002300E00A23184605B05DF804FB2F
:10969800182E002000B585B00190019B002B01D148
:1096A800052339E00DF10A0319460198FEF756FE25
:1096B8000346002B2DD0BDF80A301946184A0B4630
:1096C8009B000B449B0013440C331B68002B1DD0DC
:1096D800019B9B7A002B19D0BDF80A301A46104915
:1096E80013469B0013449B000B440C331B68591E04
:1096F8000B4813469B0013449B0003440C3319602A
:10970800019B00229A720023039304E0062303932B
:1097180001E00A230393039B184605B05DF804FB98
:10972800182E002000B583B001900091022300227A
:1097380000990198FFF7C2FD0346184603B05DF88B
:1097480004FB00B583B001900091019B002B01D16F
:10975800052306E00323002200990198FFF7AEFDD8
:109768000346184603B05DF804FB000000B585B059
:109778000346ADF80630184B1B78DBB283F00103C3
:10978800DBB2002B01D0022322E0BDF806304FF6F1
:10979800FF72934201D104231AE002AB1846FEF788
:1097A800A5FE0390039B002B01D1082310E0039B27
:1097B80005221A70039B01221A71039BBDF806202B
:1097C800DA8002AB1846FEF7A7FEFFF75BFD002321
:1097D800184605B05DF804FB582D002000B583B08D
:1097E800144B1B78DBB283F00103DBB2002B01D0F2
:1097F80002231AE06B461846FEF778FE0190019B9B
:10980800002B01D1082310E0019B06221A706B4639
:109818001846FEF781FE084B1B78002B02D0064B3A
:1098280001221A73FFF72EFD0023184603B05DF8D6
:1098380004FB00BF582D0020482E002000B585B03D
:10984800029201930346ADF80E300B46ADF80C308A
:1098580003A90DF10E00019B029AFEF7D9FD0346FC
:10986800184605B05DF804FB00B585B003460291C3
:109878000192ADF80E300DF10E01019B029A002005
:10988800FEF7C6FD0346184605B05DF804FB00B5B3
:1098980085B0034602910192ADF80E300DF10E002D
:1098A800019B029A0021FEF7B3FD0346184605B056
:1098B8005DF804FB82B001900091019B002B02D05F
:1098C800009B002B01D1052304E0019B1A68009B33
:1098D8001A600023184602B0704786B001900091C4
:1098E800019B53E8011F8AB2D889024498898242B1
:1098F80028BF121A1889824202BFBFF32F8F002394
:1099080007E0C2EA010243E801200028E9D14FF04C
:1099180001038DF80F30059002910492029A009B82
:109928001A609DF80F30DBB2184606B0704784B055
:109938000190019951E8013FC3EA034341E801322C
:10994800002AF7D10392029300BF04B0704786B093
:1099580001900091019B53E8021F1FFAA1F2D888D9
:10996800824202BFBFF32F8F00230DE0D889024443
:109978009889824228BF121AC1EA024243E80220AB
:109988000028E8D14FF001038DF80F3005900291BF
:109998000492029A009B1A609DF80F30DBB21846B9
:1099A80006B0704784B00190019951E8023FC3EABC
:1099B800234341E80232002AF7D10392029300BF01
:1099C80004B0704786B00190019B53E8021FDA8803
:1099D800B1EB314F4FF0000017BF89B242EA0242A3
:1099E80041EA024204E05968B1EB314F08BF012057
:1099F80043E802210029E8D18DF80F00059104926F
:109A08009DF80F30DBB2184606B0704784B003905B
:109A1800029111461A460B46ADF806301346ADF8CA
:109A28000430029B002B01D10E231FE0BDF8063045
:109A3800BDF80420B3FBF2F102FB01F29B1A9BB2C2
:109A4800002B01D0092311E0039B029A1A60039BA3
:109A580000225A60039B00229A60039BBDF80620EF
:109A68009A81039BBDF80420DA810023184604B0CC
:109A7800704700B585B001900198FFF7A3FF034632
:109A88008DF80F309DF80F30002B01D0002300E037
:109A98001123184605B05DF804FB00B585B00190A8
:109AA8000091009B19460198FFF717FF0346002B0A
:109AB80007D0019B1B68009A128813440393039BE9
:109AC80000E00023184605B05DF804FB00B583B03C
:109AD80001900091009B1A88009B5B889A4204D1F0
:109AE8000198FFF724FF012300E00023184603B084
:109AF8005DF804FB00B585B001900091009B194604
:109B08000198FFF724FF0346002B07D0019B1B6831
:109B1800009A528813440393039B00E000231846DD
:109B280005B05DF804FB00B583B001900091009B7F
:109B38001A88009B5B889A4204D10198FFF732FF8C
:109B4800012300E00023184603B05DF804FB00B5CC
:109B580085B001900091009B5B099B00019AD01889
:109B6800009B03F01F03012202FA03F3194600F0D9
:109B7800D6F8039000BF05B05DF804FB00B583B0CC
:109B880001900091009B5B099B00019AD018009BF3
:109B980003F01F03012202FA03F3194600F0A7F8A5
:109BA8000246009B03F01F0322FA03F303F00103AC
:109BB800002B14BF01230023DBB2184603B05DF865
:109BC80004FB00B585B001900091009B5B099B00E8
:109BD800019AD018009B03F01F03012202FA03F335
:109BE800DB43194600F0CBF8039000BF05B05DF8E1
:109BF80004FB82B001900091009B5B099B00019AD5
:109C080013441A68009B03F01F0322FA03F303F0BE
:109C18000103002B14BF01230023DBB2184602B056
:109C2800704700B58BB001900091002309933BE089
:109C3800099B9B00019A13441B68DB430693069B10
:109C480093FAA3F30593059BB3FA83F3089323E0F0
:109C5800099B5B01089A13440793079A009B9A4251
:109C68001ED207990198FFF789FF034683F0010385
:109C7800DBB2002B01D0079B1EE0099B9B00019AD9
:109C880013441B68DB430493049B93FAA3F30393E5
:109C9800039BB3FA83F30893089B1F2BD8D900E0E2
:109CA80000BF099B01330993009B013B5B0901330A
:109CB800099A9A42BCD3009B18460BB05DF804FB86
:109CC80010B487B001900091019B009A53E8004FAF
:109CD800104643E8000191F0000FF7D10594049075
:109CE8000391059B184607B05DF8044B704710B404
:109CF80087B001900091019B009A53E8004F44EA15
:109D0800020043E8000191F0000FF6D10594049099
:109D18000391059B184607B05DF8044B704710B4D3
:109D280087B001900091019B009A53E8004F44EAE4
:109D3800020043E8000191F0000FF6D10594049069
:109D48000391049B184607B05DF8044B704710B4A4
:109D580087B001900091019B009A53E8004F04EAF4
:109D6800020043E8000191F0000FF6D10594049039
:109D78000391059B184607B05DF8044B704710B473
:109D880087B001900091019B009A53E8004F04EAC4
:109D9800020043E8000191F0000FF6D10594049009
:109DA8000391049B184607B05DF8044B704710B444
:109DB80087B001900091019B009A53E8004F04EB93
:109DC800020043E8000191F0000FF6D105940490D9
:109DD8000391059B184607B05DF8044B704710B413
:109DE80087B001900091019B009A53E8004F04EB63
:109DF800020043E8000191F0000FF6D105940490A9
:109E08000391049B184607B05DF8044B704710B4E3
:109E180087B001900091019B009A53E8004FA4EB92
:109E2800020043E8000191F0000FF6D10594049078
:109E38000391049B184607B05DF8044B704700B5C2
:109E480083B0019001210198FFF751FF034618469E
:109E580003B05DF804FB00B583B0019001210198BF
:109E6800FFF75DFF0346184603B05DF804FB00B535
:109E780083B0019000210198FFF769FF0346184657
:109E880003B05DF804FB000000B583B001900B46F9
:109E98008DF80330019B002B03D10849E82004F01A
:109EA80051FC019BDA689DF803300199098A01FB8E
:109EB80003F31344184603B05DF804FB9C1E04002A
:109EC80000B583B001900091019B002B03D1084994
:109ED800F52004F037FC009B019AD2689B1A019A7E
:109EE800128AB3FBF2F3DBB2184603B05DF804FB49
:109EF8009C1E040000B585B00190019B002B01D188
:109F08000E234DE0019B1B68002B03D12649FF203F
:109F180004F018FC019B5B68002B04D122494FF424
:109F2800807004F00FFC019B9B68002B04D11E4934
:109F380040F2011004F006FC019BDB68002B04D101
:109F480019494FF4817004F0FDFB019B1B8A002B1B
:109F580004D1154940F2031004F0F4FB019B9B68FF
:109F68001A46019B5B68D31A8DF80F30019B1B685A
:109F7800019A52681A6007E0019B1A681368591C15
:109F880011609DF80F201A709DF80F305A1E8DF839
:109F98000F20002BF0D1019B1B6800221A710023AF
:109FA800184605B05DF804FB9C1E040000B585B09A
:109FB8000190019B002B04D120494FF4927004F0CA
:109FC800C1FB0023039300238DF80A300DF10A0327
:109FD8001846FDF743FE019B1B681A68019B5B68E6
:109FE8009A4220D9019B1B681A68013A1A601B68BB
:109FF8001B7819460198FFF747FF0390019B9B6860
:10A008001A46019B1B681B68D31A8DF80B30019BFD
:10A018001B681B799DF80B209A4204D9019B1B6889
:10A028009DF80B201A719DF80A301846FDF72CFE92
:10A03800039B184605B05DF804FB00BF9C1E040096
:10A0480010B584B001900091019B002B04D11549F3
:10A0580040F2471004F076FB009B002B04D1114915
:10A068004FF4A47004F06EFB009B039300238DF85B
:10A078000B300DF10B031846FDF7F0FD019B1B6833
:10A088001C68621C1A6003990198FFF719FF0346C0
:10A0980023709DF80B301846FDF7F6FD00BF04B09D
:10A0A80010BD00BF9C1E040000B587B00590049148
:10A0B8000392059B002B10D1194A1A4BD31ADB08BF
:10A0C8001B0443F00100184A18490E2300930B465D
:10A0D8001749FCF744FC0E231DE0049B002B10D10C
:10A0E8000F4A104BD31ADB081B0443F00100114A36
:10A0F8000E490E2300930B460D49FCF730FC0E2346
:10A1080009E0059B049A1A60059B1B681B68039964
:10A11800059898470346184607B05DF804FB00BF4A
:10A12800BC1B04006C1B0400201F0400C420040096
:10A13800281F0400541F040010B586B00590049130
:10A1480003920293059B002B10D1604A604BD31AEF
:10A15800DB081B0443F001005E4A5F490E230093AD
:10A168000B465E49FCF7FBFB0E23ABE0039B002B81
:10A1780010D1564A564BD31ADB081B0443F0010092
:10A18800574A55490E2300930B465449FCF7E7FB01
:10A198000E2397E0059B1B68002B10D14B4A4C4BB4
:10A1A800D31ADB081B0443F001004E4A4A4908232E
:10A1B80000930B464949FCF7D2FB082382E0029B37
:10A1C800002B10D1414A424BD31ADB081B0443F041
:10A1D8000100454A4049092300930B463F49FCF7D3
:10A1E800BEFB09236EE0059B5B685A68029BB3FBC4
:10A1F800F2F102FB01F29B1A002B10D0334A344BC8
:10A20800D31ADB081B0443F00100384A32490923FA
:10A2180000930B463149FCF7A2FB092352E004984E
:10A2280000F01EF90346002B10D1284A284BD31AF8
:10A23800DB081B0443F001002D4A27491023009333
:10A248000B462649FCF78BFB10233BE0039B184683
:10A2580000F006F90346002B10D11C4A1C4BD31AF8
:10A26800DB081B0443F00100224A1B49102300931A
:10A278000B461A49FCF773FB102323E0029A049952
:10A28800059800F0D3F80346002B10D10F4A104B65
:10A29800D31ADB081B0443F00100174A0E491023A8
:10A2A80000930B460D49FCF75AFB10230AE0059B67
:10A2B8001B68DC68089B0093029B039A0499059825
:10A2C800A0470346184606B010BD00BFBC1B0400DB
:10A2D8006C1B0400201F0400D8200400281F040061
:10A2E800B41F04005C1F0400701F0400BC1F04009E
:10A2F800E81F0400002004002420040010B586B0E4
:10A308000590049103920293059B002B10D13E4ABD
:10A318003E4BD31ADB081B0443F001003C4A3D497D
:10A328000E2300930B463C49FCF719FB0E2368E00B
:10A33800059B1B68002B10D1334A344BD31ADB081A
:10A348001B0443F00100354A3249082300930B46A9
:10A358003149FCF704FB082353E0039B002B10D181
:10A36800294A2A4BD31ADB081B0443F001002C4A64
:10A378002849092300930B462749FCF7F0FA0923DB
:10A388003FE00499059800F078F80346002B10D1B7
:10A398001D4A1E4BD31ADB081B0443F00100214A57
:10A3A8001C49102300930B461B49FCF7D8FA1023CD
:10A3B80027E0059B5B681B68039A02FB03F31A46B8
:10A3C8000499059800F032F80346002B10D10E4A84
:10A3D8000E4BD31ADB081B0443F00100124A0D4947
:10A3E800102300930B460C49FCF7B9FA102308E038
:10A3F800059B1B681C69029B039A04990598A04752
:10A408000346184606B010BDBC1B04006C1B0400B4
:10A41800201F0400EC200400281F04005C1F040017
:10A42800701F04004C2004007420040084B00390C2
:10A4380002910192039BDB68029A9A4209D3029A1D
:10A44800019B13445A1E039B1B699A4201D801239E
:10A4580000E0002303F00103DBB2184604B07047A4
:10A4680082B00190019B03F00303002B0CBF012372
:10A478000023DBB2184602B0704782B00190009109
:10A48800019B5B681B685A1E009B1340002B0CBF86
:10A4980001230023DBB2184602B0704729DF70475A
:10A4A80000BF184628DF704700BF184600B589B0BE
:10A4B80001900091019B1B689B68002B35D002AB73
:10A4C80000221A605A609A60DA601A615A61009B29
:10A4D8000393019B9B680793019B1B79002B02D078
:10A4E800012B0DD01AE001238DF80830019B1B6960
:10A4F8000493019BDB680593019B5B6906930DE060
:10A5080002238DF80830019BDB684FF4805202FB70
:10A5180003F30493019B5B69069300BF019B1B68CF
:10A528009B6802AA1046984700E000BF09B05DF892
:10A5380004FB00B587B00190019B5A69019B9B6998
:10A54800D31AB3F5805F28BF4FF4805305930422D4
:10A55800059BB3FBF2F3012B38BF01230593019B45
:10A568001A69019B9B6913440493019BDB681A4693
:10A57800019B9B6913440393059A03990498FFF779
:10A588008DFF0346184607B05DF804FB00B583B09D
:10A598000190019BDA68019B1B6913441846FFF779
:10A5A80081FF0346184603B05DF804FB08B5034B6A
:10A5B80003491846FFF7B7FA00BF08BD042F00206B
:10A5C8002C2F002008B5084B08491846FFF792FAC7
:10A5D8000246074B1A60064B1B68002B14BF012369
:10A5E8000023DBB2184608BD042F00202C2F0020C2
:10A5F800282F002000B583B02A4B1B7A002B0BD1E3
:10A60800FFF7E0FF034683F00103DBB2002B03D022
:10A61800244B00225A6042E0224B02221A72224B3B
:10A628001B681B79002B02D0012B07D00DE01E4BB5
:10A638001B681846FFF77DFF019009E01A4B1B685D
:10A648001846FFF7A3FF019002E00323019300BF20
:10A65800019B002B02D0112B0CD00FE0114B1B7C5F
:10A6680083F00103DBB2002B18D00021022000F098
:10A6780061F913E00B4B01221A7210E00A4B1B68B8
:10A6880003211846FFF712FF064B00221A72054BEA
:10A6980000225A60FFF78AFF00BF00E000BF03B046
:10A6A8005DF804FB142F0020282F002008B5084867
:10A6B800FFF7C5FB0346002B08D1064B5B7C83F0F4
:10A6C8000103DBB2002B01D0FFF794FF00BF08BDE8
:10A6D800182F0020142F002084B001901B4B00225B
:10A6E800DA60019B1B79002B02D0012B19D028E0DE
:10A6F800019B5A69019B9B69D31AB3F5805F28BFF8
:10A708004FF480530393019B9A69039B1A44019B5E
:10A718009A61019B9A69019B5B699A420ED1012358
:10A7280010E0019B1B695A1C019B1A61019B1A6965
:10A73800019B5B699A4203D1012303E000BF00E05B
:10A7480000BF0023184604B0704700BF142F002034
:10A7580082B00190084BDB680133074AD360064B8F
:10A76800DB68082B04D9044B0022DA60012300E0DF
:10A778000023184602B07047142F002000B583B09C
:10A7880001900091019B0C4A5A600C48FFF757FB57
:10A798000346002B0BD116F0BFF903461A46074BA8
:10A7A8001A7407481C238C220649FFF72FF9002347
:10A7B800184603B05DF804FB00210400142F0020A4
:10A7C800042F0020782E002000B583B0019000915E
:10A7D80014220021054817F014F9054B1846FFF715
:10A7E80048F90023184603B05DF804FB142F002035
:10A7F800042F002000B587B00390029101920093C6
:10A80800174A04AB19461046FFF747F90590059B10
:10A81800002B01D104231FE01C220021059817F00A
:10A82800F0F8059B00221A71059B039A1A60059B94
:10A83800089A9A60059B029A1A61059B019ADA6048
:10A84800059B009A5A61064A04AB19461046FFF761
:10A858003DF9FFF72BFF0023184607B05DF804FB0E
:10A86800042F002000B585B0039002910192009357
:10A87800029B009A1946019817F09AF80023184687
:10A8880005B05DF804FB000000B587B003900291A5
:10A8980001920093184A04AB19461046FFF7FDF8D9
:10A8A8000590059B002B01D1042320E01C220021E8
:10A8B800059817F0A6F8059B01221A71059B039AC3
:10A8C8001A60059B009A9A604FF48052029BB3FB72
:10A8D800F2F2059BDA60059B019A5A61064A04ABBD
:10A8E80019461046FFF7F2F8FFF7E0FE0023184676
:10A8F80007B05DF804FB00BF042F002082B0019070
:10A908000091009B184602B0704782B001900091F8
:10A918000023184602B0704782B00190044B1B7A9E
:10A92800002B14BF01230023DBB2184602B0704786
:10A93800142F002000B585B001900091019B022BD7
:10A9480002D0019B032B49D1274B1B7A012B35D011
:10A95800022B02D0002B43D033E000238DF80F30B8
:10A96800019B022B02D0032B09D011E01F4B1B685F
:10A978001846FFF7B1FE03468DF80F3008E01B4B71
:10A988001B681846FFF7E4FE03468DF80F3000BF3A
:10A998009DF80F30002B13D0134B00221A72134B63
:10A9A8001A68019B022B01D1002300E00D231946F0
:10A9B8001046FFF77BFDFFF7F9FD01E000BF00E05F
:10A9C80000BF094B5B7C83F00103DBB2002B02D094
:10A9D800FFF710FE05E016F083F802E000BF00E084
:10A9E80000BF05B05DF804FB142F0020282F0020BD
:10A9F80082B0034600918DF80730064B01225A7445
:10AA0800044B1B7A002B0CBF01230023DBB2184632
:10AA180002B07047142F002000B583B003460091A0
:10AA28008DF807309DF80730012B03D09DF80730CB
:10AA3800032B0DD1084B00225A749DF80730012BC7
:10AA48000CBF01230023DAB2034B1A74FFF7D2FDBF
:10AA580000BF03B05DF804FB142F002000B583B0DD
:10AA680001900198FFF746FA0346184603B05DF8CF
:10AA780004FB00B58BB001900091019B1B8A043B3D
:10AA88000793009A079B1344DA1C079BB2FBF3F366
:10AA98008DF81B300198FFF789FA0590059B002B6C
:10AAA80001D1002338E0059B00221A71059B012281
:10AAB8005A71079B9AB2059BDA80059B09939DF80A
:10AAC8001B30013B0493099B019A1A6000230893E9
:10AAD8001DE00198FFF76AFA0390039B002B0ED044
:10AAE800059B5B790133DAB2059B5A71099B039A7E
:10AAF8001A60039B019A1A60039B099304E0059866
:10AB080000F00EF8002307E0089B01330893089A29
:10AB1800049B9A42DDD3059B18460BB05DF804FBF5
:10AB280000B58BB00190019B0793079B5B798DF86B
:10AB38001B30019B08939DF81B30013B05930023B4
:10AB4800099305E0089B1B680893099B0133099347
:10AB5800099A059B9A42F5D3089B1B680493019BAD
:10AB68000893002309930BE0089B1B68039308993B
:10AB78000498FFF765FA039B0893099B013309932F
:10AB88009DF81B30099A9A42EED300BF0BB05DF8CE
:10AB980004FB00B585B00190019B0393039B04332C
:10ABA80001211846FFF71BF900BF05B05DF804FB4B
:10ABB80000B587B00190019B0593059B04330121E3
:10ABC8001846FFF724F90346039303AB0493049B49
:10ABD8001B78002B02D10198FFF7A2FF00BF07B036
:10ABE8005DF804FB00B591B00390029101920093C7
:10ABF800039B002B03D14349B62003F0A3FD039B1D
:10AC08000993039B0F93099BDB881A46099B5B7981
:10AC180003FB02F3043B0893009A089B9A4203D370
:10AC28003849C42003F08EFD099BDB880793009BFD
:10AC38001A1D079BB2FBF3F30E93009B0433079A8C
:10AC4800B3FBF2F2079901FB02F29B1A0D93019BE9
:10AC58001A68009B1344089A9A4203D2089A009BE8
:10AC6800D31A01E0019B1B680C93019B0C9A1A6094
:10AC780005E00F9B1B680F930E9B013B0E930E9BE9
:10AC8800002BF6D100230B93079A0D9BD31A0A9336
:10AC98000A9A0C9B934228BF13460A932AE0029A09
:10ACA8000B9B134406930F9A0D9B1344043305938F
:10ACB8009DF84830002B05D00A9A0599069816F099
:10ACC80077FE04E00A9A0699059816F071FE0023AB
:10ACD8000D930F9B1B680F930C9A0A9BD31A0C9326
:10ACE8000B9A0A9B13440B93079A0C9B934228BF19
:10ACF80013460A930C9B002BD1D100BF11B05DF80D
:10AD080004FB00BF2C21040000B589B00590049114
:10AD180003920293039B079307AA00230093029BC5
:10AD280004990598FFF75EFF079B039A9A4203D0A0
:10AD38000349F62003F006FD00BF09B05DF804FBE7
:10AD48002C21040000B583B00190019B002B03D196
:10AD58000649722003F0F6FC019B00221A60BFF33B
:10AD68005F8F00BF03B05DF804FB00BFF42104004F
:10AD780008B5064B00221A700548FFF7E3FF05499E
:10AD8800054800F029F80023184608BD342F002094
:10AD9800302F0020B0220400382F002082B001900C
:10ADA800019B9B6800229A60019B9B6800221A61A4
:10ADB800019B9B6800225A61019B9B680022DA6014
:10ADC800019B9B6800225A60019B9B6800221A60C5
:10ADD80000BF02B07047000000B583B00190009139
:10ADE800019B002B03D11049502003F0ABFC009BC2
:10ADF800002B03D10C49512003F0A4FC019B009ABD
:10AE08001A60019B1B681A68019B5A60019B5A686B
:10AE1800019B1B685B689A4202D1019B00225A6021
:10AE280000BF03B05DF804FBBC22040000B583B08A
:10AE38000190019B002B03D11449632003F082FC8D
:10AE4800019B1B68002B03D11049642003F07AFC96
:10AE5800019B5B68002B14D0019B5B681A46019B21
:10AE68001B689B6813441A46019B5A60019B5A68E9
:10AE7800019B1B685B689A4204D1019B00225A60BF
:10AE880000E000BF03B05DF804FB00BFBC22040073
:10AE980000B585B00190019800F00EF80390039B6F
:10AEA800002B01D0039B00E0024B184605B05DF86B
:10AEB80004FB00BF4823040086B00190164B05939D
:10AEC800164B04931FE0049A059BD31ADB10DA0F84
:10AED80013445B10DB00059A13440393039B1B6820
:10AEE8000293029A019B9A4202D9039B04930AE0B7
:10AEF800029A019B9A4203D2039B0833059302E00E
:10AF0800039B5B6804E0059A049B9A42DBD3002309
:10AF1800184606B0704700BF482704007028040090
:10AF2800BFF34F8F054BDB6803F4E0620349044B22
:10AF38001343CB60BFF34F8F00BFFDE700ED00E088
:10AF48000400FA05024B034A1A6000BF704700BFAD
:10AF5800342200200090D00308B500F05DF90346C4
:10AF6800002B06D09A4B1B681B0A9A4A03F01F0352
:10AF7800136000F07DF90346002B02D0964B974AE8
:10AF88001A6000F091F90346002B06D0944B1B6819
:10AF98005B0B944A03F00703136000F0B1F9034612
:10AFA800002B05D0904BDB688F4A23F08073D36069
:10AFB80000F0C2F90346002B0ED04FF08043002268
:10AFC800C3F80C214FF080430022C3F810214FF042
:10AFD80080430022C3F8382500F0DAF90346002B35
:10AFE80002D0824B03221A6000F0EEF90346002BD0
:10AFF8000BD07F4B05221A607E4B01221A607E4BD4
:10B0080000221A607D4B3F221A6000F0F9F90346CE
:10B01800002B76D04FF08053794AD3F80434C2F825
:10B0280020354FF08053764AD3F80834C2F82435D7
:10B038004FF08053724AD3F80C34C2F828354FF0D9
:10B0480080536F4AD3F81034C2F82C354FF0805330
:10B058006B4AD3F81434C2F830354FF08053684A3D
:10B06800D3F81834C2F834354FF08053644AD3F813
:10B078001C34C2F840354FF08053614AD3F820346D
:10B08800C2F844354FF080535D4AD3F82434C2F8EF
:10B0980048354FF080535A4AD3F82834C2F84C3513
:10B0A8004FF08053564AD3F82C34C2F850354FF03D
:10B0B8008053534AD3F83034C2F854354FF0805394
:10B0C8004F4AD3F83434C2F860354FF080534C4AB5
:10B0D800D3F83834C2F864354FF08053484AD3F86F
:10B0E8003C34C2F868354FF08053454AD3F84034B1
:10B0F800C2F86C354FF08053414AD3F84434C2F853
:10B10800703500F099F90346002B05D03D4B1B68BC
:10B118003D4A03F04F03136000F0BAF90346002BD1
:10B128000DD04FF08043D3F8003403F00103002B17
:10B1380005D04FF080436FF00102C3F8002400F0FF
:10B14800D3F90346002B05D0304B1B682F4A43F434
:10B15800806313602E4BD3F888302D4A43F4700374
:10B16800C2F88830BFF34F8FBFF36F8F4FF01023B3
:10B17800D3F80C3203F00103012B25D1254B012212
:10B18800C3F8042500BF234BD3F80034002BFAD0B2
:10B198004FF01023D3F80C324FF0102223F00103A4
:10B1A800C2F80C3200BF1B4BD3F80034002BFAD086
:10B1B800184B0022C3F8042500BF164BD3F80034FF
:10B1C800002BFAD0FFF7ACFEFFF7BCFE00BF08BDAE
:10B1D800240300104035014074C007400DF0ADBA9B
:10B1E800440200103C050040F0ED00E0A0050040DE
:10B1F800105600408856004018560040145600402B
:10B2080000C0004058020010E40E00403C17004007
:10B2180000ED00E000E00140124B1B68DBB2062B9A
:10B228001DD1114B1B6803F00F03002B17D10F4BD7
:10B238001B6803F0F003302B01D1012310E00B4B06
:10B248001B6803F0F003402B01D1012308E0074BF2
:10B258001B6803F0F003502B01D1012300E0002309
:10B2680018467047E00F00F0E40F00F0E80F00F018
:10B278000A4B1B68DBB2062B0DD1094B1B6803F088
:10B288000F03002B07D1074B1B6803F0F003302B8B
:10B2980001D1012300E0002318467047E00F00F0B9
:10B2A800E40F00F0E80F00F0124B1B68DBB2062B2E
:10B2B8001DD1114B1B6803F00F03002B17D10F4B47
:10B2C8001B6803F0F003302B01D1012310E00B4B76
:10B2D8001B6803F0F003402B01D1012308E0074B62
:10B2E8001B6803F0F003502B01D1012300E0002379
:10B2F80018467047E00F00F0E40F00F0E80F00F088
:10B308000A4B1B68DBB2062B0DD1094B1B6803F0F7
:10B318000F03002B07D1074B1B6803F0F003302BFA
:10B3280001D1012300E0002318467047E00F00F028
:10B33800E40F00F0E80F00F0124B1B68DBB2062B9D
:10B348001DD1114B1B6803F00F03002B17D10F4BB6
:10B358001B6803F0F003302B01D1012310E00B4BE5
:10B368001B6803F0F003402B01D1012308E0074BD1
:10B378001B6803F0F003502B01D1012300E00023E8
:10B3880018467047E00F00F0E40F00F0E80F00F0F7
:10B398000A4B1B68DBB2062B0DD1094B1B6803F067
:10B3A8000F03002B07D1074B1B6803F0F003302B6A
:10B3B80001D1012300E0002318467047E00F00F098
:10B3C800E40F00F0E80F00F00A4B1B68DBB2062B15
:10B3D8000DD1094B1B6803F00F03002B07D1074B56
:10B3E8001B6803F0F003302B01D1012300E0002398
:10B3F80018467047E00F00F0E40F00F0E80F00F087
:10B408000A4B1B68DBB2062B0DD1094B1B6803F0F6
:10B418000F03002B07D1074B1B6803F0F003502BD9
:10B4280001D1012300E0002318467047E00F00F027
:10B43800E40F00F0E80F00F0124B1B68DBB2062B9C
:10B448001DD1114B1B6803F00F03002B17D10F4BB5
:10B458001B6803F0F003302B01D1012310E00B4BE4
:10B468001B6803F0F003402B01D1012308E0074BD0
:10B478001B6803F0F003502B01D1012300E00023E7
:10B4880018467047E00F00F0E40F00F0E80F00F0F6
:10B49800124B1B68DBB2062B1DD1114B1B6803F046
:10B4A8000F03002B17D10F4B1B6803F0F003302B51
:10B4B80001D1012310E00B4B1B6803F0F003402B74
:10B4C80001D1012308E0074B1B6803F0F003502B60
:10B4D80001D1012300E0002318467047E00F00F077
:10B4E800E40F00F0E80F00F0064B1B68062B05D1AF
:10B4F800054B1B68062B01D1012300E000231846E9
:10B50800704700BF300100103401001082B00346BC
:10B518008DF807309DF8073003F01F0206499DF9A2
:10B5280007305B09012000FA02F2203341F823209A
:10B5380000BF02B0704700BF00E100E008B515F099
:10B54800EBFA034683F00103DBB2002B03D1054974
:10B55800792003F0F7F800F04FFB034B00229A70B4
:10B5680000BF08BD78280400402F002000B583B034
:10B5780000230193144B1B78002B02D085230193E1
:10B588001CE0114B00229A600F4B00225A600E4BB0
:10B5980000221A610C4B0022DA600C4800F0D6FA3F
:10B5A800019015F0B9FA034683F00103DBB2002BD2
:10B5B80001D000F0F1FA044B01221A70019B1846E1
:10B5C80003B05DF804FB00BF402F00209DB70200C8
:10B5D80084B001900091019B1B68039306E0039AD5
:10B5E800009B9A420DD0039B1B680393039B002B7F
:10B5F800F5D1019B1A68009B1A60019B009A1A609A
:10B6080000E000BF04B0704784B00190019B1B6844
:10B618000393039B002B03D0039B1A68019B1A60BA
:10B62800039B184604B0704700B585B00190294BBC
:10B638001B78002B03D12849E92003F083F8254B18
:10B648009B78DBB2002B19D0019B002B03D0019B08
:10B658005B680120984700238DF80F300DF10F0328
:10B668001846FCF7FBFA1B4BDB680133194AD36019
:10B678009DF80F301846FCF707FB1EE000238DF8F5
:10B688000E300DF10E031846FCF7E8FA019B002B6B
:10B6980003D001991148FFF79BFF0E4BDB68002B85
:10B6A80001D100F08DFA0B4BDB680133094AD360F6
:10B6B8009DF80E301846FCF7E7FA064BDB68002BBE
:10B6C80004D1054940F2051003F03CF800BF05B06D
:10B6D8005DF804FB402F002078280400502F00203C
:10B6E80000B583B0164B1B78002B04D115494FF4D5
:10B6F800857003F027F8124BDB68002B04D1114941
:10B7080040F20B1003F01EF800238DF807300DF1FE
:10B7180007031846FCF7A2FA094BDB68013B084A05
:10B72800D360074BDB68002B01D1FFF707FF9DF8BB
:10B7380007301846FCF7A8FA00BF03B05DF804FB11
:10B74800402F00207828040000B585B003468DF806
:10B7580007309DF80730002B02D10C4B039301E012
:10B768000B4B03930398FFF74FFF0290029B002BAC
:10B7780006D0029B5B689DF8072010469847F1E7C2
:10B7880000BF00BF05B05DF804FB00BF482F0020D4
:10B79800502F002000B583B003468DF807309DF880
:10B7A8000730002B05D10A4B01225A700020FFF701
:10B7B800CBFF9DF80730012B05D1054B01229A706C
:10B7C8000120FFF7C1FF00BF03B05DF804FB00BF15
:10B7D800402F002000B583B001900091019B002B01
:10B7E80005D1054B01225A700020FFF7ADFF00BFBD
:10B7F80003B05DF804FB00BF402F002000B585B002
:10B80800034600918DF807309DF80730012B08D0CA
:10B81800032B25D0002B00D030E00020FFF776FE68
:10B828002CE000238DF80F300DF10F031846FCF7BC
:10B8380015FA144B1B7883F00103DBB2002B01D0FF
:10B84800FFF794FE0F4BDB6801330E4AD3600D4BB4
:10B8580001229A709DF80F301846FCF715FA0DE092
:10B86800084B1B78002B04D1074940F2452002F011
:10B8780069FF00F091F9FFF733FF00BF00BF05B083
:10B888005DF804FB402F00207828040082B00346AE
:10B898008DF807309DF8073003F01F0205499DF920
:10B8A80007305B09012000FA02F241F8232000BFAB
:10B8B80002B0704700E100E082B003468DF807301F
:10B8C8009DF8073003F01F0206499DF907305B0910
:10B8D800012000FA02F2603341F8232000BF02B0D1
:10B8E800704700BF00E100E082B0034600918DF888
:10B8F80007309DF90730002B0CDA009BDAB20C49AF
:10B908009DF8073003F00F03043B5201D2B20B44F9
:10B918001A7609E0009BDAB206499DF90730520110
:10B92800D2B20B4483F8002300BF02B0704700BFB7
:10B9380000ED00E000E100E000B583B003460A46F0
:10B948008DF8073013468DF806309DF80630012B28
:10B9580003D99DF80630032B0BD99DF80630042B2C
:10B9680003D99DF80630072B03D908496B2002F04C
:10B97800E9FE9DF806209DF9073011461846FFF7A5
:10B98800B3FF00BF03B05DF804FB00BFEC28040060
:10B9980000B583B003468DF807309DF90730184687
:10B9A800FFF78AFF9DF907301846FFF76FFF00BFC2
:10B9B80003B05DF804FB000082B003468DF8073041
:10B9C8000F4A9DF90730002B00DA1F335B115BB279
:10B9D80052F823209DF90730594203F01F0301F064
:10B9E8001F0158BF4B425BB222FA03F303F0010375
:10B9F800002B14BF01230023DBB2184602B07047A6
:10BA080000E100E082B001904FF08042019BC2F853
:10BA1800043300BF02B0704782B001904FF08042FB
:10BA2800019BC2F8083300BF02B0704782B00346DA
:10BA38008DF807309DF8073003F1804301221A6022
:10BA480000BF02B0704784B00346ADF80630BDF8B9
:10BA5800063003F1804300221A60BDF8063003F176
:10BA680080431B680393039B00BF04B0704782B0F8
:10BA78000346ADF80630BDF8063003F180431B6875
:10BA8800002B14BF01230023DBB2184602B0704715
:10BA980082B001904FF08042019BC2F8183500BF78
:10BAA80002B070474FF08043D3F818341B0C03F0F2
:10BAB8000103002B14BF01230023DBB21846704793
:10BAC80000B583B007238DF807300020FFF774FF17
