:020000022000DC
:1060000000000120756302005D6302005F6302000F
:106010006163020063630200656302000000000028
:10602000000000000000000000000000F9FB02007A
:10603000696302000000000019FC02006D630200A9
:10604000619202006F630200319802007D9E02009F
:10605000059B02006F630200AD9602006F630200B1
:106060006F6302006F6302006F6302006F630200E0
:106070006F6302006F6302006F6302006F630200D0
:10608000B5A302007DFD02006F6302006F63020092
:106090006F6302006F63020049E402006F63020055
:1060A0006F6302006F6302006F6302006F630200A0
:1060B0006F6302006F630200000000000000000038
:1060C0006F6302006F6302006F630200159B0200A2
:1060D000BD9902006F6302006F63020000000000C0
:1060E00000000000000000000000000000000000B0
:1060F00000000000000000000000000000000000A0
:10610000000000000000000000000000000000008F
:10611000000000000000000000000000000000007F
:10612000000000000000000000000000000000006F
:10613000000000000000000000000000000000005F
:10614000000000000000000000000000000000004F
:10615000000000000000000000000000000000003F
:10616000000000000000000000000000000000002F
:10617000000000000000000000000000000000001F
:10618000000000000000000000000000000000000F
:1061900000000000000000000000000000000000FF
:1061A00000000000000000000000000000000000EF
:1061B00000000000000000000000000000000000DF
:1061C00000000000000000000000000000000000CF
:1061D00000000000000000000000000000000000BF
:1061E00000000000000000000000000000000000AF
:1061F000000000000000000000000000000000009F
:10620000354936480A1A02D0072291438D4634494F
:1062100034480A1A06D00722914381F309880222E2
:1062200082F3148830483149314A00F044F831484B
:106230003149324A00F03FF831483249324A00F0E1
:106240003AF832483249334A00F035F83248334997
:10625000334A00F030F833483349344A00F02BF821
:1062600033483449344A00F026F83448344900228F
:1062700000F02CF833483449002200F027F8334866
:106280003349091A082902DB002202604160314AC1
:1062900090471F481F49884205D00268043003B464
:1062A000904703BCF7E700208646EC46002000211B
:1062B000294A9047FEE7884207D0521A05D0037852
:1062C00001300B700131013AF9D17047884202D098
:1062D00002700130FAE770470000012000F800204A
:1062E00000000120000001207C0E0500AC2A0020E7
:1062F000D02B0020D4630200D4630200A4B70300B3
:106300007C0E0500AC2A0020AC2A00203CB903001A
:106310003CB903003CB903003CB903003CB903009D
:106320003CB903003CB903003CB903007C0E0500F6
:10633000A00F0500D02B0020D02B0020D02B002058
:1063400014E5002014E5002018E5002018E50020E1
:10635000B8F400209D630200FD0C0300FEE7FEE799
:10636000FEE7FEE7FEE7FEE7FEE7FEE7FEE7FEE705
:10637000704700BF1048804710484FF0070188431E
:1063800085460F4880470F48016841F4700101605D
:10639000BFF34F8FBFF36F8FFFF732BF0A480B4930
:1063A0000B4A884207D0521A05D0037801300B708F
:1063B0000131013AF9D170477163020000000120F8
:1063C000E18D020088ED00E028B90300982A002042
:0463D000AC2A0020D3
:1063D400004870470CE500207047000007B5054BE6
:1063E4000093054A4FF4006300F031F803B05DF800
:1063F40004FB00BF01640200D12B00202DE9F84307
:1064040088461446B2B10F4B0F4E0325002743F0C4
:106414000109224608EB0701002004F0BFF90744F4
:10642400241A48B933782BB14FF47A40C847013D58
:1064340002D13570BDE8F88301233370002CE8D114
:10644400F8E700BF40B90300D02B00207047F0B537
:1064540095B01D46164608460C4602F0A9FA1A9B4A
:106464000D93CDE9086500252B46082205A9204691
:106474000A958DF82C500C9502F0B7FA079B0293FD
:10648400069B03939DF814308DF8115003F003021A
:10649400012A1DD1BDF81420059DC3F3C203C2F324
:1064A40083168DF81030B20008230EA9204602F09E
:1064B4009CFAC5F3952508AB0093324602AB0EA9AE
:1064C400284600F03FFB204602F076FA15B0F0BDF6
:1064D400022AF8D1BDF81650C3F3C203C5F38915D7
:1064E4008DF810300827082D2E4628BF08263B4675
:1064F40032460EA9204602F078FAAD1B08AB02AA78
:1065040031460EA8374400F081FB002DEBD1DAE7C9
:10651400037813F0040216D003F00303012B03D015
:10652400022B09D0012070470A6800880232C0F3A8
:10653400831002440A60F5E70B684288023303EBD8
:1065440092130B60EEE71046704700002DE9F04F00
:1065540087B000230446861C0DF107000F4615463C
:106564008DF8073000F04CFC454801683960D0E9EB
:106574000132134401335B1A824600F21C4700F5D2
:10658400836900F21448B3421CD30020002D73D059
:1065940004F00F039B0143F0050363F30F00DAF8E3
:1065A4000020DAF808301340033316444AF8230075
:1065B4009DF80700CAF8006000F046FC012007B00F
:1065C400BDE8F08F0121384601F065FC484601F032
:1065D4007DFC404601F07AFCDAF80400DAF808B0F1
:1065E400029000EA0B0003300AEB800002A9FFF7D7
:1065F4008FFF029B50BB0BEA03020AEB820203F1FA
:10660400020CD2680392013303EA0B0B0AEB8B0BE7
:1066140002F00302012ADBF80C10CDF808C023D0E5
:10662400022A16D08346404601F053FC10B1029B67
:10663400CAF804305946384601F02DFCDAE9012342
:106644001344DAF8002001339B1A9CE70BEA030099
:10665400C9E7BDF80E30C3F3891303334FEA114B76
:106664000CEB93030293DEE7BDF80C30C3F3831302
:106674004FEA114B6344F5E7A40544F006008EE7A6
:10668400A43400200B4B0C48FF2210B59A60002262
:10669400C3F81824C3E90022C3F8142483F820247F
:1066A40002F03FF9044610B9044802F0BFF920464D
:1066B40010BD00BFA43400202CB803007CB9030033
:1066C40030B50A4C71B10A4A0A49121BD208002398
:1066D4009A4201D1002030BD31F82350854202D0C6
:1066E4000133F5E7034654F83300F4E740B80300F8
:1066F40018B90300AC2A0020094B013903EBC00090
:10670400032909D8DFE801F00A02040604207047CF
:106714000079704740797047002070470220704725
:1067240040B80300034BD3E90030C31A5842584120
:10673400704700BFA43400202DE9F04387B0FFF771
:10674400F1FF0646002840F0F9807D4DC5F8180495
:10675400BFF34F8F6B68AC6802932340033305EBA0
:10676400830002A9FFF7D4FE029B18B1D5F81824C0
:10677400002A5FD004EA0302991C013305EB82026C
:10678400234005EB8303D268DB68049302F0030320
:10679400022B0392029160D1BDF80E306948C3F315
:1067A4008917502FB84628BF4FF0500868F38F134D
:1067B40008F10801ADF80E3002F0CBF806460028C7
:1067C40000F0A78002F0F4F80023082203A9304661
:1067D40002F001F9029924EA01020132B8EB820FB6
:1067E4004FEA820332D95FFA88F85BB32140DCB206
:1067F400A8EB040803315FFA88F9A046524C05EB74
:10680400810108234246304602F0E5F834B108F12C
:1068140008034A462146304602F0DDF8029B03375E
:1068240003EB97070297D5F81834002B49D1D5F814
:10683400104459E02A689A428FD86A60304607B0FB
:10684400BDE8F08340491C469946DAE70C40E11C58
:106854000823424605EB8101DDE7012B59D1BDF840
:106864000C303848C3F38311062928BF062161F38D
:10687400891302318900ADF80C3002F06AF806463B
:10688400002846D002F094F80023082203A93046D9
:1068940002F0A1F80027BDF80C20C2F38312BB005C
:1068A400974203F10803BED202994A1C21400331E6
:1068B400029205EB81010422304602F08CF8013784
:1068C400E9E7304602F078F8FFF72CFF80F001008A
:1068D400C6B2B3E7E3685B7923B1236831461B682A
:1068E40020469847E3681C68002CF3D1304602F038
:1068F40063F80DF107008DF8074000F081FAD5F830
:1069040018340BB9029B6B609DF8070000F09CFAE9
:10691400DAE7D5F8104454B90C4B0D480D49C01AA8
:10692400C008000440F0020000F062F8CCE72368DD
:1069340020469B689847E3681C68ECE700267DE7DF
:10694400A43400202CB80300B034002040B8030065
:1069540088B8030064B903002DE9F74F224D0446BB
:106964000F46924601A901221846D5F808909B4685
:10697400FFF7ECFD20B3019E4FF00008B21CD84590
:1069840008EB020126D11948002101F03DFA80F3F9
:106994001000000440EA1440E400731C04F03804BE
:1069A40003EA090306EA090644F0010405EB83033C
:1069B400033644EA881444EA8724D86045F826401C
:1069C40095F820341BB1FFF7B7FE0028FBD103B0C4
:1069D400BDE8F08F09EA010105EB81015AF828307E
:1069E400CB6008F10108CAE7A4340020C0380020B5
:1069F40000231A46FFF7B0BF07B50123019201AA8D
:106A0400FFF7AAFF03B05DF804FB07B5CDE9002347
:106A140002236A46FFF7A0FF03B05DF804FB1FB52D
:106A2400CDE90123069B039301AA0323FFF794FFF7
:106A340005B05DF804FB7FB5CDE90123089B039302
:106A4400099B04930A9B059301AA0523FFF784FF7E
:106A540007B05DF804FB0000094A38B50123D2F8F9
:106A6400104482F820341D4604B938BDE3685D71D2
:106A7400236820465B689847E3681C68F4E700BF16
:106A8400A434002007B503460846197A052911D015
:106A94005B7A2BB1094A0A49019001F07DFA019809
:106AA4000849019001F078FA019803B05DF804EB0D
:106AB40001F067BA002AF8D0F2E700BF88B90300F2
:106AC4008DB9030071D0030030B5C38885B0044686
:106AD4000D4633B1144A00921449154A284601F070
:106AE4005BFA217A05291DD0637A4BB1A088FFF7A0
:106AF40003FE104B104953F82020284601F04CFAAD
:106B0400227A0E4BA08853F8222003920021FFF72B
:106B1400D7FD039A0A490346284605B0BDE830402C
:106B240001F03ABA05B030BD88B9030098B9030042
:106B340090B903001CBA03008DB9030040BA0300E6
:106B4400B0B903002DE9F04385B01F460C9D002326
:106B540095F80C902B7306460C4690462946384609
:106B6400FFF7B2FFB8F1060F09D8DFE808F0041206
:106B7400181F283340003146284601F00DFA002240
:106B840029463846FFF77EFF85F80C9005B0BDE82E
:106B9400F08322683146284601F0FEF9EFE7D4E994
:106BA40000233146284601F0F7F9E8E7A36800938B
:106BB4003146D4E90023284601F0EEF9DFE7E36823
:106BC4000193A36800933146D4E90023284601F0D9
:106BD400E3F9D4E723690293E3680193A36800937C
:106BE4003146D4E90023284601F0D6F9C7E76369A2
:106BF400039323690293E3680193A36800933146E6
:106C0400D4E90023284601F0C7F9B8E708292DE99B
:106C1400F74F80460E4617461C4639D8002593F890
:106C24000C901D7319461046FFF74EFFDFF880A045
:106C3400DFF880B0AE422ED918F805205946204618
:106C440001F0AAF90135082DF4D11849DFF868A03C
:106C5400DFF868B0204601F09FF90025AE421FD945
:106C640018F805200192104612F056FF0028019AE8
:106C7400594608BF2E22204601F08EF90135082D11
:106C8400ECD1012221463846FFF7FCFE84F80C9033
:106C940003B0BDE8F08F5146204601F07DF9D1E7FD
:106CA4005146204601F078F9E8E700BFC4B9030073
:106CB400C0B90300BAB90300C2B90300C6B90300DE
:106CC40082B001238DF807309DF80730114B18600E
:106CD400596044F2010188429A6012D044F20201E0
:106CE400884206D1DA60DA6812889A61DA685268F2
:106CF400DA6172B69DF80730002BFBD162B602B0A0
:106D040070471A611A6992685A611A6912689A611D
:106D14001A69ECE7E03C002000B583B002900091D2
:106D2400019244F2010071466A4600F003F803B090
:106D340000BD0000F0B5064687B00F46154672B692
:106D4400FFF78AFEFFF7F8FC0028FBD1234B244C05
:106D5400E41AE40844F2010324049E4244F00104CA
:106D64002AD00BD8012E14D041F201039E4221D027
:106D74001C493A462046FFF73FFE0EE044F2020368
:106D84009E42F5D12B886A6817492046FFF73DFEDD
:106D940003E016492046FFF72BFE154B1B68DB0763
:106DA40000D500BE2A463946304607B0BDE8F0405B
:106DB400FFF786BF0F49EDE7AA680592104601F078
:106DC40073FE2968029701916968009103460A4994
:106DD400059A2046FFF72FFE0849DBE740B8030079
:106DE40088B80300E7BA030093BA030054BA030057
:106DF400F0ED00E071BA0300ADBA0300D3BA0300AA
:106E040070B5EFF3108672B60C4A946801239CB9EE
:106E140093600B4B0B4DD3F8801029401160C3F8DD
:106E24008050D3F8841051604FF0FF32C3F88420AF
:106E3400047006B962B670BD0370FAE7003D002025
:106E440000E100E0FC06FFBD084B9A6810B55AB19A
:106E540050B9EFF3108172B6054A1C6814605C687F
:106E64005460986001B962B610BD00BF003D0020B7
:106E740000E100E070B5064D0646002455F8043BD9
:106E84000BB1304698470134042CF7D170BD00BFD4
:106E9400183D0020033080B240F2FD33984230B5F3
:106EA4001FD8124B1A783AB91C895D892C440444C2
:106EB400A4B2B4F5806F0AD31A7DA2B99A8BDC8B85
:106EC4002244024492B2B2F5806F0CD201220A80AD
:106ED4001446142202FB04335A89104458810020BA
:106EE40030BD0920FCE70720FAE700BF4C3D002035
:106EF4000B4A0C4B5188142000FB0131CB6833B989
:106F04000420496810700122074801F0D3BA0749E8
:106F14000523137002238B80012209680023F3E701
:106F2400303D00204C3D0020982A0020143E0020D3
:106F340007B5002305490093054A09680548082355
:106F440001F022FA03B05DF804FB00BF143E0020F8
:106F54000CBB0300982A002007B5002301460093C8
:106F6400034A0448082301F00FFA03B05DF804FB58
:106F740004BB0300982A002013B500230C46009399
:106F84000146084A0848042301F0FEF938B90749C4
:106F9400142303FB04140123237402B010BD0E2038
:106FA400FBE700BF00BB0300982A00204C3D0020F3
:106FB40037B50A480A4B42689C88196853880325E8
:106FC400033305709BB2002000909B0001EB840109
:106FD400044801F0D9F903B030BD00BF303D0020B2
:106FE400143E0020982A002010B50146044800F001
:106FF4003FFE1C220446002112F095FF204610BDDE
:10700400003E002068B10268084B9A4209D14068EA
:10701400074B984207D00133984214BF0320012044
:107024007047032070470020704700BFDEC0ADDE0C
:10703400FE011EF14388033300EB8303994209D315
:1070440082884FF6FF739A4206D00088B0FA80F027
:107054004009704702207047012070472DE9F04134
:107064000D460223154F2B80164600F5805100F182
:1070740008044FF001088C420ED2236801330BD070
:107084002046FFF7D7FF48B10EB186F800800228EA
:1070940009D14FF480632B80BDE8F081A3683A687E
:1070A400934200D93B602B886288033313442B80BE
:1070B4006388033304EB8304DDE700BF443D002011
:1070C40038B5144B14220D4602FB00302B6844687B
:1070D40004F58051A3B15C88033403EB84048C422F
:1070E40015D22368013312D02046FFF7A3FF0128ED
:1070F40008D002280BD00028F1D12C60012038BD23
:107104000834ECE76388033304EB8304E7E70020E7
:10711400F5E700BF4C3D0020426873B504460D46B8
:1071240062B3234BD9688A4228D31B699A4225D873
:1071340012F0030322D11F490089098988421DD115
:1071440020689168884219D11B494868824203D952
:1071540000F5805082420DD389698A420CD901F529
:1071640080518A4208D201222A80B3FA83F040096E
:1071740002B070BD1A46F7E70A23F6E700232B8016
:107184001E460196288801A9FFF79AFF30B92B887B
:1071940001339BB2012B2B80F3D9E9E7019B2268D1
:1071A40099689142EED16360024B1B892381DFE72A
:1071B400982A0020303D00204C3D00202DE9F84362
:1071C4001C461C4B1B7806460F4615466BB372B320
:1071D4006CB3DFF868804FF01409A388012B01D940
:1071E4000A2020E009FB03F318F803302BB9A08828
:1071F4002146FFF765FF20B92060A3880133A380EF
:10720400EBE723681EB1998832889142EFD11FB110
:1072140019883A889142EAD19A68C5E90023064B55
:107224001B892B810020BDE8F8830220FBE70520A1
:10723400F9E700BF283D0020303D00204C3D0020F0
:1072440008B5074B5888191DFFF73AFF18B1BDE878
:107254000840FFF7ADBEBDE80840FFF749BE00BFD8
:10726400303D00202DE9F04FA14FDFF8A89289B0FE
:107274000646B8463B6823B99E48494600F032FDAD
:107284003860D8F8005029784B1E052B07D8DFE862
:1072940013F0210079007900090109015E010F242E
:1072A4001422002103A812F03EFE41F61D539C4215
:1072B40008BF0024D8F8003004941A78013A052A4B
:1072C40000F2EF81DFE812F0DB01DF01FF010F02C2
:1072D4001B02250226B1884B00225A600124DFE7F5
:1072E4002B79032B1DD8DFE803F015022A358349D7
:1072F4000B78022B084619D00B7D022B4FF00103AB
:1073040016D114225343C2180020C8545068FFF702
:1073140023FE03E001232B71FFF70AFE002800F08F
:10732400BC80754B00225A600E24B9E70023E8E7BD
:10733400714A13700023536041F61D54B0E770493D
:107344007048002302222B718A800968012201F00F
:10735400B1F8E3E76A4C00262E712068674DFFF709
:10736400FBFD694BD4F800C05A8814235343EA1830
:10737400EE5451682160A188C2F804C01181022230
:10738400A280CBE7B5F814A0AA7DDFF870B1AEB146
:10739400022AEB8806D9142101FB0AB1DA1C0889F8
:1073A40002440A81142202FB0ABAC3F57F43BAF8E5
:1073B4000A20FD331344AAF80A308FE7142303FB91
:1073C4000AB318895C6804EB8004062A68D8DFE8ED
:1073D40002F0274D35431D59040041F61D54AA7D82
:1073E400EB88022A06D9142101FB0AB1DA1C0889A8
:1073F40002440A81142202FB0ABAC3F57F43BAF895
:107404000A20FD331344AAF80A3049E73F484049AB
:1074140000234360AB690360FFF77EFE002859D068
:107424000223AB75002300930423EA182146354850
:1074340000F0AAFF002830D00E24D0E72B69002BDF
:1074440014BF03230123AB750023009305F10C0241
:10745400042304F10801EAE70123AB750022EB8859
:1074640000922A699B0004F10C01E0E703290CBF98
:1074740005230623AB7500230093042305F10802BA
:10748400E118D4E70623AB75214B19881F4B5868C4
:10749400FFF772FD04460028A1D109B0BDE8F08FC2
:1074A4000F249CE7002E7FF419AF2B79012B33D0E6
:1074B400022B3FF441AF002B7FF4F1AE02232B717A
:1074C4000DF10A01EB68039303A8CDE90466FFF705
:1074D40023FE08B90A24E3E60498BDF80A10838859
:1074E400EB8003882B81FFF747FD044625E000BFAE
:1074F400483D0020003E0020283D00204C3D002057
:10750400143E0020982A0020303D00200C3D00202D
:10751400203E0020403D00207F4B03AA3146A81D99
:10752400FFF74CFE7C4B044658B999880498FFF742
:1075340023FD04460A2C3FF4FFAE002C7FF4B0AECA
:10754400ABE708223146184612F0EDFCF2E7002EB4
:107554007FF4C4AE714B1A7BB2B11E731A78013A30
:10756400062A3FF69CAE01A151F822F017760200DC
:107574003D7602005B76020061760200A37202008F
:1075840067760200797602001A78072AE6D801A104
:1075940051F822F0B97502006175020061750200AC
:1075A400DF750200F3750200137602001376020001
:1075B400DB7502001A895A4901321A8100225A8065
:1075C4001A730A78B2FA82F252099A720A7DB2FAEE
:1075D40082F25209DA72012207E0524958688A8815
:1075E4004088033202448A8002221A70B6E74C4C67
:1075F4005A884C49142505FB0242086854685060B7
:107604008888108102228A800C600622EDE7072216
:10761400EBE79A7A32B9DA7A8AB900221A705A8078
:107624005A6089E63E4900229A72CA68002AF2D159
:10763400097C0029EFD05A80FFF702FE55E70022AB
:10764400DA72374A116A0029E7D192F82420002A15
:10765400E3D00122EFE7FFF7ABFC46E7FFF748FC76
:1076640043E72F4A5B88142101FB03235868FFF783
:1076740073FC3AE700225A60FFF75AFC35E700230F
:107684008DF80C300DE001228DF80C201A89ADF82C
:1076940018209A88DB680593ADF81A2000238DF82A
:1076A4001C3003A8FFF7E6FB002649461E48C8F82D
:1076B400006000F042FB1D48012100F0F8FB0028A7
:1076C4007FF4D8ADE9E602228DF80C201A89ADF8D2
:1076D40018209A88ADF81A20DA689B7D05929A1FC3
:1076E40053425341DBE703228DF80C20DA88ADF8CE
:1076F40018201A89DB68ADF81A200593D1E7042213
:107704008DF80C20DB88ADF818300023ADF81A3062
:10771400F3E70523B4E700BF243E0020303D0020FA
:107724004C3D0020143E0020003E0020103E00206E
:107734004068FFF797BD000008B50548012100F037
:107744009EFB18B9BDE80840FFF78CBD08BD00BF1B
:10775400103E00202DE9F3419846354B1B78064630
:107764000D46002B5BD000295BD009884FF6FF73D0
:10777400994258D06B88002B55D06B689B0754D125
:107784004AB92F890DF102013846FFF783FB30B166
:1077940002B0BDE8F08113885788ADF8023001A823
:1077A400FFF722FC044658B9BDF80230214A1421DF
:1077B40001FB032358890338C01B58810820E7E7DD
:1077C40080F8008000238375BDF8023083826B68E3
:1077D40003610121184800F05EFB2B882381B8F176
:1077E400030F6B88A38004BF0423A3754FF0000527
:1077F40008BF3368E06008BFA3611048E780658173
:1078040001A900F05FFA36B1E36833600C4B756090
:107814001B89B5723381FFF78FFF0020B8E7022080
:10782400B6E70520B4E70420B2E70320B0E700BFC1
:10783400283D00204C3D0020443D0020003E002017
:10784400303D002008B5034607480268042A08D0E2
:107854000168064A42F82130012100F01CFB002097
:1078640008BD0C20FCE700BF1C3E0020183D002092
:107874002DE9F04F14228BB000210DEB020012F021
:1078840052FB724A137803F0FF01CDE901123BB1B8
:1078940005A8FFF7EFFA002630460BB0BDE8F08FDD
:1078A400029B181D00F00FFB0028F4D14FF01023A9
:1078B4004FF080525B6911695269654C581C08BFCE
:1078C40002FB01F323616349A3F5405300222046E0
:1078D400E36000F027FD039406460028DCD15E49EE
:1078E4005E48DFF88491DFF884811C238C2200F049
:1078F4008AF9B24635464FF0030B3446039BDF68E2
:10790400574438463946FFF77DFB01284AD00328FF
:1079140015D0002835D11421614308EB010208F881
:107924000100576001F110020831424441443846D5
:10793400FFF794FB45F002050134A4B221E007F5FA
:1079440080520868013074D104319142F9D1D9F8D8
:1079540000203AB902220123C9F80070A9F80420D2
:1079640001930CE014226243022008EB020108F8A0
:1079740002003B4A4F60548001340881A4B245F0B0
:1079840001050AF5805ABAF5405FB7D1BBF1010F82
:1079940098BF0025EDB2022D02D0062D20D045BBA4
:1079A4000B2679E7019B63B11422624308EB0201C1
:1079B400022008F802000134D9F800204A60088146
:1079C400A4B200222749C9F800703846FFF746FBE5
:1079D400B9F80420022A0CBF042208221543D0E778
:1079E400029A0123137005A800235360FFF742FA9B
:1079F40052E704A8FFF7F8FAC8B10123013D037068
:107A04000A2D09D8DFE805F0060806080708070864
:107A14000F110F000023037104A9104800F052F95C
:107A2400FFF78AFE38E70323F5E70223F3E7082686
:107A340032E70BF1FF321FFA82FB1422624308EB98
:107A440002014F60032108F8021075E7283D002069
:107A5400982A002000BD0300743D0020003E002051
:107A6400303D0020183E0020143E00204C3D0020F4
:107A740073B50D460446C8B1C1B10DF10601FFF757
:107A84004BFBA8B10B4BBDF806006668142202FB41
:107A9400003001210C3000F0FEF963682E600C33D5
:107AA4006B600123A372002002B070BD0520FBE7C8
:107AB4000A20F9E74C3D002013B50446A8B10DF1A6
:107AC4000601FFF729FB90B10B4ABDF806301421DB
:107AD40001FB0323DA6862B1A27A52B1DA680020AA
:107AE400013ADA60A07202B010BD0520FBE70A205B
:107AF400F9E70620F7E700BF4C3D002002230022EF
:107B0400FFF728BE18B103230022FFF723BE052088
:107B140070470000104B1B7813B50446ABB14FF609
:107B2400FF73984213D001A8FFF75EFA88B10523CA
:107B3400037001230371C48001A9084800F0C2F84E
:107B4400FFF7FAFD002002B010BD0220FBE704207D
:107B5400F9E70820F7E700BF283D0020003E002099
:107B64000E4B1B7807B5A3B101A8FFF73DFA90B1FE
:107B74000623037001A90A4800F0A4F8094B1A78F7
:107B84000AB101221A73FFF7D7FD002003B05DF894
:107B940004FB0220FAE70820F8E700BF283D002094
:107BA400003E0020303D002007B5ADF80600ADF8DA
:107BB40004100DF1060001A9FFF700FB03B05DF806
:107BC40004FB07B51346ADF806000A4600200DF184
:107BD4000601FFF7F3FA03B05DF804FB07B513469B
:107BE400ADF806000A460DF106000021FFF7E6FA9B
:107BF40003B05DF804FB20B119B103680B600020E9
:107C040070470520704710B561B1B2FBF3F403FB74
:107C14001424A4B244B9C0E9001484608281C381ED
:107C2400204610BD0E20FCE70920FAE782B050E898
:107C3400022FC188B2EB324F4FF0000317BF92B24C
:107C440041EA014142EA014104E04268B2EB324FA9
:107C540008BF012340E80212002AE8D18DF807305A
:107C64009DF80730002B0CBF1120002002B0704794
:107C740037B550E8013F9DB2C48925448489A542A3
:107C840028BF2D1B0489A54202BFBFF32F8F0022FA
:107C940007E0C5EA030540E80154002CE9D14FF0A0
:107CA40001028DF803200193019B9DF803200B60D2
:107CB40002F0FF0322B10B880068184403B030BD02
:107CC4001846FBE70A884B889A4209D150E8012FED
:107CD400C2EA024240E80123002BF7D10120704799
:107CE4000020704737B550E8023F1FFAA3F5C48857
:107CF400A54202BFBFF32F8F00220DE0C4892544A3
:107D04008489A54228BF2D1BC3EA054540E80254D7
:107D1400002CE8D14FF001028DF803200193019B60
:107D24009DF803200B6002F0FF0322B14B8800682A
:107D3400184403B030BD1846FBE70A884B889A42C2
:107D440009D150E8022FC2EA224240E80223002B64
:107D5400F7D1012070470020704701F01F024B0942
:107D64000121914000EB830000F065B84B0910B588
:107D740001F01F040121A14000EB830000F04FF843
:107D8400E04000F0010010BD01F01F0301229A4001
:107D94004B0900EB8300D14300F065B84B0901F0B7
:107DA4001F0150F82300C84000F0010070472DE97E
:107DB400F0474F1E7F0980460E460137002558F8CC
:107DC400254008EB8509E44394FAA4F4B4FA84F456
:107DD4004FEA451A202C06D10135AF42EFD834467C
:107DE4002046BDE8F0875444A642F5D921464046D2
:107DF400FFF7BCFF0028F3D0D9F80040E44394FA1D
:107E0400A4F4B4FA84F4E5E710B5034653E8000F8C
:107E14000A4643E8002494F0000FF7D110BD10B5D2
:107E2400034653E8000F40EA010243E8002494F0BB
:107E3400000FF6D110BD10B5034653E8002F42EAF7
:107E4400010043E8000494F0000FF6D110BD10B512
:107E5400034653E8000F00EA010243E8002494F0CB
:107E6400000FF6D110BD10B5034653E8002F02EA07
:107E7400010043E8000494F0000FF6D110BD10B5E2
:107E8400034653E8000F00EB010243E8002494F09A
:107E9400000FF6D110BD10B5034653E8002F02EBD6
:107EA400010043E8000494F0000FF6D110BD10B5B2
:107EB400034653E8002FA2EB010043E8000494F0CA
:107EC400000FF6D110BD0121FFF7A9BF0121FFF773
:107ED400B2BF0021FFF7BBBF10B590B1D0E90123B9
:107EE40001689B1ADBB20A60013BDBB2FF2B02681C
:107EF40002D10020107110BD11684C1C14600B706D
:107F0400F2E70E20F7E737B5054600240DF1070028
:107F14008DF80740FEF774FF2A686B681168994270
:107F24000ED9481E106011F8014CEB68298A01FB38
:107F34000434AB6811791B1ADBB2994238BF137150
:107F44009DF80700FEF780FF204603B030BD37B52B
:107F5400054600230DF107000C468DF80730FEF7A7
:107F64004FFF2A681368591C1160E968641A298A4A
:107F7400B4FBF1F41C709DF80700FEF765FF03B035
:107F840030BD826810B504462AB1436901680069AE
:107F940098470023A36010BD0EB403B5039921B123
:107FA40004AB01AA019300F06FF802B05DF804EB92
:107FB40003B07047826830B40468551C8560A154CE
:107FC400D0E901329A4202D330BCFFF7DABF30BCA9
:107FD400704700002DE9F84F9846DDE90A4315463D
:107FE40082460F460A464FF00109AA420FD2C14504
:107FF40038BFC14613F0010B01D16CB9002401262E
:10800400B8F1010F1BD908F1FF386E43F8E709F105
:108014000109B2FBF5F2E8E79B070ED5B8F1000FB2
:108024000CBF30262026A145E9D2013C31465046FA
:10803400FFF7C0FF002CF6D1E0E72026F3E7B7FBFB
:10804400F6F39D42E1D9DFF83C80B7FBF6F35046E6
:1080540018F8031006FB1377FFF7ACFF3346AB4267
:10806400B6FBF5F6F1D2BBF1000F02D00CB1A1457D
:1080740001D3BDE8F88F20215046013CFFF79AFF59
:10808400F4E700BF14BB03002DE9F74F054617467C
:108094008846002900F0428118F8011B49B92B7B5E
:1080A400002B00F03B81284603B0BDE8F04FFFF7FA
:1080B40068BF252940F0B780002698F800302D2BA2
:1080C400424608F1010823D0302B24D02B2B25D095
:1080D40000242A2B02F1010123D13B681A1D1B68DD
:1080E4003A601C440A4613782E2B26D101324FF0F5
:1080F400000A104610F8011BA1F1300CBCF1090F65
:108104001DD80A2303FB0A13A3F1300A0246F0E741
:1081140046F00106D1E746F00206CEE746F0040633
:10812400CBE711F8013CA3F130000928DBD80A227F
:1081340002FB0434303C0A46CBE74FF0000A12F845
:10814400011B01F0FB0068289046F8D0782909D873
:108154006F290CD8632962D022D8252963D05829E5
:1081640000F0888098F80030002B95D197E770399B
:108174000829F7D801A353F821F000BFFB820200BD
:10818400698102006981020089820200698102001A
:10819400678202006981020069810200798202001B
:1081A400642901D06929DDD13A68D2F80090111D03
:1081B40089EAE9723960A2EBE9724FF0010B092AEE
:1081C40035DCD34538BFD3462CB1B9F1000F01DB00
:1081D400720700D5013CB30702D5BAF1000F03D0F2
:1081E400F00701D44CBB0024B9F1000F2DDAC9F11A
:1081F40000092D212846FFF7DDFE06F00302022ABE
:1082040004D1BAF1000F01D11CBB0024CDE9004612
:1082140053460A2249462846FFF7DCFEA2E73B689C
:108224001A1D19783A602846FFF7C4FE9AE70A2314
:108234000BF1010BB2FBF3F2C1E7A345D4D2202129
:108244002846013CFFF7B6FECCE77107D5D52B21B4
:10825400D0E7A345DAD230212846013CFFF7AAFE35
:10826400D2E73968CDE900460A1D3A6053460A222E
:108274000968D0E739680A1D3A60CDE900465346DB
:108284001022F5E73B681A1D3A6016F00106D3F890
:10829400009028D1B9F1000F03D0484611F098FEA0
:1082A4000646B44200D904BB09F1FF3919F8011F8D
:1082B40000293FF457AF2846FFF77CFEF6E728462F
:1082C4000136FFF777FE19F806100029F7D1A64208
:1082D400BFF448AF002C3FF445AF20212846013CB1
:1082E400FFF768FEF3E70026EDE720212846013C6E
:1082F400FFF760FED5E73B681A1D3A603021284637
:108304001C68FFF757FE78212846FFF753FE00222A
:108314000823CDE90032214610227CE703B0BDE8F2
:10832400F08F00BF13B50B46114680B9104B1148AE
:10833400114AC01A0E23C0080093104B00041049C0
:1083440040F00100FEF76BFB0E2002B010BD4BB9EC
:10835400074B08480B4AC01AC0080E2300930004B8
:10836400064BECE703601B6802B0BDE810401847F9
:1083740040B80300A0B8030024BB0300BABC030048
:1083840029BB030058BB03002DE9F34188B93D4BD9
:108394003D483E4AC01AC0080E243D4B00940004D8
:1083A4003C4940F00100FEF73AFB204602B0BDE82C
:1083B400F0814AB9334B3448374AC01AC0080E24F6
:1083C400334B00940004EBE7D0F800E0BEF1000F5B
:1083D40009D12C4B2C48314AC01AC00808242C4B14
:1083E40000940004DCE74BB9264B27482C4AC01AFA
:1083F400C0080924264B00940004D1E74568D5F849
:108404000480B3FBF8F508FB15354DB11D4B1E4830
:10841400244AC01AC00809241D4B00940004BFE775
:108424008D0709D0174B18481F4AC01AC0081024DA
:10843400174B00940004B3E712F0030F09D0114B5B
:1084440011481A4AC01AC0081024114B00940004A1
:10845400A6E7C568A9420BD34D1EEC180569AC42CA
:1084640006D8DEF80C40A44602B0BDE8F0416047EF
:10847400044B05480E4AC01AC0081024044B00944B
:1084840000048DE740B80300A0B8030024BB030038
:10849400CCBC030029BB0300A6BB030052BB0300F2
:1084A40065BB0300ACBB0300D6BB0300EEBB0300FB
:1084B40011BC0300F7B580B92A4B2B482B4AC01ACC
:1084C400C0080E242A4B009400042A4940F00100FD
:1084D400FEF7A5FA204603B0F0BDD0F800C0BCF109
:1084E400000F09D11F4B2048234AC01AC008082492
:1084F4001F4B00940004E8E74AB91A4B1A481F4A74
:10850400C01AC00809241A4B00940004DDE7476828
:10851400D7F800E00EF1FF370F4209D0114B124893
:10852400174AC01AC0081024114B00940004CCE769
:10853400C768B9420CD304694D1E0EFB0255A5420F
:1085440006D8DCF81040A44603B0BDE8F04060470C
:10855400044B05480B4AC01AC0081024044B00946D
:108564000004B2E740B80300A0B8030024BB030032
:10857400DFBC030029BB030052BB030065BB03003F
:1085840038BC03005EBC030029DF704728DF704756
:1085940070B503689E6886B004460D466EB1142219
:1085A4000021684611F0BFFCA36805932379019567
:1085B4002BB1012B0DD06846B04706B070BD012326
:1085C4008DF8003023690293E3680393636904938D
:1085D400F1E702238DF80030E3681B030293F5E70B
:1085E4000846704700207047024B187A003818BFBD
:1085F40001207047C83E0020034B187A0122B0FACC
:1086040080F05A7440097047C83E002008B51046EF
:108614001A4611F05FFC002008BD000008B51422C2
:108624000021044811F07FFC0348FFF7FFFA002003
:1086340008BD00BFC83E0020B83E002010B5094C5C
:10864400094B43602046FFF73EFC40B905F058FD56
:10865400064920741C2306488C22FFF7D4FA002014
:1086640010BD00BFC83E0020F4BC03002C3E002017
:10867400B83E002070B5244C244E237A25463BB9DD
:1086840023492448FFF72EFB306008B9606070BDB1
:10869400022334682B72237973B1012B24D0204632
:1086A4000321FFF775FF00232B726B6018491948EB
:1086B400BDE87040FFF741BBD4E90523D21AB2F5F7
:1086C400805FD4E9031028BF4FF480529208012A36
:1086D40038BF012219441844FFF756FF50B111283E
:1086E400DDD101232B72D2E7D4E903031844FFF749
:1086F4004DFFF3E72B7C002BC9D10146BDE8704048
:10870400022000F009B800BFC83E0020E03E00206F
:10871400DC3E0020B83E002038B5831E012B45D82E
:10872400234C237A002B41D0022B09D1032830D0CB
:10873400204B00221B68E2601A793AB1012A22D048
:10874400637C7BBBBDE83840FFF794BFD3E90512D7
:108754008D1AB5F5805F94BF521902F580529A6163
:108764009142EDD102284FF0000308BF194623724D
:10877400104B18BF0D211868FFF70AFF0E490F4868
:10878400FFF7DBFADCE71A6901321A615B699A4286
:10879400E7E7E3680133082B01D8E360D0E700235F
:1087A400E360DFE7BDE8384005F09ABC38BD00BFA0
:1087B400C83E0020E03E0020DC3E0020B83E002001
:1087C40000F0FD03012B08D1044B00225A74421E11
:1087D400504250411874FFF74DBF7047C83E002007
:1087E40010B5064C201DFFF76EFB28B9637C1BB93E
:1087F400BDE81040FFF73EBF10BD00BFC83E0020DB
:108804002DE9F34180460D460F4801A916461F463F
:10881400FFF72EFA0446A8B11C22002111F083FBB5
:108824002D0B0123237101A90748C4F80080A76018
:10883400E5606661FFF746FAFFF7D2FF002002B059
:10884400BDE8F0810420FAE7B83E00202DE9F743A3
:1088540081468846104801A917461E46FFF708FAC4
:108864000446B0B11C22002111F05DFB00250A9BD7
:10887400A36001A9C4E9037807482571C4F80090EE
:108884006661FFF71FFAFFF7ABFF284603B0BDE8A8
:10889400F0830420FAE700BFB83E00202DE9F84F2A
:1088A400B0F806A04579D2F800B09DF828900AFBEC
:1088B40005F5043D88460BEB0301A94203F10404CA
:1088C40088BFA5EB030BB4FBFAF607460AFB164474
:1088D400C2F800B04EB9AAEB04055D4528BF5D4659
:1088E400BBF1000F04D1BDE8F88F3F68013EF1E70A
:1088F400043408EB06003C442A46B9F1000F0DD0BD
:108904002146ABEB050B11F0E5FADA452E443F683E
:1089140055464FF0000428BF5D46E1E70146204676
:10892400EFE7FFF7D9BAF8B546790146721E054656
:10893400002393422D6803D30024A64202D8F8BD35
:108944000133F6E70F682846FFF701FB0134394687
:10895400F3E72DE9F843068ACD1C0746FFF7D3FA5F
:10896400043E35440446B5FBF6F5F0B14FF480738C
:10897400EDB28380C680013D076081464FF0000858
:10898400A84512D23846FFF7BEFA064648B16379C5
:108994000133637108F10108C9F8000007608146DA
:1089A400EEE72046FFF7BFFF34462046BDE8F883D4
:1089B40001210430FFF76FBA10B5012104460430D9
:1089C400FFF775FA10F0FF0F04D12046BDE8104000
:1089D400FFF7A9BF10BD1FB503920022009203AA9E
:1089E400FFF75CFF05B05DF804FB1FB5039201229D
:1089F400009203AAFFF752FF05B05DF804FB0000E4
:108A0400064B10B500241C70054B1C60BFF35F8F30
:108A14000449054800F013F8204610BDEC3E002040
:108A2400F03E00202CBD0300E43E002083680022B9
:108A34005A60C3E904229A60DA601A6070470B68CE
:108A44004A684360934208BF0023016008BF436043
:108A54007047436843B10268916852680B4493427B
:108A6400436004BF002343607047000010B50D4904
:108A7400A1F59472914201D800200FE08C1AE30F03
:108A840003EBE4035B1002EBC30452F8333083427C
:108A940005D802D204F10802ECE7606810BD214653
:108AA400E8E700BF30C2030008B5FFF7DFFF024B61
:108AB400002808BF184608BDF2C0030010B507F02F
:108AC4007BF8037B23B183680068BDE81040184736
:108AD40010BD000073B504680E461546D2B1237B61
:108AE400D3B96168C1B91022204611F01CFA321EB4
:108AF4000A4BA56018BF01220093094823464FF48E
:108B04007A7106F009FF0028606014BF00200E206F
:108B140002B070BD0720FBE70820F9E7C18A020014
:108B2400C2B90300F0B5456887B004460E4617463F
:108B3400002D4CD0037B93B92760EFF30583ABB9C9
:108B440002273246009704212846039306F0FEFECE
:108B54000128039B06462DD0042007B0F0BD28460B
:108B640007F01CF80028E7D00020F6E7002700975C
:108B740005AB324609212846059706F0E7FE012891
:108B8400EAD106F097FA0097024605AB062128467B
:108B940006F0DCFE0128DFD1059B43B10D4B4FF0FD
:108BA40080525A6040BFBFF34F8FBFF36F8F0123D2
:108BB4002373D9E7039306F077FA039B00970246E1
:108BC4003146284606F0C2FE0128F0D0C4E708204A
:108BD400C3E700BF00ED00E01FB50446406830B3B2
:108BE400EFF30583D3B10022009203AB0821039273
:108BF40006F0ACFE012801D004200DE0039B43B134
:108C04000C4B4FF080525A6040BFBFF34F8FBFF3FD
:108C14006F8F00232373184604B010BD0222009204
:108C240003211A4606F092FE0128F2D0E4E7082058
:108C3400F2E700BF00ED00E01FB503788DF80030C7
:108C44008388ADF8043083688DF80630C3688DF8E6
:108C54000730036902934369054A0393054B684649
:108C640053F8213052F82110984705B05DF804FB01
:108C7400F43E0020FC3E0020024B4FF4807043F091
:108C84000103184730C203002DE9F047174690F856
:108C94000090324A42F82970314A42F829304B7B1D
:108CA40080460C4663B30868496882008B0002F171
:108CB400A04203F1A04340F20C65C2F8005701261C
:108CC400C3F800574FF0A04506FA00F006FA01F188
:108CD400C5F80805C5F8081540F20D61C2F800177B
:108CE400C3F80017FFF7C8FF4FF0000AD5F81025A6
:108CF400636822FA03F3DB070ED5BAF1000F1ED125
:108D0400002F184A4B4608BF3A46214608F1040092
:108D1400BDE8F04701F052B9236806FA03F3C5F839
:108D24000C35FFF7A9FF236806FA03F3C5F80835E5
:108D34000AF1010AFFF7A0FFBAF1090FD6D163685F
:108D440001254FF0A04605FA03F3C6F80C35FFF7EA
:108D540093FF63689D40C6F80855D1E7FC3E0020A8
:108D6400F43E00203D8C02000C4B1B78062B10D1E6
:108D74000B4B1B681A070CD10A4B186800F0F00360
:108D8400302B08D000F0E000A0F1400358425841D5
:108D94007047002070470120704700BFE00F00F0CB
:108DA400E40F00F0E80F00F0094B1B78062B0CD100
:108DB400084B1B681A0708D1074B186800F0F0002D
:108DC400A0F130035842584170470020704700BF5B
:108DD400E00F00F0E40F00F0E80F00F008B5FFF733
:108DE400C3FF28B1784B794A1B68C3F3042313608B
:108DF400FFF7DAFF10B1764B764A1A60FFF7B4FF3B
:108E040028B1754B754A1B68C3F342331360FFF7EF
:108E1400CBFF20B1724AD36823F08073D360FFF78D
:108E2400A3FF40B14FF080430022C3F80C21C3F8E4
:108E34001021C3F83825FFF7B7FF10B1694B03229F
:108E44001A60FFF7B1FF40B1674B05221A60012297
:108E54009A6700229A603F225A60644B1B78062B63
:108E640050D1634B1B6819074CD1624B1B6803F04C
:108E7400F003502B46D14FF080525F4BD2F80414CC
:108E8400C3F82015D2F80814C3F82415D2F80C142A
:108E9400C3F82815D2F81014C3F82C15D2F81414FA
:108EA400C3F83015D2F81814C3F83415D2F81C14CA
:108EB400C3F84015D2F82014C3F84415D2F824148A
:108EC400C3F84815D2F82814C3F84C15D2F82C145A
:108ED400C3F85015D2F83014C3F85415D2F834142A
:108EE400C3F86015D2F83814C3F86415D2F83C14EA
:108EF400C3F86815D2F84014C3F86C15D2F84424AA
:108F0400C3F87025FFF730FF28B13C4B3C4A1B687F
:108F140003F04F031360FFF727FF48B14FF080437E
:108F2400D3F80024D20744BF6FF00102C3F8002431
:108F3400344B1B68062B08D1334B1B68062B01BF2F
:108F4400324A136843F480631360314AD2F888309C
:108F540043F47003C2F88830BFF34F8FBFF36F8FB1
:108F64004FF01023D3F80C32DB0729D5294B01220B
:108F7400C3F80425D3F80024002AFBD04FF01022B4
:108F8400D2F80C3223F00103C2F80C32214B1A46FA
:108F9400D3F800140029FBD00021C3F80415D2F83B
:108FA4000034002BFBD0BFF34F8F19491A4BCA680A
:108FB40002F4E0621343CB60BFF34F8F00BFFDE7C1
:108FC400164B174A1A6008BD2403001040350140AF
:108FD40074C007400DF0ADBA440200103C050040D7
:108FE400F0ED00E0A005004010560040E00F00F056
:108FF400E40F00F0E80F00F000C000405802001039
:10900400E40E004030010010340100103C17004011
:1090140000ED00E000E001400400FA05B42A00205D
:109024000090D00338B5074C051E04F1080318BF9F
:109034001C4623682BB11A6822605B68284698474F
:10904400F7E738BD0C3F002020B9054B01225A70C8
:10905400FFF7E8BF012802D1014A9070F8E7704792
:10906400043F002020B9034B01225A70FFF7DABFF6
:10907400704700BF043F002038B50B4C237883B9F8
:109084000A486360A3602361E36000F095F8054635
:1090940005F036F808B900F09BF801232370284640
:1090A40038BD8525FBE700BF043F00204D9002003A
:1090B40037B5184CA378054603F0FF029BB110B1F5
:1090C40043680120984700230DF107008DF807300D
:1090D400FDF796FEE3689DF807000133E360FDF7B2
:1090E400B3FE03B030BD0DF107008DF80720FDF786
:1090F40087FE25B1226913463BB92A602561E368DE
:10910400002BE7D100F078F8E4E79D42F7D01B6824
:10911400F2E700BF043F002037B50B4C00230DF1EC
:1091240007008DF80730FDF76BFEE368013BE36051
:10913400E56815B900F086F8A5709DF80700FDF7FD
:1091440083FE03B030BD00BF043F0020012813B5E7
:1091540008D003281CD018B9104B0122C3F8802072
:1091640002B010BD0E4C00230DF107008DF807303E
:10917400FDF746FE23780BB9FFF77EFFE3689DF801
:1091840007000133E3600123A370FDF75DFEE7E709
:1091940000F01EF8FFF7C0FFE2E700BF00E100E0C7
:1091A400043F002000F18040002382B00360036884
:1091B4000193019B02B07047044A137923B901213A
:1091C400106091801846704785207047183F002032
:1091D400084B1A68D20706D4E02283F80023012240
:1091E400C3F880211A604FF080430122C3F8182588
:1091F400704700BF00E100E038B54FF48270FFF71C
:10920400D1FF4FF080430222C3F804230A4AD068F6
:1092140040F08073D360094B1C6844F0010119606D
:109224005D685968491BB1F50A5FFAD31C60044BA9
:10923400D06001221A6038BDF0ED00E0001000E0BB
:1092440008000040044B01221A604FF08042D2F81B
:109254001834DB03FBD470470C000040124B1B682E
:1092640010B573B14FF48070FFF79CFF4FF080434B
:109274000122C3F808230D4B587910B95A711B68A1
:1092840098470B4B1B6873B14FF48270FFF78AFF4A
:109294004FF080430222C3F80823044BBDE810407A
:1092A4001B680120184710BD00010040183F002032
:1092B4000401004000F1804000F5C040002382B06A
:1092C400036003680193019B02B07047800000F1C2
:1092D400A040D0F8002722F44032C0F80027D0F88C
:1092E400003743EA0141C0F800177047054B4FF0BF
:1092F400FF32072843F8202084BFC01880F860207C
:10930400704700BF203F0020C208054900F0070055
:1093140001238340885C20EA03008854704700BF1F
:10932400923F002010B5184C94F876304BBB04F1F2
:1093340048032021FF22013911F0FF0103F8012B1A
:10934400F9D1C8B2FFF7D2FF01311229F9D10422B1
:1093540000210E4810F0E7FD0D4B402283F8062350
:109364004FF4BE70C3F880211A60FFF7A3FF094BC6
:109374004FF00042C3F80423012384F87630002020
:1093840010BD0820FCE700BF203F0020923F0020D2
:1093940000E100E000600040034B93F876000038E1
:1093A40018BF0120704700BF203F002030B52E4B6E
:1093B4001A1892F94840013453D18C78002C4CD0BF
:1093C4001C46002254F8045B013541D11C1884F872
:1093D4004820002443F82240920002F1804202F522
:1093E400C0420B78D2F810554C7825F498151B041C
:1093F400240525F4F85504F4801403F44033C2F82A
:10940400105523430402D2F8105504F4F8542343AE
:109414002B43C2F810354A780123012A4FF0A042A9
:1094240003FA00F30CBFC2F80835C2F80C3500F596
:10943400E073032142F82310C2080C49012300F011
:10944400070003FA00F08B5C18438854002003E003
:109454000132082AB6D1042030BDFE2382F84830F8
:10946400D9E70820F8E700BF203F0020923F002002
:10947400012303FA00F04FF0A043C3F80805704736
:10948400012303FA00F04FF0A043C3F80C05704722
:10949400F0B5364D2C1894F94840002C64DA8C78D9
:1094A400C4F34004002C0BBF082300231226082613
:1094B400B34201D10420F0BD55F8237001373FD1E8
:1094C4002E1845F8232086F8483014B9EA1882F893
:1094D40060008A78540713D4D60733D5820002F18A
:1094E400A042D2F8004724F00204C2F80047204EFC
:1094F400C20800F007070124BC40B75C3C43B454E5
:109504008A780C7812F0020225D09B0003F1804384
:1095140003F5C0430202D3F8101521F4473121F4B6
:109524004071C3F810152404D3F8101502F4F8524E
:1095340004F4403422430A43C3F810250020BAE758
:109544000133B5E74C7800F5E0724FF0A046A40073
:1095540046F82240CBE7083B2B4493F8681041EAD5
:10956400841483F86840E9E70820A4E7203F00203A
:10957400923F002038B51F4C251895F94820072A3A
:1095840016DD224492F860309B09032B0BD14FF077
:10959400A043D3F81015C14001F001010231BDE828
:1095A4003840FFF793BE012B0CBF02210321F6E7DD
:1095B400D3B2072B1CD8930003F1804303F5C043B7
:1095C400D3F8100540F00100C3F8100502F1400083
:1095D400800080B2FFF76EFE51B195F9483054F81F
:1095E40023302BB1012303FA02F2034BC3F8042303
:1095F40038BD00BF203F0020006000400E4B0344F4
:1096040093F94820072A02DD0021FFF75FBED3B299
:10961400072B10D8930003F1804303F5C043D3F81C
:10962400101521F00101C3F81015012303FA02F209
:10963400024BC3F808237047203F0020006000401D
:1096440038B5174C0546FFF7D9FF621992F948302F
:1096540092F84820072A9FBF124A03F5A2730021FB
:1096640042F8231004EBD50305F0070193F87220A8
:1096740001238B401A4209D005F5E0734FF0A04254
:10968400022142F823102846FFF73EFE2C4494F8AA
:109694004800FFF72BFEFF2384F8483038BD00BF95
:1096A400203F0020006000402DE9F04F87B00024E7
:1096B4005A4D03944FF48072012102F1804303F563
:1096C400C04390B21B68012B06D1D5F804330B427A
:1096D40002D0FFF7EFFD0C430432B2F5907F4FEA5E
:1096E4004101EAD14E4B1B68012B0AD14FF4BE70E5
:1096F400FFF7E0FD4FF0A04344F00044D3F81035E9
:10970400039314F0FF0F1AD0464F0025012634426C
:1097140010D0AB0003F1804303F5C043D3F8100528
:10972400D3F8101557F8253023B1C1F30141C0F324
:10973400042098470135082D4FEA4606E7D1002C4E
:1097440065DA00214FF0FF33CDE90413354D0127CD
:109754004FF0000A344ED1464FF0A04816F9013BB1
:109764005A1C45D0C3F3C20106AA5018DCB210F843
:10977400042C03F03F0B03F0070307FA03F31A4228
:1097840036D005EB0B02A40992F9482055F82220A3
:1097940052B9032C2CD10DF1100E1EF801C04CEA65
:1097A400030C0EF801C001E0032CF4D00BF5E071BA
:1097B40010F80C0C58F821101842C1F3014105D0DF
:1097C400022915D1032C0FD1214604E003290FD11E
:1097D400032C09D102215846019209F10109FFF72E
:1097E40075FD019A5FFA89F912B1214658469047EE
:1097F4000AF1010ABAF10A0FB0D1B9F1000F06D08B
:109804004FF0A043039AD3F81035934202D107B026
:10981400BDE8F08F0393049B059399E70060004033
:109824007C610040203F0020883F0020014B1B68E2
:10983400184700BF983F00200E4B984237B50C469E
:1098440002D0002003B030BD00230DF107008DF8D5
:109854000730FDF7D5FA084B1D7915B901221C60B4
:109864001A719DF80700FDF7EFFA002DE9D01120D9
:10987400E8E700BF00200040983F00200023435049
:1098840082B043580193019B02B07047F0B5204B5E
:109894004679204D43F8262006EB46037700EB5C1F
:1098A400A3BB90F9043002798C78002BA8BF03F194
:1098B400604C4FEA5313BCBF02F00F0EDFF858C0E0
:1098C4004FEA4414A8BF0CF5614C4FEA8303E4B299
:1098D40003F16043B4BF0CF80E408CF8004303F569
:1098E4006143012402F01F0204FA02F2C3F880214A
:1098F4001A6003680A88C3F808253E44AB190A793C
:109904005A70AC55CA789A700020F0BD0820FCE764
:10991400A43F0020A03F002014ED00E003680122D2
:109924001A604379024A03EB43030221D15470477E
:10993400A03F00202DE9F04105464FF48034006833
:109944001C4E8C40C0F84843C0F8084395F805C045
:109954000CEB4C07374422F07F4297F8018001F565
:10996400A8774FEA4C0E40F82720B8F1000F11D029
:10997400D0F80485F4446644A8EB0207904538BF48
:1099840007F1FF17B27838BF07F57F47BA4201DD08
:109994000D200CE03BB15031890089B2FFF76EFF16
:1099A4002B68C3F804432B680020C3F84443BDE884
:1099B400F08100BFA03F00202DE9F041224E234F4B
:1099C400DFF88C8000244FF48035D7F80433A6F5F3
:1099D40080412B4289B20CD0336853B1C7F8485345
:1099E4003846C7F80853FFF749FFD8F80030E0B20B
:1099F40098470134042C4FEA450506F10406E4D1E6
:109A04001248D0F80433DA070AD5D0F800313BB154
:109A14004FF48071FFF732FF0D4B20461B689847C7
:109A24000A48D0F804339B070CD5D0F804314BB165
:109A34004FF48271FFF722FF054BBDE8F0411B682C
:109A440005201847BDE8F081404102400040024033
:109A5400A43F002037B5D0F818358A69DBB28DF8F9
:109A640007304B6A93423EBF4A699DF80740D4547D
:109A74004A6A91F82840531C4B6202323CB10C698B
:109A8400A2428C6938BF0A61944288BF8A610D6919
:109A9400954205D9CB689B5CC0F81C3501200BE0CE
:109AA4008C69944202D991F82030F5E7AB42F5D3A2
:109AB400A3422CBF0020012003B030BD13B5002207
:109AC400C0F80821D0F808310193019BFFF7C2FFC9
:109AD400A0B98A7FFF2A1EBF012393404FF0A04202
:109AE400084618BFC2F8083500230B724B7750F8AC
:109AF400083B496802B0BDE81040184702B010BDE9
:109B040002494FF04020FFF7D9BF00BFA83F002013
:109B140001490248FFF7D2BFD43F00200030024081
:109B24002DE9F74F06796D4D4FF02C0909FB06F925
:109B340005EB090B9A469BF81C3007460C469046E9
:109B4400002B40F0C780664B006853F82610FFF7DF
:109B540073FE002840F0C08045F80980CBF804A0CB
:109B640094F800E0217B4FF0A042012303FA0EF3A6
:109B7400012994BFC2F80C35C2F808350EF5E0731C
:109B84004FF0010C42F823C06378FF2B1FBF0CFA7F
:109B940003FCC2F80CC503F5E07C4FF0030918BFC1
:109BA40042F82C9094F802C008BF4FF0FF33BCF188
:109BB400FF0F1FBF0CF5E0724FF0A0494FF0040BEC
:109BC40049F822B03A7901924FF02C0909FB025965
:109BD40018BFE24689F81FC094F803C008BF4FF0CD
:109BE400FF3ABCF1FF0F0CD04FF0A04B4FF001092E
:109BF40009FA0CF9CBF808950CF5E07903224BF837
:109C04002920019A4FF02C0909FB025989F81EC03A
:109C14003F68C7F808E5C7F80C35A368C7F810A56E
:109C2400C7F82435637B003B18BF012302294BD0BE
:109C340003294CD0012901D143F00203019AC7F84A
:109C440054352C2303FB0252637982F82030B8F197
:109C5400000F02D00423C7F804330123C7F80035EA
:109C6400B8F1000F26D047F30733002B2279B4BF95
:109C74001C4903F16041C7F307374FEA5313B8BFD8
:109C840007F00F044FEA4212A8BF01F561414FEA01
:109C94008303D2B203F16043B4BF0A5581F80023B1
:109CA40003F5614307F01F07012202FA07F7C3F81F
:109CB40080711F602C2303FB065500236B7701235F
:109CC4002B7703B0BDE8F08F43F00403B6E743F00D
:109CD4000603B3E70820F4E71120F2E7A83F0020C9
:109CE40060C2030014ED00E02DE9F7430779424D0B
:109CF4002C237B439046EA180E46517F8646002962
:109D040077D155F803C0BCF1000F01D0012353777C
:109D140096E80F002C2404FB075404F10C0989E88D
:109D24000F00A27F0023FF2A84F828301FBF0123DD
:109D340093404FF0A042C2F80C352C23B8F1000F29
:109D440009D003FB075300225A774FF00608404618
:109D540003B0BDE8F083DEF800400422C4F8082311
:109D640003FB0753C4F80881D4F80821C3F82480FE
:109D74000092009A726882B133681B78C4F81C356B
:109D8400012A0DD933685B78C4F81C35BCF1000F87
:109D94000FD00423C4F80433D9E793F82030EDE757
:109DA400F368012BF2D92C2303FB075393F82030DB
:109DB400EAE72C2107FB01516646D4F80831002B51
:109DC400FBD0C4F80861D4F8083101932046019B04
:109DD400FFF740FE0028F0D12C2303FB0755AA7F90
:109DE400FF2AB4D0012393404FF0A042C2F80835B3
:109DF400ADE74FF01108AAE7A83F00207FB503782C
:109E04008DF804304368029383688DF80C30C3687E
:109E140004930369064A8DF81430064B01A853F8DD
:109E2400213052F82110984707B05DF804FB00BFB9
:109E3400004000200C40002030B4084D10F8044BC2
:109E440045F82420064D45F824302346054C002AC5
:109E540018BF224630BCFFF763BE00BF0C40002091
:109E640000400020019E02000023435082B043586A
:109E74000193019B02B07047F0B54C484C4CD0F8AC
:109E8400243187B005469BB14FF49271FFF7ECFF84
:109E9400D0F8043163B9A368C0F808330223A3607F
:109EA400A368C0F8043301230362436107B0F0BD23
:109EB400D5F80431002B49D03E4F3C484FF4827111
:109EC400FFF7D2FF0FCF01AE0FC63B68336094F8A3
:109ED4002E307BB1237B012B0CBFD5F83C25D5F864
:109EE4004C250292022B314B0CBFD3F83C35D3F8EE
:109EF4004C3503932D484FF4B071FFF7B5FF2B4851
:109F04004FF4AE71FFF7B0FF94F8303013B194F80A
:109F14002E303BB1254B0022C3F80022A260264A12
:109F2400C3F80823214AD2F8C434C2F8C4349A07C7
:109F340036D501238DF8003094F830300BB984F80D
:109F44002F30D4E9003168469847AFE717484FF4FB
:109F5400A471FFF789FF237B83B9164F0FCF01AE9E
:109F64000FC63B68336094F83030002BDAD1C5F863
:109F74000032A360104BC5F80833D3E74FF40073E5
:109F8400C5F8003240F20223A36003F1CE73C5F892
:109F94000833A368C5F804330123AB602B6285E75B
:109FA40013F0040318BF0223C4E700BF00300040CD
:109FB400184000202440002002029C012DE9F84FA3
:109FC4000679374D4FF0340A0AFB06FA05EB0A040A
:109FD4009B4694F82D3080460F469146002B5AD16B
:109FE40030490068FFF728FC002856D13A687B7B8B
:109FF40084F832304FF0A04102F5E073A060C4F859
:10A0040004B084F82F0084F8300040F20C6445F862
:10A014000A9041F823407B6803F5E07C41F82C402A
:10A02400D8F80040C4F80825C4F80C35BB68C4F857
:10A034002435B9F1000F26D044F30733002B3A7BC3
:10A04400B4BF194903F16041C4F307344FEA531311
:10A05400B8BF04F00F074FEA4212A8BF01F56141EF
:10A064004FEA8303D2B203F16043B4BFCA5581F807
:10A07400002303F5614304F01F04012202FA04F4EF
:10A08400C3F880411C60342303FB0655012385F883
:10A094002D30BDE8F88F0820FBE71120F9E700BF59
:10A0A400184000207D9E020014ED00E00268037950
:10A0B4000621C2F80015044A342101FB03230222BD
:10A0C40083F82D20704700BF184000202DE9F84385
:10A0D400CB6803F06043B3F1005F0D46914603D0B3
:10A0E40010263046BDE8F88390F80480934F046846
:10A0F400934BC4F80833342606FB087696F82F30C1
:10A1040023B1B368C4F804331126EAE712F0140F3C
:10A114000CBF0123002386F82F308E46BEE80F00C3
:10A1240006F10C0CACE80F00DEF80030CCF800307F
:10A13400C9F3001386F830306B78C4F888354FF4CF
:10A1440082712046FFF790FE4FF49271FFF78CFE68
:10A1540019F0010318BF0123C4F8503519F00203A4
:10A1640018BF0123C4F840352B78032B00F2C480B8
:10A17400DFE803F084AC68022B6903F06043B3F1B9
:10A18400005FADD14FF48073EA68C4F800326B68A5
:10A19400C4F844254FF4A871C4F84835FFF764FEA9
:10A1A4004FF4B071FFF760FE4FF4A471FFF75CFE4B
:10A1B40001232362A360D4F85031002BFBD04FF469
:10A1C400A8712046FFF750FEAB682A69C4F84425FD
:10A1D400C4F848355B4A342303FB08739A604FF490
:10A1E40082730822002619F0080F04D12978032964
:10A1F4001CBF0121A150342202FB08F2B918BA583D
:10A20400002A7ED1012223441968002900F08680A7
:10A214003422D4F8C434C4F8C43402FB08770022CE
:10A2240087F82F20002B3FF45CAF13F0020F48F2A5
:10A23400012608BF032613F0040F48F2022318BFB7
:10A244001E464EE76B68EA68C4F84425C4F84835EE
:10A254002B6903F06042B2F1005F7FF441AFAA685A
:10A26400C4F834354FF48453C4F83825C4F80032A4
:10A27400342303FB087340F20222AFE76B68EA68F9
:10A28400C4F8442519F0200FC4F848354FF03403BE
:10A2940010D003FB08734FF48072C4F80022294ADB
:10A2A4009A604FF4A471FFF7DFFD4FF4A473012209
:10A2B400226296E74FF4007203FB0873C4F800228D
:10A2C40040F202229A604FF48273F0E76B68EA6806
:10A2D400C4F83425C4F838354FF48053C4F8003238
:10A2E400342303FB087340F202229A6001232362A1
:10A2F40000224FF4827375E74FF482730822072615
:10A3040071E719F0040F1CBF4FF400738B60342302
:10A3140003FB0877BB68C4F80433E2E6D4F82411DD
:10A3240000293FF471AF4FF492712046FFF79CFD72
:10A334004FF482732262626165E700BF1840002017
:10A3440002029C0100020400F0B587B004460F46E7
:10A3540015460021142201A81E460FF0E4FD9DF8C5
:10A3640030308DF80570002B14BF2022002201A983
:10A37400204602960495FFF7A9FE07B0F0BDF0B59C
:10A3840087B004460F4615460021142201A81E4634
:10A394000FF0C9FD0123002201A920468DF80430E5
:10A3A4008DF8057002960495FFF790FE07B0F0BD96
:10A3B400084BD3F80433DB0707B508D5064B1B68F5
:10A3C4009847064B00221A601B680193019B03B057
:10A3D4005DF804FB000001405440002000010140EE
:10A3E40010B5114B114A19601378D3B901211170BA
:10A3F4000F490278C1F80C2542684FF47A74D203ED
:10A40400B2FBF4F2C1F80425027A0A495201D2B22D
:10A4140081F810234FF48032C1F8802118460A6075
:10A4240010BD0820FCE700BF54400020504000202D
:10A434000000014000E100E0044B0122C3F80423C2
:10A444001A60034B02221A70704700BF00000140DB
:10A454005040002037B5054600240DF107008DF863
:10A464000740FCF7CDFC0C4B1A68072A11D8511C85
:10A4740019600A492A70D1F808050123934003435F
:10A48400C1F808359DF80700FCF7DEFC204603B050
:10A4940030BD0424F6E700BF4C400020000001401A
:10A4A400034B044A00F5C07043F82020704700BFF6
:10A4B400000001403546526E0720704708B501225E
:10A4C40002210020FFF7F8FF08B1072810D1072266
:10A4D40002210120FFF7F0FF08B1072808D100216D
:10A4E4000A220846FFF7E8FF10B1072808BF00203A
:10A4F40008BD00000388102B10B502D0112B1ED00C
:10A5040010BD1A4C2168B1B901220846FFF7D4FFE7
:10A5140008B1072824D1072202210120FFF7CCFF2C
:10A5240008B107281CD1042202210020FFF7C4FF30
:10A5340008B1072814D1236801332360E0E70B4AEC
:10A544001368013B1360002BDAD1FFF7B7FF002833
:10A55400D6D0074B1B68002BD2D0BDE8104018475B
:10A56400034B1B68002BE6D09847E4E75C400020CF
:10A57400584000200369C1688B429DBF8268D2188D
:10A5840002F1FF3203F1FF3394BF501A581A704797
:10A594002DE9F843D0E902940546A9EB0408406884
:10A5A400904520440F46144404D90FF093FCEC600A
:10A5B400BDE8F8834246A4EB09040FF08BFC6868FD
:10A5C400224607EB0801F0E72DE9F843C568064683
:10A5D400894617464FF000083469B3687068A5428D
:10A5E40028BFE418013C621B5C1BBC4228BF3C46EC
:10A5F400944228BF14464946284422460FF06AFC78
:10A60400B3682544AB4208BF00253F1BA044A144C6
:10A61400F560E1D14046BDE8F883000010B5114C67
:10A62400114AA2610323C4E90433104BE361226697
:10A634004FF400630E4A0F4923626266002310221E
:10A64400E01DA3626362E3622367E3666367A26655
:10A654000FF09CFC084920460FF098FC2023A371BE
:10A6640010BD00BF6040002071C2030018410020EB
:10A67400084100207AC203007EC203002DE9F84F8E
:10A684000746214803788A46164681460BB9FFF7E8
:10A69400C5FF4FF0180808FB0798D8F87050D8F891
:10A6A4006CB05D452DD9D8F86840D8F86410641BA7
:10A6B400B44228BF34462944504622460FF00AFCCF
:10A6C400D8F868302544A244361BAB4208BF0025A5
:10A6D400ABEB0502964228BF164656B1182303FB7E
:10A6E40007933246596E504629440FF0F3FB344425
:10A6F40035441CB1182000FB07973D672046BDE890
:10A70400F88F0024E4E700BF60400020DFF888C031
:10A7140018232DE9F04703FB00C78946BE6A7C6A0B
:10A72400A64215462DD8D7F820A0AAEB040808F1B4
:10A73400FF3E724509D800FB03339C44DCF8040057
:10A7440020440FF0C7FB2C440DE07644B24221D8DC
:10A7540000FB03330CEB030690457068204414445B
:10A7640005D90FF0B7FB7C620120BDE8F0874246B3
:10A77400A4EB0A040FF0AEFB7068224609EB080153
:10A78400EFE7013E361B964204D300FB03336344D8
:10A794005868D5E70020E8E760400020F8B5184C79
:10A7A400182300FB033503FB00402544C46A012C35
:10A7B4000F4616460FD0022C1AD0F4B92846FFF7DC
:10A7C400D9FE864205D8324639462846FFF7E0FED0
:10A7D40034462046F8BD2846FFF7CCFE8642344670
:10A7E40028BF0446224639462846FFF7D1FEF0E743
:10A7F4002846BDE8F840FFF7E7BE0024E9E700BFBC
:10A804006040002073B50E4B1B7804460D46164677
:10A814000BB9FFF703FF00230DF107008DF8073094
:10A82400FCF7EEFA324629462046FFF7B7FF044606
:10A834009DF80700FCF708FB204602B070BD00BF7E
:10A8440060400020FFF7EABE0FB410B5A2B024ABFD
:10A85400802153F8042B019302A80FF02DFB8028CC
:10A8640004460ADD802202A90020FFF7CBFF204620
:10A8740022B0BDE8104004B070470028F7DD02465E
:10A88400F1E76DDF704779DF70477DDF704764DF84
:10A8940070472DE9F04F85B000250E9CBDF83CB003
:10A8A400B4F800A00191074690461E46A9463A888E
:10A8B4004A450DDC45B12388013BA3EB0A039BB257
:10A8C400FF2B3AD806F80A30002005B0BDE8F08F17
:10A8D4007A6852F82900039000220DF10B0103A8B5
:10A8E400FFF7D5FF0028F0D19DF80B20424521D178
:10A8F4002288002D14BF0020022002EB080101442D
:10A9040059451ADC3DB9013292B2019B2280B354FD
:10A9140022880132228022880DF10B01324403A8DF
:10A92400FFF7B5FF0028D0D121889DF80B200A44F9
:10A934002280012509F10109B9E70C20C5E72DE9B9
:10A94400F341089FBDF824801546CDE90078022222
:10A9540004461E46FFF79DFF50B933461022294690
:10A964002046CDE9087802B0BDE8F041FFF791BF79
:10A9740002B0BDE8F0812DE9F04F00231788138061
:10A9840090F82D3085B006460D46144653B3082F73
:10A9940001D80C2027E102A8FFF773FF002840F03C
:10A9A400228123880822EA54238801339BB21B2284
:10A9B4002380EA542088013080B2208006220DF1E1
:10A9C400090128440FF086FA23889DF808200633ED
:10A9D4009BB212F0FE0218BF01222380EA5423889E
:10A9E40001332380B378FBB123880433BB42D0D82E
:10A9F40002A8FFF748FF002840F0F58023880322CF
:10AA0400EA54238801339BB219222380EA54238811
:10AA1400BDF8082001339BB2E9182380EA54120AD6
:10AA24004A70238802332380F2789AB12388D91C90
:10AA3400B942AED80221E954238801339BB20121E3
:10AA44002380E95423880B449BB22380EA5423884F
:10AA54000B4423807268AAB12388D91CB94298D8C0
:10AA6400022192F90020E954238801339BB20A2180
:10AA74002380E954238801339BB22380EA5423883A
:10AA8400013323803389002B40F0A180338A5BB1EA
:10AA9400CDE900472B460722032106F11000FFF7FA
:10AAA4004EFF002840F09F80338B5BB1CDE9004717
:10AAB4002B461522142106F11800FFF740FF002849
:10AAC40040F09180326A002A40F09080D6F82480C9
:10AAD400B8F1000F30D0B8F804302188981C8A1CD3
:10AAE4000244BA423FF655AFFE283FF652AF033355
:10AAF4006B54238801339BB2FF222380EA542388BA
:10AB040001339BB22380B8F80020EA54E918120AF2
:10AB14004A702088023080B22080B8F804205AB1EC
:10AB2400D8F8081000296BD028440FF0D3F92388F3
:10AB3400B8F804201344238096F82C30002B40F0FE
:10AB44009A80307800284ED03388012B58D0228840
:10AB540002F1020CBC453FF61CAF012805D1737805
:10AB6400023313449F42FFF414AF023FBF1ABFB233
:10AB740002A905EB0C00ADF80870FFF786FE90BB48
:10AB84003178BDF80830022900F0BA8072789A4210
:10AB940002D3BB4240F2B280012940F0B380974215
:10ABA40093B2C0F0AF80ADF808300821BDF808308A
:10ABB400FE2B3FF6EEAE22880133AB5422880132DD
:10ABC40092B22280A9542288134423800BE0CDE959
:10ABD40000472B460622022106F10800FFF7AFFECC
:10ABE40000283FF453AF05B0BDE8F08FB4F800C0BF
:10ABF4000CF10603BB423FF6CCAE1188052901D8FF
:10AC04000720F0E76FF4486E01EB0E039BB24FF29E
:10AC14007D3E7345F4D95388052BF1D96FF4486010
:10AC2400181880B27045EBD94FF6FF70814203D0FB
:10AC3400834201D09942E3D8052305F80C302388D8
:10AC440001339BB212212380E954238801339BB240
:10AC540023801188E954E818090A417023880233D3
:10AC64009BB223805288EA54E918120A4A70238856
:10AC7400023323802AE7B36A002BC1D04FF00009C6
:10AC84004FF00C0A4FF0160B96F82C305FFA89F24D
:10AC940093427FF656AFB16A0AFB02F201EB020857
:10ACA400B8F80430981CFE283FF673AE20880333AE
:10ACB4002B54238801339BB2238005F803B02388E7
:10ACC40001339BB223808A5AEA54E918120A4A7063
:10ACD4002088023080B22080B8F804205AB1D8F815
:10ACE400081000298CD028440FF0F4F82388B8F811
:10ACF40004201344238009F10109C5E7092155E71C
:10AD0400BB42FBD9ADF808704FE770B5C0B14AB18A
:10AD140016880024B44203D305196D789D4208D0E7
:10AD2400A14201D800200BE0055D01352C44A4B2FA
:10AD3400F0E7A142F6D9A31C1380005D013880B26C
:10AD440070BD13B513460022ADF806200DF10602BE
:10AD54000446FFF7DAFF10B1BDF80630E01802B080
:10AD640010BD72DF704773DF704738B501220446A7
:10AD74000D46B0F83812D0F83402FFF7E2FF00B104
:10AD8400057004F13C0204F50D7104F15400BDE8B2
:10AD94003840FFF7E6BF80F830107047F8B5044636
:10ADA4000F46002975D0002873D091F87A301BB172
:10ADB40091F89830002B6ED1D7F8A030042B6AD0CC
:10ADC400D7F89C30042B66D04FF0000C84F802C0F6
:10ADD40007F178060FCE251D0FC50FCE0FC596E8D7
:10ADE400070085E8070084F830C0D7F8A43063630F
:10ADF400D7F8A830A3634FF6FF7504F50D73C4F8B4
:10AE04004432A4F848520722614604F24A200FF063
:10AE14008AF823780BB984F8545094F82430002B22
:10AE240014BFEE231F2304F15501C4F83412A4F80F
:10AE3400383204F50E723846FFF79DFD40BB94F896
:10AE44002430002B14BFEE231F2304F24311C4F853
:10AE54003C12A4F8403204F5107207F13C00FFF7ED
:10AE64008AFDA8B9A369A4F848304FF4807301257A
:10AE7400A4F8503063692064014684F83C5063644C
:10AE840004F13C0204F15400FFF76BFF00B9257094
:10AE9400F8BD0E20FCE70720FAE7F8B5077804466A
:10AEA4000D46002F00F0048100F24A26817007222B
:10AEB400002130460FF037F8E38813B1A378012B53
:10AEC40004D0E3794BB1A378022B06D1636BA3B111
:10AED400012284F8512208209847334604F514715E
:10AEE40013F8012F12B99942FAD117466B1E032B9E
:10AEF40052D8DFE803F0050B0F1284F85132ECE767
:10AF0400A3791BB194F8243003B95FB9E3790BB189
:10AF1400002F43D1237A002B42D1637A002B0CBF3C
:10AF240000250425636BA570002B3BD0033D012D48
:10AF340038D86279002A35D094F8522292BB84F82A
:10AF44005422012284F853220720984704F13C0537
:10AF54001822002128460EF0E6FFE36A94F8242024
:10AF6400581E0121022828BF0B4684F83C1084F89F
:10AF7400513032B1884296BFA36A84F8521084F8E3
:10AF84005230A178002384F8503004291BD8DFE81C
:10AF940001F0770D223559000025C3E70225C1E7EA
:10AFA4000325BFE7002384F85332CFE7C4E91063D5
:10AFB400C4F844320223012284F83C30802384F80C
:10AFC4003120A4F84830A378002B5CD1636B002BAC
:10AFD4006AD1002067E00223002A84F8313014BFCC
:10AFE4000723032384F83C302369A4F84830002362
:10AFF400C4F84432E36826646364E4E76369636421
:10B00400A369A4F8483012B1062384F83C3063796C
:10B01400B3B194F852329BB994F8543283B10223F9
:10B0240084F8503004212046FFF79FFE0028CAD13F
:10B03400052384F8313004F50D73C4F84432C2E7B3
:10B044000323F6E7E3696364236AA4F8483012B182
:10B05400062384F83C30637983B194F852326BB997
:10B0640094F8543253B1022384F85030042120461A
:10B07400FFF77BFE0028A6D10623DAE70423D8E7EE
:10B0840084F831309FE7D4F844122A4604F154007E
:10B09400FFF767FE38B994F8301094F85400FFF7BE
:10B0A40062FE002892D0F8BD94F83100984790E7EA
:10B0B4000820F8E70388112B10B50C460AD0262B7C
:10B0C4001FD0102B05D1C37B012B02D18388A1F89B
:10B0D400483210BD0022838881F85222B1F84822F8
:10B0E4009A42F6D10B79002BF3D101212046FFF7C8
:10B0F400D4FE0028EDD0A36B002BEAD0BDE81040AD
:10B104001847037A013B012BE3D8897805230131E1
:10B11400B1FBF3F303EB8303C91AC9B2E6E7704743
:10B1240075DF704776DF70477ADF70477BDF7047E3
:10B13400034B1A8882420CBF18460020704700BF98
:10B1440034490020024B9B6903B11847704700BF84
:10B154001849002073B585B22846FFF7E9FF044675
:10B1640070B1164E027A337B9A420BD200F10A0177
:10B174002846FFF7D5FFE8B1112801D0FFF7E2FF19
:10B1840002B070BD00230372337C43B13B212846D7
:10B19400FFF7C8FF30F0080301D0FFF7D3FF73694E
:10B1A400002BEDD000228DF80420ADF8065001A844
:10B1B4009847E5E7237A01332372E1E71849002031
:10B1C40037B50B46497A0F4A71B9D2E901141D7A91
:10B1D4000246002D18BF21465868FDF7A3FC08B1AC
:10B1E400FFF7B0FF03B030BD002119725369002B83
:10B1F400F8D00122ADF806008DF8042001A8984784
:10B20400F0E700BF184900204B8802889A4213D8FF
:10B2140042889A4210D380888A8840F2F313984275
:10B2240094BF031AC31A934206D800F2F310904253
:10B2340034BF002001207047002070470388122B80
:10B2440070B5014659D004D8102B1ED0112B44D010
:10B2540070BD502BFCD12F4BC288DB899A42F7D1A9
:10B26400038A022BF4D186883046FFF761FF054636
:10B274000028EDD001F1120000F0D6F938BB68685F
:10B28400FDF7AAFC0028E3D009E0C37B012BDFD142
:10B294004FF6FF70FFF74CFF054620B90420BDE8C8
:10B2A4007040FFF74FBF1C4A8E880680002303724C
:10B2B4001368C0F80A305368C0F80E3010310A30F1
:10B2C400FFF7A2FF134B6872DB89002BC0D129461C
:10B2D4003046BDE87040FFF773BF8088FFF728FF52
:10B2E40004460028B4D04068FDF776FC08B1FFF7A7
:10B2F40029FF4FF6FF732380AAE786883046FFF7BD
:10B3040017FF05460028A3D008310A30FFF77CFF59
:10B314006872DCE71849002048490020F8B5064661
:10B3240048B305460FCD154F3C460FC495E80700BA
:10B3340084E807003068124C3C60B0B1FFF7F4FEBB
:10B34400C0B9326813682360536863600D480E4ABD
:10B354004FF6FF7303800D4B40F8043F0021FDF7C7
:10B36400B9FB002818BF032004E02046FFF7DEFEE7
:10B374000028EBD0F8BD0E20FCE700BF18490020E0
:10B38400484900203449002059B1020050490020A6
:10B39400F7B5174601900E4691B1019C6CB100259A
:10B3A4002C46294601A8FCF7F9FC18B13946A8B285
:10B3B400B04701340135142DF3D1204603B0F0BD5C
:10B3C4000C46FAE773B50191019C06466CB1002561
:10B3D4002C46294601A8FCF7E1FC18B106EB44030E
:10B3E40001349D800135142DF3D13046346002B010
:10B3F40070BD00002DE9F04703888488112B8CB0C0
:10B4040005463ED01A2B41D0102B19D1294EB368D2
:10B41400DB43009371686846FCF725FD009901A899
:10B42400FFF7D0FF0DF108094FF00008019B984584
:10B4340009D3132C15D9204AE3210420FBF76CFC13
:10B444000CB0BDE8F08739F802AB0027013751464C
:10B4540006EB8700FCF798FC1D2FF7D108F10108D3
:10B46400E4E716482146FCF778FC15482146FCF72A
:10B4740074FCEB7B012BE3D012482146FCF76DFCF6
:10B48400DEE70E482146FCF77FFCD9E7037A0E4835
:10B494001F2B4FEA1315214606D9FCF75EFC022D3B
:10B4A4000A482146EAD1EEE7FCF76EFC074821463C
:10B4B400E9E700BF7049002085C2030078490020F5
:10B4C400744900207C4900208049002084490020E0
:10B4D4001328014602D80248FCF760BC00207047DC
:10B4E4007449002007B50190FFF7F2FF019930B1CC
:10B4F4000448FCF753FC002814BF0220012003B0C9
:10B504005DF804FB7C49002007B50190FFF7E0FFDC
:10B51400019930B10448FCF741FC002814BF022013
:10B52400012003B05DF804FB7849002007B50190C1
:10B53400FFF7CEFF019928B1044803B05DF804EB8E
:10B54400FCF72CBC03B05DF804FB00BF804900206D
:10B5540007B50190FFF7BCFF019928B1044803B077
:10B564005DF804EBFCF71ABC03B05DF804FB00BF04
:10B574008449002008B518210248FCF718FCC0B221
:10B5840008BD00BF7049002070B50A4E054630461C
:10B594000C46FCF703FC58B12846FFF799FF38B175
:10B5A4000634294606EB8400BDE87040FCF7F6BB80
:10B5B400002070BD70490020F8B50D4C05462046AA
:10B5C4000E461746FCF7EAFB80B12846FFF780FFDA
:10B5D40060B1B01D04EB800029461FB1BDE8F840FE
:10B5E400FCF7BBBBBDE8F840FCF7CEBBF8BD00BF21
:10B5F4007049002073B50B4D019204460E46014676
:10B604002846FCF7CBFB50B1043405EB8404019AC3
:10B61400A068314602B0BDE87040FFF7B9BE02B081
:10B6240070BD00BF70490020007800F00100704731
:10B63400A0DF704710B50446408800F0D3FBA0801B
:10B644002046BDE8104001F089BB30B587B00546FF
:10B654000C461822002168460EF065FC0723684654
:10B664008DF80030ADF802500294FFF7E3FF07B005
:10B6740030BD000030B587B0054618220021684669
:10B684000EF051FC4FF6FF739D42ADF8025023D0EB
:10B69400284600F0BAFA1128044617D007D860B13A
:10B6A4000B2811D021462846FFF7CFFF03E043F2D1
:10B6B40002039842F6D1002209E00E2368468DF871
:10B6C4000030FFF7B7FFF6E70F23F7E70122034B3C
:10B6D40028461978FFF770FF07B030BDED49002008
:10B6E400FFF7C8BF024B034918780022FFF782BF57
:10B6F400EF49002031B7020013B5042204460021AB
:10B7040068460EF010FC42F6A623ADF80030012383
:10B714008DF80230044B1868019001AA694620464E
:10B72400FFF786FF02B010BDFAC2030070B5234EC6
:10B7340086B031780446FFF727FF0546D8BB20467C
:10B7440000F0B6FA1128014623D008D8062822D0E2
:10B75400082820D078B12046FFF777FF19E043F29C
:10B764000203984215D043F201439842F3D1204694
:10B77400FFF780FF0DE02946182268460EF0D3FB40
:10B78400102368468DF80030ADF80240FFF752FFF1
:10B794000125012205E0204600F024FB00F0A2FA76
:10B7A4000022074B20461978FFF706FF31782A4616
:10B7B4002046FFF701FF06B070BD00BFF04900202E
:10B7C400EF49002013B5044600F00CFB00236A4641
:10B7D400092100F029FF052805D1044B012219781D
:10B7E4002046FFF7E9FE02B010BD00BFEC4900207F
:10B7F40008B5084B084918780022FFF7FBFE0246FB
:10B8040030B9064B06491878BDE80840FFF7F2BE88
:10B8140008BD00BFEE49002029B80200EC49002011
:10B82400FDB6020030B5012187B005461C48FCF77F
:10B83400EBFA0446BFF35F8F70BB284600F0A0F913
:10B84400862801460ED007D8D0B1112826D0284624
:10B85400FFF7FBFE002403E043F202039842F6D113
:10B8640022460FE01822214668460EF05CFB0623B0
:10B8740068468DF80030ADF80250FFF7DBFEEFE7C5
:10B8840001240246074B28461978FFF795FE1CB998
:10B89400BFF35F8F024B1C6007B030BD0122F1E79C
:10B8A400E8490020EE49002038B503780446A3B9DE
:10B8B4004088FFF7DFFE6588284600F0E6F928B1E6
:10B8C400064B012219782846FFF776FE6088FFF7B9
:10B8D40079FFBDE83840FFF78BBF38BDEF49002042
:10B8E40037B50378082B044630D1427A72BB057A07
:10B8F400072D1BD0082D2DD0012D27D180886A4615
:10B90400294601F0B9F808BB019B1B78F3B1A08864
:10B9140000F096FA4FF6FF73984217D0114B2A465F
:10B924001978FFF749FEFFF7DDFE0FE0808800F08D
:10B9340087FA4FF6FF739842044607D00A4B012258
:10B944001978FFF739FE2046FFF73CFFFFF750FF59
:10B9540003B030BD054B19680129F7D1BFF35F8FE0
:10B964001A60F3E7EF490020EE490020E84900207F
:10B97400F8B5FFF7FFFD144F144E3870FFF7FAFDCA
:10B984003070FFF7F7FD124D124C2870FFF7F2FDEF
:10B994002070FFF7EFFD104B18703B78182B10D078
:10B9A4003378182B0DD02B78182B0AD02378182B2A
:10B9B40007D0182805D0094B00201860BFF35F8F0B
:10B9C400F8BD0320FCE700BFEE490020ED4900204C
:10B9D400EF490020F0490020EC490020E84900200C
:10B9E40013B50123ADF8003009230A4A8DF802305B
:10B9F400094B0024A14214BF1946114601918DF848
:10BA0400034000F0EFF92246694600F079FE02B0E7
:10BA140010BD00BF00C3030004C3030030B5038896
:10BA24008588522B87B0044631D00DD8352B45D0AC
:10BA3400502B30D02C4B2D4918780022FFF7DAFD1B
:10BA4400FFF750FE07B030BD542BF3D1182200216C
:10BA540068460EF068FA112328468DF80030ADF8D8
:10BA6400025000F0BFF9ADF8040000F03BF9204BA0
:10BA7400284619780022FFF79FFD1E4B28461978A7
:10BA84000022FFF799FD6846FFF7D4FDD2E7284668
:10BA9400FFF7F0FDCEE7037B012BCBD1827A012A9D
:10BAA400C8D1018942F602139942C3D1124B2846E8
:10BAB4001978FFF781FDFFF79BFEBBE70F4B0022D0
:10BAC40019782846FFF778FDE18851B9A389012B3D
