:020000022000DC
:10600000000001207963020061630200ED99020043
:10601000656302006763020069630200000000001C
:1060200000000000000000000000000089C0020025
:106030006D63020000000000ADC002007163020049
:1060400049EE020073630200F9FA02007363020072
:10605000736302007363020019F8020073630200A5
:1060600073630200736302007363020073630200D0
:1060700073630200736302007363020073630200C0
:1060800073630200F1C402007363020073630200D1
:106090007363020073630200F5C0030073630200C0
:1060A0007363020073630200736302007363020090
:1060B0007363020073630200000000000000000030
:1060C0007363020073630200736302007363020070
:1060D0007363020073630200736302000000000038
:1060E00000000000000000000000000000000000B0
:1060F00000000000000000000000000000000000A0
:10610000000000000000000000000000000000008F
:10611000000000000000000000000000000000007F
:10612000000000000000000000000000000000006F
:10613000000000000000000000000000000000005F
:10614000000000000000000000000000000000004F
:10615000000000000000000000000000000000003F
:10616000000000000000000000000000000000002F
:10617000000000000000000000000000000000001F
:10618000000000000000000000000000000000000F
:1061900000000000000000000000000000000000FF
:1061A00000000000000000000000000000000000EF
:1061B00000000000000000000000000000000000DF
:1061C00000000000000000000000000000000000CF
:1061D00000000000000000000000000000000000BF
:1061E00000000000000000000000000000000000AF
:1061F000000000000000000000000000000000009F
:10620000364937480A1A02D0072291438D4635494C
:1062100035480A1A06D00722914381F309880222E1
:1062200082F3148831483249324A00F045F8324846
:106230003249334A00F040F832483349334A00F0DB
:106240003BF833483349344A00F036F83348344990
:10625000344A00F031F834483449354A00F02CF81B
:1062600034483549354A00F027F835483549002289
:1062700000F02DF834483549002200F028F8344861
:106280003449091A082903DB002202600430016046
:10629000314A90471F482049884205D0026804309F
:1062A00003B4904703BCF7E700208646EC46002085
:1062B00000212A4A9047FEE7884207D0521A05D0AB
:1062C000037801300B700131013AF9D170478842EF
:1062D00002D002700130FAE7704700000000012090
:1062E00000F80020000001200000012008F4030055
:1062F000CC57002014590020D8630200D863020054
:10630000C8C4030008F40300CC570020CC57002079
:1063100050C6030050C6030050C6030050C6030019
:1063200050C6030050C6030050C6030050C6030009
:1063300008F4030050F503001459002014590020FC
:10634000145900203C7B00203C7B00203C7B00203B
:106350003C7B00203C7F0020A1630200F528030065
:10636000FEE7FEE7FEE7FEE7FEE7FEE7FEE7FEE705
:10637000FEE7FEE7704700BF1048804710484FF027
:106380000701884385460F4880470F48016841F45C
:1063900070010160BFF34F8FBFF36F8FFFF730BF06
:1063A0000A480B490B4A884207D0521A05D0037895
:1063B00001300B700131013AF9D170477563020069
:1063C0000000012045B9020088ED00E03CC6030052
:0863D000B8570020CC57002053
:1063D80000B5A1B00590049103920293049805F0CA
:1063E800CAF8039B1593029B169300231793002367
:1063F8008DF8603000231993229B1A9300231F9372
:106408000FA91F9B0822049805F072F908231F930F
:10641800119B1293BDF84030ADF84C30BDF84230B6
:10642800ADF84E3000238DF851309DF83C3003F024
:106438000303DBB2012B26D10F9BC3F395231C93D7
:106448009DF83C30C3F3C203DBB28DF85030BDF881
:106458003C30C3F38313DBB21B931B9B9A0009A93F
:106468001F9B049805F044F91B9B9B001F9A13443B
:106478001F9312AA09A915AB009313461B9A1C98DF
:1064880000F0D4FF2FE09DF83C3003F00303DBB2AB
:10649800022B28D1BDF83E30C3F389139BB21E935B
:1064A8009DF83C30C3F3C203DBB28DF850301E9B1D
:1064B800082B28BF08231D9307A91F9B1D9A049822
:1064C80005F016F91F9A1D9B13441F931E9A1D9BD6
:1064D800D31A1E9315AB12AA07A81D9901F048F804
:1064E8001E9B002BE3D1049805F054F800BF21B09F
:1064F8005DF804FB00B583B00190019B1B781A4638
:106508000C4B9B5C002B05D0019B043318460AF00A
:10651800F3FC0BE0019B1B781A46064B9B5C002B97
:1065280004D1019B0C33184609F0E0FE00BF03B00C
:106538005DF804FB5472002000B587B00390029107
:1065480013468DF8073000230593039B1B781A46E2
:10655800114B9B5C002B09D0039B04339DF807204B
:10656800029918460AF0F6FC05900FE0039B1B7889
:106578001A46094B9B5C002B08D1039B0C339DF8F2
:1065880007200299184609F027FF0590059B184631
:1065980007B05DF804FB00BF5472002082B0019080
:1065A8000091034B01221A7000BF02B0704700BF70
:1065B8005459002030B58DB003468DF80730194B7B
:1065C80002AC1D460FCD0FC495E80F0084E80F00FC
:1065D800062302934FF0FF3303934FF0FF330493E6
:1065E8004FF0FF3305934FF0EB7308939DF8073096
:1065F800002B01D00C4A00E0002202AB19460B48E0
:1066080008F038FA0B900B9B0A930A9B002B02D0D8
:106618000A9801F0F7F9064A9DF80730137000BF91
:106628000DB030BD50C60300A5650200CC57002050
:106638005559002000B583B001238DF807309DF827
:1066480007301846FFF7B6FF00BF03B05DF804FB3C
:1066580000B589B0039002910192019B8DF81F301B
:10666800114B00221A709DF81F301A4602990F48E4
:10667800FFF762FF0690069B0593059B002B02D04F
:10668800059801F0BFF900BF094B1B78002B07D014
:10669800054B1B78DBB283F00103DBB2002BF3D18F
:1066A80000BF09B05DF804FB54590020CC57002006
:1066B8005559002000B585B003900291054B009311
:1066C8004023054A02990398FFF782FE00BF05B0F0
:1066D8005DF804FB596602001459002082B001904D
:1066E80000BF02B07047000000B583B001900548B4
:1066F800FFF700FF0020FFF75DFF00BF03B05DF864
:1067080004FB00BFCC57002082B00190019BDB68DE
:1067180001225A7100BF02B07047000000B583B073
:106728004FF0FF330193FFF785FF0421054800F080
:1067380099FD01900348FFF7E7FF00BF03B05DF83C
:1067480004FB00BF2CC6030000B583B00190009184
:10675800019B1B681B6800990198984700BF03B00C
:106768005DF804FB00B583B00190019B1B685B6872
:106778000198984700BF03B05DF804FB00B583B0EB
:106788000190019B1B689B680198984700BF03B064
:106798005DF804FB82B001900B468DF80330019B35
:1067A800DB689DF803201A7100BF02B0704782B001
:1067B8000190019BDB681B79184602B0704782B0D4
:1067C8000190019BDB6801225A7100BF02B070473B
:1067D80082B00190019BDB685B79184602B0704774
:1067E80000B585B001900091154BFF229A60144BBB
:1067F80000221A60124B00225A60114B0022C3F883
:1068080018240F4B0022C3F814240D4B002283F8E0
:1068180020240C4804F014FE0390039B002B01D0A5
:10682800039B08E0084804F077FF084A084BD31A8E
:10683800DB0802930023184605B05DF804FB00BF8F
:10684800C05A002058C5030090C603002CC6030098
:106858006CC50300024A034BD31ADB08184670477D
:106868002CC603006CC5030000B587B001900B4629
:106878008DF803309DF80330002B1FD0FFF7EAFF97
:1068880004900023059313E0059B9B000E4A1344D4
:106898000393039B1B881A46019B1B689A4204D1E9
:1068A800019B059A1A60002309E0059B01330593B3
:1068B800059A049B9A42E7D3052300E00023184673
:1068C80007B05DF804FB00BFCC57002000B585B0C9
:1068D80001900B468DF803309DF8032001AB11465B
:1068E8001846FFF7C1FF0346002B07D1019BDB00C9
:1068F800054A13440393039B1B6800E000231846D2
:1069080005B05DF804FB00BF6CC5030084B00190BE
:106918000B468DF80330019BDB00174A13440293A2
:106928009DF80330013B032B1CD801A252F823F039
:10693800496902005169020059690200636902004D
:1069480002238DF80F3011E004238DF80F300DE08D
:10695800029B1B798DF80F3008E0029B5B798DF85C
:106968000F3003E000238DF80F3000BF9DF80F3083
:10697800184604B0704700BF6CC5030084B001908E
:10698800009100238DF80F30019B1B7803F004035E
:10699800DBB2002B24D0019B1B78C3F30103DBB2CD
:1069A800012B02D0022B0CD017E0009B1B68019A28
:1069B8001288C2F38312D2B213449A1C009B1A6045
:1069C8000BE0009B1B68019A5288C2F3891292B2AD
:1069D80013449A1C009B1A6000BF01238DF80F30E6
:1069E8009DF80F30184604B07047000000B58BB012
:1069F8000023ADF826303B4803F0B8FB3A4803F0D3
:106A0800B5FB3A4B5B680493384B9B680693049A32
:106A1800069B134002339B00344A13440433089303
:106A280004AB19460898FFF7A9FF0346002B09D0C5
:106A3800049A069B134002339B002C4A13440433E8
:106A48000893EDE700BF0023079311E0049B5A1C4D
:106A58000492069A1340079A920001A90A4423490E
:106A680002339B000B445B681360079B0133079359
:106A7800079B012BEAD99DF80430C3F30103DBB26D
:106A8800012B11D0022B00D01CE0BDF80A30ADF864
:106A98002630BDF80630C3F389139BB203339A0836
:106AA800049B134404930DE0BDF80A30ADF826307A
:106AB800BDF80430C3F38313DBB21A46049B1344B6
:106AC800049300BF084803F05DFB0590059B002B6D
:106AD80002D0049B054A5360BDF8263018460BB017
:106AE8005DF804FBD85E0020D45E0020C05A002068
:106AF80000B585B00021074803F06DFA0390039BA9
:106B08000293029B83F310030193019B184605B07F
:106B18005DF804FBDC5E002000B589B003900291AB
:106B280001920093039B1B0C0693FFF7E1FF07906C
:106B3800079B1904009B5A1C0A9B1340069A0A4398
:106B48001B4902339B000B445A60009A0A9B13406E
:106B580002339B00164A134404330593039B03F046
:106B68000703D9B2059A137861F3C5031370019B23
:106B780003F00F03D9B2059A138861F389131380C0
:106B8800029BC3F31501059A136861F39F231360F1
:106B9800059A1378012161F301031370059A13789C
:106BA8006FF38203137000BF09B05DF804FB00BFE8
:106BB800C05A002000B58DB00390029113468DF89D
:106BC8000730039B02330A9301238DF827300023F3
:106BD8008DF81B300DF11B03184601F00DF9404BE1
:106BE8001A68029B1A603E4B9A683D4B59683C4BA9
:106BF8001B68CB1A134401330B9314E00121394865
:106C080003F078FAFFF7F2FE07900799354803F08A
:106C180071FA334B9A68324B5968314B1B68CB1A5F
:106C2800134401330B930A9A0B9B9A42E6D89DF8BA
:106C38002730002B48D0002305939DF80730002B00
:106C480017D09DF81430012262F301038DF8143037
:106C58009DF8143043F004038DF81430039B03F0BF
:106C68000F03DAB2BDF8143062F38913ADF81430AB
:106C780016E09DF81430022262F301038DF81430F7
:106C88009DF8143043F004038DF81430039BC3F3CC
:106C980009039AB2BDF8163062F38F13ADF81630B7
:106CA8000F4B1A680E4B9B68134002339B000C4A2B
:106CB800134404330893059A089B1A60084B1A6812
:106CC8000A9B1344064A13609DF81B30184601F0CE
:106CD8009DF89DF8273018460DB05DF804FB00BFFD
:106CE800C05A0020DC5E002000B58BB005900491EE
:106CF800039202931F4B9B68079306AB0122194628
:106D08000298FFF757FF0346002B24D0069B023357
:106D180009930023089311E0089B9B00039A1A44E7
:106D2800099B591C099107990B40126811490233B4
:106D38009B000B445A60089B01330893089A029BF6
:106D48009A42E9D3069A079B00931346029A04993C
:106D58000598FFF7E1FE074B93F82034002B05D088
:106D680000BF00F079F80346002BFAD100BF0BB042
:106D78005DF804FBC05A002000B583B00190009173
:106D88000023002200990198FFF7AEFF00BF03B06F
:106D98005DF804FB00B587B0039002910192019B56
:106DA800059305AA012302990398FFF79DFF00BFE9
:106DB80007B05DF804FB00B587B00390029101921B
:106DC8000093019B0493009B059304AA0223029954
:106DD8000398FFF789FF00BF07B05DF804FB00B513
:106DE80089B00390029101920093019B0593009B47
:106DF80006930A9B079305AA032302990398FFF7B2
:106E080073FF00BF09B05DF804FB00B589B00390BB
:106E1800029101920093019B0493009B05930A9BA6
:106E280006930B9B079304AA042302990398FFF780
:106E38005BFF00BF09B05DF804FB0000054B5A6812
:106E4800044B1B689A420CBF01230023DBB218468F
:106E5800704700BFC05A002000B599B0FFF7EEFF99
:106E68000346002B01D00023BCE19A4B0022C3F853
:106E78001824BFF34F8F974B5B680493954B9B681F
:106E88001093049A109B134002339B00914A1344B9
:106E980004331193002317930023169300230F93B1
:106EA80004AB19461198FFF769FD0346002B19D06A
:106EB800884BD3F81834002B14D1864B1A68049BDE
:106EC8009A4205D8834B1B68824A5360002389E1A4
:106ED800049A109B134002339B007E4A13440433E8
:106EE8001193DDE70023159311E0049B5A1C0492CB
:106EF800109A1340159A920001A90A447549023361
:106F08009B000B445B681360159B01331593159B1D
:106F1800012BEAD99DF8043003F00303DBB2022BFE
:106F280040F09C80BDF80630C3F389139BB20D93E3
:106F3800BDF80630C3F389139BB2502B28BF5023EA
:106F48009BB20C930C9BC3F309039AB2BDF80630AD
:106F580062F38F13ADF806300C9B08330B939DF842
:106F68000430C3F3C203DBB20F930B995A4804F001
:106F780072FA1790179B002B00F0D080179804F036
:106F8800FAFA01A9169B0822179804F09DFB169B94
:106F980008331693049BDA43109B134001339B007C
:106FA8000A930C9A0A9B9A4242D90A9B002B08D052
:106FB800049A109B134002339B00464A134404333F
:106FC80000E0464B08930A9B002B02D00A9BDBB2D9
:106FD80001E00C9BDBB28DF81F300A9B002B01D01F
:106FE8003E4B00E0002306930A9B002B06D00C9B27
:106FF800DAB20A9BDBB2D31ADBB200E000238DF8C9
:1070080017309DF81F20169B0899179804F05CFB11
:107018009DF81F30169A13441693069B002B16D022
:107028009DF81720169B0699179804F04DFB0EE063
:10703800049A109B134002339B00264A13440433DE
:107048000993169B0C9A0999179804F03DFB0D9B20
:1070580003339A08049B134404935FE09DF80430BB
:1070680003F00303DBB2012B58D1BDF80430C3F39E
:107078008313DBB2062B28BF0623DAB2BDF804302F
:1070880062F38913ADF80430BDF80430C3F38313F9
:10709800DBB202330E939DF80430C3F3C203DBB2B4
:1070A8000F930E9B9B0019460B4804F0D4F91790D8
:1070B800179B002B32D0179804F05DFA01A9169B94
:1070C8000822179804F000FB169B08331693002338
:1070D80015931AE0C05A002058C50300CC5A002066
:1070E800049B5A1C0492109A134002339B003F4A97
:1070F8001344191D169B0422179804F0E5FA169BF1
:1071080004331693159B01331593BDF80430C3F36C
:107118008313DBB21A46159B9342E1D3179B002BCE
:1071280040D0324BD3F810341493304BD3F8183482
:10713800002B1BD0179804F02DFA4DE000238DF892
:107148004F301498FFF744FB0346002B02D001236D
:107158008DF84F309DF84F30002B03D017991498B5
:10716800FFF7F2FA149BDB681B681493149B002B3F
:10717800E4D1179804F00EFA00238DF803300DF1CE
:107188000303184600F038FE184BD3F81834002BC8
:1071980002D1049B154A53609DF80330184600F04D
:1071A80035FE19E0114BD3F81034129306E012980B
:1071B800FFF7E4FA129BDB681B681293129B002B03
:1071C800F5D10B4A0B4BD31ADB081B0443F002031F
:1071D80009491846FFF7D0FDFFF730FE034683F054
:1071E8000103DBB2184619B05DF804FBC05A002051
:1071F80094C503006CC50300A0C6030000B585B0A4
:107208000023039323E0164BD3F810340293012391
:107218008DF807300FE00298FFF7C9FA03461A46BF
:10722800039B934203D100238DF8073006E0029BAD
:10723800DB681B680293029B002BECD19DF807309A
:10724800002B01D0039B07E0039B01330393039BAF
:10725800092BD8DD4FF0FF33184605B05DF804FB65
:10726800C05A002000B585B001900B468DF8033058
:10727800FFF7C4FF0390039BB3F1FF3F01D1039BCA
:1072880022E0039BDBB219460198FFF783FA104B03
:10729800D3F81034002B08D10D4A019BC2F81034E2
:1072A800019BDB6800221A600DE0094BD3F810340B
:1072B800DA68019BDB6812681A60054BD3F8103452
:1072C800DB68019A1A60039B184605B05DF804FB59
:1072D800C05A002000B583B00C4BD3F8103401938A
:1072E8000A4B012283F8202409E00198FFF767FA86
:1072F8000198FFF737FA019BDB681B680193019B34
:10730800002BF2D100BF03B05DF804FBC05A002087
:1073180082B00190009100BF02B0704710B584B0F0
:1073280003900291039BDB88002B0AD0039BDB8828
:107338001A461F4B009313461E4A1F49029802F033
:10734800F1FF039B1B7A052B2ED0039B5B7A002B46
:1073580012D0039B9B881A46039B1B7A194610463A
:10736800FFF7D4FA03461A46144B53F822301A464C
:107378001349029802F0D6FF039B1B68194602982E
:10738800FFF7C6FF039B1B7A1A460E4B53F82240A1
:10739800039B9B8800211846FFF798FA034622466C
:1073A8000949029802F0BEFF00BF04B010BD00BF3B
:1073B800D4C60300E4C603001CC70300FC57002022
:1073C80034C70300E857002038C7030000B585B06C
:1073D8000390029113468DF80730039B1B7A052B07
:1073E8000FD0039B5B7A002B06D00D4B1B681A4607
:1073F8000C49029802F096FF0B49029802F092FF9E
:1074080007E09DF80730002B03D00749029802F0E7
:1074180089FF029802F06EFF00BF05B05DF804FB1B
:10742800FC57002034C7030044C7030030B58BB0B5
:1074380007900691059204930E9B1B7B8DF82730CD
:107448000E9B00221A730E990498FFF767FF059B9D
:10745800062B7FD801A252F823F000BF81740200E6
:107468008B7402009B740200AF740200CD7402009A
:10747800F57402002575020007990E9802F052FF74
:1074880069E0069B1B681A4607990E9802F04AFFA6
:1074980061E0069B1A68069B04331B6807990E98DF
:1074A80002F040FF57E0069B1A68069B04331968F0
:1074B800069B08331B6800930B4607990E9802F049
:1074C80031FF48E0069B1968069B04331868069B41
:1074D80008331B68069A0C3212680192009303461F
:1074E8000A4607990E9802F01DFF34E0069B1868BB
:1074F800069B04331C68069B08331B68069A0C32EB
:107508001268069910310968029101920093234686
:10751800024607990E9802F005FF1CE0069B1C68BE
:10752800069B04331D68069B08331B68069A0C32B9
:10753800126806991031096806981430006803909B
:107548000291019200932B46224607990E9802F069
:10755800E9FE00E000BF00220E990498FFF736FF0D
:107568000E9B9DF827201A7300BF0BB030BD00BFDB
:1075780000B587B00390029101920093029B082BFB
:107588005CD8009B1B7B8DF81330009B00221A737C
:1075980000990198FFF7C2FE0023059314E0059AAD
:1075A800029B9A4209D2039A059B13441B781A46F8
:1075B8002449009802F0B6FE03E02349009802F03F
:1075C800B1FE059B01330593059B072BE7D91F499E
:1075D800009802F0A7FE0023059322E0059A029B7B
:1075E8009A4217D2039A059B13441B788DF81230E0
:1075F8009DF81230184614F07FFE0346002B02D087
:107608009DF8123000E02E231A461149009802F026
:1076180089FE03E00F49009802F084FE059B0133C0
:107628000593059B072BD9D9012200990198FFF7EB
:10763800CDFE009B9DF813201A7300E000BF07B031
:107648005DF804FB48C7030050C7030054C7030094
:1076580058C703005CC703002DE9F04F89B00190BB
:1076680000238DF81F3099E0524B1A689DF81F309F
:10767800DB0013440693069B1B7819464FF0010262
:107688004FF00003A1F1200CC1F1200003FA01F929
:1076980002FA0CFC49EA0C0922FA00F049EA00094E
:1076A80002FA01F8CDE90489434BD3E90001DDE989
:1076B800042302EA000A03EA010B5AEA0B0368D022
:1076C800DDE904236FEA02006FEA03013A4BD3E9CC
:1076D80000AB0AEA00020BEA01033749C1E90023BB
:1076E800069B1B78184608F083F803468DF80F3080
:1076F800069B1B7819464FF001024FF00003A1F1D9
:10770800200CC1F1200003FA01F502FA0CFC45EA4D
:107718000C0522FA00F0054302FA01F4274BD3E9DD
:10772800002304EA020A05EA030B9DF80F204FF034
:10773800000306990978A1F1200CC1F1200003FA91
:1077480001F702FA0CFC47EA0C0722FA00F007439B
:1077580002FA01F6BB4508BFB2451AD19DF80F30B1
:10776800069A5278012A0CBF01220022D2B2934213
:107778000CBF01230023DBB20293069B5B68002B3E
:1077880007D0069B5B68069A12780299C9B2104620
:1077980098479DF81F3001338DF81F30084B1B7830
:1077A8009DF81F209A42FFF45FAF00BF09B0BDE803
:1077B800F08F00BFE45E0020185F0020105F0020FB
:1077C800E85E002070B586B001900A468DF8032067
:1077D8004FF001014FF000020198A0F12006C0F11E
:1077E800200502FA00F401FA06F6344321FA05F5F9
:1077F8002C4301FA00F3CDE90434304B184600F06D
:1078080041FA0390039B002B54D12D4BD3E900126E
:10781800DDE9043403EA010504EA020655EA060331
:1078280037D1019807F0E4FF0346002B0CD0254B15
:10783800D3E90012DDE9043443EA010544EA02060B
:10784800204AC2E900560FE0DDE904346FEA03017B
:107858006FEA04021B4BD3E9005605EA010306EA66
:107868000204184AC2E90034154BD3E90012DDE9D5
:10787800043443EA010544EA0206114AC2E9005603
:107888000E48114B1B680022194600F083F903903B
:1078980011E0DDE904346FEA03016FEA0402084BE2
:1078A800D3E9005605EA010306EA0204044AC2E9DC
:1078B800003400E000BF06B070BD00BFF05E0020DD
:1078C800185F0020105F0020EC5E002010B58AB021
:1078D80003900B4601928DF80B30019B042B01D8C5
:1078E80007235AE007F094FE034683F00103DBB256
:1078F800002B09D007F03AFE0990099B0893089BD2
:10790800002B01D0089B48E0254A039B1360254AB9
:107918009DF80B301370244A019B1360234A4FF0E3
:1079280000034FF00004C2E90034214A4FF000037D
:107938004FF00004C2E9003422E09DF80B30DB0070
:10794800039A1344079305AB00210A461A800A4696
:107958009A7003238DF81430079B9B788DF81530A7
:10796800079B1B78184605AB124A194607F05CFEC0
:107978000990099B0693069B002B01D0069B0CE0FF
:107988009DF80B305A1E8DF80B20002BD5D10A4AD2
:1079980000210A4800F0B0F8034618460AB010BDA6
:1079A800E45E0020E85E0020EC5E0020105F00200E
:1079B800185F0020CD7702006176020060C70300DF
:1079C80000B583B0002301930CE00C4B1A68019BAF
:1079D800DB0013441B780121184607F095FE019B34
:1079E80001330193064B1B781A46019B9342ECD353
:1079F8000023184603B05DF804FB00BFE45E0020D6
:107A0800E85E002000B587B00190002303930023AF
:107A18000493019B059303AB1A46002144F201002D
:107A280000F016F800BF07B05DF804FBBFF34F8FF6
:107A3800054BDB6803F4E0620349044B1343CB6056
:107A4800BFF34F8F00BFFDE700ED00E00400FA052B
:107A580000B585B003900291019272B6FFF73AFC27
:107A680000BFFFF7F9F90346002BFAD1114A124B70
:107A7800D31ADB081B0443F0010310491846FFF72B
:107A88007BF90F4B1B6803F00103002B00D000BEED
:107A9800084A094BD31ADB081B0443F002030949BF
:107AA8001846FFF769F9FFF7C1FF00BF05B05DF899
:107AB80004FB00BF94C503006CC5030064C7030042
:107AC800F0ED00E070C7030000B585B001900198A3
:107AD80006F0CEFB0390039B1B7B002B05D0039B7A
:107AE8009B68039A12681046984700BF05B05DF876
:107AF80004FB00231846704700B58BB005900B4671
:107B080003928DF81330059B1B6807930023099394
:107B1800039B002B02D0059B002B01D1072330E0EB
:107B2800079B1B7B002B01D008232AE0079B5B687F
:107B3800002B23D110220021079814F05EFC9DF839
:107B48001330002B02D10023089301E0012308938E
:107B5800079B039A9A600D4B0093079B089A4FF472
:107B68007A710B4806F0DAF80246079B5A60079BC1
:107B78005B68002B04D10E23099301E0082300E081
:107B8800099B18460BB05DF804FB00BFD17A0200D0
:107B980080C7030000B58BB0059004910392059B44
:107BA8000993099B5B680893089B002B01D1082364
:107BB80062E0099B1B7B002B07D0089806F042FB6C
:107BC8000346002B01D0002356E0099B039A1A6054
:107BD800EFF305830793079B002B2DD00023069313
:107BE80006AA002300931346049A0921089806F070
:107BF800D5F80346012B01D004233DE005F0BAFC7B
:107C0800014606AA0023009313460A46062108984F
:107C180006F0C4F80346012B01D004232CE0069B90
:107C2800002B25D0164B4FF080525A6040BFBFF34F
:107C38004F8FBFF36F8F1BE0022300930023049A3A
:107C48000421089806F0AAF80346012B01D0042362
:107C580012E005F085FC024602230093002301216F
:107C6800089806F09BF80346012B01D0042303E093
:107C7800099B01221A73002318460BB05DF804FB18
:107C880000ED00E000B589B00390039B0793079BC4
:107C98005B680693069B002B01D1082333E0EFF3C2
:107CA80005830593059B002B1CD00023049304AA8D
:107CB80000230093134600220821069806F06EF868
:107CC8000346012B01D004231DE0049B002B16D092
:107CD8000F4B4FF080525A6040BFBFF34F8FBFF336
:107CE8006F8F0CE0022300930023002203210698E3
:107CF80006F054F80346012B01D0042303E0079B48
:107D080000221A730023184609B05DF804FB00BF6F
:107D180000ED00E082B0EFF310830093009B019325
:107D280072B6019B184602B0704762B600BF704732
:107D380000B585B00190FFF7EDFF0390164B9B68E7
:107D4800002B1BD1144B01229A60144BD3F88020CE
:107D5800134B1340104A1360104B114AC3F880208C
:107D68000E4BD3F884300C4A53600C4B4FF0FF3263
:107D7800C3F88420019B00221A7002E0019B0122B3
:107D88001A70039B002B01D1FFF7CFFF0023184681
:107D980005B05DF804FB00BF205F002000E100E0B3
:107DA800FC06FFBD00B585B003468DF80730104BC3
:107DB8009B68002B16D09DF80730002B12D1FFF7D7
:107DC800A9FF03900B4A0A4B1B681360094A084B2A
:107DD8005B685360064B00229A60039B002B01D11D
:107DE800FFF7A3FF0023184605B05DF804FB00BFAA
:107DF800205F002000E100E000B583B00190019809
:107E0800FFF796FF00BF03B05DF804FB00B583B031
:107E180003468DF807309DF807301846FFF7C2FF74
:107E280000BF03B05DF804FB82B00190019B03F032
:107E38000303002B0CBF01230023DBB2184602B05A
:107E48007047000000B585B00190002303930EE051
:107E58000A4A039B52F82330002B05D0074A039B9C
:107E680052F8233001989847039B01330393039BEF
:107E7800032BEDD900BF05B05DF804FB3C5F002083
:107E880082B001900091019B1B78013B052B61D8C2
:107E980001A252F823F000BFB97E0200C17E0200A1
:107EA800E77E0200197F0200397F0200557F020039
:107EB800009B00221A704EE0009B01221A70019B61
:107EC8001A89009B9A81019B9A88009BDA81019B01
:107ED800DA68009B9A60009B00221A743BE0009BC2
:107EE80002221A70019B1A89009B9A81019B9A8829
:107EF800009BDA81019BDA68009B9A60019B9B7D5D
:107F0800062B0CBF01230023DAB2009B1A7422E06F
:107F1800009B03221A70019BDA88009B9A81019BBF
:107F28001A89009BDA81019BDA68009B9A6012E04B
:107F3800009B04221A70019BDA88009B9A81009B9F
:107F48000022DA81009B00229A6004E0009B05224F
:107F58001A7000E000BF00BF02B0704784B0019003
:107F68000091019B0393039A009B9A4206D2039BBC
:107F78001B68B3F1FF3F01D0012300E0002303F0A9
:107F88000103DBB2184604B0704782B00190019B30
:107F98005B8803339B00019A1344184602B070476C
:107FA80000B583B0019000910198FFF7EEFF0246FB
:107FB800009B934201D202230CE0019B9B884FF661
:107FC800FF72934203D0019B1B88002B01D1012330
:107FD80000E00023184603B05DF804FB00B583B049
:107FE8000190019B002B13D00D4BDB681A46019BB7
:107FF80093420DD30A4B1B691A46019B934207D83B
:108008000198FFF711FF0346002B01D0012300E080
:10801800002303F00103DBB2184603B05DF804FB4C
:10802800B857002082B00190019B002B04D0019B1F
:108038001B680B4A934201D003230DE0019B0433D4
:108048001B68084A934204D0074A934203D101238C
:1080580002E0002300E00323184602B0704700BF87
:10806800DEC0ADDEFE011EF1FF011EF184B00190FD
:10807800002303930CE0039B9B00019A13441B68A5
:10808800B3F1FF3F01D0002307E0039B01330393C3
:10809800039BB3F5806FEED30123184604B07047F5
:1080A80082B003460A46ADF806301346ADF80430F0
:1080B800BDF80620134913469B0013449B000B444C
:1080C80008331A88BDF804301344ADF80430BDF8FD
:1080D80006200C4913469B0013449B000B440A33AB
:1080E8001A88BDF804301344ADF80430BDF80430E4
:1080F80040F2FF32934294BF01230023DBB21846BB
:1081080002B07047EC5F002084B0019000910A2310
:1081180003930023ADF80A3027E0BDF80A20174979
:1081280013469B0013449B000B4404331B68009ABE
:108138009A4215D9BDF80A20104913469B001344EA
:108148009B000B4404331B6803F58053009A9A4242
:1081580006D200230393019BBDF80A201A8008E089
:10816800BDF80A300133ADF80A30BDF80A30012BEA
:10817800D3D9039B184604B0704700BFEC5F0020BA
:1081880000B589B0039002910192039B03F58053D7
:108198000693039B08330393029B02221A80039BD6
:1081A800079332E006990798FFF7FAFE03468DF821
:1081B80017309DF81730002B0AD1079B9A68184B87
:1081C8001B689A4213D9079B9B68154A13600EE0F7
:1081D800019B002B02D0019B01221A709DF81730D9
:1081E800022B04D1029B4FF480621A8014E0029B98
:1081F8001A88079B5B8813449BB203339AB2029B8D
:108208001A800798FFF7C1FE079006990798FFF7AD
:10821800A5FE0346002BC5D109B05DF804FB00BFDD
:108228004C5F002082B001900091009B9B7D022B47
:1082380009D9019B1A89009BDB8813449BB203333D
:108248009AB2019B1A81019B5A89009BDB88D31A39
:108258009BB2033B9AB2019B5A8100BF02B07047A0
:1082680000B583B0074B1B68194600230093082309
:10827800054A064802F052FC0346184603B05DF86A
:1082880004FB00BF1460002084C70300B857002017
:1082980000B585B003900399002300930823044A8E
:1082A800044802F03BFC0346184605B05DF804FBA1
:1082B8008CC70300B857002000B585B0034600916D
:1082C800ADF8063000238DF80F30BDF806300333C3
:1082D800ADF80A30BDF80A3040F2FD32934201D9B8
:1082E80009234AE00023ADF80C303BE0BDF80C2030
:1082F800244913469B0013449B000B441B78002B16
:108308002BD1BDF80A20BDF80C3011461846FFF7EE
:10831800C7FE0346002B20D001238DF80F30009BA9
:10832800BDF80C201A80BDF80C20164913469B0096
:1083380013449B000B440A331988BDF80C20BDF880
:108348000A300B4498B20F4913469B0013449B0014
:108358000B440A3302461A8008E0BDF80C3001339A
:10836800ADF80C30BDF80C30012BBFD99DF80F309B
:10837800002B01D0002300E00723184605B05DF864
:1083880004FB00BFEC5F002082B003460A46ADF84C
:1083980006301346ADF80430BDF804200D491346E5
:1083A8009B0013449B000B440A331A88BDF806301F
:1083B800D31A9BB2BDF80420033B98B20549134673
:1083C8009B0013449B000B440A3302461A8000BFEB
:1083D80002B07047EC5F002008B50121024801F0A7
:1083E80089FE0346184608BD4C5F002000B585B0DD
:1083F80003460091ADF80630BDF806202349134620
:108408009B0013449B000B4404331B6803F5805303
:108418000293009B1B680393039B002B04D00398D3
:10842800FFF7B3FD039024E0BDF806201749134673
:108438009B0013449B000B4404331B6808330393CD
:1084480017E002990398FFF7ABFD0346012B09D00B
:10845800022B0CD0002B00D00BE0009B039A1A6073
:1084680001230EE00398FFF790FD039001E000233D
:1084780007E002990398FFF771FD0346002BE0D14E
:108488000023184605B05DF804FB00BFEC5F002030
:1084980000B585B001900091019B5B681846FFF715
:1084A8009DFD0346002B19D0019B1A89244B1B897B
:1084B8009A4213D1019B1A68019B5B689B689A4298
:1084C8000CD1019B5B6819460098FFF71DFE034617
:1084D800002B0CBF01230023DBB22CE0009B002201
:1084E8001A8023E00023029310E0029B0393039B6E
:1084F8009A68019B1B689A4208D1029A019B5A60AC
:108508000F4B1A89019B1A81012314E0009B1B88D9
:1085180002AA11461846FFF769FF0346002BE4D16B
:10852800009B1B8801339AB2009B1A80009B1B8812
:10853800012BD7D90023184605B05DF804FB00BF0E
:108548001C60002000B587B003900291019200934F
:10855800304B1B78DBB283F00103DBB2002B01D078
:10856800022353E0019B002B02D0009B002B48D133
:1085780005234BE0009B9B881946274A0B469B0026
:108588000B449B0013441B78002B33D124E0009B41
:108598001B680593039B002B06D0059B9A88039BB9
:1085A8001B889A4200D017E0029B002B06D0059B3F
:1085B8001A88029B1B889A4200D00DE0059B9A6896
:1085C800019B1A60009B1A68019B5A60134B1A8919
:1085D800019B1A81002319E0009B9B88009A114691
:1085E8001846FFF703FF0346002BD0D1009B00225B
:1085F8001A6000E000BF009B9B8801339AB2009B81
:108608009A80009B9B88012BB4D90A23184607B08F
:108618005DF804FB2C5F0020EC5F00201C6000204C
:1086280000B585B00190084B0199184601F0C0FBD0
:1086380003901C220021039813F0DFFE039B1846C9
:1086480005B05DF804FB00BFDC5F002000B583B017
:108658000190044B0199184601F0C3FB00BF03B019
:108668005DF804FBDC5F002000B583B00190054B8A
:108678000199184601F0C9FB0346184603B05DF896
:1086880004FB00BFDC5F002000B583B00190044B01
:108698000199184601F0D2FB00BF03B05DF804FB56
:1086A800DC5F002008B50121054801F03BFD0346C9
:1086B800002B14BF01230023DBB2184608BD00BFFE
:1086C800345F002000B587B0002305930023ADF880
:1086D80012300323ADF8103000238DF80F3000233B
:1086E800ADF80C30F0E0BDF80C301B031A467F4B98
:1086F800DB68134402930298FFF794FC03468DF855
:1087080007309DF80730012B00F09C80032B02D026
:10871800002B62D0D3E00298FFF7A8FC0346002B99
:108728003BD0734B1B68002B29D0BDF81220714930
:1087380013469B0013449B000B4402221A70BDF899
:1087480012206C4913469B0013449B000B440433CE
:10875800029A1A60BDF81220664913469B0013441A
:108768009B000B44083302221A80634ABDF812307A
:108778005380BDF812300133ADF8123008E05C4A7E
:10878800029B13605A4B02229A8001238DF80F3006
:10879800059B43F00103059391E0BDF81030013BC0
:1087A800ADF81030BDF81220524913469B0013440F
:1087B8009B000B440433029A1A60BDF812204D49FD
:1087C80013469B0013449B000B4403221A70BDF808
:1087D80012300133ADF8123071E0BDF8122045496E
:1087E80013469B0013449B000B4400221A70BDF8EB
:1087F8001220404913469B0013449B000B4404334A
:10880800029A1A60BDF8122013469B0013449B007D
:108818000833384A9918BDF8122013469B001344B0
:108828009B001033334A13441A460298FFF7A8FCFA
:10883800059B43F002030593BDF812300133ADF8F0
:1088480012303CE09DF80F30002B25D0BDF81220E7
:10885800284913469B0013449B000B4402221A70BC
:10886800BDF81220224B1968224813469B00134476
:108878009B00034404331960BDF812201D491346B8
:108888009B0013449B000B44083302221A80BDF856
:1088980012300133ADF81230154A029B13600022E2
:1088A80016490298FFF76CFC114B9B88022B01D1EB
:1088B800042300E00823059A1343059300BFBDF87D
:1088C8000C300133ADF80C30BDF80C30022B7FF6BC
:1088D8000AAFBDF81030012B01D800230593059B82
:1088E800DBB2184607B05DF804FB00BFB85700209C
:1088F80014600020EC5F00201C600020186000203D
:1089080000B587B003900291039B02229A750299E1
:10891800039B1A1D002300930423074802F0FEF866
:108928000590059B002B01D1002300E00E2318467B
:1089380007B05DF804FB00BFB857002000B587B04A
:1089480003900291039B1B69002B01D0032200E0D6
:108958000122039B9A75029B08331946039B03F176
:108968000C02002300930423064802F0D7F8059070
:10897800059B002B01D1002300E00E23184607B009
:108988005DF804FBB857002000B587B0039002914A
:10899800039B1B78032B01D1052200E00622039BD1
:1089A8009A75029B04331946039B03F108020023BE
:1089B80000930423064802F0B1F80590059B002BAC
:1089C80001D1002300E00E23184607B05DF804FB30
:1089D800B857002000B587B003900B46ADF80A30B1
:1089E80003990023009304230C4A0D4802F096F8DB
:1089F8000590059B002B01D00E230BE0BDF80A2043
:108A0800084913469B0013449B000B441033012272
:108A18001A700023184607B05DF804FB94C70300DA
:108A2800B8570020EC5F002000B589B0019002AB78
:108A380000221A605A609A60019BDB6802930DF16C
:108A4800160202AB11461846FFF722FD0346002B1B
:108A580012D0039B0693069B9A88019BDA80069B9B
:108A68001A88019B1A81039BBDF8162011461846E7
:108A7800FFF7B0FF079001E00A230793079B18460A
:108A880009B05DF804FB000000B587B00190019BB8
:108A9800981D02AA0D4B0021FFF754FD0590059B78
:108AA800002B08D1039A094B9B8819461046FFF7FB
:108AB80091FF059004E008220021044813F09DFC72
:108AC800059B184607B05DF804FB00BF2C6000202A
:108AD80000B587B003900291039B01229A75029B0F
:108AE8000C331846039B1A69039BDB889900002303
:108AF80000930B460146074802F010F80590059BC5
:108B0800002B01D1002300E00E23184607B05DF8C2
:108B180004FB00BFB857002082B0184B1B890133F3
:108B28009AB2164B1A81154B00225A80134B002219
:108B38001A730023ADF8063018E0BDF80620104976
:108B480013469B0013449B000B441A78BDF806306B
:108B5800002A0CBF01220022D1B2084A13440A4657
:108B68009A72BDF806300133ADF80630BDF806300C
:108B7800012BE2D900BF02B0704700BF1C60002083
:108B8800EC5F002084B0019000238DF80F300023A3
:108B9800ADF80C3031E0BDF80C301C4A13449B7A18
:108BA800002B25D0BDF80C30184A134400229A72C5
:108BB800BDF80C20164913469B0013449B000B4438
:108BC8000C331B68002B13D1BDF80C201049134639
:108BD8009B0013449B000B4410331B78002B07D0D9
:108BE800019BBDF80C201A8001238DF80F3008E096
:108BF800BDF80C300133ADF80C30BDF80C30012B4A
:108C0800C9D99DF80F30184604B070471C60002081
:108C1800EC5F002008B5084B05221A70074B0222AA
:108C28009A80064B1B68194600230122044802F06B
:108C380057F80346184608BD1C6000201460002041
:108C4800B857002000B583B0164B5B88ADF80230EA
:108C5800BDF80220144913469B0013449B000B44A3
:108C68000C331B68002B14D10E4B04221A70BDF86C
:108C780002200D4913469B0013449B000B44043308
:108C88001B68194600230122084802F029F80190C0
:108C980002E0FFF7BFFF0190019B184603B05DF8A3
:108CA80004FB00BF1C600020EC5F0020B8570020C8
:108CB80000B587B0114B5B680593114B1A68104BD0
:108CC8009B889B0013440493059B5B880333ADF892
:108CD8000E300A4B03221A700499084B5A68BDF8E3
:108CE8000E309800002300930346064801F016FF53
:108CF8000346184607B05DF804FB00BF1C6000205F
:108D080014600020B857002000B583B00A4B5B8878
:108D18000A491846FFF76AFB0346002B03D0FFF702
:108D2800C7FF019002E0FFF78DFF0190019B1846F5
:108D380003B05DF804FB00BF1C6000202060002029
:108D480008B50A4B06221A70084B5B881946084A70
:108D58000B469B000B449B00134404331B681846C6
:108D6800FFF796FA0346184608BD00BF1C600020AE
:108D7800EC5F002008B5054B07221A70034B002250
:108D88005A60FFF76DFA0346184608BD1C600020BC
:108D980008B50D48FFF7F6FE034683F00103DBB282
:108DA800002B0BD0094B00221A70084B00225A8066
:108DB800064B00225A6041F61D5302E0FFF7A4FF5C
:108DC8000346184608BD00BF1E6000201C60002036
:108DD80082B0094B5B680193019B5B880333ADF854
:108DE8000230064B9A88BDF8023013449AB2034BFE
:108DF8009A8000BF02B070471C60002014600020F9
:108E080082B0184B1B680193174B5B881946174AA9
:108E18000B469B000B449B00134404331B68114A08
:108E28001360114B5B881946104A0B469B000B4494
:108E38009B0013440433019A1A600B4B5B88194654
:108E4800084B9888094A0B469B000B449B00134427
:108E5800083302461A80034B02229A8000BF02B0F0
:108E6800704700BF146000201C600020EC5F0020E9
:108E780008B51A4B1B78072B2CD801A252F823F0FF
:108E8800A98E0200DD8E0200DD8E0200B58E020082
:108E9800C18E0200CD8E0200CD8E0200D58E02005A
:108EA800FFF73AFE0D4B01221A7014E0FFF790FF0E
:108EB8000A4B02221A700EE0FFF7A2FF074B0622A8
:108EC8001A7008E0054B07221A7004E0034B0122D0
:108ED8001A7000E000BF00BF08BD00BF1C60002082
:108EE80000B587B0019000910F230593019B002BDB
:108EF80004D0624B00225A600123BBE0009B1B791F
:108F0800032B00F2AB8001A252F823F0258F020058
:108F1800338F0200C18F0200E18F0200009B012203
:108F28001A71FFF79DF905909BE000238DF8133027
:108F38000023ADF810302BE0BDF81020504913463F
:108F48009B0013449B000B441B78022B1BD1BDF8DC
:108F580010204B4913469B0013449B000B440022EE
:108F68001A7001238DF81330BDF8102044491346B8
:108F78009B0013449B000B4404331B681846FFF7FF
:108F880087F9059008E0BDF810300133ADF81030CE
:108F9800BDF81030012BCFD99DF8133083F00103B1
:108FA800DBB2002B5CD0354B01221A70334B002208
:108FB8005A6041F61D535DE0009B00221A71314B47
:108FC80002229A802F4B1B681946002301222E4843
:108FD80001F086FE059044E0009B00221A71294B9F
:108FE8001B681846FFF754F90590284B5B88ADF8C5
:108FF8000E30244B1B680293BDF80E2020491346FF
:109008009B0013449B000B4404331B681D4A1360E8
:10901800BDF80E201A4913469B0013449B000B44CD
:109028000433029A1A60BDF80E20164B988814492A
:1090380013469B0013449B000B44083302461A80D6
:10904800104B02229A80BDF80E200D4913469B0052
:1090580013449B000B4400221A7002E000BF00E09A
:1090680000BF059B002B04D0044B00225A600E233E
:1090780000E00023184607B05DF804FB2C5F0020D1
:10908800EC5F002014600020B85700201C6000200E
:1090980000B587B001900091009B9B8A1A46134641
:1090A8009B0013449B003A4A13440493019B002BF2
:1090B80005D000990498FFF7B5F8012363E0049BF5
:1090C8005A68049B1B899B0013440393009B9B7D58
:1090D800062B4DD801A252F823F000BF27910200B9
:1090E8004B910200339102003F910200019102006E
:1090F8005791020071910200264B00225A60009B92
:109108009B69244A136024492248FFF7C1F90346A2
:1091180083F00103DBB2002B01D00A2333E003996B
:109128000098FFF7EDFB059025E003990098FFF7FD
:1091380005FC05901FE003990098FFF7C9FC05900E
:1091480019E003990098FFF71FFC059013E0009BB6
:1091580006229A750F4B5A680F4B1B881946104602
:10916800FFF738FC059006E041F61D53059302E031
:109178000F23059300BF059B002B03D0009904988B
:10918800FFF750F8059B184607B05DF804FB00BFD1
:10919800EC5F0020346000204060002000B585B0FE
:1091A80001900091019B002B01D0012323E0009B3B
:1091B8001B79012B0BD0022B14D0002B16D1009B4E
:1091C80002221A710098FFF72FFC039012E0009812
:1091D800FFF75AFC0390039B0A2B0AD141F61D5353
:1091E800039306E041F61D53039303E00F23039313
:1091F80000E000BF039B184605B05DF804FB0000C3
:1092080000B585B00190019B002B01D001233BE004
:109218001F4B1B7B002B03D01D4B00221A7301E050
:10922800FFF726FE1A4B1B78013B062B28D801A214
:1092380052F823F0599202006192020069920200EA
:1092480071920200899202007992020081920200D2
:10925800FFF79EFD039016E0FFF756FD039012E01E
:10926800FFF726FD03900EE0FFF7ECFC03900AE001
:10927800FFF766FD039006E0FFF77CFD039002E030
:109288000F23039300BF039B184605B05DF804FB4A
:109298001C60002000B589B001903A4B1B68002B78
:1092A80005D13948FFF7E0F90246364B1A60354BCD
:1092B8001B681B78013B052B2BD801A252F823F021
:1092C800E1920200F1920200F19202000193020081
:1092D80001930200119302002A4B1B68194601985A
:1092E800FFF7FEFD019017E0264B1B681946019811
:1092F800FFF7CEFE01900FE0224B1B68194601983C
:10930800FFF74CFF019007E00198FFF779FF019004
:1093180002E00F23019300BF019B002B2BD003AB6E
:1093280000221A605A609A60DA601A61019B41F65D
:109338001D52934201D0019B00E000230493114B7E
:109348001B6803AA11461846FEF79AFD03AB184698
:10935800FEF778FD0B4B00221A60002301930A48A0
:10936800FFF792F9FFF79EF9034683F00103DBB29A
:10937800002B02D191E700BF00E000BF00BF09B099
:109388005DF804FB446000204860002008B5012116
:10939800054800F097FE0346002B02D10020FFF796
:1093A80079FF00BF08BD00BF345F002000B583B05F
:1093B8000190019B5B681846FFF76CFF00BF03B084
:1093C8005DF804FB00B58BB00390029101928DF813
:1093D80003300023ADF824300023ADF82630514B7C
:1093E8001B78DBB283F00103DBB2002B01D0022330
:1093F80093E0029B002B01D105238EE0029B1B8882
:109408004FF6FF72934203D0029B5B88002B01D179
:10941800042382E0029B5B681846FEF705FD0346BD
:1094280083F00103DBB2002B01D0032375E0019B1D
:10943800002B11D1029B9B68ADF826300DF11A0262
:10944800BDF8263011461846FEF736FF0890089BEF
:10945800002B09D0089B60E0019B1B88ADF81A30EF
:10946800019B5B88ADF8263005AB1846FFF7D8F8A6
:109478000790079B002B09D1BDF81A20BDF82630AC
:1094880011461846FEF780FF082346E0079B9DF823
:1094980003201A70079B00229A75BDF81A20079BB3
:1094A8009A82029B5A68079B1A61FEF795FF02464B
:1094B800079BDA60029B1A88079B1A81029B5A88CD
:1094C800079B9A80079BBDF82620DA809DF8033019
:1094D800032B06D1079B04229A75039B1A68079BE6
:1094E8009A61079BBDF824205A8105AB1846FFF7FF
:1094F800ADF8039B002B0DD0039B00225A60079BFD
:10950800DA68039B1A60039B00229A72064B1A8939
:10951800039B1A81FFF73AFF002318460BB05DF84A
:1095280004FB00BF2C5F00201C60002000B585B044
:1095380001900C4B1B68042B02D10C2303930BE006
:10954800084B1B680849019A41F823200121054866
:1095580000F0D0FD00230393039B184605B05DF887
:1095680004FB00BF385F00203C5F002084B04FF050
:1095780010235B6903934FF080531B6902934FF0EC
:1095880080535B690193039BB3F1FF3F04D1019BB7
:10959800029A02FB03F300E0039B184604B07047ED
:1095A80000B583B04FF440530193FFF7DFFF024645
:1095B800054B1A61044B1A69019BD31A024AD360FE
:1095C80000BF03B05DF804FBB857002008B5FFF7EB
:1095D800E7FF00220349044801F058FA03461846F9
:1095E80008BD00BFBCCF0300B857002008B5044829
:1095F8001C238C22034900F094FB00BF08BD00BF68
:10960800DC5F0020505F002000B58BB002AB002269
:109618001A605A609A60DA601A61404B1B78DBB2B4
:10962800002B05D002AB1846FEF70CFC002371E0B6
:109638003B4800F08FFD0346002B01D0002369E072
:10964800FFF7C4FF0990099B002B01D0099B61E03B
:10965800FFF7CCFFFFF736F803468DF823309DF867
:109668002330022B0DD0062B0DD0002B09D000BFC4
:1096780001AB1846FEF7D4FF0790079B002B10D1CB
:109688000DE00B2346E0254B01221A70234B0022E4
:109698005A6002AB1846FEF7D5FB00233AE00823D0
:1096A80038E0079B01221A709DF82330013B0A2BF2
:1096B80028D801A252F823F0ED9602000D97020077
:1096C800ED9602000D970200059702000D97020023
:1096D800059702000D970200F5960200FD9602001C
:1096E800F5960200079B00221A710CE0079B0322E3
:1096F8001A7108E0079B02221A7104E0079B0122F5
:109708001A7100E000BF01AB1846FEF79FFFFFF794
:109718003DFE002318460BB05DF804FB2C5F0020CB
:10972800305F002000B585B001900091019B002BAF
:1097380002D0009B002B01D1052329E00DF10A037B
:1097480019460198FEF7A4FE0346002B1FD0019B83
:109758005B680393BDF80A301A4613469B0013440E
:109768009B0008330C4A134404330121184600F0C7
:10977800C1FC009B039A1A60019B5B6803F10C0211
:10978800009B5A60019B01229A72002300E00A2381
:10979800184605B05DF804FBEC5F002000B585B005
:1097A8000190019B002B01D1052339E00DF10A033B
:1097B80019460198FEF76CFE0346002B2DD0BDF824
:1097C8000A301946184A0B469B000B449B00134469
:1097D8000C331B68002B1DD0019B9B7A002B19D0E2
:1097E800BDF80A301A46104913469B0013449B00E3
:1097F8000B440C331B68591E0B4813469B0013443B
:109808009B0003440C331960019B00229A720023C9
:10981800039304E00623039301E00A230393039BC5
:10982800184605B05DF804FBEC5F002000B583B076
:10983800019000910223002200990198FFF7C2FDD0
:109848000346184603B05DF804FB00B583B00190E9
:109858000091019B002B01D1052306E00323002280
:1098680000990198FFF7AEFD0346184603B05DF86E
:1098780004FB000000B585B00346ADF80630184B70
:109888001B78DBB283F00103DBB2002B01D002238B
:1098980022E0BDF806304FF6FF72934201D104234F
:1098A8001AE002AB1846FEF7BBFE0390039B002BA1
:1098B80001D1082310E0039B05221A70039B0122A3
:1098C8001A71039BBDF80620DA8002AB1846FEF732
:1098D800BDFEFFF75BFD0023184605B05DF804FBED
:1098E8002C5F002000B583B0144B1B78DBB283F0EB
:1098F8000103DBB2002B01D002231AE06B461846A5
:10990800FEF78EFE0190019B002B01D1082310E089
:10991800019B06221A706B461846FEF797FE084B05
:109928001B78002B02D0064B01221A73FFF72EFD7D
:109938000023184603B05DF804FB00BF2C5F00202D
:109948001C60002000B585B0029201930346ADF873
:109958000E300B46ADF80C3003A90DF10E00019B3B
:10996800029AFEF7EFFD0346184605B05DF804FBC2
:1099780000B585B0034602910192ADF80E300DF1A5
:109988000E01019B029A0020FEF7DCFD03461846F3
:1099980005B05DF804FB00B585B00346029101925D
:1099A800ADF80E300DF10E00019B029A0021FEF772
:1099B800C9FD0346184605B05DF804FB82B0019066
:1099C8000091019B002B02D0009B002B01D10523A5
:1099D80004E0019B1A68009B1A600023184602B035
:1099E800704700001EF0040F1CBFEFF309800AE067
:1099F800EFF308800549064A884201D8904202D808
:109A08008D464FF00000034B18470000000001206E
:109A180000F800205D9A020000BF00BFBFF34F8F1F
:109A2800054BDB6803F4E0620349044B1343CB6046
:109A3800BFF34F8F00BFFDE700ED00E00400FA051B
:109A480000B583B00190FFF7E9FF00BF03B05DF8F0
:109A580004FB000010B588B00390FDF73BFC00BF85
:109A6800FDF7FAF90346002BFAD1039B0693544BF2
:109A78009B6A0593069B002B35D0524A524BD31A4A
:109A8800DB081B0443F00100069B9B691A464F49FB
:109A9800FDF780F94B4A4C4BD31ADB081B0443F003
:109AA8000100069B1968069B5C68069B9B68069AE2
:109AB800D2680192009323460A464549FDF7A5F965
:109AC800404A414BD31ADB081B0443F00100069BB4
:109AD8001A69069B5969069BDB6900930B463D4949
:109AE800FDF77DF90AE0374A374BD31ADB081B0428
:109AF80043F0010338491846FDF73EF9304BDB6A5D
:109B080003F00203002B0AD02E4A2F4BD31ADB088E
:109B18001B0443F0010331491846FDF72DF90023D2
:109B2800079320E00122079B02FA03F31A46059BDC
:109B38001340002B14D02A4A079B52F82330002BDD
:109B48000ED0204A204BD31ADB081B0443F0010037
:109B5800234A079B52F823301A462249FDF71AF97F
:109B6800079B01330793079B192BDBD9059B03F050
:109B78008003002B0CD0134A134BD31ADB081B04A9
:109B880043F001000E4B5B6B1A461749FDF702F9CB
:109B9800059B03F40043002B0CD00A4A0A4BD31A46
:109BA800DB081B0443F00100054B9B6B1A460F4969
:109BB800FDF7F0F80398FFF743FF00BF08B010BDAA
:109BC80000ED00E0ACC503006CC50300A4C70300AA
:109BD800BCC70300F4C703001CC8030050C8030037
:109BE8002058002094C80300A0C80300C0C8030080
:109BF80086B001900091019B53E8011F8AB2D88971
:109C080002449889824228BF121A1889824202BFE8
:109C1800BFF32F8F002307E0C2EA010243E80120C7
:109C28000028E9D14FF001038DF80F30059002911B
:109C38000492029A009B1A609DF80F30DBB2184616
:109C480006B0704784B00190019951E8013FC3EA1A
:109C5800034341E80132002AF7D10392029300BF7F
:109C680004B0704786B001900091019B53E8021F31
:109C78001FFAA1F2D888824202BFBFF32F8F0023B8
:109C88000DE0D88902449889824228BF121AC1EA95
:109C9800024243E802200028E8D14FF001038DF882
:109CA8000F30059002910492029A009B1A609DF869
:109CB8000F30DBB2184606B0704784B001900199A6
:109CC80051E8023FC3EA234341E80232002AF7D1B0
:109CD8000392029300BF04B0704786B00190019BC5
:109CE80053E8021FDA88B1EB314F4FF0000017BF7D
:109CF80089B242EA024241EA024204E05968B1EB01
:109D0800314F08BF012043E802210029E8D18DF82E
:109D18000F00059104929DF80F30DBB2184606B08B
:109D2800704784B00390029111461A460B46ADF86D
:109D380006301346ADF80430029B002B01D10E23E8
:109D48001FE0BDF80630BDF80420B3FBF2F102FBBA
:109D580001F29B1A9BB2002B01D0092311E0039B4F
:109D6800029A1A60039B00225A60039B00229A60A1
:109D7800039BBDF806209A81039BBDF80420DA8175
:109D88000023184604B0704700B585B001900198CB
:109D9800FFF7A3FF03468DF80F309DF80F30002B17
:109DA80001D0002300E01123184605B05DF804FB3C
:109DB80000B585B001900091009B19460198FFF706
:109DC80017FF0346002B07D0019B1B68009A1288D7
:109DD80013440393039B00E00023184605B05DF885
:109DE80004FB00B583B001900091009B1A88009B8A
:109DF8005B889A4204D10198FFF724FF012300E011
:109E08000023184603B05DF804FB00B585B0019047
:109E18000091009B19460198FFF724FF0346002B89
:109E280007D0019B1B68009A528813440393039B35
:109E380000E00023184605B05DF804FB00B583B0C8
:109E480001900091009B1A88009B5B889A4204D17C
:109E58000198FFF732FF012300E00023184603B002
:109E68005DF804FB00B585B001900091009B5B098B
:109E78009B00019AD018009B03F01F03012202FAED
:109E880003F3194600F0D6F8039000BF05B05DF85B
:109E980004FB00B583B001900091009B5B099B0017
:109EA800019AD018009B03F01F03012202FA03F362
:109EB800194600F0A7F80246009B03F01F0322FA98
:109EC80003F303F00103002B14BF01230023DBB2CB
:109ED800184603B05DF804FB00B585B00190009109
:109EE800009B5B099B00019AD018009B03F01F039D
:109EF800012202FA03F3DB43194600F0CBF8039082
:109F080000BF05B05DF804FB82B001900091009B92
:109F18005B099B00019A13441A68009B03F01F0316
:109F280022FA03F303F00103002B14BF01230023DB
:109F3800DBB2184602B0704700B58BB001900091B3
:109F4800002309933BE0099B9B00019A13441B687B
:109F5800DB430693069B93FAA3F30593059BB3FA99
:109F680083F3089323E0099B5B01089A1344079342
:109F7800079A009B9A421ED207990198FFF789FF1A
:109F8800034683F00103DBB2002B01D0079B1EE0E0
:109F9800099B9B00019A13441B68DB430493049BB1
:109FA80093FAA3F30393039BB3FA83F30893089BF1
:109FB8001F2BD8D900E000BF099B01330993009BF0
:109FC800013B5B090133099A9A42BCD3009B1846AE
:109FD8000BB05DF804FB10B487B001900091019BB1
:109FE800009A53E8004F104643E8000191F0000F33
:109FF800F7D1059404900391059B184607B05DF8C6
:10A00800044B704710B487B001900091019B009AEF
:10A0180053E8004F44EA020043E8000191F0000FC2
:10A02800F6D1059404900391059B184607B05DF896
:10A03800044B704710B487B001900091019B009ABF
:10A0480053E8004F44EA020043E8000191F0000F92
:10A05800F6D1059404900391049B184607B05DF867
:10A06800044B704710B487B001900091019B009A8F
:10A0780053E8004F04EA020043E8000191F0000FA2
:10A08800F6D1059404900391059B184607B05DF836
:10A09800044B704710B487B001900091019B009A5F
:10A0A80053E8004F04EA020043E8000191F0000F72
:10A0B800F6D1059404900391049B184607B05DF807
:10A0C800044B704710B487B001900091019B009A2F
:10A0D80053E8004F04EB020043E8000191F0000F41
:10A0E800F6D1059404900391059B184607B05DF8D6
:10A0F800044B704710B487B001900091019B009AFF
:10A1080053E8004F04EB020043E8000191F0000F10
:10A11800F6D1059404900391049B184607B05DF8A6
:10A12800044B704710B487B001900091019B009ACE
:10A1380053E8004FA4EB020043E8000191F0000F40
:10A14800F6D1059404900391049B184607B05DF876
:10A15800044B704700B583B0019001210198FFF7C7
:10A1680051FF0346184603B05DF804FB00B583B001
:10A17800019001210198FFF75DFF0346184603B0DF
:10A188005DF804FB00B583B0019000210198FFF74A
:10A1980069FF0346184603B05DF804FB82B00190DE
:10A1A8000B468DF80330019BDA689DF8033001995E
:10A1B800098A01FB03F31344184602B0704782B0C2
:10A1C80001900091009B019AD2689B1A019A128A09
:10A1D800B3FBF2F3DBB2184602B0704784B00190CB
:10A1E800019B002B01D10E2321E0019B9B681A469D
:10A1F800019B5B68D31A8DF80F30019B1B68019A8D
:10A2080052681A6007E0019B1A681368591C1160AC
:10A218009DF80F201A709DF80F305A1E8DF80F20E8
:10A22800002BF0D1019B1B6800221A7100231846ED
:10A2380004B0704700B585B0019000230393002354
:10A248008DF80A300DF10A031846FDF7D5FD019B7C
:10A258001B681A68019B5B689A4220D9019B1B689E
:10A268001A68013A1A601B681B7819460198FFF7AB
:10A2780095FF0390019B9B681A46019B1B681B680E
:10A28800D31A8DF80B30019B1B681B799DF80B20A6
:10A298009A4204D9019B1B689DF80B201A719DF8FE
:10A2A8000A301846FDF7B2FD039B184605B05DF865
:10A2B80004FB10B584B001900091009B0393002328
:10A2C8008DF80B300DF10B031846FDF795FD019B3A
:10A2D8001B681C68621C1A6003990198FFF76FFFDE
:10A2E800034623709DF80B301846FDF78FFD00BF1D
:10A2F80004B010BD00B583B00190019B9B68002B92
:10A308000CD0019B5B69019A1069019A1168019A46
:10A3180092689847019B00229A6000E000BF03B052
:10A328005DF804FB0EB400B584B00190059B002BCA
:10A338000AD00023039306AB039303AB1A4605998F
:10A34800019800F0ADF900E000BF04B05DF804EB3F
:10A3580003B0704700B583B001900B468DF8033009
:10A36800019B1A68019B9B68581C019988601344DB
:10A378009DF803201A70019B9A68019B5B689A42BA
:10A3880002D30198FFF7B6FF00BF03B05DF804FBE6
:10A3980000B587B0039002910192009300230593C2
:10A3A800009B03F00103002B24D00BE0029B013338
:10A3B8000293059B013305939DF8133019460398C2
:10A3C800FFF7C8FF029B1B788DF813309DF81330F8
:10A3D800002BEBD106E0019B013B01932021039860
:10A3E800FFF7B8FF019A059B9A422ED9019B002BD3
:10A3F800F1D12AE0029B002B0BD0029812F030F822
:10A40800059006E0019B013B019320210398FFF78B
:10A41800A1FF019A059B9A420FD9019B002BF1D10C
:10A428000BE0029B01330293059B013305939DF8D2
:10A43800133019460398FFF78DFF029B1B788DF8A0
:10A4480013309DF81330002BEBD100BF07B05DF837
:10A4580004FB000000B589B00390029101920093BB
:10A46800029B07930123069307E0079A019BB2FB1F
:10A47800F3F30793069B01330693079A019B9A42CD
:10A48800F3D2009A069B9A4201D9009B06930B9B34
:10A4980003F00103002B22D10A9B002B1FD00B9B3A
:10A4A80003F00203002B06D0009B002B03D13023BE
:10A4B8008DF8173002E020238DF8173008E00A9B4A
:10A4C800013B0A939DF8173019460398FFF742FF9E
:10A4D8000A9B002B03D0069A0A9B9A42EFD30123CA
:10A4E8000793009B012B03D9009B013B009309E0D4
:10A4F800029A079BB2FBF3F30493049A019B9A42D6
:10A5080000D205E0079B019A02FB03F30793E8E7F3
:10A51800029A079BB2FBF3F30493049B079A02FB8E
:10A5280003F3029AD31A0293154A049B13441B7827
:10A5380019460398FFF70EFF079A019BB2FBF3F346
:10A548000793079B002BE3D10B9B03F00103002B20
:10A5580011D00A9B002B0ED006E00A9B013B0A9300
:10A5680020210398FFF7F6FE0A9B002B03D0069ADA
:10A578000A9B9A42F1D300BF09B05DF804FB00BF03
:10A58800B0CD030000B589B0059004910392029301
:10A59800049B002BB8BF5B4206930123079307E097
:10A5A800039B069A92FBF3F30693079B01330793E9
:10A5B800039B069A9A42F3DA029A079B9A4201D9B8
:10A5C800029B07930A9B002B0AD0049B002B04DBF9
:10A5D8000B9B03F00403002B02D00A9B013B0A9358
:10A5E8000B9B03F00203002B02D0029B002B16D01A
:10A5F8000B9B03F00103002B11D10A9B002B0ED0FB
:10A6080006E00A9B013B0A9320210598FFF7A2FE6A
:10A618000A9B002B03D0079A0A9B9A42F1D3049B0A
:10A62800002B07DA049B5B4204932D210598FFF762
:10A6380091FE08E00B9B03F00403002B03D02B21B1
:10A648000598FFF787FE0B9B03F00203002B19D038
:10A658000B9B03F00103002B14D1029B002B11D19B
:10A668000A9B002B0ED006E00A9B013B0A9330217F
:10A678000598FFF76FFE0A9B002B03D0079A0A9BE9
:10A688009A42F1D304990B9B01930A9B0093029B76
:10A69800039A0598FFF7DEFE00BF09B05DF804FBDA
:10A6A80000B58FB0059004910392049B002B00F035
:10A6B800E981049B1B788DF83730049B01330493A0
:10A6C8009DF83730002B00F0D4819DF83730252BCA
:10A6D80040F0C38100230A9301230C93049B1B7849
:10A6E8008DF837309DF837302D2B04D0302B0AD019
:10A6F8002B2B10D017E00A9B43F001030A93049B0D
:10A708000133049312E00A9B43F002030A93049B6B
:10A71800013304930AE00A9B43F004030A93049B61
:10A728000133049302E000230C9300BF0C9B002B21
:10A73800D4D1002309939DF837302A2B0CD1039BE1
:10A748001B68191D039A11601B68099A1344099321
:10A75800049B013304931AE0049B1B788DF837306F
:10A768009DF837302F2B12D99DF83730392B0ED85A
:10A77800049B01330493099A13469B0013445B001E
:10A788001A469DF837301344303B0993D3E700232A
:10A798000B93049B1B788DF837309DF837302E2BA0
:10A7A8001DD1049B01330493049B1B788DF837302B
:10A7B8009DF837302F2B12D99DF83730392B0ED80A
:10A7C800049B013304930B9A13469B0013445B00CC
:10A7D8001A469DF837301344303B0B93E4E7049B4B
:10A7E8001B788DF837309DF837306C2B03D09DF8E7
:10A7F8003730682B07D1049B01330493049B1B78E3
:10A808008DF83730EFE79DF83730253B532B00F2B2
:10A818001F8101A252F823F04FAA020059AA020090
:10A8280059AA020059AA020059AA020059AA02000C
:10A8380059AA020059AA020059AA020059AA0200FC
:10A8480059AA020059AA020059AA020059AA0200EC
:10A8580059AA020059AA020059AA020059AA0200DC
:10A8680059AA020059AA020059AA020059AA0200CC
:10A8780059AA020059AA020059AA020059AA0200BC
:10A8880059AA020059AA020059AA020059AA0200AC
:10A8980059AA020059AA020059AA020059AA02009C
:10A8A80059AA020059AA020059AA020059AA02008C
:10A8B80059AA020059AA020059AA020059AA02007C
:10A8C80059AA020059AA020059AA020059AA02006C
:10A8D80059AA020059AA020059AA020059AA02005C
:10A8E80059AA0200DBA9020059AA020059AA0200CB
:10A8F80059AA020059AA020059AA020059AA02003C
:10A9080059AA020059AA020059AA020059AA02002B
:10A9180071A9020093A9020059AA020059AA0200CB
:10A9280059AA020059AA020093A9020059AA0200D2
:10A9380059AA020059AA020059AA020059AA0200FB
:10A9480059AA02001BAA020059AA020059AA020029
:10A95800FFA9020059AA0200B7A9020059AA0200D9
:10A9680059AA0200DBA90200039B1B68191D039A60
:10A9780011601B680C930C9B8DF81F309DF81F30DD
:10A9880019460598FFF7E6FC63E0039B1B68191D51
:10A99800039A11601B680C930A9B0193099B00930F
:10A9A8000B9B0A220C990598FFF7ECFD51E0039BDD
:10A9B8001B68191D039A11601B680C930C990A9B5C
:10A9C8000193099B00930B9B0A220598FFF742FD10
:10A9D8003FE0039B1B68191D039A11601B680C93C9
:10A9E8000C990A9B0193099B00930B9B10220598D5
:10A9F800FFF730FD2DE0039B1B68191D039A1160BA
:10AA08001B6808930A9B099A08990598FFF7C0FCE8
:10AA18001FE0039B1B68191D039A11601B680C93A8
:10AA280030210598FFF796FC78210598FFF792FCEE
:10AA38000C990023019308230093082310220598FA
:10AA4800FFF708FD05E025210598FFF783FC00E0E6
:10AA580000BF049B0133049305E09DF83730194685
:10AA68000598FFF777FC049B1B78002B7FF421AE39
:10AA780000E000BF059B1B7B002B04D00598FFF767
:10AA880039FC00E000BF0FB05DF804FB00B587B0EB
:10AA9800059004910392059B002B10D1194A1A4B7B
:10AAA800D31ADB081B0443F00100184A18490E2387
:10AAB80000930B461749FCF792F90E231DE0049BFF
:10AAC800002B10D10F4A104BD31ADB081B0443F09C
:10AAD8000100114A0E490E2300930B460D49FCF75D
:10AAE8007EF90E2309E0059B049A1A60059B1B68F2
:10AAF8001B680399059898470346184607B05DF800
:10AB080004FB00BFBCC503006CC50300D0CD030027
:10AB180074CF0300D8CD030004CE030010B586B06F
:10AB28000590049103920293059B002B10D1604A73
:10AB3800604BD31ADB081B0443F001005E4A5F49EF
:10AB48000E2300930B465E49FCF749F90E23ABE050
:10AB5800039B002B10D1564A564BD31ADB081B0413
:10AB680043F00100574A55490E2300930B465449B8
:10AB7800FCF735F90E2397E0059B1B68002B10D1D5
:10AB88004B4A4C4BD31ADB081B0443F001004E4AD6
:10AB98004A49082300930B464949FCF720F9082342
:10ABA80082E0029B002B10D1414A424BD31ADB08AA
:10ABB8001B0443F00100454A4049092300930B4612
:10ABC8003F49FCF70CF909236EE0059B5B685A685E
:10ABD800029BB3FBF2F102FB01F29B1A002B10D08F
:10ABE800334A344BD31ADB081B0443F00100384ABC
:10ABF8003249092300930B463149FCF7F0F8092341
:10AC080052E0049800F01EF90346002B10D1284AA0
:10AC1800284BD31ADB081B0443F001002D4A2749AF
:10AC2800102300930B462649FCF7D9F810233BE084
:10AC3800039B184600F006F90346002B10D11C4A66
:10AC48001C4BD31ADB081B0443F00100224A1B49A2
:10AC5800102300930B461A49FCF7C1F8102323E090
:10AC6800029A0499059800F0D3F80346002B10D1F6
:10AC78000F4A104BD31ADB081B0443F00100174A94
:10AC88000E49102300930B460D49FCF7A8F8102332
:10AC98000AE0059B1B68DC68089B0093029B039AEB
:10ACA80004990598A0470346184606B010BD00BF92
:10ACB800BCC503006CC50300D0CD030088CF0300DA
:10ACC800D8CD030064CE03000CCE030020CE0300D1
:10ACD8006CCE030098CE0300B0CE0300D4CE0300A0
:10ACE80010B586B00590049103920293059B002B42
:10ACF80010D13E4A3E4BD31ADB081B0443F0010037
:10AD08003C4A3D490E2300930B463C49FCF767F843
:10AD18000E2368E0059B1B68002B10D1334A344B87
:10AD2800D31ADB081B0443F00100354A32490823D3
:10AD380000930B463149FCF752F8082353E0039B74
:10AD4800002B10D1294A2A4BD31ADB081B0443F0E5
:10AD580001002C4A2849092300930B462749FCF790
:10AD68003EF809233FE00499059800F078F8034677
:10AD7800002B10D11D4A1E4BD31ADB081B0443F0CD
:10AD88000100214A1C49102300930B461B49FCF77C
:10AD980026F8102327E0059B5B681B68039A02FBD3
:10ADA80003F31A460499059800F032F80346002B7D
:10ADB80010D10E4A0E4BD31ADB081B0443F00100D6
:10ADC800124A0D49102300930B460C49FCF707F86B
:10ADD800102308E0059B1B681C69029B039A0499D1
:10ADE8000598A0470346184606B010BDBCC5030029
:10ADF8006CC50300D0CD03009CCF0300D8CD030061
:10AE08000CCE030020CE0300FCCE030024CF0300A9
:10AE180084B0039002910192039BDB68029A9A42E4
:10AE280009D3029A019B13445A1E039B1B699A4239
:10AE380001D8012300E0002303F00103DBB2184628
:10AE480004B0704782B00190019B03F00303002B0C
:10AE58000CBF01230023DBB2184602B0704782B052
:10AE680001900091019B5B681B685A1E009B134070
:10AE7800002B0CBF01230023DBB2184602B0704739
:10AE880029DF704700BF184628DF704700BF184603
:10AE980000B589B001900091019B1B689B68002B4D
:10AEA80035D002AB00221A605A609A60DA601A61E3
:10AEB8005A61009B0393019B9B680793019B1B7935
:10AEC800002B02D0012B0DD01AE001238DF8083099
:10AED800019B1B690493019BDB680593019B5B69DC
:10AEE80006930DE002238DF80830019BDB684FF4D0
:10AEF800805202FB03F30493019B5B69069300BF36
:10AF0800019B1B689B6802AA1046984700E000BF97
:10AF180009B05DF804FB00B587B00190019B5A6940
:10AF2800019B9B69D31AB3F5805F28BF4FF4805308
:10AF380005930422059BB3FBF2F3012B38BF0123D1
:10AF48000593019B1A69019B9B6913440493019B18
:10AF5800DB681A46019B9B6913440393059A03997E
:10AF68000498FFF78DFF0346184607B05DF804FB09
:10AF780000B583B00190019BDA68019B1B691344FB
:10AF88001846FFF781FF0346184603B05DF804FB37
:10AF980008B5034B03491846FEF750FF00BF08BD2C
:10AFA800D86000200061002008B5084B0849184601
:10AFB800FEF72BFF0246074B1A60064B1B68002B57
:10AFC80014BF01230023DBB2184608BDD860002057
:10AFD80000610020FC60002000B583B02A4B1B7A7A
:10AFE800002B0BD1FFF7E0FF034683F00103DBB230
:10AFF800002B03D0244B00225A6042E0224B02224D
:10B008001A72224B1B681B79002B02D0012B07D028
:10B018000DE01E4B1B681846FFF77DFF019009E005
:10B028001A4B1B681846FFF7A3FF019002E00323A1
:10B03800019300BF019B002B02D0112B0CD00FE015
:10B04800114B1B7C83F00103DBB2002B18D00021CD
:10B05800022000F061F913E00B4B01221A7210E094
:10B068000A4B1B6803211846FFF712FF064B002204
:10B078001A72054B00225A60FFF78AFF00BF00E0F2
:10B0880000BF03B05DF804FBE8600020FC6000200E
:10B0980008B50848FFF75EF80346002B08D1064BB1
:10B0A8005B7C83F00103DBB2002B01D0FFF794FF38
:10B0B80000BF08BDEC600020E860002084B001906B
:10B0C8001B4B0022DA60019B1B79002B02D0012B5D
:10B0D80019D028E0019B5A69019B9B69D31AB3F5E3
:10B0E800805F28BF4FF480530393019B9A69039BA9
:10B0F8001A44019B9A61019B9A69019B5B699A4278
:10B108000ED1012310E0019B1B695A1C019B1A6197
:10B11800019B1A69019B5B699A4203D1012303E0F1
:10B1280000BF00E000BF0023184604B0704700BF0E
:10B13800E860002082B00190084BDB680133074AC1
:10B14800D360064BDB68082B04D9044B0022DA6075
:10B15800012300E00023184602B07047E860002091
:10B1680000B583B001900091019B0C4A5A600C48CD
:10B17800FEF7F0FF0346002B0BD110F05FFE0346ED
:10B188001A46074B1A7407481C238C220649FEF7F7
:10B19800C8FD0023184603B05DF804FBB0CF0300D8
:10B1A800E8600020D86000204C60002000B583B023
:10B1B8000190009114220021054811F01EF9054B59
:10B1C8001846FEF7E1FD0023184603B05DF804FBBE
:10B1D800E8600020D860002000B587B00390029195
:10B1E80001920093174A04AB19461046FEF7E0FD9A
:10B1F8000590059B002B01D104231FE01C22002190
:10B20800059811F0FAF8059B00221A71059B039A1C
:10B218001A60059B089A9A60059B029A1A61059B19
:10B22800019ADA60059B009A5A61064A04AB1946EE
:10B238001046FEF7D6FDFFF72BFF0023184607B090
:10B248005DF804FBD860002000B585B0039002913A
:10B2580001920093029B009A1946019811F0A4F8F4
:10B268000023184605B05DF804FB000000B587B060
:10B278000390029101920093184A04AB19461046B4
:10B28800FEF796FD0590059B002B01D1042320E0D5
:10B298001C220021059811F0B0F8059B01221A71B3
:10B2A800059B039A1A60059B009A9A604FF4805296
:10B2B800029BB3FBF2F2059BDA60059B019A5A6187
:10B2C800064A04AB19461046FEF78BFDFFF7E0FE71
:10B2D8000023184607B05DF804FB00BFD8600020C3
:10B2E80082B001900091009B184602B0704782B06E
:10B2F800019000910023184602B0704782B0019077
:10B30800044B1B7A002B14BF01230023DBB2184621
:10B3180002B07047E860002000B585B00190009148
:10B32800019B022B02D0019B032B49D1274B1B7A8F
:10B33800012B35D0022B02D0002B43D033E0002361
:10B348008DF80F30019B022B02D0032B09D011E09E
:10B358001F4B1B681846FFF7B1FE03468DF80F30E8
:10B3680008E01B4B1B681846FFF7E4FE03468DF800
:10B378000F3000BF9DF80F30002B13D0134B002265
:10B388001A72134B1A68019B022B01D1002300E0AB
:10B398000D2319461046FFF77BFDFFF7F9FD01E085
:10B3A80000BF00E000BF094B5B7C83F00103DBB208
:10B3B800002B02D0FFF710FE05E010F023FD02E09D
:10B3C80000BF00E000BF05B05DF804FBE8600020A6
:10B3D800FC60002082B0034600918DF80730064BD0
:10B3E80001225A74044B1B7A002B0CBF0123002343
:10B3F800DBB2184602B07047E860002000B583B0A1
:10B40800034600918DF807309DF80730012B03D0D3
:10B418009DF80730032B0DD1084B00225A749DF874
:10B428000730012B0CBF01230023DAB2034B1A7437
:10B43800FFF7D2FD00BF03B05DF804FBE860002011
:10B4480000B583B001900198FEF7C8FE0346184680
:10B4580003B05DF804FB00B58BB001900091019B2F
:10B468001B8A043B0793009A079B1344DA1C079B2B
:10B47800B2FBF3F38DF81B300198FEF7DBFE059065
:10B48800059B002B01D1002338E0059B00221A718F
:10B49800059B01225A71079B9AB2059BDA80059B8E
:10B4A80009939DF81B30013B0493099B019A1A608C
:10B4B800002308931DE00198FEF7BCFE0390039B50
:10B4C800002B0ED0059B5B790133DAB2059B5A71CC
:10B4D800099B039A1A60039B019A1A60039B0993BC
:10B4E80004E0059800F00EF8002307E0089B0133FC
:10B4F8000893089A049B9A42DDD3059B18460BB023
:10B508005DF804FB00B58BB00190019B0793079B86
:10B518005B798DF81B30019B08939DF81B30013B2C
:10B5280005930023099305E0089B1B680893099B72
:10B5380001330993099A059B9A42F5D3089B1B6826
:10B548000493019B0893002309930BE0089B1B6855
:10B55800039308990498FEF7ACFE039B0893099B94
:10B56800013309939DF81B30099A9A42EED300BF24
:10B578000BB05DF804FB00B585B00190019B039307
:10B58800039B043301211846FEF7B4FD00BF05B044
:10B598005DF804FB00B587B00190019B0593059BFE
:10B5A800043301211846FEF7BDFD0346039303ABA0
:10B5B8000493049B1B78002B02D10198FFF7A2FF8C
:10B5C80000BF07B05DF804FB00B591B0039002918D
:10B5D80001920093039B0993039B0F93099BDB88BC
:10B5E8001A46099B5B7903FB02F3043B0893099B0A
:10B5F800DB880793009B1A1D079BB2FBF3F30E939E
:10B60800009B0433079AB3FBF2F2079901FB02F29D
:10B618009B1A0D93019B1A68009B1344089A9A423F
:10B6280003D2089A009BD31A01E0019B1B680C9374
:10B63800019B0C9A1A6005E00F9B1B680F930E9BE9
:10B64800013B0E930E9B002BF6D100230B93079A18
:10B658000D9BD31A0A930A9A0C9B934228BF134650
:10B668000A932AE0029A0B9B134406930F9A0D9BA8
:10B678001344043305939DF84830002B05D00A9AEB
:10B688000599069810F090FE04E00A9A0699059824
:10B6980010F08AFE00230D930F9B1B680F930C9AE2
:10B6A8000A9BD31A0C930B9A0A9B13440B93079A81
:10B6B8000C9B934228BF13460A930C9B002BD1D1B5
:10B6C80000BF11B05DF804FB00B589B00590049186
:10B6D80003920293039B079307AA00230093029BFC
:10B6E80004990598FFF770FF00BF09B05DF804FBE7
:10B6F80000B589B00590049103920293039B0793C8
:10B7080007AA01230093029B04990598FFF75CFFA1
:10B7180000BF09B05DF804FB82B00190019B9B68F3
:10B7280000229A60019B9B6800221A61019B9B681A
:10B7380000225A61019B9B680022DA60019B9B688A
:10B7480000225A60019B9B6800221A6000BF02B069
:10B75800704782B001900091019B009A1A60019B8A
:10B768001B681A68019B5A60019B5A68019B1B68F9
:10B778005B689A4202D1019B00225A6000BF02B066
:10B78800704782B00190019B5B68002B14D0019B2D
:10B798005B681A46019B1B689B6813441A46019B09
:10B7A8005A60019B5A68019B1B685B689A4204D1E6
:10B7B800019B00225A6000E000BF02B07047000001
:10B7C80000B585B00190019800F00EF80390039B36
:10B7D800002B01D0039B00E0024B184605B05DF832
:10B7E80004FB00BFDCCF030086B00190164B059325
:10B7F800164B04931FE0049A059BD31ADB10DA0F4B
:10B8080013445B10DB00059A13440393039B1B68E6
:10B818000293029A019B9A4202D9039B04930AE07D
:10B82800029A019B9A4203D2039B0833059302E0D4
:10B83800039B5B6804E0059A049B9A42DBD30023D0
:10B84800184606B0704700BFDCD3030004D50300D8
:10B8580082B001900091009B1B7B002B07D0009BBE
:10B868005A68019B1A60019B00221A7106E0009B2E
:10B878001A68019B1A60019B01221A7100BF02B06D
:10B88800704700B583B001900091019B1B79002B94
:10B8980004D00099019800F00BF803E00099019892
:10B8A80000F024F8019B1B68184603B05DF804FB00
:10B8B80082B001900091009B5A68019B1B68D21AC4
:10B8C800009B9B689A4207D9019B1A68009B9B685A
:10B8D8001A44019B1A6006E0009B5A68019B1A6093
:10B8E800019B00221A7100BF02B0704782B001901C
:10B8F8000091019B1A68009B1B68D21A009B9B68E9
:10B908009A4207D9019B1A68009B9B68D21A019B2F
:10B918001A6006E0009B1A68019B1A60019B0122CD
:10B928001A7100BF02B07047024B034A1A6000BF89
:10B93800704700BF885800200090D00308B500F079
:10B948002DF90346002B06D0834B1B681B0A834A3C
:10B9580003F01F03136000F04DF90346002B02D0DB
:10B968007F4B804A1A6000F061F90346002B06D02D
:10B978007D4B1B685B0B7D4A03F00703136000F0E7
:10B9880081F90346002B05D0794BDB68784A23F010
:10B998008073D36000F092F90346002B0ED04FF06D
:10B9A80080430022C3F80C214FF080430022C3F8E3
:10B9B80010214FF080430022C3F8382500F0AAF97F
:10B9C8000346002B02D06B4B03221A6000F0BEF92D
:10B9D8000346002B0BD0684B05221A60674B0122E7
:10B9E8001A60674B00221A60664B3F221A6000F00B
:10B9F800C9F90346002B76D04FF08053624AD3F83A
:10BA08000434C2F820354FF080535F4AD3F8083425
:10BA1800C2F824354FF080535B4AD3F80C34C2F88F
:10BA280028354FF08053584AD3F81034C2F82C35D3
:10BA38004FF08053544AD3F81434C2F830354FF0DD
:10BA48008053514AD3F81834C2F834354FF0805334
:10BA58004D4AD3F81C34C2F840354FF080534A4A57
:10BA6800D3F82034C2F844354FF08053464AD3F80F
:10BA78002434C2F848354FF08053434AD3F8283469
:10BA8800C2F84C354FF080533F4AD3F82C34C2F8F3
:10BA980050354FF080533C4AD3F83034C2F854350F
:10BAA8004FF08053384AD3F83434C2F860354FF039
:10BAB8008053354AD3F83834C2F864354FF0805390
:10BAC800314AD3F83C34C2F868354FF080532E4AD7
